:100000000C9438300C94A1300C94A1300C94A13095
:100010000C94A1300C94A1300C94A1300C94A1301C
:100020000C9419360C94A1300C94A1300C94A1308E
:100030000C94A1300C94E5330C9425340C94A1302D
:100040000C94A1300C94A1300C94A1300C94A130EC
:100050000C94A1300C94A1300C94A1300C94A130DC
:100060000C94A1300C94A1300C94A1300C94A130CC
:10007000EA57F957ED57F957F057F957F357F9572A
:10008000F657F9578100450027FF24FF2A902B1CC3
:10009000210C22FB850084008903888D81096F0271
:1000A000444247004501B083B300B10125118A4F96
:1000B0008B035A55012001010038080000000000A0
:1000C0000000000000000000000000000000000030
:1000D0000000C237C537213825382C38CD37D23704
:1000E000D7373438DA37DD37E0371B381E38443835
:1000F00000408891D2E4ADB5B6BEBFFF0503001342
:100100001415161718191A1B1C1D1E1F00050400B4
:100110000102030405060708090A0B0C0D000E0F67
:10012000101112000000000000000000000000009C
:1001300000000000000000000000000000000000BF
:1001400000000000000000000000000000000000AF
:10015000000000000000000000000000000000009F
:10016000000000000000000000000000000000008F
:10017000000000000000000000000000000000007F
:10018000000049000000000049525200000049529E
:10019000531C25004952522425251B52525C2D2DFB
:1001A0001C121200000000000000000000000040CF
:1001B00049494900404949525B5B5B4A52525B1CCA
:1001C0001C13125B1C241C12090909241B120909A7
:1001D00009090A0A0A0A0A0A0A0A130A0A120A0A70
:1001E00012130A0000000000000000925252525206
:1001F00052524913121309001C1B130A1212401BFE
:1002000065641C090A0009241B1C65120000251CDA
:100210001C1C1C010025241C1C1C1C00242524243F
:10022000241C1C00000000000000004940000000E9
:1002300000000052494900000000001C5B4A4800D1
:100240000000001C2552490000000065246449009C
:1002500000000065256449000000006D2E5C490027
:1002600000000000000000000040520000000000FC
:1002700049525C00000000535224250000005352F4
:1002800025252500004A5225251B0000005B25136B
:1002900000001B005B53000A1C3737095B1C657F9D
:1002A000372E2E522E2E1C131312002E251B131226
:1002B0000000121C1C12000012251C120000122E3D
:1002C000371C1300132E37361C131B37372E2E25E1
:1002D000131C1C2E2E2E2E1B1C1C1C6E6E6E1C1C2A
:1002E0001C1C1C09131312121313001313131313E2
:1002F0001C0009131313131C0100371313131C13D1
:10030000002E2E1B1B1C1C001C772E1B1B250013F4
:100310007F251C1C1C010A37241C1C1C130A2E25BB
:10032000250900132E2425252525252E25252525BF
:1003300025252525252D2E251B1C1C2E2E251C1381
:10034000251B13251C1C1C1C0109521C1C1300011D
:100350001C5B5C0A000165775C1B00016E7F6E52BE
:100360001B00006D1C5249000000001C13530000CC
:100370000000001C524A00000000005B5B0000000F
:100380000000005C00000000000000000000000011
:10039000000000000000000000000000000000005D
:1003A000000000135B7F776E6E6E6E136577766E5E
:1003B0006E6E6E1B65777676766E771B5BBF76B654
:1003C00076767609136DBFB7B6B765001B125C76FB
:1003D000BF766D0000121B125B5B5C000000000921
:1003E0000A12136E77241C1C1C1C1C77251C1C1C59
:1003F0001C24256E1C1C1C2425251B1C1C242525A7
:10040000130000646D6D1B00096EBF6D5B09126EF9
:10041000BF6D5B5B125B645B121312131B1212093C
:100420000100001C242E1C0900096E25240100096E
:10043000767F7F000012777F7F641264BFBF775B97
:10044000121B09BF6D5B121B09000012131B090070
:100450000000000900000000000000000000000093
:100460000000007F7F53131300000064121B010083
:100470000000001B1200000000000000000000004F
:10048000000000000000000000000000000000006C
:10049000000000000000000000000000000000005C
:1004A0000000000000000000000000260000002600
:1004B0000026262F0000002F000000370000003724
:1004C000000000FF000000FF000000BF000000BFB0
:1004D0000000BF370000370000370000262600006C
:1004E0000026260000000000000000262626002628
:1004F00026262600002F002F0000000037000037BE
:10050000000000FF000000FFFFFFFF00000000BF31
:10051000000000000000003700000026262600260C
:1005200026262600000000000000002600262626C1
:1005300026000000002F0000002F00000037000000
:100540000037000000FFFFFFFF00000000BF0000B9
:1005500000BF0000003700000037002600262626D6
:1005600026000000000000000000000000262626F3
:10057000002600002F00002F002F0037000000375A
:10058000000037FF000000FF000000BF000000BFB8
:100590000000BF3700003700003700262626000085
:1005A00000260000000000000000000000260000FF
:1005B00000000000002F00000000000037000000D5
:1005C000000000FF0000000000000000BF0000006D
:1005D00000000000003700000000000000260000BE
:1005E000000000000000000000000000000000000B
:1005F00000000000000000000000000000000000FB
:100600000000E400000000099BEDF60000009BA440
:10061000ADBFBF00529BA4767F7FB75B9B6D777F9A
:10062000766EB70000000000000000000000005BD4
:10063000B6F6F6005BF6FFFFFFFFBFF6FFFFFFFF1A
:10064000BFBFAEFFBFFFFFFFB7AD65BFBFFFFFB7C7
:10065000B6AD65B7BFFFFFBFB7AE6EB7BFFFFFBF99
:10066000B7B7650000000000000000F6F6EDEDAD44
:10067000A4A49BB66D6D5C526E656465656552653C
:10068000766D255C5C52536E24656E6552526E2504
:100690002524255B52772D25252524526E6E2D2588
:1006A00025252500000000000000009B49000000F7
:1006B000000000A49B920000000000256493490004
:1006C000000000652E9B52000000006D2565520061
:1006D0000000006D2D6552000000006E2E64520077
:1006E000000000000000000000495B000000000066
:1006F0004A5B65000000005B9B6D2D0000005B5BAA
:100700002D2E250000525B2E2E1C0900015B2D1C96
:1007100001091C005C5B014A65777F4A5B1C6E7FA8
:100720007777769B77776D656E6EA4776E65656576
:100730005BA4B725255C52526DBFBF130949647F86
:10074000BFBFBF095C7F7FBFBFB7BF7F7F777F7FA2
:10075000B7BFBF77777F7F6EB7BFBF777F7F6E777B
:10076000BFBFBFB6FFFFFFBFBFB75BBFFFFFFFBF8E
:10077000BFA464BFFFFFFFBFADA47FBFFFFFFFBFEC
:10078000A4BF7FFFFFFFBFADBFBFBFFFFFFFB6BF6F
:10079000BFBF77FFFFF7BFBFBF7777FFFFFFBFBFC9
:1007A000BF64526D7F6E2E2D2D256E7F766E6E6E20
:1007B0002E2565777777762E1C25247F776E251C6E
:1007C000251C1B776525251C090A5B6E6E1C0949D3
:1007D0002564645B494A6E7F645C005377BF775B36
:1007E0005C00006E255B4A000000001C1B5B0000E3
:1007F000000000245B5300000000005B5C00000070
:100800000000006400000000000000000000000084
:1008100000000000000000000000000000000000D8
:100820000000005B5C7FBF777677775C6D7FB77782
:100830007777775C6D7FBF777777BF5C64BFBFBF2B
:10084000BFBF7F0A5C6EBFBFBFBF760065646DBF70
:10085000BFBFBF00005B6D646DADB600000000124D
:100860005B646D777F6E6E77BFBFBF7F766D767787
:10087000BFBFBF776D6E767FBFBFBF6D6E767FBF28
:10088000B7ADF676BFBF76A4ADFFFFBFB664ADFFD0
:10089000FFFFFFB6ADBFFFFFFFFFF6ADB6AD645B78
:1008A000520000FFFFBFBFAD5B64BFFFFFB6ADAD41
:1008B000BFFFBFFFF6FFFFFFFFBF64FFFFFFFFBFEC
:1008C000B6765BFFFFFFBFBF5B0000FFFFFF5C0072
:1008D000000000A400000000000000000000000074
:1008E000000000BFBF645C5C0000006E5C654900F6
:1008F0000000006D5B000000000000000000000030
:1009000000000000000000000000000000000000E7
:1009100000000000000000000000000000000000D7
:100920000000000000002C09000000000002080088
:10093000085504085A0000F8000990000A1E320504
:100940000000FF4952495320574153204120464F50
:100950004F4C0000414E4420534F204152452059F6
:100960004F5500574954482054484520454D45525D
:10097000414C44532052455455524E45440054482E
:10098000455245204953204E4F2053544F50504913
:100990004E47204F555200444F4D494E494F4E202F
:1009A0004F564552205448452047414C4158590024
:1009B000004E4F5720594F552057494C4C20444921
:1009C00045002300594F5520444F4E54204B4E4F65
:1009D00057005748415420594F5520415245204413
:1009E0004F494E47002300594F5520415245204D55
:1009F000414B494E472041204D495354414B4500FE
:100A00002300594F552043414E542048415645201C
:100A10005448454D20414C4C002300594F5520412E
:100A200052452050455253495354454E54002300DB
:100A300049204B4E4557205448455920574F554C57
:100A4000442053454E4420594F55002300495249F4
:100A50005320484153204245545241594544205562
:100A60005300004845204841532053544F4C454EB5
:100A700020544845203520454D4552414C445300B3
:100A80004F4620504F57455220414E442057494C25
:100A90004C20535552454C59004252494E47205222
:100AA00055494E20544F20555320414C4C00004492
:100AB000455354524F592048494D20414E442052ED
:100AC000455455524E2054484500454D4552414CE1
:100AD000445320544F204252494E472050454143F1
:100AE0004520544F005448452047414C4158590037
:100AF0002300555A4500004C4A4200004141410044
:100B0000004242420000434343000044444400008A
:100B100054414C4C590047414D45204F56455200D9
:100B2000424F4E5553004C4556454C20434C454191
:100B300052005041555345005820455849542047CC
:100B4000414D450058204D41494E204D454E5500E0
:100B500054494D4520004C495645532000534849BF
:100B6000454C44200053434F52452000004849471C
:100B7000482053434F524553005354415254004D63
:100B8000555349432042592054414E4E4552204826
:100B9000454C4C414E440032303136204C41575286
:100BA000454E43452042524F4F4B530000C000007A
:100BB000C10100B0077F00077F00904364004664D6
:100BC000004B64004F6400B107740091336400FF70
:100BD0000601531D9133640A336414904B6400463C
:100BE00064004364009133642733641490466400C6
:100BF0004364004B64004F64009133641433640A0F
:100C0000904164004D640A4164004664004A6400F7
:100C10004D6400912E641E2E64092E64149041646C
:100C2000004664004A6400912E64282E64149041AA
:100C300064004664004A64004D6400912E64132EE3
:100C4000640A903F64004B640A3F640044640048B7
:100C500064004B6400912C641E2C640A2C64149074
:100C60004164004664004A6400912C64132E6414AD
:100C700090466400912C6414903F640043640048E3
:100C80006400912E6414306414904364004864003E
:100C90004B64004F64009130641D30640A3064146A
:100CA000904B6400486400436400913064283064D1
:100CB00013904364004864004B64004F640091301B
:100CC000641430640A904164004D640A4364004631
:100CD00064004B64004F64009133641E3364093335
:100CE0006414904B640046640043640091336428AC
:100CF000336414904664004364004B64004F640006
:100D00009133641333640A904164004D640A416472
:100D1000004664004A64004D6400912E641E2E64F7
:100D20000A2E6414904164004664004A6400912EC7
:100D300064272E6414904164004664004A64004DA8
:100D40006400912E64142E640A903F64004B640A80
:100D50003F64004464004864004B6400912C641DAF
:100D60002C640A2C6414904164004664004A6400B8
:100D7000912C64142E641490466400912C6413909A
:100D80003F6400436400486400913064143064148C
:100D900090486400912C6E142C4B06904A640E917E
:100DA0002C4B0D904B6406912C6E14904D64009169
:100DB0002C4B142C4B07904B640D912C6E0D904ACC
:100DC0006407912C4B139048640091306E14304BA3
:100DD00007904A640D91304B0D9046640791306E38
:100DE000139043640091304B14304B079046640DD0
:100DF00091306E0D9048640791304B149048640018
:100E0000912C6E132C4B07904A640D912C4B0D9036
:100E10004B6407912C6E14904D6400912C4B142C54
:100E20004B06904B640D912C6E0E904D6406912CE8
:100E30004B14904F640091306E14304B0790506407
:100E40000D91304B0E904D640591306E14904F64AF
:100E50000091304B14304B07904D640D91306E0D66
:100E6000904B640791304B13904D6400912B6E149E
:100E70002B4B07904F640D912B4B0D904D640791B8
:100E80002B6E14904B6400912B4B132B4B07904609
:100E9000640D912B6E0D904B6407912B4B14904D6C
:100EA0006400912C6E132C4B079050640D912C4BC9
:100EB0000D904F6407912C6E14904D6400912C4B53
:100EC000142C4B069048640D912C6E0E904D6406C8
:100ED000912C4B149052640091276E0D9050640732
:100EE00091274B06904F640E50640091274B0D9054
:100EF0004F640691276E07904D640D4B6400912757
:100F00004B14274B079046640D91276E0D904B6450
:100F10000791274B139047640091266E14264B07C8
:100F2000904A640D91264B0D904F640791266E14E4
:100F30009053640091264B13264B079056640D91F5
:100F4000266E0D905B640791264B14903D640091D2
:100F5000316406904164074464074964064D6407A0
:100F60005064065564075964075C64065964075564
:100F700064065064074D640749640644640741648D
:100F8000063D64073864073D64064164074464060F
:100F90004964074464074164064364009137640769
:100FA000904764064A64074F640653640756640713
:100FB0005B64065F64076264065F64075B640756F0
:100FC00064065364074F64064A6407476407436432
:100FD000063E64074364064764074A64074F640695
:100FE0004A6407476406466400913A6407904A647D
:100FF000074D64065264075664065964075E640729
:101000006264066564076264065E64075964075695
:1010100064065264074D64064A64074664074164E7
:10102000064664074A64064D64075264074D640629
:101030004A6407547F004364004864004B64004FD7
:1010400064009130641D30640A306414904B640075
:101050004864004364009130642830641490436411
:10106000004864004B64004F6400913064133064A6
:101070000A904164004D640A4364004664004B6476
:10108000004F64009133641E33640A336414904B40
:101090006400466400436400913364273364149011
:1010A0004664004364004B64004F64009133641451
:1010B00033640A904164004D640A41640046640050
:1010C0004A64004D6400912E641D2E640A2E64143F
:1010D000904164004664004A6400912E64272E64A7
:1010E00014904164004664004A64004D6400912EEF
:1010F00064142E640A903F64004B640A3F64004409
:1011000064004864004B6400912C641E2C64092C1C
:101110006414904164004664004A6400912C641495
:101120002E641490466400912C6414903F64004334
:101130006400486400912E6413306414904364008A
:101140004864004B64004F64009130641E30640AB0
:10115000306414904B640048640043640091306430
:1011600027306414904364004864004B64004F646B
:10117000009130641430640A904164004D640A4365
:1011800064004664004B64004F64009133641D3377
:10119000640A336414904B64004664004364009115
:1011A000336428336413904664004364004B640046
:1011B0004F64009133641433640A904164004D64B9
:1011C0000A4164004664004A64004D6400912E6444
:1011D0001E2E64092E6414904164004664004A6423
:1011E00000912E64282E6414904164004664004AE5
:1011F00064004D6400912E64132E640A903F6400D5
:101200004B640A3F64004464004864004B640091EE
:101210002C641E2C640A2C64149041640046640003
:101220004A6400912C64132E641490466400912C3F
:10123000640FFF06014505903F6400436400486465
:1012400000913064143064810AFF2F0000C0000058
:10125000C10100B0077F00B1077400FF0601531BF6
:101260009048780091306E079043550091305007B8
:101270009048550091305007904A780091306E07A1
:10128000904B5500913050079048550091305007D1
:10129000904A780091306E07904B5500913050077E
:1012A000904D550091305007904A780091306E076C
:1012B000904B550091305007904D5500913050079C
:1012C000904F780091306E07904B55009130500749
:1012D000904D7800912E6E07904F550750780091F1
:1012E000306E06904D550091305007904F5500914B
:1012F000305007904B780091306E07904D5500911B
:10130000305007904A550091305007306E03904B93
:10131000780448550091305007904A55009130505C
:10132000079046780091306E07904D5500913050EF
:10133000079046780091305007904F550091306EDD
:10134000079046780091305007904D5500912E6ED1
:10135000079046780748550091306E079043550036
:10136000913050079048550091305007904A5500F1
:1013700091306E07904B55009130500790485500C2
:1013800091305006904A550091306E07904B5500B1
:1013900091305007904D550091305007904A5500BC
:1013A00091306E07904B550091305007904D55008D
:1013B00091305007904F550091306E07904B55007B
:1013C00091305007904D5500912E6E07904F550764
:1013D00050550091306E07904D5500913050079058
:1013E0004F550091305007904B550091306E07904B
:1013F0004D550091305007904A55009130500730BC
:101400006E02904B550548550091305007904A5553
:1014100000913050079046550091306E06904D5522
:1014200000913050079046550091305007904F552D
:101430000091306E079046550091305007904D5501
:1014400000912E6E0790465507487800912C6E0744
:1014500090435500912C500790485500912C50070F
:10146000904A7800912C6E07904B5500912C5007B4
:1014700090485500912C5007904A7800912C6E07A7
:10148000904B5500912C5007904D5500912C5007D2
:10149000904A7800912C6E07904B5500912C500784
:1014A000904D5500912C5007904F7800912C6E076D
:1014B000904B5500912C5007904D7800912B6E0663
:1014C000904F5507507800912C6E07904D55009124
:1014D0002C5007904F5500912C5007904B7800915D
:1014E0002C6E07904D5500912C5007904A55009155
:1014F0002C50072C6E02904B7805485500912C50CB
:1015000007904A5500912C500790467800912C6E18
:1015100007904D5500912C500790467800912C5023
:1015200007904F5500912C6E0790467800912C50F3
:1015300007904D5500912B6E07904678074855004F
:1015400091296E0790435500912950079048550006
:1015500091295006904A550091296E07904B5500ED
:10156000912950079048550091295007904A5500FD
:10157000912B6E07904B5500912B5007904D5500C5
:10158000912B5007904A5500912B6E07904B5500B8
:10159000912B5007904D5500912B5007904F5500BF
:1015A000912C6E07904B5500912C5007904D550093
:1015B000912C6E07904F5507505500912E6E079055
:1015C0004D5500912E5007904F5500912E50079089
:1015D0004B5500912E6E07904D5500912E5007905F
:1015E0004A5500912E50072E6E02904B55054855D6
:1015F00000912E5006904A5500912E500790465566
:1016000000912E6E07904D5500912E500790465533
:1016100000912E5007904F5500912E6E0790465521
:1016200000912E5007904D5500912E6E0790465513
:101630000748550091306E07904355009130500790
:101640009048550091305007904A550091306E07F0
:10165000904B5500913050079048550091305007FD
:10166000904A550091306E07904B550091305007CD
:10167000904D550091305007904A550091306E07BB
:10168000904B550091305007904D550091305007C8
:10169000904F550091306E06904B55009130500799
:1016A000904D5500912E6E07904F55075055009163
:1016B000306E07904D550091305007904F55009176
:1016C000305007904B550091306E07904D5500916A
:1016D000305007904A550091305007306E02904BC1
:1016E000550548550091305007904A5500913050AB
:1016F000079046550091306E07904D55009130503F
:10170000079046550091305007904F550091306E2C
:10171000079046550091305007904D5500912E6E20
:10172000079046550748550091306E069043550086
:10173000913050079048550091305007904A55001D
:1017400091306E07904B55009130500790485500EE
:1017500091305007904A550091306E07904B5500DC
:1017600091305007904D550091305007904A5500E8
:1017700091306E07904B550091305007904D5500B9
:1017800091305007904F550091306E07904B5500A7
:1017900091305007904D5500912E6E07904F550790
:1017A00050550091306E07904D5500913050079084
:1017B0004F550091305007904B550091306E079077
:1017C0004D550091305007904A55009130500630E9
:1017D0006E03904B550448550091305007904A5580
:1017E00000913050079046550091306E07904D554E
:1017F00000913050079046550091305007904F555A
:101800000091306E079046550091305007904D552D
:1018100000912E6E0790465507487800912C6E0770
:1018200090435500912C500790485500912C50073B
:10183000904A7800912C6E07904B5500912C5007E0
:1018400090485500912C5007904A7800912C6E07D3
:10185000904B5500912C5007904D5500912C5007FE
:10186000904A7800912C6E06904B5500912C5007B1
:10187000904D5500912C5007904F7800912C6E0799
:10188000904B5500912C5007904D7800912B6E078E
:10189000904F5507507800912C6E07904D55009150
:1018A0002C5007904F5500912C5007904B78009189
:1018B0002C6E07904D5500912C5007904A55009181
:1018C0002C50072C6E02904B7805485500912C50F7
:1018D00007904A5500912C500790467800912C6E45
:1018E00007904D5500912C500790467800912C5050
:1018F00007904F5500912C6E0790467800912C5020
:1019000007904D5500912B6E06904678074855007C
:1019100091296E0790435500912950079048550032
:1019200091295007904A550091296E07904B550018
:10193000912950079048550091295007904A550029
:10194000912B6E07904B5500912B5007904D5500F1
:10195000912B5007904A5500912B6E07904B5500E4
:10196000912B5007904D5500912B5007904F5500EB
:10197000912C6E07904B5500912C5007904D5500BF
:10198000912C6E07904F5507505500912E6E079081
:101990004D5500912E5007904F5500912E500790B5
:1019A0004B5500912E6E06904D5500912E5007908C
:1019B0004A5500912E50072E6E03904B5504485502
:1019C00000912E5007904A5500912E500790465591
:1019D00000912E6E07904D5500912E500790465560
:1019E00000912E5007904F550091306E079046554C
:1019F0000091305007904D5500912E6E079046553E
:101A00000754640048640091306E0730500730502E
:101A100007306E07305007305007306E07305006E1
:101A2000305007306E07305007305007306E0730A7
:101A300050072E6E0E306E07305007305007306E54
:101A400007305007305007306E07305007305007CE
:101A5000306E07305007305007306E063050072E7A
:101A60006E0E903364003764003C640091306E0762
:101A7000305007305007903264003764003A6400F9
:101A800091306E0730500730500790336400376450
:101A9000003C640091306E0730500730500790379B
:101AA00064003A64003E640091306E0730500730A5
:101AB0005007903764003C64003F640091306E072B
:101AC000305007903764003A64003E640091306EF5
:101AD00007306E07903A64004364003F640091331E
:101AE0006E06335007335007336E073350073350B9
:101AF00007903764003A64003F640091336E073307
:101B00005007335007336E07335007335007903A6E
:101B100064003F640043640091336E073350073321
:101B20006E07336E07904164003E64003A64009192
:101B30002E6E072E50072E50072E6E072E50072EA2
:101B40005006903564003A64003E6400912E6E07A2
:101B50002E50072E50072E6E072E50072E5007903E
:101B60003A64003E6400416400912E6E072E5007D7
:101B70002E6E072E6E07903764003C64003F6400B1
:101B800091306E07305007305007306E07305007E5
:101B9000305007306E07305007305007306E063037
:101BA0005007305007306E073050072E6E0E306EE3
:101BB00007305007305007306E073050073050075D
:101BC000306E07305007305007306E073050073006
:101BD0005007306E073050072E6E0D90336400377B
:101BE00064003C640091306E07305007305007901D
:101BF0003264003764003A640091306E0730500759
:101C0000305007903364003764003C640091306EBC
:101C100007305007305007903764003A64003E6444
:101C20000091306E07305007305007903764003C09
:101C300064003F640091306E0730500790376400B5
:101C40003A64003E6400912E6E0E903A6400436444
:101C5000003F640091336E07335007335007336EF3
:101C600006335007335007903764003A64003F64EE
:101C70000091336E07335007335007336E073350EC
:101C800007335007903A64003F6400436400913387
:101C90006E07335007326E0E904164003E64003A86
:101CA0006400912E6E072E50072E50072E6E072EC1
:101CB00050072E5007903564003A64003E6400914E
:101CC0002E6E072E50062E50072E6E072E50072E12
:101CD0005007903A64003E6400416400912E6E0506
:101CE000FF06014502912E50072C6E0E90376400BE
:101CF0003C64003F640091306E073050073050075D
:101D0000306E07305007305007306E0730500730C4
:101D10005007306E07305007305007FF2F0000008B
:101D200000951E00000000000000951E000000004D
:101D3000000000841E000000000000002E1E0000B5
:101D40000000000000841E000000000000005D1D77
:101D5000000000000000005D1D0000000000077F83
:101D60000002030000FF0008410104040104040113
:101D70000404010404010404010404010404010432
:101D80000401040403076400083C01040401040482
:101D90000104040104040104040104040104040115
:101DA000040401040403075000083701040401047B
:101DB00004010404010404010404010404010404F2
:101DC0000104040104040307320008320104040181
:101DD00004040104040104040104040104040104D2
:101DE0000401040401040403072800082D0104046D
:101DF00001040401040401040401040401040401B5
:101E00000404010404010404030714000828010465
:101E10000401040401040401040401040401040491
:101E200001040401040401040401050000FF000290
:101E30000300077F000850010406010406010406A0
:101E400001070003077F0008500104060104060192
:101E500004060107000308500007200104060104DE
:101E60000601040601040601070003085000070FDD
:101E7000010406010406010406010406010700012D
:101E8000050000FF0002040007700000D800083CB5
:101E900001050000FF0002040000DD00FFFEFEFE61
:101EA000FEFEFEFE87FEFEFEFEFEFE8787FEFEFEB7
:101EB000FEFEFE8787FEFEFEFE85858587FEFEFE12
:101EC0008587878785FEFE858787878785FE858747
:101ED000878785858785878785858787878787879C
:101EE000FEFEFEFEFED2D2EBD2FEFEFEFE87D2FD4D
:101EF000EBFEFEFEFE8787EBD2FEFEFEFE858787A9
:101F0000D2FEFEFEFE8785858785FEFEFE87EF8773
:101F1000878785FEFEEFFFEF878785FEFEFEFEFECC
:101F2000FEFEFEFEFEFEFEFEFEFEFEFE87FEFEFE48
:101F3000FEFEFE8787FEFEFEFEFEFE8787FEFEFE9D
:101F4000FE85858587FEFEFE8587878785FEFE8563
:101F50008787878785FE85878787858587FEFEFE3D
:101F6000FEFEFEFEFE878787FEFEFEFEFED2D2EB61
:101F7000D2FEFEFEFE87D2FDEBFEFEFEFE8787EB65
:101F8000D2FEFEFEFE858787D2FEFEFEFE87858599
:101F90008785FEFEFE87EF87878785FEFEFEFEFEB5
:101FA000FEFEFEFEFEFEFEFEFEFEFEFEFEFEFEFE51
:101FB000FEFEFEFEFEFEBABABABABABAFEBABDBD9F
:101FC000BDBDBDBDBAFEBABABABABABAFEFEFEFE11
:101FD000FEFEFEFEFEFEFEFEFEFEFEFEFEFEFE46D9
:101FE0004646464646FEA5A5A5474746FEFE46464A
:101FF0004747463F3F4646474746FEFEFE46464762
:102000004746FEFEFEFE464647473F3FFEFEA5A56D
:10201000A547FEFEFEFEFE46464646FEFEFEFEFED0
:1020200007FEFEFEFEFEFE070707FEFEFEFE07079A
:10203000270707FEFE07072777270707FEFE070784
:10204000270707FEFEFEFE070707FEFEFEFEFEFE5A
:1020500007FEFEFEFEFEFEFEFEFEFEFEFEFEFEFE97
:10206000D2FEFEFEFEFEFED2D2D2FEFEFEFED2D298
:10207000E4D2D2FEFED2D2E4F5E4D2D2FEFED2D237
:10208000E4D2D2FEFEFEFED2D2D2FEFEFEFEFEFE66
:10209000D2FEFEFEFEFEFEFEFEFEFEFEFEFEFEFE8C
:1020A00038FEFEFEFEFEFE383838FEFEFEFE3838F4
:1020B000BC3838FEFE3838BCBEBC3838FEFE383876
:1020C000BC3838FEFEFEFE383838FEFEFEFEFEFE50
:1020D00038FEFEFEFEFEFEFEFEFEFEFEFEFEFEFEE6
:1020E000A2FEFEFEFEFEFEA2A2A2FEFEFEFEA2A238
:1020F000AAA2A2FEFEA2A2AAADAAA2A2FEFEA2A22D
:10210000AAA2A2FEFEFEFEA2A2A2FEFEFEFEFEFE0F
:10211000A2FEFEFEFEFEFEFEFEFEFEFEFEFEFEFE3B
:102120006EFEFEFEFEFEFE6E6E6EFEFEFEFE6E6E2F
:102130006F6E6EFEFE6E6E6F776F6E6EFEFE6E6E73
:102140006F6E6EFEFEFEFE6E6E6EFEFEFEFEFEFE0E
:102150006EFEFEFEFEFEFEFEFEFEFEFEFEFEFEFE2F
:10216000FEFEFEFEFEFEFEFEFEFEFEFEFEFEFEFE8F
:10217000FEFEFEFEFEFEFEFEFEFEFEFEFEFEFEFE7F
:10218000FEFEFEFEFEFEFEFEFEFEFEFEFEFEFEFE6F
:10219000FEFEFEFEFEFEFEFEFEFEFEFEFE858787C6
:1021A00085FE858787FE858785FE858787FE8587EF
:1021B00087ADADADADFEFE8587ADADADADFEFE85A7
:1021C00087ADADADADFEFEFE85A4AD8787FEFEFEFC
:1021D000FEA4A48587FEFEFEFEA4A4858787EF8764
:1021E000858785FEFE87878785878785FEADADADB0
:1021F000ADAD8785FEADADADADADADA4ADADADAD15
:10220000ADADA4A4A487878785FEFEFEFE878787E1
:1022100085FEFEFEFE87878785FEFEFEFE87EF8732
:10222000858785FEFE87878785878785FEADADAD6F
:10223000ADAD8785FEADADADADADADA4ADADADADD4
:10224000ADADA4A4A487878785FEFEFEFE878787A1
:1022500085FEFEFEFE878785FEFEFEFEFE858787E5
:10226000858587878785878785FE858787FE85871C
:1022700085FE858787FE858787ADADADADFEFE8582
:1022800087ADADADADFEFE8587ADADADADFEFEFE5D
:1022900085A4AD8787FEFEFEFEA4A48587EFFFEF31
:1022A000878785FEFE87EF87858785FEFE87878780
:1022B00085878785FEADADADADAD8785FEADADAD96
:1022C000ADADADA4ADADADADADADA4A4A4878787D4
:1022D00087FEFEFEFE878787FEFEFEFEFE87EF87F7
:1022E000858785FEFE87878785878785FEADADADAF
:1022F000ADAD8785FEADADADADADADA4ADADADAD14
:10230000ADADA4A4A487878787FEFEFEFE878787DE
:1023100087FEFEFEFE878787FEFEFEFEFEEFFFEFD6
:10232000878785FEFE87EF87858785FEFE878787FF
:1023300085878785FEADADADADAD8785FEADADAD15
:10234000ADADADA4ADADADADADADA4A4A487878753
:1023500087FEFEFEFE8787878787FEFEFEFEFEFE67
:10236000FEFEFEFEFEFEFEFEFEFEFEFEFEFEFEFE8D
:102370002707FEFEFEFEFE27772707FEFEFEFE076E
:10238000270707FEFEFEFEFE0707FEFEFEFEFEFE20
:10239000FEFEFEFEFEFEFEFEFEFEFEFEFEFEFEFE5D
:1023A000FEFEFE8587FEFEFEFEFEFE8587FEFEFE2D
:1023B000FEFE858787FEFEFEFEFE858787FEFEFE0B
:1023C000FE858787FEFEFEFEFE858787FEFEFEFEFB
:1023D000FEA4A4A4FEFEFEFEFEA4A4A4A487FE8583
:1023E00085FEFEFEFE87FE858585FEFEFEFEFE85E1
:1023F0008585FEFEFEFEFE858585FEFEFEFEFE85D3
:102400008585FEFEFEFEFE858585FEFEFEFEFEA4A3
:10241000A4A4FEFEFEFEFEA4A4A4A4FEFEFEFEFEF8
:10242000FEFEFEFE85FEFEFEFEFEFEFE85FEFEFEBE
:10243000FEFE858587FEFEFEFE85878787FEFEFE03
:10244000A487878787FEFEFEA4878787FEFEFEFEA1
:10245000A4A4FEFEFEFEFEFEA4A4A4FEFE878787C3
:10246000FEFEFEFEFE87878787FEFEFEFE878787CD
:1024700087FEFEFEFE878787FEFEFEFEFE878585C1
:10248000FEFEFEFEFE858585FEFEFEFEFEA4A4A4E5
:10249000FEFEFEFEFEA4A4A4A4FEFEFEFEFEFEFEC4
:1024A000FEA4A48587FEFEFEFE85858585FEFEFED4
:1024B000FE85858585A4A48585858585FEA4A4855E
:1024C00085858585FEA4A485858585FEFEA4FEFE02
:1024D000FEFEFEFEFEFEFEFEFEFEFEFEFE87878781
:1024E000FEFEFEFEFEFE858787FEFEFEFEFE858763
:1024F0008787FEFEFEFEFE858787FEFEFEFEFE85CA
:10250000878787FEFEFEFEFE858787FEFEFEFEFEB7
:10251000A4A4A4FEFEFEFEFEA4A4A4A4FEFEFEFE51
:10252000FEFEFEFE85FEFEFEFEFEFEFE85FEFEFEBD
:10253000FEFE858585FEFEFEFE85858585FEFEFE0A
:10254000A485858585FEFEFEA4858585FEFEFEFEAE
:10255000A4A4FEFEFEFEFEFEA4A4A4FEFE878787C2
:10256000FEFEFEFEFE85878785FEFEFEFE858787D2
:1025700085FEFEFEFE858787FEFEFEFEFE858787C2
:10258000FEFEFEFEFE858787FEFEFEFEFEA4A4A4E0
:10259000FEFEFEFEFEA4A4A4A4FEFEFEFEFEFEFEC3
:1025A000FEA4A48587FEFEFEFE85858585FEFEFED3
:1025B000FE85858585A4A485858585A4A4A4A48598
:1025C000858585A4A4A4A485858585A4A4A4FEFEF0
:1025D000FEFEFEA4FEFEFEFEFEFEFEFEFE878785DC
:1025E0008787FEFEFEFEFE85878787FEFEFEFE8550
:1025F000878787FEFE8585858787FEFEFE8787871E
:102600008787FEFEFE87878787FEFEFEFEFEFEFEB4
:10261000FEFEFEFEFEFEFEFEFEFEFEFEFEFEFEFEDA
:10262000FEFEFEFEFEFEFE12121212FEFEAD120FA6
:102630001F1F0F12ADAD121212121212ADADAD125C
:10264000121212ADADAD12AD1212AD12ADADFE1241
:10265000121212FEADADFEFEFEFEFEFEADFEFEFE51
:10266000FEFEFEFEFEFEFEFEFEFEFEFE7FFEFEFE09
:10267000FEFE7F7F7FFEFEFEFE7F7F7F7FFEFEFEF3
:10268000FEFEFE7F7FFEFEFEFEFEFEFEFEFEFEFE68
:10269000FEFEFEFEFEFEFEFEFEFEFEFEFEA4FEFEB4
:1026A000FEFEFEFEFEA4ADFEFEFFFFA4ADA4ADF651
:1026B000FFFFA4ADF6A4ADF6FFA4ADF6FFA4ADFEFA
:1026C000FEA4ADF6FFA4FEFEA4A4ADF6FEFEFEFE43
:1026D000A4A4ADF6F6FEFEFEFEFEFEFEFEFEFEFE2F
:1026E000FEFEFEFEFEF6FFFFFFD2FEFEFEFFFFFF38
:1026F000FFD2EBFEFEFFFEFFFFEBFDD2FEFEFEFE75
:10270000FFD2EBD2D2FEFEFEFEFEFEFEFEF6FEFE87
:10271000FEFEFEFEFEFEFEFEFEFEFEFEFEFEFEBF18
:102720007F7FBFFEFEFE7F7F7F7F7F7FFEBF7F7F3D
:102730007F7F7F7FBF7F7F7F7F7F7F7F7F7F7F7F69
:102740007F7F7F7F7FBF7F7F7F7F7F7FBFFE7F7F9A
:102750007F7F7F7FFEFEFEBF7F7FBFFEFEFEFEFE11
:10276000FEFEFEFEFEFEFEFEFEFEFEFEFEFEFEFE89
:102770007F7FFEFEFEFEFE7F7F7F7FFEFEFEFE7FF2
:102780007F7F7FFEFEFEFEFE7F7FFEFEFEFEFEFEE4
:10279000FEFEFEFEFEFEFEFEFEFEFEFEFEFEFEBF98
:1027A0007F7FBFFEFEFE7F7F7F7F7F7FFEBF7FFE3E
:1027B000FE7F7F7FBF7FFEFEFEFE7F7F7FFEFEFEF1
:1027C000FEFEFE7F7FFEFEFEFEFEFE7FBFFEFEFEE5
:1027D000FEFEFE7FFEFEFEFEFEFEBFFEFEFEFEFED7
:1027E000FEFEFEFEFEFEFEFEFEFEFEFEFEFEFEFE09
:1027F000FEFEFEFEFEFEFEFEE3FEFEFEFEFEFEFE14
:10280000FFFEFEFEFEFEFEFEFEFEFEFEFEFEFEFEE7
:10281000FEFEFEFEFEFEFEFEFEFEFEFEFEFEFEFED8
:10282000FEFEFEFEFEFEFEFEFEFFFEFEFEFEFEFEC7
:10283000FE7FFFFEFEFEFEFEFE7F7FFFFEFEFEFE33
:10284000FE7F7F7FFFFEFEFEFE7F7F7FFEFEFEFEA1
:10285000FE7F7FFEFEFEFEFEFE7FFEFEFEFEFEFE15
:10286000FEFEFEFEFEFEFEFEFEFEFEFEFEFEFEFE88
:10287000FEFEFEFEFEFEFEFEFEFEFEFEFE7F7F7FF5
:102880007F7F7FFFFEFE7F7F7F7FFFFEFEFEFE7F5E
:102890007FFFFEFEFEFEFEFEFEFEFEFEFEFEFEFED6
:1028A000FFFEFEFEFEFEFEFF7F7FFEFEFEFEFF7FC2
:1028B0007F7F7FFEFEFF7F7F7F7F7F7FFEFEFEFEAE
:1028C000FEFEFEFEFEFEFEFEFEFEFEFEFEFEFEFE28
:1028D000FEFEFEFEFEFEFEFEFEFEFEFEFEFEFE1204
:1028E000121212FEFEFE120F1F1F0F12FEAD121269
:1028F00012121212ADAD12AD1212AD12ADADAD127B
:10290000121212ADADADFE12121212FEADADFEFEF0
:10291000FEFEFEFEADADFEFEFEFEFEFEADFEFEFECA
:10292000FEFEFEFEFEFEFEFEFEFEFEFE7FFEFEFE46
:10293000FEFEFE7F7FFEFEFEFEFEFEFE7FFEFEFE34
:10294000FEFEFEFEFEFEFEFEFEFEFEFEFEFEFEFEA7
:10295000FEFEFEFEFEFEFEFEFEFEFEFEFEA4FEFEF1
:10296000FEFEFEFEFEA4A4FEFEFEFEFEFEA4A4AD40
:10297000FEFEFEFEFEA4A4ADADFEFEFEFEA4A4ADD2
:10298000ADF6FEFEFEA4A4ADADF6F6FFFFA4A4AD29
:10299000ADF6F6FFFFA4A4ADADF6F6FFFFFEFEFE1A
:1029A000FEFEFEFEFEFEFEFEFEFEFEFEFEFEFEFF46
:1029B000FFFFFFA4A4FEFFFFFFFFA4A4A4FFFFFFEF
:1029C000FFFFA4A4A4FFFFFFFFA4A4A4ADFFFFFF8B
:1029D000FFA4A4ADADFFFFFFA4A4ADADF6FEFEFEC7
:1029E000FEFEFEFEFEFEFEFEFEFEFEFEFEA4ADAD03
:1029F000F6F6FFFFFFA4ADADF6F6FFFFFFADADF6B7
:102A0000F6FFFFFFFFADF6F6FFFFFFFFFFF6F6FF55
:102A1000FFFFFFFFFFF6FFFF7F7FFFFFFFFEFEFED2
:102A2000FEFEFEFEFEFEFEFEFEFEFEFEFED2FEFEF2
:102A3000FEFEFEFEFED2D2FEFEFEFEFEFED2D2D292
:102A4000FEFEFEFEFED2D3EBD3FEFEFEFED2EBFD7B
:102A5000EBD2FEFEFED2D3EBD3D2D2FEFEA4A4ADC7
:102A6000ADF6F6FFFFA4A4ADADF6F6FFFFA4A4AD4E
:102A7000ADF6F6FFFFA4A4ADADF67F7FFEA4A4AD36
:102A8000AD7F7F7FFEA4A4ADFEFE7FFEFEA4A4FE6C
:102A9000FEFEFEFEFEA4FEFEFEFEFEFEFEFFFFFEAE
:102AA000A4ADADF6F6FFFEA4A4ADADF6F6FEFEA411
:102AB000A4ADADF6F6FEA4A4A4ADADF6F6FEA4A4B6
:102AC000A4A4ADADF6A4A4A4A4A4A4ADADA4A4A450
:102AD000A4A4A4A4ADA4A4A4A4A4A4A4A4FFFF7F1C
:102AE0007F7F7FFFFFFFFE7F7F7F7FFEFFFEFE7FFA
:102AF0007F7FFEFEFEFEFEFE7FFEFEFEFEF6FEFE7B
:102B0000FEFEFEFEFEF6F6FEFEFEFEFEFEADF6F656
:102B1000FEFEFEFEFEADADF6F6FEFEFEFED2D2D20B
:102B2000D2D2D2D2FEFFFFFFFFFFFFFFFFFEFEFE6D
:102B3000FEFEFEFEFEFEFEFEFEFEFEFEFEFEFEFEB5
:102B4000FEFEFEFEFEFEFEFEFEFEFEFEFEFEFEFEA5
:102B5000FEFEFEFEFEFEFEFEFEFEFEFEFEEFFFEFB2
:102B6000878785FEFE87EF87858785FEFE878787B7
:102B700085878785FEADADADADAD8785FEADADADCD
:102B8000ADADADA4ADADADADADADA4A4A48787870B
:102B900085FEFEFEFE878785FEFEFEFEFEFEFEFE35
:102BA000FEA4A48587FEFEFEFE85858787FEFEFEC9
:102BB000FE85878787A4A48585858787FEA4A4874B
:102BC00087878787FEA4A487878787FEFEA4FEFEEB
:102BD000FEFEFEFEFEFEFEFEFEFEFEFEFE8787857C
:102BE000FEFEFEFEFEFE858585FEFEFEFEFE858562
:102BF0008585FEFEFEFEFE858585FEFEFEFEFE85CB
:102C0000858585FEFEFEFEFE858585FEFEFEFEFEBA
:102C1000A4A4A4FEFEFEFEFEA4A4A4A4FEFEFEFE4A
:102C2000FEFEFEFEFEFEFEFEFEFEFEFEFEFEFEFEC4
:102C3000FEFEFEFEFEFEFEFEFEFEFEFEFEFEFEFEB4
:102C4000FEFEFEFEFEFEFEFEFEFE858585FEA487E0
:102C50008787878787A4A4878787878787FEFEFE65
:102C6000FEFEFEFEFEFEFEFEFEFEFEFE87FEFEFEFB
:102C7000FE85858587FEFEFE8587878785FEFE8526
:102C8000858787878785858585858787AD878787BA
:102C900087AD85878787878787ADADA4A48787871A
:102CA00087FEFEFEFE87D2D2EBD2FEFEFE8787D2E3
:102CB000FDEBFEFEFE878787EBD2FEFEFE85858755
:102CC00087D2FEFEFEADADADADAD87EFFEADADADD5
:102CD000ADADADA4ADA4ADADADADA4A4A4A4A4AD63
:102CE000ADF6F6FFFFA4A4ADADF6F6FFFFA4A4ADCC
:102CF000ADF6F6FFFFA4A4ADADF67F7F7FA4A4AD33
:102D0000AD7F7F7FFEA4A4ADFE7F7F7FFEA4A4FEE7
:102D1000FEFE7FFEFEA4FEFEFEFEFEFEFEFFFF7F29
:102D20007F7F7FFFFFFF7F7F7F7F7F7FFFFEFE7FB5
:102D30007F7F7FFEFEFEFE7F7F7FFEFEFEF6FEFEB5
:102D40007FFEFEFEFEF6F6FEFEFEFEFEFEADF6F693
:102D5000FEFEFEFEFEADADF6F6FEFEFEFE01012914
:102D600001011E01010501011301010404022B2CC4
:102D70002D2E39303A3204022B2C2D2E2F303132A9
:102D800003012A202103011F2021030136373802C5
:102D90000302030F121C1D020302030F333435021A
:102DA0000300010C111A1B020302030F1018190271
:102DB0000300010C0E1617020300010C0D1415017F
:102DC000010A0101090101080101070101060101D0
:102DD000240101230101220101250101280101270C
:102DE00001012601010B0120011A0F00010A0F0049
:102DF000010B0700010A0F00010B1800010A0B006C
:102E0000010A0600010A0500010B0B00010A080077
:102E10001200010A0D00010B0C00010A0C00010A4E
:102E20000C00010A0D00010B0E00010B0D00010A40
:102E30000C00010A0D00010A0B00010A1B00010A27
:102E40000E00010A0300010A0800010B1C00010B1F
:102E50000E00010A02000D00010A0400010A06002A
:102E6000010A0900010B1200010A0F00010A080003
:102E7000010B1100010A1300010B0500010A0400F7
:102E80000B00010B1400010A0E00010A0200010AE6
:102E90000500010A0E00010A1500010B0C00010AD1
:102EA0000D00010B07000400010B0A00010A0B00D2
:102EB000010A1800010A010B1100010A1900010B97
:102EC0001600010A07000B00010B1300010A0200A3
:102ED000010A0900010A150001FF01347E06000005
:102EE000000000000000000080060000000000005C
:102EF000000000000000000080060000000000004C
:102F0000000000000000000080060000000000003B
:102F1000000000000000000080060000000000002B
:102F2000000000000000000080060000000000001B
:102F3000000000000000000080060000000000000B
:102F400000000000000000008006000000000000FB
:102F500000000000000000008006000000000000EB
:102F600000000000000000008006000000000000DB
:102F700000000000000000008006000000000000CB
:102F800000000000000000008006000000000000BB
:102F900000000000000000008006000000000000AB
:102FA000000000000000000080060000000000009B
:102FB000000000000000000080060000000000008B
:102FC00000000000000000007A0606050000000076
:102FD000000000000000000080050000000000006C
:102FE0000000000000000000790507070000000055
:102FF000000000000000000080070000000000004A
:103000000000000000000000800700000000000039
:103010000000000000000000800700000000000029
:103020000000000000000000800700000000000019
:103030000000000000000000800700000000000009
:1030400000000000000000008007000000000000F9
:1030500000000000000000008007000000000000E9
:1030600000000000000000008007000000000000D9
:1030700000000000000000003207070247070000C0
:1030800000000000000000008007000000000000B9
:1030900000000000000000000F0707026A070000A0
:1030A0000000000000000000800700000000000099
:1030B0000000000000000000800700000000000089
:1030C0000000000000000000800700000000000079
:1030D0000000000000000000800700000000000069
:1030E0000000000000000000800700000000000059
:1030F0000000000000000000800700000000000049
:103100000000000000000000800700000000000038
:10311000000000000000000025070702540700001F
:103120000000000000000000800700000000000018
:103130000000000000000000020707022B07070242
:1031400045070000000000008007000000000000AC
:1031500000000000000000001107070232070F0204
:1031600027070000000000008007000000000000AA
:10317000000000000000000049070F0428070000BD
:1031800000000000000000008007000000000000B8
:10319000000000000000000048070F04290700009D
:1031A0000000000000000000800700000000000098
:1031B000000000000000000047070F042A0700007D
:1031C00000000000000000006A0716020000000076
:1031D000000000000000000046020F040702040780
:1031E0002002000000000000690217040000000037
:1031F00000000000000000005B0404072104000040
:103200000000000000000000680418070000000033
:103210000000000000000000800700000000000027
:103220000000000000000000800700000000000017
:103230000000000000000000800700000000000007
:1032400000000000000000008007000000000000F7
:1032500000000000000000008007000000000000E7
:1032600000000000000000008007000000000000D7
:1032700000000000000000008007000000000000C7
:1032800000000000000000008007000000000000B7
:1032900000000000000000008007000000000000A7
:1032A0000000000000000000800700000000000097
:1032B0000000000000000000800700000000000087
:1032C0000000000000000000800700000000000077
:1032D0000000000000000000800700000000000067
:1032E0000000000000000000800700000000000057
:1032F0000000000000000000800700000000000047
:103300000000000000000000800700000000000036
:103310000000000000000000800700000000000026
:103320000000000000000000800700000000000016
:103330000000000000000000800700000000000006
:1033400000000000000000008007000000000000F6
:1033500000000000000000008007000000000000E6
:1033600000000000000000008007000000000000D6
:1033700000000000000000008007000000000000C6
:1033800000000000000000008007000000000000B6
:1033900000000000000000008007000000000000A6
:1033A0000000000000000000800700000000000096
:1033B0000000000000000000800700000000000086
:1033C0000000000000000000800700000000000076
:1033D0000000000000000000800700000000000066
:1033E0000000000000000000800700000000000056
:1033F0000000000000000000800700000000000046
:103400000000000000000000800700000000000035
:103410000000000000000000800700000000000025
:103420000000000000000000800700000000000015
:103430000000000000000000800700000000000005
:1034400000000000000000008007000000000000F5
:1034500000000000000000008007000000000000E5
:1034600000000000000000008007000000000000D5
:1034700000000000000000008007000000000000C5
:1034800000000000000000008007000000000000B5
:1034900000000000000000008007000000000000A5
:1034A0000000000000000000800700000000000095
:1034B0000000000000000000800700000000000085
:1034C0000000000000000000800700000000000075
:1034D0000000000000000000800700000000000065
:1034E0000000000000000000800700000000000055
:1034F0000000000000000000800700000000000045
:103500000000000000000000500730020000000032
:103510000000000000000000800200000000000029
:1035200000000000000000004F0231040000000015
:103530000000000000000000800400000000000007
:1035400000000000000000004E0400000000000029
:10355000000000000000000001FF01347E060000B2
:1035600000000000000000008006000000000000D5
:1035700000000000000000008006000000000000C5
:1035800000000000000000008006000000000000B5
:1035900000000000000000008006000000000000A5
:1035A0000000000000000000800600000000000095
:1035B0000000000000000000800600000000000085
:1035C0000000000000000000800600000000000075
:1035D0000000000000000000800600000000000065
:1035E0000000000000000000800600000000000055
:1035F0000000000000000000800600000000000045
:103600000000000000000000800600000000000034
:103610000000000000000000800600000000000024
:103620000000000000000000800600000000000014
:103630000000000000000000800600000000000004
:1036400000000000000000007A06060500000000EF
:1036500000000000000000008005000000000000E5
:1036600000000000000000007905070700000000CE
:1036700000000000000000008007000000000000C3
:1036800000000000000000008007000000000000B3
:1036900000000000000000008007000000000000A3
:1036A0000000000000000000800700000000000093
:1036B0000000000000000000800700000000000083
:1036C0000000000000000000800700000000000073
:1036D0000000000000000000800700000000000063
:1036E0000000000000000000800700000000000053
:1036F000000000000000000032070702470700003A
:103700000000000000000000800700000000000032
:1037100000000000000000000F0707026A07000019
:103720000000000000000000800700000000000012
:103730000000000000000000800700000000000002
:1037400000000000000000008007000000000000F2
:1037500000000000000000008007000000000000E2
:1037600000000000000000008007000000000000D2
:1037700000000000000000008007000000000000C2
:1037800000000000000000008007000000000000B2
:103790000000000000000000250707025407000099
:1037A0000000000000000000800700000000000092
:1037B0000000000000000000020707022B070702BC
:1037C0004507000000000000800700000000000026
:1037D00000000000000000001107070232070F027E
:1037E0002707000000000000800700000000000024
:1037F000000000000000000049070F042807000037
:103800000000000000000000800700000000000031
:10381000000000000000000048070F042907000016
:103820000000000000000000800700000000000011
:10383000000000000000000047070F042A070000F6
:1038400000000000000000006A07160200000000EF
:10385000000000000000000046020F0407020407F9
:1038600020020000000000006902170400000000B0
:1038700000000000000000005B04040721040000B9
:1038800000000000000000006804180700000000AD
:1038900000000000000000008007000000000000A1
:1038A0000000000000000000800700000000000091
:1038B0000000000000000000800700000000000081
:1038C0000000000000000000800700000000000071
:1038D0000000000000000000800700000000000061
:1038E0000000000000000000800700000000000051
:1038F0000000000000000000800700000000000041
:103900000000000000000000800700000000000030
:103910000000000000000000800700000000000020
:103920000000000000000000800700000000000010
:103930000000000000000000800700000000000000
:1039400000000000000000008007000000000000F0
:1039500000000000000000008007000000000000E0
:1039600000000000000000008007000000000000D0
:1039700000000000000000008007000000000000C0
:1039800000000000000000008007000000000000B0
:1039900000000000000000008007000000000000A0
:1039A0000000000000000000800700000000000090
:1039B0000000000000000000800700000000000080
:1039C0000000000000000000800700000000000070
:1039D0000000000000000000800700000000000060
:1039E0000000000000000000800700000000000050
:1039F0000000000000000000800700000000000040
:103A0000000000000000000080070000000000002F
:103A1000000000000000000080070000000000001F
:103A2000000000000000000080070000000000000F
:103A300000000000000000008007000000000000FF
:103A400000000000000000008007000000000000EF
:103A500000000000000000008007000000000000DF
:103A600000000000000000008007000000000000CF
:103A700000000000000000008007000000000000BF
:103A800000000000000000008007000000000000AF
:103A9000000000000000000080070000000000009F
:103AA000000000000000000080070000000000008F
:103AB000000000000000000080070000000000007F
:103AC000000000000000000080070000000000006F
:103AD000000000000000000080070000000000005F
:103AE000000000000000000080070000000000004F
:103AF000000000000000000080070000000000003F
:103B0000000000000000000080070000000000002E
:103B1000000000000000000080070000000000001E
:103B2000000000000000000080070000000000000E
:103B300000000000000000008007000000000000FE
:103B400000000000000000008007000000000000EE
:103B500000000000000000008007000000000000DE
:103B600000000000000000008007000000000000CE
:103B700000000000000000008007000000000000BE
:103B800000000000000000005007300200000000AC
:103B900000000000000000008002000000000000A3
:103BA00000000000000000004F023104000000008F
:103BB0000000000000000000800400000000000081
:103BC00000000000000000004E04000000000000A3
:103BD000000000000000000001FF01347E0600002C
:103BE000000000000000000080060000000000004F
:103BF000000000000000000080060000000000003F
:103C0000000000000000000080060000000000002E
:103C1000000000000000000080060000000000001E
:103C2000000000000000000080060000000000000E
:103C300000000000000000008006000000000000FE
:103C400000000000000000008006000000000000EE
:103C500000000000000000008006000000000000DE
:103C600000000000000000008006000000000000CE
:103C700000000000000000008006000000000000BE
:103C800000000000000000008006000000000000AE
:103C9000000000000000000080060000000000009E
:103CA000000000000000000080060000000000008E
:103CB000000000000000000080060000000000007E
:103CC00000000000000000007A0606050000000069
:103CD000000000000000000080050000000000005F
:103CE0000000000000000000790507070000000048
:103CF000000000000000000080070000000000003D
:103D0000000000000000000080070000000000002C
:103D1000000000000000000080070000000000001C
:103D2000000000000000000080070000000000000C
:103D300000000000000000008007000000000000FC
:103D400000000000000000008007000000000000EC
:103D500000000000000000008007000000000000DC
:103D600000000000000000008007000000000000CC
:103D700000000000000000003207070247070000B3
:103D800000000000000000008007000000000000AC
:103D900000000000000000000F0707026A07000093
:103DA000000000000000000080070000000000008C
:103DB000000000000000000080070000000000007C
:103DC000000000000000000080070000000000006C
:103DD000000000000000000080070000000000005C
:103DE000000000000000000080070000000000004C
:103DF000000000000000000080070000000000003C
:103E0000000000000000000080070000000000002B
:103E10000000000000000000250707025407000012
:103E2000000000000000000080070000000000000B
:103E30000000000000000000020707022B07070235
:103E4000450700000000000080070000000000009F
:103E500000000000000000001107070232070F02F7
:103E6000270700000000000080070000000000009D
:103E7000000000000000000049070F0428070000B0
:103E800000000000000000008007000000000000AB
:103E9000000000000000000048070F042907000090
:103EA000000000000000000080070000000000008B
:103EB000000000000000000047070F042A07000070
:103EC00000000000000000006A0716020000000069
:103ED000000000000000000046020F040702040773
:103EE000200200000000000069021704000000002A
:103EF00000000000000000005B0404072104000033
:103F00000000000000000000680418070000000026
:103F1000000000000000000080070000000000001A
:103F2000000000000000000080070000000000000A
:103F300000000000000000008007000000000000FA
:103F400000000000000000008007000000000000EA
:103F500000000000000000008007000000000000DA
:103F600000000000000000008007000000000000CA
:103F700000000000000000008007000000000000BA
:103F800000000000000000008007000000000000AA
:103F9000000000000000000080070000000000009A
:103FA000000000000000000080070000000000008A
:103FB000000000000000000080070000000000007A
:103FC000000000000000000080070000000000006A
:103FD000000000000000000080070000000000005A
:103FE000000000000000000080070000000000004A
:103FF000000000000000000080070000000000003A
:104000000000000000000000800700000000000029
:104010000000000000000000800700000000000019
:104020000000000000000000800700000000000009
:1040300000000000000000008007000000000000F9
:1040400000000000000000008007000000000000E9
:1040500000000000000000008007000000000000D9
:1040600000000000000000008007000000000000C9
:1040700000000000000000008007000000000000B9
:1040800000000000000000008007000000000000A9
:104090000000000000000000800700000000000099
:1040A0000000000000000000800700000000000089
:1040B0000000000000000000800700000000000079
:1040C0000000000000000000800700000000000069
:1040D0000000000000000000800700000000000059
:1040E0000000000000000000800700000000000049
:1040F0000000000000000000800700000000000039
:104100000000000000000000800700000000000028
:104110000000000000000000800700000000000018
:104120000000000000000000800700000000000008
:1041300000000000000000008007000000000000F8
:1041400000000000000000008007000000000000E8
:1041500000000000000000008007000000000000D8
:1041600000000000000000008007000000000000C8
:1041700000000000000000008007000000000000B8
:1041800000000000000000008007000000000000A8
:104190000000000000000000800700000000000098
:1041A0000000000000000000800700000000000088
:1041B0000000000000000000800700000000000078
:1041C0000000000000000000800700000000000068
:1041D0000000000000000000800700000000000058
:1041E0000000000000000000800700000000000048
:1041F0000000000000000000800700000000000038
:104200000000000000000000500730020000000025
:10421000000000000000000080020000000000001C
:1042200000000000000000004F0231040000000008
:1042300000000000000000008004000000000000FA
:1042400000000000000000004E040000000000001C
:10425000000000000000000001FF01347E060000A5
:1042600000000000000000008006000000000000C8
:1042700000000000000000008006000000000000B8
:1042800000000000000000008006000000000000A8
:104290000000000000000000800600000000000098
:1042A0000000000000000000800600000000000088
:1042B0000000000000000000800600000000000078
:1042C0000000000000000000800600000000000068
:1042D0000000000000000000800600000000000058
:1042E0000000000000000000800600000000000048
:1042F0000000000000000000800600000000000038
:104300000000000000000000800600000000000027
:104310000000000000000000800600000000000017
:104320000000000000000000800600000000000007
:1043300000000000000000008006000000000000F7
:1043400000000000000000007A06060500000000E2
:1043500000000000000000008005000000000000D8
:1043600000000000000000007905070700000000C1
:1043700000000000000000008007000000000000B6
:1043800000000000000000008007000000000000A6
:104390000000000000000000800700000000000096
:1043A0000000000000000000800700000000000086
:1043B0000000000000000000800700000000000076
:1043C0000000000000000000800700000000000066
:1043D0000000000000000000800700000000000056
:1043E0000000000000000000800700000000000046
:1043F000000000000000000032070702470700002D
:104400000000000000000000800700000000000025
:1044100000000000000000000F0707026A0700000C
:104420000000000000000000800700000000000005
:1044300000000000000000008007000000000000F5
:1044400000000000000000008007000000000000E5
:1044500000000000000000008007000000000000D5
:1044600000000000000000008007000000000000C5
:1044700000000000000000008007000000000000B5
:1044800000000000000000008007000000000000A5
:10449000000000000000000025070702540700008C
:1044A0000000000000000000800700000000000085
:1044B0000000000000000000020707022B070702AF
:1044C0004507000000000000800700000000000019
:1044D00000000000000000001107070232070F0271
:1044E0002707000000000000800700000000000017
:1044F000000000000000000049070F04280700002A
:104500000000000000000000800700000000000024
:10451000000000000000000048070F042907000009
:104520000000000000000000800700000000000004
:10453000000000000000000047070F042A070000E9
:1045400000000000000000006A07160200000000E2
:10455000000000000000000046020F0407020407EC
:1045600020020000000000006902170400000000A3
:1045700000000000000000005B04040721040000AC
:1045800000000000000000006804180700000000A0
:104590000000000000000000800700000000000094
:1045A0000000000000000000800700000000000084
:1045B0000000000000000000800700000000000074
:1045C0000000000000000000800700000000000064
:1045D0000000000000000000800700000000000054
:1045E0000000000000000000800700000000000044
:1045F0000000000000000000800700000000000034
:104600000000000000000000800700000000000023
:104610000000000000000000800700000000000013
:104620000000000000000000800700000000000003
:1046300000000000000000008007000000000000F3
:1046400000000000000000008007000000000000E3
:1046500000000000000000008007000000000000D3
:1046600000000000000000008007000000000000C3
:1046700000000000000000008007000000000000B3
:1046800000000000000000008007000000000000A3
:104690000000000000000000800700000000000093
:1046A0000000000000000000800700000000000083
:1046B0000000000000000000800700000000000073
:1046C0000000000000000000800700000000000063
:1046D0000000000000000000800700000000000053
:1046E0000000000000000000800700000000000043
:1046F0000000000000000000800700000000000033
:104700000000000000000000800700000000000022
:104710000000000000000000800700000000000012
:104720000000000000000000800700000000000002
:1047300000000000000000008007000000000000F2
:1047400000000000000000008007000000000000E2
:1047500000000000000000008007000000000000D2
:1047600000000000000000008007000000000000C2
:1047700000000000000000008007000000000000B2
:1047800000000000000000008007000000000000A2
:104790000000000000000000800700000000000092
:1047A0000000000000000000800700000000000082
:1047B0000000000000000000800700000000000072
:1047C0000000000000000000800700000000000062
:1047D0000000000000000000800700000000000052
:1047E0000000000000000000800700000000000042
:1047F0000000000000000000800700000000000032
:104800000000000000000000800700000000000021
:104810000000000000000000800700000000000011
:104820000000000000000000800700000000000001
:1048300000000000000000008007000000000000F1
:1048400000000000000000008007000000000000E1
:1048500000000000000000008007000000000000D1
:1048600000000000000000008007000000000000C1
:1048700000000000000000008007000000000000B1
:10488000000000000000000050073002000000009F
:104890000000000000000000800200000000000096
:1048A00000000000000000004F0231040000000082
:1048B0000000000000000000800400000000000074
:1048C00000000000000000004E0400000000000096
:1048D000000000000000000001FF01347E0600001F
:1048E0000000000000000000800600000000000042
:1048F0000000000000000000800600000000000032
:104900000000000000000000800600000000000021
:104910000000000000000000800600000000000011
:104920000000000000000000800600000000000001
:1049300000000000000000008006000000000000F1
:1049400000000000000000008006000000000000E1
:1049500000000000000000008006000000000000D1
:1049600000000000000000008006000000000000C1
:1049700000000000000000008006000000000000B1
:1049800000000000000000008006000000000000A1
:104990000000000000000000800600000000000091
:1049A0000000000000000000800600000000000081
:1049B0000000000000000000800600000000000071
:1049C00000000000000000007A060605000000005C
:1049D0000000000000000000800500000000000052
:1049E000000000000000000079050707000000003B
:1049F0000000000000000000800700000000000030
:104A0000000000000000000080070000000000001F
:104A1000000000000000000080070000000000000F
:104A200000000000000000008007000000000000FF
:104A300000000000000000008007000000000000EF
:104A400000000000000000008007000000000000DF
:104A500000000000000000008007000000000000CF
:104A600000000000000000008007000000000000BF
:104A700000000000000000003207070247070000A6
:104A8000000000000000000080070000000000009F
:104A900000000000000000000F0707026A07000086
:104AA000000000000000000080070000000000007F
:104AB000000000000000000080070000000000006F
:104AC000000000000000000080070000000000005F
:104AD000000000000000000080070000000000004F
:104AE000000000000000000080070000000000003F
:104AF000000000000000000080070000000000002F
:104B0000000000000000000080070000000000001E
:104B10000000000000000000250707025407000005
:104B200000000000000000008007000000000000FE
:104B30000000000000000000020707022B07070228
:104B40004507000000000000800700000000000092
:104B500000000000000000001107070232070F02EA
:104B60002707000000000000800700000000000090
:104B7000000000000000000049070F0428070000A3
:104B8000000000000000000080070000000000009E
:104B9000000000000000000048070F042907000083
:104BA000000000000000000080070000000000007E
:104BB000000000000000000047070F042A07000063
:104BC00000000000000000006A071602000000005C
:104BD000000000000000000046020F040702040766
:104BE000200200000000000069021704000000001D
:104BF00000000000000000005B0404072104000026
:104C00000000000000000000680418070000000019
:104C1000000000000000000080070000000000000D
:104C200000000000000000008007000000000000FD
:104C300000000000000000008007000000000000ED
:104C400000000000000000008007000000000000DD
:104C500000000000000000008007000000000000CD
:104C600000000000000000008007000000000000BD
:104C700000000000000000008007000000000000AD
:104C8000000000000000000080070000000000009D
:104C9000000000000000000080070000000000008D
:104CA000000000000000000080070000000000007D
:104CB000000000000000000080070000000000006D
:104CC000000000000000000080070000000000005D
:104CD000000000000000000080070000000000004D
:104CE000000000000000000080070000000000003D
:104CF000000000000000000080070000000000002D
:104D0000000000000000000080070000000000001C
:104D1000000000000000000080070000000000000C
:104D200000000000000000008007000000000000FC
:104D300000000000000000008007000000000000EC
:104D400000000000000000008007000000000000DC
:104D500000000000000000008007000000000000CC
:104D600000000000000000008007000000000000BC
:104D700000000000000000008007000000000000AC
:104D8000000000000000000080070000000000009C
:104D9000000000000000000080070000000000008C
:104DA000000000000000000080070000000000007C
:104DB000000000000000000080070000000000006C
:104DC000000000000000000080070000000000005C
:104DD000000000000000000080070000000000004C
:104DE000000000000000000080070000000000003C
:104DF000000000000000000080070000000000002C
:104E0000000000000000000080070000000000001B
:104E1000000000000000000080070000000000000B
:104E200000000000000000008007000000000000FB
:104E300000000000000000008007000000000000EB
:104E400000000000000000008007000000000000DB
:104E500000000000000000008007000000000000CB
:104E600000000000000000008007000000000000BB
:104E700000000000000000008007000000000000AB
:104E8000000000000000000080070000000000009B
:104E9000000000000000000080070000000000008B
:104EA000000000000000000080070000000000007B
:104EB000000000000000000080070000000000006B
:104EC000000000000000000080070000000000005B
:104ED000000000000000000080070000000000004B
:104EE000000000000000000080070000000000003B
:104EF000000000000000000080070000000000002B
:104F00000000000000000000500730020000000018
:104F1000000000000000000080020000000000000F
:104F200000000000000000004F02310400000000FB
:104F300000000000000000008004000000000000ED
:104F400000000000000000004E040000000000000F
:104F50000000000000000000000000000000000051
:104F60000000000000000000000000000000000041
:104F70000000000000000000000000000000000031
:104F80000000000000000000000000000000000021
:104F90000000000000000000FFFFFFFFFFFFFFFF19
:104FA000FFFFFFFFFFFFFFFFFFFFFFFDFDFFFFFF15
:104FB000FFFDFDFBF8FDFDFFFFF8FBF8FBF8F8FD3A
:104FC000FFFBF8F8FBF8F8F8FFF8F8FBF8F8F8F84A
:104FD000FFF8F8F8F8F8F8F8FFFFFFFFFFFFFFFF12
:104FE000FFFFFFFFFFFFFFFFFFFFFFFDFDFFFFFFD5
:104FF000FFFDFDFBF8FDFDFFFDF8FBF8FBF8F8FDFC
:10500000F8FBF8F8FBF8F8F8F8F8F8FBF8F8F8F817
:10501000F8F8F8F8F8F8F8F8FFFFFFFFFFFFFFFFD8
:10502000FFFFFFFFFFFFFFFFFFFFFFFDFDFFFFFF94
:10503000FFFDFDFBF8FDFDFFFDF8FBF8FBF8F8FFB9
:10504000F8FBF8F8FBF8F8FFF8F8F8FBF8F8F8FFC9
:10505000F8F8F8F8F8F8F8FFFAF8F8F8F8F8F8F8C7
:10506000F8F8FBF8F8F8FBF8F8F8FBF8FBFBF8F8B1
:10507000F8F8F8FBF8F8F8F8F8F8FBF8FBF8F8F8A7
:10508000F8FBF8F8FBF8F8F8F8F8F8FBF8F8F8F897
:10509000F8F8F8F8F8F8F8F8ACACACACACACACACF0
:1050A000ACACACACACACACACADADADADADADADAD38
:1050B000ADADADADADADADADAEAEAEAEAEAEAEAE18
:1050C000AEAEAEAEAEAEAEAEAFAFAFAFAFAFAFAFF8
:1050D000AFAFAFAFAFAFAFAFABABABABABABABAB00
:1050E000ABABABABABABABABABABABABABABABAB10
:1050F000ABABABABABABABABABABABABABABABAB00
:10510000ABABABABABABABABABABABABABABABABEF
:10511000ABABABABABABABABA0A0A0A0A0A0A0A037
:10512000A0A0A0A0A0A0A0A0A0A0A0A0A0A0A0A07F
:10513000A0A0A0A0A0A0A0A0A0A0A0A0A0A0A0A06F
:10514000A0A0A0A0A0A0A0A0A0A0A0A0A0A0A0A05F
:10515000A0A0A0A0A0A0A0A0ABABABABABABABABF7
:10516000ABABABABABABABABABABABABABABABAB8F
:10517000ABADADADADADADABAEAEAEAEAEAEAEAE5B
:10518000ABAEAEAEAEAEAEABABABABABABABABAB5D
:10519000ABABABABABABABABBFBFBFBFBFBFBFBFBF
:1051A000BFBFBFBFBFBFBFBFBFBFBFBFBFBFBFBF0F
:1051B000BFBFBFBFBFBFBFBFBFBFBFBFBFBFBFBFFF
:1051C000BFBFBFBFBFBFBFBFBFBFBFBFBFBFBFBFEF
:1051D000BFBFBFBFBFBFBFBF0000000000000000D7
:1051E00000000000000000000000000000000000BF
:1051F000000000E3000000000000E3FFE300000007
:10520000000000E3000000000000000000000000BB
:10521000000000000000000000000000000000008E
:10522000000000000000000000000000000000007E
:10523000000000D2000000000000D2E3D200000015
:10524000000000D20000000000000000000000008C
:10525000000000000000000000000000000000004E
:105260000000000000009696000000000096969650
:1052700000000000969696960000009696969696E8
:105280000000969696969696000096969696969616
:105290000096969696969696009696969696960070
:1052A000969696969696969696969696969696969E
:1052B000969696969696969696969696969696968E
:1052C000969696969696969696969696969696967E
:1052D000969696969696969600000000000000001E
:1052E00096960000000000009696960000000000D0
:1052F0009696969600000000969696969600000068
:105300009696969696960000969696969696000095
:10531000969696969696960000969696959696965A
:1053200000969696959696969696969696959696B5
:10533000969696969695969696969696969695960F
:105340009696969696BF95969584969696BF9695C0
:105350008C83838C96BF96969696969696969696FE
:1053600096969696969696969696969696969696DD
:1053700096969696969696969696969696969696CD
:1053800096969696969696969696969696969696BD
:105390009696969696969696969696959696960044
:1053A0009696969596969600969695969696969635
:1053B000969695969696969696959696969696968F
:1053C0009695969696969596959696969695959583
:1053D00096969696948C8C958282828282BF9696BF
:1053E00000D8D8D8BFFFBF8200D8D8BFFFFFFFBF0B
:1053F00000D8BFFFFFFFFFFFBFBFFFFFFFFFFFFFA3
:105400000000BFFFFFFFFFFF000094BFFFFFFFBFD3
:105410000000008CBFFFBFD89696969696969696FB
:1054200083838C8C8C8C8C83D8D8D8D8D8D8D8D877
:10543000BFD8D8D8D8D8D8D8FFBFBFD8D8D8D8D810
:10544000BFD8D8D8D8D8D8D8D8D8D8D8D8D8D8D8F5
:10545000D8D8D8D8D8D8828296968C83838C8C8CD6
:105460008382838383838C0082828283838383000D
:105470008282828383838300D882828383838300B2
:1054800082828283838300008282838383950000EB
:10549000828283839500000040404040404040406D
:1054A00040404040404040404141414141414141F4
:1054B00041414141414141414242424242424242D4
:1054C00042424242424242424343434343434343B4
:1054D00043434343434343430000009695FFD8D8DA
:1054E0000000000096FF83820000000000FF9696F7
:1054F0000000000000BF96960000000000BF9696D6
:105500000000000000BF96960000000000BF0000F1
:105510000000000000770000D8D8D8828282828202
:1055200082828282828383838C8C838383838C9523
:10553000969696969696969696969696969696960B
:1055400096969696969696969696969696969696FB
:10555000009696969696960083838C95960000000A
:10556000838C96960000000096969600000000003E
:10557000969696000000000096960000000000003D
:1055800096960000000000000000000000000000EF
:1055900000000000000000004444444444444444EB
:1055A00044444444444444444545454545454545B3
:1055B0004545454545454545464646464646464693
:1055C0004646464646464646474747474747474773
:1055D000474747474747474700000000007700001C
:1055E00000000000007700000000000000770000CD
:1055F00000000000007700000000000000770000BD
:105600000000000000770000000000000000000023
:10561000000000000000000000000000000000008A
:1056200000003F3F3F3F2F00003F3F2F003F3F2FF5
:10563000003F3F2F3F3F3F2F003F3F3F2F3F3F2F38
:10564000003F3F2F003F3F2F00003F3F3F3F2F00D5
:10565000000000000000000000000000000000004A
:105660000000003F3F2F000000003F3F3F2F0000A1
:105670000000003F3F2F00000000003F3F2F0000D0
:105680000000003F3F2F0000003F3F3F3F3F3F2FC4
:10569000000000000000000000000000000000000A
:1056A00000003F3F3F3F2F00003F3F00003F3F2FA4
:1056B000000000003F3F2F000000003F3F2F000090
:1056C00000003F3F2F000000003F3F3F3F3F3F2F84
:1056D00000000000000000000000000000000000CA
:1056E000003F3F3F3F3F3F2F000000003F3F2F0064
:1056F0000000003F3F2F0000000000003F3F2F0050
:10570000003F3F00003F3F2F00003F3F3F3F2F0043
:105710000000000000000000000000000000000089
:10572000000000003F3F2F000000003F3F3F2F00E0
:1057300000003F3F3F3F2F00003F3F003F3F2F0013
:10574000003F3F3F3F3F3F2F000000003F3F2F0003
:105750000000000000000000000000000000000049
:10576000003F3F3F3F3F3F2F003F3F2F00000000E3
:10577000003F3F3F3F3F2F0000000000003F3F2F12
:10578000003F3F00003F3F2F00003F3F3F3F2F00C3
:105790000000000000000000000000000000000009
:1057A00000003F3F3F3F2F00003F3F2F0000000021
:1057B000003F3F3F3F3F2F00003F3F2F003F3F2F25
:1057C000003F3F2F003F3F2F00003F3F3F3F2F0054
:1057D00000000000000000000000000000000000C9
:1057E000003F3F3F3F3F3F2F00000000003F3F2F63
:1057F000000000003F3F2F000000003F3F2F00004F
:1058000000003F3F2F00000000003F3F2F0000003E
:105810000000000000000000000000000000000088
:1058200000003F3F3F3F2F00003F3F2F003F3F2FF3
:1058300000003F3F3F3F2F00003F3F2F003F3F2FE3
:10584000003F3F2F003F3F2F00003F3F3F3F2F00D3
:105850000000000000000000000000000000000048
:1058600000003F3F3F3F2F00003F3F2F003F3F2FB3
:1058700000003F3F3F3F3F2F00000000003F3F2F11
:10588000000000003F3F2F0000003F3F3F2F00007F
:105890000000000000000000000000000000000008
:1058A000000000FFFFE300000000FFFFFFFFE30038
:1058B00000FFFFE300FFFFE300FFFFE300FFFFE364
:1058C00000FFFFFFFFFFFFE300FFFFE300FFFFE339
:1058D00000000000000000000000000000000000C8
:1058E00000FFFFFFFFFFE30000FFFFE300FFFFE318
:1058F00000FFFFFFFFFFE30000FFFFE300FFFFE308
:1059000000FFFFE300FFFFE300FFFFFFFFFFE300F7
:105910000000000000000000000000000000000087
:105920000000FFFFFFFFE30000FFFFE300FFFFE3D6
:1059300000FFFFE30000000000FFFFE300000000A5
:1059400000FFFFE300FFFFE30000FFFFFFFFE300B6
:105950000000000000000000000000000000000047
:1059600000FFFFFFFFE3000000FFFFE3FFFFE30096
:1059700000FFFFE300FFFFE300FFFFE300FFFFE3A3
:1059800000FFFFE3FFFFE30000FFFFFFFFE3000076
:105990000000000000000000000000000000000007
:1059A00000FFFFFFFFFFFFE300FFFFE30000000039
:1059B00000FFFFFFFFFFE30000FFFFE30000000028
:1059C00000FFFFE30000000000FFFFFFFFFFFFE319
:1059D00000000000000000000000000000000000C7
:1059E00000FFFFFFFFFFFFE300FFFFE300000000F9
:1059F00000FFFFFFFFFFE30000FFFFE300000000E8
:105A000000FFFFE30000000000FFFFE300000000D4
:105A10000000000000000000000000000000000086
:105A20000000FFFFFFFFFFE300FFFFE300000000B7
:105A300000FFFFE30000000000FFFFE3FFFFFFE3C4
:105A400000FFFFE300FFFFE30000FFFFFFFFFFE3B6
:105A50000000000000000000000000000000000046
:105A600000FFFFE300FFFFE300FFFFE300FFFFE3B2
:105A700000FFFFFFFFFFFFE300FFFFE300FFFFE387
:105A800000FFFFE300FFFFE300FFFFE300FFFFE392
:105A90000000000000000000000000000000000006
:105AA00000FFFFFFFFFFFFE3000000FFFFE3000038
:105AB000000000FFFFE30000000000FFFFE3000024
:105AC000000000FFFFE3000000FFFFFFFFFFFFE318
:105AD00000000000000000000000000000000000C6
