:100000000C94931B0C94FC1B0C94FC1B0C94FC1B7D
:100010000C94FC1B0C94FC1B0C94FC1B0C94FC1B04
:100020000C946F210C94FC1B0C94FC1B0C94FC1B7B
:100030000C94FC1B0C94401F0C94801F0C94FC1B14
:100040000C94FC1B0C94FC1B0C94FC1B0C94FC1BD4
:100050000C94FC1B0C94FC1B0C94FC1B0C94FC1BC4
:100060000C94FC1B0C94FC1B0C94FC1B0C94FC1BB4
:100070008100450027FF24FF2A902B1C210C22FB26
:10008000850084008903888D81096F0244424700FE
:100090004501B083B300B10125118A4F8B035A5536
:1000A00001200101003808000000000000000000ED
:1000B00000000000000000000000000000001B2203
:1000C0001E227A227E22852226222B2230228D2277
:1000D000332236223922742277229D2200408891D1
:1000E000D2E4ADB5B6BEBFFF050300131415161755
:1000F00018191A1B1C1D1E1F000504000102030411
:1001000005060708090A0B0C0D000E0F101112004E
:1001100000000000000000000000000000000000DF
:1001200000000000000000000000000000000000CF
:1001300000000000000000000000000000000000BF
:1001400000000000000000000000000000000000AF
:10015000000000000000000000000000000000009F
:100160000000000000000000000000000000490046
:10017000000000004952520000004952531C250063
:100180004952522425251B52525C2D2D1C1212005F
:100190000000000000000000000000404949490044
:1001A000404949525B5B5B4A52525B1C1C13125B19
:1001B0001C241C12090909241B12090909090A0A2D
:1001C0000A0A0A0A0A0A130A0A120A0A12130A0077
:1001D0000000000000000092525252525252491345
:1001E000121309001C1B130A1212401B65641C0920
:1001F0000A0009241B1C65120000251C1C1C1C0184
:100200000025241C1C1C1C0024252424241C1C0048
:100210000000000000000049400000000000005203
:10022000494900000000001C5B4A48000000001C17
:100230002552490000000065246449000000006563
:10024000256449000000006D2E5C4900000000009C
:1002500000000000004052000000000049525C0015
:10026000000000535224250000005352252525008C
:10027000004A5225251B0000005B251300001B00CF
:100280005B53000A1C3737095B1C657F372E2E52E3
:100290002E2E1C131312002E251B13120000121CED
:1002A0001C12000012251C120000122E371C130015
:1002B000132E37361C131B37372E2E25131C1C2EDE
:1002C0002E2E2E1B1C1C1C6E6E6E1C1C1C1C1C0956
:1002D0001313121213130013131313131C00091317
:1002E0001313131C0100371313131C13002E2E1BA2
:1002F0001B1C1C001C772E1B1B2500137F251C1CA0
:100300001C010A37241C1C1C130A2E252509001366
:100310002E2425252525252E25252525252525257C
:10032000252D2E251B1C1C2E2E251C13251B1325AD
:100330001C1C1C1C0109521C1C1300011C5B5C0AC8
:10034000000165775C1B00016E7F6E521B00006D23
:100350001C5249000000001C135300000000001C48
:10036000524A00000000005B5B0000000000005CDF
:10037000000000000000000000000000000000007D
:10038000000000000000000000000000000000135A
:100390005B7F776E6E6E6E136577766E6E6E6E1B1C
:1003A00065777676766E771B5BBF76B6767676095E
:1003B000136DBFB7B6B765001B125C76BF766D00D4
:1003C00000121B125B5B5C00000000090A12136E36
:1003D00077241C1C1C1C1C77251C1C1C1C24256E33
:1003E0001C1C1C2425251B1C1C2425251300006413
:1003F0006D6D1B00096EBF6D5B09126EBF6D5B5B9F
:10040000125B645B121312131B1212090100001C11
:10041000242E1C0900096E2524010009767F7F0027
:100420000012777F7F641264BFBF775B121B09BF26
:100430006D5B121B09000012131B0900000000096C
:100440000000000000000000000000000000007F2D
:100450007F53131300000064121B01000000001BF7
:10046000120000000000000000000000000000007A
:10047000000000000000000000000000000000007C
:10048000000000000000000000000000000000006C
:100490000000000000000026000000260026262F95
:1004A0000000002F0000003700000037000000FFB0
:1004B000000000FF000000BF000000BF0000BF37C9
:1004C0000000370000370000262600000026260026
:1004D0000000000000000026262600262626260012
:1004E000002F002F0000000037000037000000FF41
:1004F000000000FFFFFFFF00000000BF0000000041
:1005000000000037000000262626002626262600AA
:10051000000000000000002600262626260000001D
:10052000002F0000002F00000037000000370000FF
:1005300000FFFFFFFF00000000BF000000BF000041
:10054000003700000037002600262626260000007F
:100550000000000000000000002626260026000003
:100560002F00002F002F003700000037000037FF5A
:10057000000000FF000000BF000000BF0000BF3708
:100580000000370000370026262600000026000065
:100590000000000000000000002600000000000035
:1005A000002F00000000000037000000000000FFE6
:1005B0000000000000000000BF000000000000007C
:1005C00000370000000000000026000000000000CE
:1005D000000000000000000000000000000000001B
:1005E0000000000000000000000000000000E40027
:1005F000000000099BEDF60000009BA4ADBFBF000A
:10060000529BA4767F7FB75B9B6D777F766EB7003A
:1006100000000000000000000000005BB6F6F600DD
:100620005BF6FFFFFFFFBFF6FFFFFFFFBFBFAEFFA1
:10063000BFFFFFFFB7AD65BFBFFFFFB7B6AD65B783
:10064000BFFFFFBFB7AE6EB7BFFFFFBFB7B7650055
:1006500000000000000000F6F6EDEDADA4A49BB68E
:100660006D6D5C526E65646565655265766D255C81
:100670005C52536E24656E6552526E252524255BAF
:1006800052772D25252524526E6E2D2525252500F2
:10069000000000000000009B49000000000000A4D2
:1006A0009B92000000000025649349000000006553
:1006B0002E9B52000000006D256552000000006D69
:1006C0002D6552000000006E2E64520000000000F4
:1006D0000000000000495B00000000004A5B65006C
:1006E0000000005B9B6D2D0000005B5B2D2E250044
:1006F00000525B2E2E1C0900015B2D1C01091C0001
:100700005C5B014A65777F4A5B1C6E7F7777769BDF
:1007100077776D656E6EA4776E6565655BA4B725AA
:10072000255C52526DBFBF130949647FBFBFBF092B
:100730005C7F7FBFBFB7BF7F7F777F7FB7BFBF774C
:10074000777F7F6EB7BFBF777F7F6E77BFBFBFB644
:10075000FFFFFFBFBFB75BBFFFFFFFBFBFA464BF0B
:10076000FFFFFFBFADA47FBFFFFFFFBFA4BF7FFFA1
:10077000FFFFBFADBFBFBFFFFFFFB6BFBFBF77FF6C
:10078000FFF7BFBFBF7777FFFFFFBFBFBF64526DEB
:100790007F6E2E2D2D256E7F766E6E6E2E256577E3
:1007A0007777762E1C25247F776E251C251C1B77DA
:1007B0006525251C090A5B6E6E1C09492564645B6E
:1007C000494A6E7F645C005377BF775B5C00006EC4
:1007D000255B4A000000001C1B5B00000000002499
:1007E0005B5300000000005B5C0000000000006440
:1007F00000000000000000000000000000000000F9
:100800000000000000000000000000000000005B8D
:100810005C7FBF777677775C6D7FB7777777775C2C
:100820006D7FBF777777BF5C64BFBFBFBFBF7F0AF5
:100830005C6EBFBFBFBF760065646DBFBFBFBF004A
:10084000005B6D646DADB600000000125B646D77F7
:100850007F6E6E77BFBFBF7F766D7677BFBFBF7786
:100860006D6E767FBFBFBF6D6E767FBFB7ADF6761C
:10087000BFBF76A4ADFFFFBFB664ADFFFFFFFFB6FD
:10088000ADBFFFFFFFFFF6ADB6AD645B520000FFEA
:10089000FFBFBFAD5B64BFFFFFB6ADADBFFFBFFF26
:1008A000F6FFFFFFFFBF64FFFFFFFFBFB6765BFFF2
:1008B000FFFFBFBF5B0000FFFFFF5C00000000A464
:1008C000000000000000000000000000000000BF69
:1008D000BF645C5C0000006E5C6549000000006D58
:1008E0005B000000000000000000000000000000AD
:1008F00000000000000000000000000000000000F8
:1009000000000000000000000000000000000000E7
:100910000000180900000000000208000855040843
:100920005A0000F8000990000A1E32050000FF5529
:100930005A4500004C4A42000041414100004242F9
:100940004200004343430000444444000020202070
:10095000474C4143494553202020005041555345C1
:10096000440045584954202D2058004C49564553C1
:100970003A00534849454C443A0053434F52453A94
:100980000053454C454354202D20412F5354415290
:100990005400484947482053434F5245530053544D
:1009A0004152540032303136204C415752454E436B
:1009B000452042524F4F4B5300000000C209000037
:1009C00000000002020004320103010103010103DF
:1009D00001010301010301010301010301010301FD
:1009E00001030101030101030101030101030101ED
:1009F00003010103010103010104010104010104D8
:100A000001010401010401010401010401010401C7
:100A100001040101040101040101040101040101B7
:100A200004010104010103010103010103010103A8
:100A3000010103010103010103010103010103019C
:100A4000010301010301010301010301010301018C
:100A50000301010301010401010401010401010476
:100A60000101040101040101040101040101040167
:100A70000104010104010104010104010104010157
:100A80000401010301010301010301010301010349
:100A9000010103010103010103010103010103013C
:100AA000010301010301010301010301010301012C
:100AB0000301010401010401010401010401010415
:100AC0000101040101040101040101040101040107
:100AD00001040101040101040101040101040101F7
:100AE000050000FF3C1A031505050505050505056C
:100AF00005050505050505050505050505050505A6
:100B00000505050505050505050505050505050595
:100B10000505050505050505050505050505050585
:100B20000505050505050505050505050505050575
:100E4000050505050201010101010305050505056B
:100E50000505050505050505050505050505050542
:100E60000505050505050505050505050505050532
:100E70000505050505050505050505050505050522
:100E80000505050505050505050505050505050512
:100E90000505050505050505050505050505050502
:100EA00005050505050505050505050505050505F2
:100EB00005050505050505050505050505050505E2
:100EC00005050505050505050505050505050505D2
:100ED00005050505050505050505050505050505C2
:100EE00005050505050505050505050505050505B2
:100EF00005050505050505050505050505050505A2
:100F00000505050505050505050505050505050591
:100F10000505050505050505050505050505050581
:100F20000505050505050505050505050505050571
:100F30000505050505050505050505050505050561
:100F40000505050505050505050505050505050551
:100F50000505050505050505050505050505050541
:100F6000050505050505050505020101010101034A
:100F7000050505050505050201010101010305053A
:100F80000505050505050505050505050505050511
:100F90000505050505050505050505050505050501
:100FA00005050505050505050505050505050505F1
:100FB00005050505050505050505050505050505E1
:100FC00005050505050505050505050505050505D1
:100FD00005050505050505050505050505050505C1
:100FE00005050505050505050505050505050505B1
:100FF00005050505050505050505050505050505A1
:101000000505050505050505050505050505050590
:101010000505050505050505050505050505050580
:101020000505050505050505050505050505050570
:101030000505050505050505050505050505050560
:101040000505050505050505050505050505050550
:101050000505050505050505050505050505050540
:101060000505050505050505050505050505050530
:101070000505050505050505050505050505050520
:101080000505050505050505010101010101010130
:101090000101010101010101010101010101010140
:1010A0000101010101010101010101010101010130
:1010B0000101010101010101010101010101010120
:1010C00001010101040404040404040404040404EC
:1010D00004040404040404040404040404040404D0
:1010E00004040404040404040404040404040404C0
:1010F00004040404040404040404040404040404B0
:10110000FEFEFEFEFEFEFE87FEFEFEFEFEFE878764
:10111000FEFEFEFEFEFE8787FEFEFEFE85858587BF
:10112000FEFEFE8587878785FEFE85878787878504
:10113000FE858787878585878587878585878787D4
:10114000878787FEFEFEFEFED2D2EBD2FEFEFEFEBB
:1011500087D2FDEBFEFEFEFE8787EBD2FEFEFEFE93
:10116000858787D2FEFEFEFE87858587EFFEFEFE21
:1011700087EF878787EFFEFEEFFFEF8787EFFEFEA3
:10118000FEFEFEFEFEFEFEFEFEFEFEFEFEFEFE87F6
:10119000FEFEFEFEFEFE8787FEFEFEFEFEFE87874B
:1011A000FEFEFEFE85858587FEFEFE858787878598
:1011B000FEFE858787878785FE8587878785858764
:1011C000FEFEFEFEFEFEFEFE878787FEFEFEFEFEA4
:1011D000D2D2EBD2FEFEFEFE87D2FDEBFEFEFEFE7D
:1011E0008787EBD2FEFEFEFE858787D2FEFEFEFEDF
:1011F00087858587EFFEFEFE87EF878787EFFEFEF8
:10120000FEFEFEFEFEFEFEFEFEFEFEFEFEFEFEFEFE
:10121000FEFEFEFEFEFEFEFEFEBABABABABABAFE86
:10122000BABDBDBDBDBDBDBAFEBABABABABABAFE84
:10123000FEFEFEFEFEFEFEFEFEFEFEFEFEFEFEFECE
:10124000FEFE464646464646FEA5A5A5474746FE3F
:10125000FE46464747463F3F4646474746FEFEFE58
:101260004646474746FEFEFEFE464647473F3FFE90
:10127000FEA5A5A547FEFEFEFEFE46464646FEFE30
:10128000FEFEFEFEFEFEFEFEFEFEFEFEFEFEFEFE7E
:10129000FEFEFEFEFEFEFEFEFEFEFEFEFEFEFEFE6E
:1012A000FEFEFEFEFEFEFEFEFEFEFEFEFEFEFEFE5E
:1012B000FEFEFEFEFEFEFEFEFEFEFEFEFEFEFEFE4E
:1012C00085878785FE858787FE858785FE85878755
:1012D000FE858787ADADADADFEFE8587ADADADAD0D
:1012E000FEFE8587ADADADADFEFEFE85A4AD878764
:1012F000FEFEFEFEA4A48587FEFEFEFEA4A4858756
:1013000087EF878587EFFEFE878787858787EFFED4
:10131000ADADADADAD87EFFEADADADADADADA4AD99
:10132000ADADADADADA4A4A4878787EFFEFEFEFEF4
:10133000878787EFFEFEFEFE878787EFFEFEFEFEB5
:1013400087EF878587EFFEFE878787858787EFFE94
:10135000ADADADADAD87EFFEADADADADADADA4AD59
:10136000ADADADADADA4A4A4878787EFFEFEFEFEB4
:10137000878787EFFEFEFEFE8787EFFEFEFEFEFEFE
:10138000858787858587878785878785FE85878782
:10139000FE858785FE858787FE858787ADADADADE8
:1013A000FEFE8587ADADADADFEFE8587ADADADADC5
:1013B000FEFEFE85A4AD8787FEFEFEFEA4A4858703
:1013C000EFFFEF8787EFFEFE87EF878587EFFEFE53
:1013D000878787858787EFFEADADADADAD87EFFE23
:1013E000ADADADADADADA4ADADADADADADA4A4A451
:1013F000878787EFFEFEFEFE8787EFFEFEFEFEFE7E
:10140000EFFFEF8787EFFEFE87EF878587EFFEFE12
:10141000878787858787EFFEADADADADAD87EFFEE2
:10142000ADADADADADADA4ADADADADADADA4A4A410
:10143000878787EFFEFEFEFE87878787EFFEFEFE2B
:10144000FEFEFEFEFEFEFEFEFEFEFEFEFEFEFEFEBC
:10145000FEFEFE2707FEFEFEFEFE27772707FEFEA6
:10146000FEFE07270707FEFEFEFEFE0707FEFEFE46
:10147000FEFEFEFEFEFEFEFEFEFEFEFEFEFEFEFE8C
:10148000FEFEFEFEFEFE8587FEFEFEFEFEFE85875C
:10149000FEFEFEFEFE8587EFFEFEFEFEFE8587EF6A
:1014A000FEFEFEFE8587EFFEFEFEFEFE8587EFFE5A
:1014B000FEFEFEFEA4A4A4FEFEFEFEFEA4A4A4A4C2
:1014C000EFFE85EFFEFEFEFEEFFE8585EFFEFEFEE3
:1014D000FEFE8585EFFEFEFEFEFE8585EFFEFEFE2E
:1014E000FEFE8585EFFEFEFEFEFE8585EFFEFEFE1E
:1014F000FEFEA4A4A4FEFEFEFEFEA4A4A4A4FEFE82
:10150000FEFEFEFEFEFEFE85FEFEFEFEFEFEFE85ED
:10151000FEFEFEFEFE858587FEFEFEFE8587878732
:10152000FEFEFEA4878787EFFEFEFEA4EFEFEFFE30
:10153000FEFEFEA4A4FEFEFEFEFEFEA4A4A4FEFE8D
:10154000878785FEFEFEFEFE87878785FEFEFEFE00
:10155000878787EFFEFEFEFE87EFEFFEFEFEFEFEB4
:10156000EF85EFFEFEFEFEFE8585EFFEFEFEFEFE33
:10157000A4A4A4FEFEFEFEFEA4A4A4A4FEFEFEFE01
:10158000FEFEFEFEA4A48587FEFEFEFE858585EF99
:10159000FEFEFEFE858585EFA4A485858585EFFE8C
:1015A000A4A485858585EFFEA4A4EFEFEFEFFEFEF2
:1015B000A4FEFEFEFEFEFEFEFEFEFEFEFEFEFEFEA5
:1015C0008787EFFEFEFEFEFEFE8587EFFEFEFEFE37
:1015D000FE858787EFFEFEFEFEFE8587EFFEFEFEA0
:1015E000FEFE858787EFFEFEFEFEFE8587EFFEFE90
:1015F000FEFEFEA4A4A4FEFEFEFEFEA4A4A4A4FE81
:10160000FEFEFEFEFEFEFE85FEFEFEFEFEFEFE85EC
:10161000FEFEFEFEFE858585FEFEFEFE8585858539
:10162000FEFEFEA4858585EFFEFEFEA4EFEFEFFE35
:10163000FEFEFEA4A4FEFEFEFEFEFEA4A4A4FEFE8C
:101640008787EFFEFEFEFEFE8587EF85FEFEFEFE2F
:101650008587EFEFFEFEFEFE8587EFFEFEFEFEFEB7
:101660008587EFFEFEFEFEFE8587EFFEFEFEFEFE98
:10167000A4A4A4FEFEFEFEFEA4A4A4A4FEFEFEFE00
:10168000FEFEFEFEA4A48587FEFEFEFE858585EF98
:10169000FEFEFEFE858585EFA4A485858585A4A430
:1016A000A4A485858585A4A4A4A4EFEFEFEFA4A44A
:1016B000A4FEFEFEFEFEA4FEFEFEFEFEFEFEFEFEFE
:1016C00087878587EFFEFEFEFEFE858787EFFEFE9D
:1016D000FEFE858787EFFEFE85858587EFFEFEFE91
:1016E00087878787EFFEFEFEEFEFEFEFFEFEFEFE41
:1016F000FEFEFEFEFEFEFEFEFEFEFEFEFEFEFEFE0A
:10170000FEFEFEFEFEFEFEFEFEFE12121212FEFEA9
:10171000AD120F1F1F0F12ADAD121212121212AD29
:10172000ADAD12121212ADADAD12AD1212AD12ADC1
:10173000ADFE12121212FEADADFEFEFEFEFEFEADBD
:10174000FEFEFEFEFEFEFEFEFEFEFEFEFEFEFE7F38
:10175000FEFEFEFEFE7F7F7FFEFEFEFE7F7F7F7F22
:10176000FEFEFEFEFEFE7F7FFEFEFEFEFEFEFEFE97
:10177000FEFEFEFEFEFEFEFEFEFEFEFEFEFEFEFE89
:10178000A4FEFEFEFEFEFEFEA4ADFEFEFFFFA4AD27
:10179000A4ADF6FFFFA4ADF6A4ADF6FFA4ADF6FF31
:1017A000A4ADFEFEA4ADF6FFA4FEFEA4A4ADF6FE1D
:1017B000FEFEFEA4A4ADF6F6FEFEFEFEFEFEFEFE5E
:1017C000FEFEFEFEFEFEFEFEF6FFFFFFD2FEFEFE6A
:1017D000FFFFFFFFD2EBFEFEFFFEFFFFEBFDD2FEA1
:1017E000FEFEFEFFD2EBD2D2FEFEFEFEFEFEFEFEAF
:1017F000F6FEFEFEFEFEFEFEFEFEFEFEFEFEFEFE11
:10180000FEFEBF7F7FBFFEFEFE7F7F7F7F7F7FFE6E
:10181000BF7F7F7F7F7F7FBF7F7F7F7F7F7F7F7F58
:101820007F7F7F7F7F7F7F7FBF7F7F7F7F7F7FBF48
:10183000FE7F7F7F7F7F7FFEFEFEBF7F7FBFFEFE3E
:10184000FEFEFEFEFEFEFEFEFEFEFEFEFEFEFEFEB8
:10185000FEFEFE7F7FFEFEFEFEFE7F7F7F7FFEFEA2
:10186000FEFE7F7F7F7FFEFEFEFEFE7F7FFEFEFE92
:10187000FEFEFEFEFEFEFEFEFEFEFEFEFEFEFEFE88
:10188000FEFEBF7F7FBFFEFEFE7F7F7F7F7F7FFEEE
:10189000BF7FFEFE7F7F7FBF7FFEFEFEFE7F7F7FDE
:1018A000FEFEFEFEFEFE7F7FFEFEFEFEFEFE7FBF14
:1018B000FEFEFEFEFEFE7FFEFEFEFEFEFEBFFEFE06
:1018C000FEFEFEFEFEFEFEFEFEFEFEFEFEFEFEFE38
:1018D000FEFEFEFEFEFEFEFEFEFEFEFEFEFEFEFE28
:1018E000FEFEFEBFE3FEFEFEFEFEFEFEFEFEFEFE72
:1018F000FEFEFEFEFEFEFEFEFEFEFEFEFEFEFEFE08
:10190000FEFEFEFEFEFEFEFEFEFEFEFEFFFEFEFEF6
:10191000FEFEFEFE7FFFFEFEFEFEFEFE7F7FFFFE62
:10192000FEFEFEFE7F7F7FFFFEFEFEFE7F7F7FFED0
:10193000FEFEFEFE7F7FFEFEFEFEFEFE7FFEFEFE44
:10194000FEFEFEFEFEFEFEFEFEFEFEFEFEFEFEFEB7
:10195000FEFEFEFEFEFEFEFEFEFEFEFEFEFEFEFEA7
:101960007F7F7F7F7F7FFFFEFE7F7F7F7FFFFEFE8B
:10197000FEFE7F7FFFFEFEFEFEFEFEFEFEFEFEFE84
:10198000FEFEFEFFFEFEFEFEFEFEFF7F7FFEFEFE73
:10199000FEFF7F7F7F7FFEFEFF7F7F7F7F7F7FFE5B
:1019A000FEFEFEFEFEFEFEFEFEFEFEFEFEFEFEFE57
:1019B000FEFEFEFEFEFEFEFEFEFEFEFEFEFEFEFE47
:1019C000FEFE12121212FEFEFE120F1F1F0F12FE5B
:1019D000AD121212121212ADAD12AD1212AD12AD45
:1019E000ADAD12121212ADADADFE12121212FEAD5D
:1019F000ADFEFEFEFEFEFEADADFEFEFEFEFEFEAD4B
:101A0000FEFEFEFEFEFEFEFEFEFEFEFEFEFEFE7F75
:101A1000FEFEFEFEFEFE7F7FFEFEFEFEFEFEFE7F63
:101A2000FEFEFEFEFEFEFEFEFEFEFEFEFEFEFEFED6
:101A3000FEFEFEFEFEFEFEFEFEFEFEFEFEFEFEFEC6
:101A4000A4FEFEFEFEFEFEFEA4A4FEFEFEFEFEFEC4
:101A5000A4A4ADFEFEFEFEFEA4A4ADADFEFEFEFE01
:101A6000A4A4ADADF6FEFEFEA4A4ADADF6F6FFFF58
:101A7000A4A4ADADF6F6FFFFA4A4ADADF6F6FFFF4E
:101A8000FEFEFEFEFEFEFEFEFEFEFEFEFEFEFEFE76
:101A9000FEFEFFFFFFFFA4A4FEFFFFFFFFA4A4A420
:101AA000FFFFFFFFFFA4A4A4FFFFFFFFA4A4A4ADBA
:101AB000FFFFFFFFA4A4ADADFFFFFFA4A4ADADF6F3
:101AC000FEFEFEFEFEFEFEFEFEFEFEFEFEFEFEFE36
:101AD000A4ADADF6F6FFFFFFA4ADADF6F6FFFFFF38
:101AE000ADADF6F6FFFFFFFFADF6F6FFFFFFFFFF20
:101AF000F6F6FFFFFFFFFFFFF6FFFFFEFEFFFFFF13
:101B0000FEFEFEFEFEFEFEFEFEFEFEFEFEFEFEFEF5
:101B1000D2FEFEFEFEFEFEFED2D2FEFEFEFEFEFE69
:101B2000D2D2D2FEFEFEFEFED2D3EBD3FEFEFEFEEE
:101B3000D2EBFDEBD2FEFEFED2D3EBD3D2D2FEFE31
:101B4000A4A4ADADF6F6FFFFA4A4ADADF6F6FFFF7D
:101B5000A4A4ADADF6F6FFFFA4A4ADADF6FEFEFE67
:101B6000A4A4ADADFEFEFEFEA4A4ADFEFEFEFEFEF0
:101B7000A4A4FEFEFEFEFEFEA4FEFEFEFEFEFEFE93
:101B8000FFFFFEA4ADADF6F6FFFEA4A4ADADF6F6E4
:101B9000FEFEA4A4ADADF6F6FEA4A4A4ADADF6F68B
:101BA000FEA4A4A4A4ADADF6A4A4A4A4A4A4ADAD25
:101BB000A4A4A4A4A4A4A4ADA4A4A4A4A4A4A4A4DC
:101BC000FFFFFEFEFEFEFFFFFFFEFEFEFEFEFEFF2F
:101BD000FEFEFEFEFEFEFEFEFEFEFEFEFEFEFEFE25
:101BE000F6FEFEFEFEFEFEFEF6F6FEFEFEFEFEFE2D
:101BF000ADF6F6FEFEFEFEFEADADF6F6FEFEFEFE18
:101C0000D2D2D2D2D2D2D2FEFFFFFFFFFFFFFFFF20
:101C1000FEFEFEFEFEFEFEFEFEFEFEFEFEFEFEFEE4
:101C2000FEFEFEFEFEFEFEFEFEFEFEFEFEFEFEFED4
:101C3000FEFEFEFEFEFEFEFEFEFEFEFEFEFEFEFEC4
:101C4000FEFEFEFEA4A48587FEFEFEFE858587EFD0
:101C5000FEFEFEFE858787EFA4A485858587EFFEBF
:101C6000A4A487878787EFFEA4A4EFEFEFEFFEFE23
:101C7000A4FEFEFEFEFEFEFEFEFEFEFEFEFEFEFEDE
:101C80008787EFFEFEFEFEFEFE8585EFFEFEFEFE72
:101C9000FE858585EFFEFEFEFEFE8585EFFEFEFEDF
:101CA000FEFE858585EFFEFEFEFEFE8585EFFEFECF
:101CB000FEFEFEA4A4A4FEFEFEFEFEA4A4A4A4FEBA
:101CC000FEFEFEFEFEFEFEFEFEFEFEFEFEFEFEFE34
:101CD000FEFEFEFEFEFEFEFEFEFEFEFEFEFEFEFE24
:101CE000FEFEFEFEFEFEFEFEFEFEFEFEFE8585857F
:101CF000FEA4878787878787A4A4EFEFEFEFEFEF36
:101D0000FEFEFEFEFEFEFEFEFEFEFEFEFEFEFE876A
:101D1000FEFEFEFE85858587FEFEFE85878787851C
:101D2000FEFE85858787878785858585858787AD3D
:101D300087878787AD858787EFEFEFEFADADA4A4E9
:101D400087878787FEFEFEFE87D2D2EBD2FEFEFE9D
:101D50008787D2FDEBFEFEFE878787EBD2FEFEFE75
:101D600085858787D2FEFEFEADADADADAD87EFFEBA
:101D7000ADADADADADADA4ADA4ADADADADA4A4A4C0
:101D800001012301011801010501010D01010404F4
:101D90000225262728292A2B2C0301241A1B03019C
:101DA000191A1B03012F3031020302030A0C161704
:101DB000020302030A0B2D2E02030001070914156A
:101DC000020302030A0B1213020300010709101198
:101DD0000203000107080E0F01011E01011D010190
:101DE0001C01011F01012201012101012001010645
:101DF00040404040404040404040404040404040E3
:101E000040404040404040404040404040404040D2
:101E100040404040404040404040404040404040C2
:101E200040404040404040404040404040404040B2
:101E3000FFFFFFFFFFFFFFFFFFFFFFFFFFFFFFFFB2
:101E4000FFFFFFFDFDFFFFFFFFFDFDFBF8FDFDFFB9
:101E5000FFF8FBF8FBF8F8FDFFFBF8F8FBF8F8F8E3
:101E6000FFF8F8FBF8F8F8F8FFF8F8F8F8F8F8F8E1
:101E7000FFFFFFFFFFFFFFFFFFFFFFFFFFFFFFFF72
:101E8000FFFFFFFDFDFFFFFFFFFDFDFBF8FDFDFF79
:101E9000FDF8FBF8FBF8F8FDF8FBF8F8FBF8F8F8AC
:101EA000F8F8F8FBF8F8F8F8F8F8F8F8F8F8F8F8AF
:101EB000FFFFFFFFFFFFFFFFFFFFFFFFFFFFFFFF32
:101EC000FFFFFFFDFDFFFFFFFFFDFDFBF8FDFDFF39
:101ED000FDF8FBF8FBF8F8FFF8FBF8F8FBF8F8FF63
:101EE000F8F8F8FBF8F8F8FFF8F8F8F8F8F8F8FF61
:101EF000FAF8F8F8F8F8F8F8F8F8FBF8F8F8FBF85A
:101F0000F8F8FBF8FBFBF8F8F8F8F8FBF8F8F8F845
:101F1000F8F8FBF8FBF8F8F8F8FBF8F8FBF8F8F835
:101F2000F8F8F8FBF8F8F8F8F8F8F8F8F8F8F8F82E
:101F3000ACACACACACACACACACACACACACACACACE1
:101F4000ADADADADADADADADADADADADADADADADC1
:101F5000AEAEAEAEAEAEAEAEAEAEAEAEAEAEAEAEA1
:101F6000AFAFAFAFAFAFAFAFAFAFAFAFAFAFAFAF81
:101F7000ABABABABABABABABABABABABABABABABB1
:101F8000ABABABABABABABABABABABABABABABABA1
:101F9000ABABABABABABABABABABABABABABABAB91
:101FA000ABABABABABABABABABABABABABABABAB81
:101FB000A0A0A0A0A0A0A0A0A0A0A0A0A0A0A0A021
:101FC000A0A0A0A0A0A0A0A0A0A0A0A0A0A0A0A011
:101FD000A0A0A0A0A0A0A0A0A0A0A0A0A0A0A0A001
:101FE000A0A0A0A0A0A0A0A0A0A0A0A0A0A0A0A0F1
:101FF000ABABABABABABABABABABABABABABABAB31
:10200000ABABABABABABABABABADADADADADADAB14
:10201000AEAEAEAEAEAEAEAEABAEAEAEAEAEAEABE6
:10202000ABABABABABABABABABABABABABABABAB00
:10203000ABABABABABABABABABABABABABABABA0FB
:10204000ABABABABABA0A0A0ABABABABA0A0A0A02D
:10205000ABABABA0A0A0A0A0ABABA0A0A0A0A0A049
:10206000ABABA0A0A0A0A0A0ABA0A0A0A0A0A0A04F
:10207000ABA4FFFFFFFFFFABA0A0A4FFFFFFFFFF8C
:10208000A0A0A0A4FFFFFFFFA0A0A0A0A4FFFFFFAF
:10209000A0A0A0A0A0A4FFFFA0A0A0A0A0A0A4FF1B
:1020A000A0A0A0A0A0A0A4FFA0A0A0A0A0A0A0A4C9
:1020B000ABABABABABABABABFFABABABABABABAB1C
:1020C000FFFFFFABABABABABFFFFFFFFABABABAB14
:1020D000FFFFFFFFFFABABABFFFFFFFFFFFFABABB4
:1020E000FFFFFFFFFFFFABABFFFFFFFFFFFFFFABFC
:1020F00040404040404040404040404040404040E0
:102100004040404040404040404040E3404040402C
:102110004040E3FFE3404040404040E34040404017
:1021200040404040404040404040404040404040AF
:10213000ABA0A0A0A0A0A0A0A0A0A0A0A0A0A0A094
:10214000A0A0A0A0A0A0A0A0A0A0A0A0A0A0A0A08F
:10215000A0A0A0A0A0A0A0A0A0A0A0A0A0A0A0A07F
:10216000A0A0A0A0A0A0A0A0ABA0A0A0A0A0A0A064
:10217000A0A0A0A0A0A0A0A4A0A0A0A0A0A0A0A05B
:10218000A0A0A0A0A0A0A0A0A0A0A0A0A0A0A0A04F
:10219000A0A0A0A0A0A0A0A0A0A0A0A0A0A0A0A03F
:1021A000A0A0A0A0A0A0A0A0A0A0A0A0A0A0A0A42B
:1021B000FFFFFFFFFFFFFFABA4FFFFFFFFFFFFFFDE
:1021C000A4FFFFFFFFFFFFFFA4FFFFFFFFFFFFFFD5
:1021D000A4FFFFFFFFFFFFFFA4FFFFFFFFFFFFFFC5
:1021E000A4FFFFFFFFFFFFFFFFFFFFFFFFFFFFABAE
:1021F000ABA0A0A0A0A0A0A0ABABA0A0A0A0A0A0BE
:10220000ABABA0A0A0A0A0A0ABABABA0A0A0A0A097
:10221000ABABABABA0A0A0A0ABABABABABA0A0A05B
:10222000ABABABABABABABA0ABABABABABABABAB09
:10223000A0A0A0A0A0A0A0A4A0A0A0A0A0A0A4FF37
:10224000A0A0A0A0A0A0A4FFA0A0A0A0A0A4FFFF69
:10225000A0A0A0A0A4FFFFFFA0A0A0A4FFFFFFFFDD
:10226000A0A0A4FFFFFFFFFFABA4FFFFFFFFFFAB9A
:10227000FFFFFFFFFFFFFFABFFFFFFFFFFFFABAB6A
:10228000FFFFFFFFFFFFABABFFFFFFFFFFABABAB02
:10229000FFFFFFFFABABABABFFFFFFABABABABAB42
:1022A000FFABABABABABABABABABABABABABABAB2A
:1022B000BFBFBFBFBFBFBFBFBFBFBFBFBFBFBFBF2E
:1022C000BFBFBFBFBFBFBFBFBFBFBFBFBFBFBFBF1E
:1022D000BFBFBFBFBFBFBFBFBFBFBFBFBFBFBFBF0E
:1022E000BFBFBFBFBFBFBFBFBFBFBFBFBFBFBFBFFE
:1022F0004040404040404040404040404040969632
:102300004040404040969696404040409696969673
:10231000404040969696969640409696969696960B
:10232000404096969696969640969696969696964F
:1023300040969696969696409696969696969696E9
:10234000969696969696969696969696969696962D
:10235000969696969696969696969696969696961D
:10236000969696969696969696969696969696960D
:1023700040404040404040409696404040404040B1
:1023800096969640404040409696969640404040F3
:10239000969696969640404096969696969640408B
:1023A00096969696969640409696969696969640CF
:1023B000BFBFBFBFBFBFBFBF404040404040404025
:1023C000404040404040404040404040404040400D
:1023D00040404040404040404040404040404040FD
:1023E00040404040404040404040404040404040ED
:1023F000409696969596969640969696959696962B
:10240000969696969695969696969696969596966E
:1024100096969696969695969696969696BF959635
:102420009584969696BF96958C83838C96BF969648
:10243000969696969696969696969696969696963C
:10244000969696969696969696969696969696962C
:10245000969696969696969696969696969696961C
:10246000969696969696969696969696969696960C
:1024700096969695969696409696969596969640AA
:1024800096969596969696969696959696969696EE
:1024900096959696969696969695969696969596DF
:1024A000959696969695959596969696948C8C95E7
:1024B0008282828282BF969640D8D8D8BFFFBF82E0
:1024C00040D8D8BFFFFFFFBF40D8BFFFFFFFFFFFCF
:1024D000BFBFFFFFFFFFFFFF4040BFFFFFFFFFFF4A
:1024E000404094BFFFFFFFBF4040408CBFFFBFD8BC
:1024F000969696969696969683838C8C8C8C8C83E7
:10250000D8D8D8D8D8D8D8D8BFD8D8D8D8D8D8D864
:10251000FFBFBFD8D8D8D8D8BFD8D8D8D8D8D8D85F
:10252000D8D8D8D8D8D8D8D8D8D8D8D8D8D88282D7
:1025300096968C83838C8C8C8382838383838C405C
:1025400082828283838383408282828383838340E7
:10255000D8828283838383408282828383834040C4
:10256000828283838395404082828383954040406A
:10257000404040404040404040404040404040405B
:10258000404040404040404040404040404040404B
:10259000404040404040404040404040404040403B
:1025A0004040404040404040BFBFBFBFBFBFBFBF33
:1025B0004040409695FFD8D84040404096FF8382E7
:1025C0004040404040FF96964040404040BF969675
:1025D0004040404040BF96964040404040BF9696A5
:1025E0004040404040BF4040404040404077404035
:1025F000D8D8D882828282828282828282838383B6
:102600008C8C838383838C959696969696969696D5
:10261000969696969696969696969696969696965A
:1026200096969696969696964096969696969640F6
:1026300083838C9596404040838C969640404040E2
:102640009696964040404040969696404040404086
:102650009696404040404040969640404040404022
:10266000404040404040404040404040404040406A
:1026700040404040407740404040404040774040EC
:1026800040404040407740404040404040774040DC
:1026900040404040407740404040404040774040CC
:1026A000404040404040404040404040404040402A
:1026B000404040404040404040404040404040401A
:1026C000404040404040404040404040404040400A
:1026D00040404040404040404040404040404040FA
:1026E00040404040404040404040404040404040EA
:1026F0004040404040404040404040FFFF4040405C
:10270000404040FFFF404040404040FFFF404040CD
:10271000404040FFFF40404040404040404040403B
:10272000404040FFFF40404040404040404040402B
:102730004040404040404040404040404040404099
:102740004040404040404040404040404040404089
:102750004040404040404040404040404040404079
:102760004040404040404040404040404040404069
:102770004040404040404040404040404040404059
:102780004040404040404040404040404040404049
:102790004040404040404040404040404040404039
:1027A0004040404040404040404040404040404029
:1027B0004040404040404040404040404040404019
:1027C0004040404040404040404040404040404009
:1027D00040404040404040404040404040404040F9
:1027E00040404040404040404040404040404040E9
:1027F00040404040404040404040404040404040D9
:1028000040404040404040404040404040404040C8
:1028100040404040404040404040404040404040B8
:1028200040404040404040404040404040404040A8
:102830004040404040404040404040404040404098
:102840004040404040404040404040404040404088
:102850004040404040404040404040404040404078
:102860004040404040404040404040404040404068
:102870004040404040404040404040404040404058
:102880004040404040404040404040404040404048
:102890004040404040404040404040404040404038
:1028A0004040404040404040404040404040404028
:1028B000404040404040404040404040FFFFFF40DB
:1028C000404040FFFFFF4040404040FFFF4040404D
:1028D000404040FFFF404040404040FFFFFF40403D
:1028E00040404040FFFFFF404040404040404040AB
:1028F000404040404040404040FFFFFF404040409B
:102900004040FFFFFF404040404040FFFF4040400C
:10291000404040FFFF4040404040FFFFFF404040FC
:1029200040FFFFFF4040404040404040404040406A
:102930004040404040404040404040404040404097
:102940004040404040404040404040404040404087
:102950004040404040404040404040404040404077
:102960004040404040404040404040404040404067
:102970004040404040404040404040404040404057
:102980004040404040404040404040404040404047
:102990004040404040404040404040404040404037
:1029A0004040404040404040404040404040404027
:1029B0004040404040404040404040404040404017
:1029C0004040404040404040404040404040404007
:1029D0004040404040404040404040FFFF40404079
:1029E000404040FFFF4040404040FFFF40404040EB
:1029F00040404040404040404040404040404040D7
:102A0000404040404040404040FFFFFFFFFFFF404C
:102A100040404040404040404040404040404040B6
:102A200040404040404040404040404040404040A6
:102A30004040404040404040404040404040404096
:102A40004040404040404040404040404040404086
:102A50004040404040404040404040FFFF404040F8
:102A6000404040FFFF4040404040404040404040E8
:102A700040404040404040404040404040FFFF40D8
:102A800040404040FFFF4040404040FFFF4040404A
:102A90004040FFFF4040404040FFFF40404040403A
:102AA00040FF404040404040404040404040404067
:102AB000404040404040404040406F6F6F6F40405A
:102AC000406F6F00006F6F40406F6F006F6F6F401F
:102AD000406F6F6F006F6F40406F6F00006F6F400F
:102AE00040406F6F6F6F404040404040404040402A
:102AF00040404040404040404040406F6F40404078
:102B000040406F6F6F4040404040406F6F404040DA
:102B10004040406F6F4040404040406F6F404040F9
:102B2000406F6F6F6F6F6F4040404040404040408B
:102B3000404040404040404040406F6F6F6F4040D9
:102B4000406F6F40406F6F40404040406F6F40406B
:102B50004040406F6F40404040406F6F40404040B9
:102B6000406F6F6F6F6F6F4040404040404040404B
:102B70004040404040404040406F6F6F6F6F6F403B
:102B8000404040406F6F40404040406F6F40404089
:102B9000404040406F6F4040406F6F40406F6F401B
:102BA00040406F6F6F6F4040404040404040404069
:102BB0004040404040404040404040406F6F4040B7
:102BC0004040406F6F6F404040406F6F6F6F4040BC
:102BD000406F6F006F6F4040406F6F6F6F6F6F405F
:102BE000404040406F6F4040404040404040404087
:102BF0004040404040404040406F6F6F6F6F6F40BB
:102C0000406F6F4040404040406F6F6F6F6F40407B
:102C100040404040406F6F40406F6F40406F6F409A
:102C200040406F6F6F6F40404040404040404040E8
:102C3000404040404040404040406F6F6F6F4040D8
:102C4000406F6F4040404040406F6F6F6F6F40403B
:102C5000406F6F00006F6F40406F6F00006F6F40FC
:102C600040406F6F6F6F40404040404040404040A8
:102C70004040404040404040406F6F6F6F6F6F403A
:102C800040404040406F6F40404040406F6F404088
:102C90004040406F6F40404040406F6F4040404078
:102CA00040406F6F404040404040404040404040C6
:102CB000404040404040404040406F6F6F6F404058
:102CC000406F6F00006F6F4040406F6F6F6F40400C
:102CD000406F6F00006F6F40406F6F00006F6F407C
:102CE00040406F6F6F6F4040404040404040404028
:102CF000404040404040404040406F6F6F6F404018
:102D0000406F6F00006F6F4040406F6F6F6F6F409C
:102D100040404040406F6F40404040406F6F4040F7
:102D200040406F6F6F404040404040404040404016
:102D30004040404040404040404040404040404093
:102D40004040404040404040404040404040404083
:102D50004040404040404040404040404040404073
:102D60004040404040404040404040404040404063
:102D7000404040FFFF404040404040FFFF40404057
:102D8000404040FFFF404040404040FFFF40404047
:102D9000404040FFFF404040404040FFFF40404037
:102DA000404040FFFF404040404040FFFF40404027
:102DB0004040404040404040404040404040404013
:102DC0004040404040404040404040404040404003
:102DD00040404040404040404040404040404040F3
:102DE00040404040404040404040404040404040E3
:102DF00040404040404040404040404040404040D3
:102E000040404040404040404040404040404040C2
:102E100040404040404040404040404040404040B2
:102E200040404040404040404040404040404040A2
:102E30004040404040404040404040404040404092
:102E40004040404040404040404040404040404082
:102E50004040404040404040404040404040404072
:102E60004040404040404040404040404040404062
:102E700040404040404040404040FFFFFFFF404056
:102E800040FFFF4040FFFF4040404040FFFF4040C8
:102E9000404040FFFF4040404040404040404040B4
:102EA000404040FFFF4040404040404040404040A4
:102EB00040404040404040404040FFFFFFFF404016
:102EC00040FFFF4040FFFF4040FFFF40FFFFFF404B
:102ED00040FFFF40FFFFFF4040FFFF4040404040B9
:102EE0004040FFFFFFFFFF40404040404040404027
:102EF0004040404040404040404040FFFF40404054
:102F00004040FFFFFFFF404040FFFF4040FFFF40C9
:102F100040FFFF4040FFFF4040FFFFFFFFFFFF403B
:102F200040FFFF4040FFFF404040404040404040A5
:102F3000404040404040404040FFFFFFFFFF4040D6
:102F400040FFFF4040FFFF4040FFFFFFFFFF4040CA
:102F500040FFFF4040FFFF4040FFFF4040FFFF4079
:102F600040FFFFFFFFFF40404040404040404040A6
:102F700040404040404040404040FFFFFFFF404055
:102F800040FFFF4040FFFF4040FFFF4040404040C7
:102F900040FFFF404040404040FFFF4040FFFF40B7
:102FA0004040FFFFFFFF4040404040404040404025
:102FB000404040404040404040FFFFFFFF40404015
:102FC00040FFFF40FFFF404040FFFF4040FFFF4009
:102FD00040FFFF4040FFFF4040FFFF40FFFF4040F9
:102FE00040FFFFFFFF4040404040404040404040E5
:102FF000404040404040404040FFFFFFFFFFFF4057
:1030000040FFFF404040404040FFFFFFFFFF404087
:1030100040FFFF404040404040FFFF4040404040B4
:1030200040FFFFFFFFFFFF40404040404040404026
:10303000404040404040404040FFFFFFFFFFFF4016
:1030400040FFFF404040404040FFFFFFFFFF404047
:1030500040FFFF404040404040FFFF404040404074
:1030600040FFFF40404040404040404040404040E2
:1030700040404040404040404040FFFFFFFFFF4095
:1030800040FFFF404040404040FFFF404040404044
:1030900040FFFF40FFFFFF4040FFFF4040FFFF4079
:1030A0004040FFFFFFFFFF40404040404040404065
:1030B000404040404040404040FFFF4040FFFF4014
:1030C00040FFFF4040FFFF4040FFFFFFFFFFFF408A
:1030D00040FFFF4040FFFF4040FFFF4040FFFF40F8
:1030E00040FFFF4040FFFF404040404040404040E4
:1030F000404040404040404040FFFFFFFFFFFF4056
:10310000404040FFFF404040404040FFFF404040C3
:10311000404040FFFF404040404040FFFF404040B3
:1031200040FFFFFFFFFFFF40404040404040404025
:10313000404040404040404040404040FFFFFF4052
:103140004040404040FFFF404040404040FFFF4083
:103150004040404040FFFF4040FFFF4040FFFF40F5
:103160004040FFFFFFFF4040404040404040404063
:10317000404040404040404040FFFF4040FFFF4053
:1031800040FFFF40FFFF404040FFFFFFFF40404047
:1031900040FFFFFFFF40404040FFFF40FFFF404037
:1031A00040FFFF4040FFFF40404040404040404023
:1031B000404040404040404040FFFF404040404091
:1031C00040FFFF404040404040FFFF404040404003
:1031D00040FFFF404040404040FFFF4040404040F3
:1031E00040FFFFFFFFFFFF40404040404040404065
:1031F000404040404040404040FFFF404040FFFFD3
:1032000040FFFFFF40FFFFFF40FFFFFFFFFFFFFF0B
:1032100040FFFF40FF40FFFF40FFFF404040FFFFF7
:1032200040FFFF404040FFFF4040404040404040A2
:10323000404040404040404040FFFF4040FFFF4092
:1032400040FFFFFF40FFFF4040FFFFFFFFFFFF4049
:1032500040FFFFFFFFFFFF4040FFFF40FFFFFF4039
:1032600040FFFF4040FFFF40404040404040404062
:1032700040404040404040404040FFFFFFFF404052
:1032800040FFFF4040FFFF4040FFFF4040FFFF4046
:1032900040FFFF4040FFFF4040FFFF4040FFFF4036
:1032A0004040FFFFFFFF4040404040404040404022
:1032B000404040404040404040FFFFFFFFFF404053
:1032C00040FFFF4040FFFF4040FFFF4040FFFF4006
:1032D00040FFFFFFFFFF404040FFFF4040404040B5
:1032E00040FFFF4040404040404040404040404060
:1032F00040404040404040404040FFFFFFFF4040D2
:1033000040FFFF4040FFFF4040FFFF4040FFFF40C5
:1033100040FFFF4040FFFF4040FFFF40FFFF4040B5
:103320004040FFFF40FFFF404040404040404040A1
:10333000404040404040404040FFFFFFFFFF4040D2
:1033400040FFFF4040FFFF4040FFFF4040FFFF4085
:1033500040FFFFFFFFFF404040FFFF40FFFF4040B6
:1033600040FFFF4040FFFF40404040404040404061
:1033700040404040404040404040FFFFFFFF404051
:1033800040FFFF40404040404040FFFFFFFF4040C3
:103390004040404040FFFF404040404040FFFF4031
:1033A0004040FFFFFFFF4040404040404040404021
:1033B000404040404040404040FFFFFFFFFFFF4093
:1033C000404040FFFF404040404040FFFF40404001
:1033D000404040FFFF404040404040FFFF404040F1
:1033E000404040FFFF40404040404040404040405F
:1033F000404040404040404040FFFF4040FFFF40D1
:1034000040FFFF4040FFFF4040FFFF4040FFFF40C4
:1034100040FFFF4040FFFF4040FFFF4040FFFF40B4
:1034200040FFFFFFFFFFFF40404040404040404022
:10343000404040404040404040FFFF4040FFFF4090
:1034400040FFFF4040FFFF4040FFFF4040FFFF4084
:1034500040FFFF4040FFFF404040FFFFFFFF404074
:10346000404040FFFF4040404040404040404040DE
:10347000404040404040404040FFFF404040FFFF50
:1034800040FFFF404040FFFF40FFFF40FF40FFFF85
:1034900040FFFFFFFFFFFFFF40FFFFFF40FFFFFF79
:1034A00040FFFF404040FFFF404040404040404020
:1034B000404040404040404040FFFF4040FFFF4010
:1034C00040FFFF4040FFFF404040FFFFFFFF404004
:1034D0004040FFFFFFFF404040FFFF4040FFFF40F4
:1034E00040FFFF4040FFFF404040404040404040E0
:1034F000404040404040404040FFFF4040FFFF40D0
:1035000040FFFF4040FFFF404040FFFFFFFF4040C3
:10351000404040FFFF404040404040FFFF404040AF
:10352000404040FFFF40404040404040404040401D
:10353000404040404040404040FFFFFFFFFFFF4011
:1035400040404040FFFF4040404040FFFF4040407F
:103550004040FFFF4040404040FFFF40404040406F
:1035600040FFFFFFFFFFFF404040404040404040E1
:10357000404040404040404040404040404040404B
:10358000404040404040404040404040404040403B
:10359000404040404040404040404040404040402B
:1035A000404040404040404040404040404040401B
:1035B000404040404040404040404040404040400B
:1035C00040404040404040404040404040404040FB
:1035D00040404040404040404040404040404040EB
:1035E00040404040404040404040404040404040DB
:1035F00040404040404040404040404040404040CB
:1036000040404040404040404040404040404040BA
:1036100040404040404040404040404040404040AA
:10362000404040404040404040404040404040409A
:10363000404040404040404040404040404040408A
:10364000404040404040404040404040404040407A
:10365000404040404040404040404040404040406A
:10366000404040404040404040404040404040405A
:10367000404040404040404040404040404040404A
:10368000404040404040404040404040404040403A
:10369000404040404040404040404040404040402A
:1036A000FFFFFFFFFFFFFFFF404040404040404022
:1036B00001010C0303090A0B0D0E0F101112010179
:1036C00008010107010106010105010104010103CF
:1036D0000101020101010F0513131300131313005D
:1036E00014151600131313171317001317170018C8
:1036F000191A0013171700130000130000001B1CF9
:103700001D001313131E131E00130000001F2021A1
:10371000001E1E13131313001300000022000000EC
:1037200013131301010011241FBECFEFD0E1DEBF40
:10373000CDBF15E0A0E0B5E0EAE1F1E602C00590FA
:103740000D92A230B107D9F71EE0A2E0B5E001C0AA
:103750001D92A539B107E1F70E94472114BE88E107
:103760000FB6F89480936000109260000FBE0E9424
:103770000422811102C00E94E221F89481E080932A
:10378000CC0C8093CD0C8093CB0C1092B80C109283
:10379000BE0C1092C40C1092CA0C1092D00C109255
:1037A000A00C1092A20C92E19093A10C90EE909339
:1037B000A80C94E19093A70C1092AC0C1092AB0C57
:1037C0001092B00C1092AF0C8093B70C0E94A82DF1
:1037D00080E790E0FC0125913491F901FF273083C7
:1037E000029620E08E399207A9F778940E94362E2F
:1037F0000E9439300C948B300C940000E0E0E09390
:103800006F00ADE8AA95F1F700000091DB0CEAE348
:10381000FCE023E0029FE00DF11DC0E0D1E020912B
:103820006A0D3CE3321B300F201751F000000000FE
:10383000A191B1911C9111930C9303950217C0F3C0
:1038400013E01A95F1F700C03A95D1F7C0E0D1E046
:1038500020919C0C922F287FC20F6E0100919D0C2D
:10386000602F06950695069510919E0C101BF12E63
:10387000102F069506950695D00F1770C10F67702B
:1038800040919A0C50919B0C6090960C7090970C04
:103890006ABC7BBC5E01762F8F2D992E00919E0C09
:1038A000202F069506950695039527703091990C63
:1038B00030300FB601FE662701FEC22F01FED02F69
:1038C00001FE8FEF01FE992401FE4ABD01FE5BBDA2
:1038D0008090A80CBCD324E02A95F1F700000E9448
:1038E000B01C23E12A95F1F7000063958A9409F151
:1038F000683029F008E00A95F1F70000EBCF662761
:103900000C2F0770073011F0C39502C0C87FD39504
:103910008A9509F4E6013A9509F4672F09F4E5015F
:1039200009F48F2D09F4992E09F46ABC09F47BBCC3
:10393000D1CF29E02A95F1F7000089D311240E9404
:10394000802CE091A20C42E0E160E427E093A20C1D
:10395000F894E2E0E0936F00E2E0E093360008952F
:10396000CF93DF937F936F933F93DF92CF929F929A
:103970007F926F9278E0679F0AB51BB500501740A1
:10398000000D111D18010AE315E0000D111D28019D
:1039900030E41BE1692D6770E62EF89409F0789405
:1039A000FE01E0522081239F020C131CF001959030
:1039B0006F012881C85F2C310FB7239FA10100FD43
:1039C000A201040E151ED0012881C85F2C317FB6DC
:1039D00070FA239FA1010EF4A201040E151EF0013E
:1039E0003F010024A60FB01D73E0679F00FF22C0B7
:1039F00000C060E07DE1600D711D6F937F930895BD
:103A00000D91C89508B90D91C89508B90D91C89543
:103A100008B90D91C89508B90D91C89508B90D91CF
:103A2000C89508B90D91C89508B90D91C89508B900
:103A30001EF540C0FD0162E27DE1600D711D6F93D6
:103A40007F930895059100C008B9059100C008B999
:103A5000059100C008B9059100C008B9059100C0E2
:103A600008B9059100C008B9059100C008B90591D1
:103A700000C008B9F301F6F0059108B92881059155
:103A800008B9239F059108B9C85F2C31059108B981
:103A900008F4A201059108B9040E151E059108B994
:103AA0002C311A95059108B9059139F1F00108B941
:103AB00018F700C0019108B928810191C85F08B9C1
:103AC000239F0191000008B92C3100C0019108B971
:103AD00008F0A1010191040E08B9151E00C0019162
:103AE00008B971900191F00178B800002C311A9555
:103AF00021F0000008B900F6DDCF08B927F530F451
:103B0000F001019108B9EA94E1F71FC0F601000045
:103B100098B8EA94C9F0059108B9EA94A9F005911A
:103B200008B9EA9489F0059108B9EA9469F0059119
:103B300008B9EA9449F0059108B9EA9429F0059189
:103B400008B9EA9409F000000000002708B96F9056
:103B50007F909F90CF90DF903F916F917F91DF9109
:103B6000CF91089520E4E091960CF091970C829FFC
:103B7000E00DF11DAAE3B5E0629FA00DB11D159007
:103B80001D9215901D9215901D9215901D921590E5
:103B90001D9215901D9215901D9215901D921590D5
:103BA0001D9215901D9215901D9215901D921590C5
:103BB0001D9215901D9215901D9215901D921590B5
:103BC0001D9215901D9215901D9215901D921590A5
:103BD0001D9215901D9215901D9215901D92159095
:103BE0001D9215901D9215901D9215901D92159085
:103BF0001D9215901D9215901D9215901D92159075
:103C00001D9215901D9215901D9215901D92159064
:103C10001D9215901D9215901D9215901D92159054
:103C20001D9215901D9215901D9215901D92159044
:103C30001D9215901D9215901D9215901D92159034
:103C40001D9215901D9215901D9215901D92159024
:103C50001D9215901D9215901D9215901D92159014
:103C60001D9215901D9215901D9215901D92159004
:103C70001D9215901D9215901D9215901D92112464
:103C8000089520E4EAE3F5E0829FE00DF11DAAE348
:103C9000B5E0629FA00DB11D11901D9211901D9273
:103CA00011901D9211901D9211901D9211901D92D4
:103CB00011901D9211901D9211901D9211901D92C4
:103CC00011901D9211901D9211901D9211901D92B4
:103CD00011901D9211901D9211901D9211901D92A4
:103CE00011901D9211901D9211901D9211901D9294
:103CF00011901D9211901D9211901D9211901D9284
:103D000011901D9211901D9211901D9211901D9273
:103D100011901D9211901D9211901D9211901D9263
:103D200011901D9211901D9211901D9211901D9253
:103D300011901D9211901D9211901D9211901D9243
:103D400011901D9211901D9211901D9211901D9233
:103D500011901D9211901D9211901D9211901D9223
:103D600011901D9211901D9211901D9211901D9213
:103D700011901D9211901D9211901D9211901D9203
:103D800011901D9211901D9211901D9211901D92F3
:103D900011901D9211901D92112408950F931F935D
:103DA000CF93DF9394E0899FE2E0F5E0E00DF11D11
:103DB00003818281E0E48E9FD00198E0099FCEE8E4
:103DC000DCE00024C10DD01DE881F981EA0FFB1F62
:103DD000AAE3B5E090E4699FA00DB11D1124DD2791
:103DE000403051F4A20FB11D822FC22F00FF11C02D
:103DF0003796C0E1C21B0DC088E0821B00FD04C0E5
:103E0000C82FE80FF11D05C0C8E0C20FE20FF11D79
:103E10003197503051F498E0939FA00DB11D932F2E
:103E200001FDE85C01FDFF4F0AC098E0931B632F82
:103E30006A9501FF692F58E0569FE00DF11D6FEF65
:103E40007FEF00FF61E000FF772701FD60971124FD
:103E50003EEF58E0591B48E0481B249123132C9354
:103E60001196E60FF71F4A95C1F7EC0FFD1FA80F3B
:103E7000B11D5A9581F7DF91CF911F910F91089550
:103E80000F921F92EF93FF93EFB7EF93E0918400AF
:103E9000E251F1E0EF1700F0F395FA30D8F30C940B
:103EA000511FE091A10CEA95E093A10CF091A00CB8
:103EB000F0FD57C0EC3098F0F3E0F0938900FDE896
:103EC000F0938800E0FB289826F4E1E00E94382077
:103ED000B7C0E5E1EA95F1F70000289AB1C0E630F5
:103EE00038F100C000C02898E0FBE4E016F40E941E
:103EF0003820E4E0E0933600E6E0E0936F00A0C0F5
:103F0000EF93EFB7EF93E0918400ED55E13000F0CF
:103F1000E23000F0E33000F0E43000F0E53000F093
:103F2000289AE2E0E0936F00EF91EFBFEF911895D0
:103F300000C0E0FB289826F4E1E00E94382005C08C
:103F4000E5E1EA95F1F70000289AE091A10CE03054
:103F500009F076C0EDEFE093A10CE1E0E093A00C56
:103F60006FC0E7E0E0938900EBE1E093880000C0D8
:103F70002898E2E000C00E943820FDEF0090A70CD6
:103F8000F019E091A10CEF17D0F4FDEF0090A70C11
:103F9000F0190090A80CF019EF1788F0EDE1FF2759
:103FA00000800F92EA95E1F706E00A95F1F70E948A
:103FB000FE1BE1E0FF270F900192EE31E0F3E0916C
:103FC000A10CE03009F03CC02F933F934F935F93D7
:103FD0006F937F938F939F93AF93BF9378941124A4
:103FE000EE27E093A00CE2E1E093A10C8091B10CEC
:103FF0009091B20C01968093B10C9093B20CE09129
:10400000A30CF091A40CE115F10509F009950E94AB
:10401000D2210E94AC2E0E9432201124E091A50CE6
:10402000F091A60CE115F10509F00995BF91AF914A
:104030009F918F917F916F915F914F913F912F91C0
:10404000EF91EFBFFF91EF911F900F901895289877
:10405000E2E000C00E943820E091A10CEA95E093D4
:10406000A10C0895E091B70CE0FD0E94252408956D
:104070000F931F932F93CF93DF932E2F0091B90CA3
:104080001091BB0C100F0091BA0CE091BC0CF09198
:10409000BD0CE01F0491E093BC0C1093BB0C10917D
:1040A000B80C01030008C12DD02D00000091BF0CF9
:1040B0001091C10C100F0091C00CE091C20CF09156
:1040C000C30CE01F0491E093C20C1093C10C10913B
:1040D000BE0C20FD289A20FF00C001030024000828
:1040E000C10DD01D0091C50C1091C70C100F00918F
:1040F000C60CE091C80CF091C90CE01F0491E0934C
:10410000C80C1093C70C1091C40C01030008C10D1A
:10411000D01D0091CC0C1091CD0CE091CE0CEA9505
:1041200092F4F091CB0CEF2FE695002E069400262A
:1041300000FA1695079516F9F0FF06F90093CC0CD6
:104140001093CD0C03C016E01A95F1F7E093CE0C56
:1041500010E821FD289A21FF00C000FD1FE7009113
:10416000CA0C10030008C10DD01D0091D30C109192
:10417000D10C010F0093D30CE091D40C1091D20C10
:10418000E11FF091D50C00E0F01F8F010090D60CDC
:104190001090D70C001911090090D80C1090D90C70
:1041A000E015F10508F0F801E093D40CF093D50C7C
:1041B00004911091D00C01030008C10DD01D002402
:1041C000C038D0050CF0CFE70A94C038D0050CF405
:1041D000C0E8C058C093B300DF91CF912F911F91D9
:1041E0000F91089580938E0C90938F0C0895E0E0CA
:1041F000F4E0A0E0B1E06CE16D933197E9F71124B0
:1042000008955091980C450F00C08F71762F6695D8
:104210006695669528E0829FD001A050BF4FB60FEB
:104220007770A70F445E4C93112408958093980CE7
:1042300008958093960C9093970C08958091A20C0A
:10424000817008952091A20C2E7F2093A20C0895D6
:10425000882329F48091A90C9091AA0C089580914B
:10426000AD0C9091AE0C0895F999FECF92BD81BD31
:1042700060BDF894FA9AF99A78940895F999FECF66
:1042800092BD81BDF894F89A80B57894089580E045
:104290008093A10C80936F008093880080938900A5
:1042A00080938A0080938B008093850080938400A4
:1042B0008093800081E080938100F89480E0809377
:1042C000540098E48091600088618093600090932E
:1042D000600078948091A10C8830E0F308950F93EA
:1042E0001F930FB70F930091A10C03950093A10C9E
:1042F00000FD08C01091B30C0091840010271093AA
:10430000B30C07C01091B40C0091840010271093D7
:10431000B40C08E4009360000F910FBF1F910F9140
:10432000189598E088E10FB6F894A89580936000FE
:104330000FBE90936000FFCF129AC895C895C8959C
:10434000C895129840E180E090E020E030E036959A
:10435000279596958795C895C895C895C89513983B
:10436000009B3068019B9068139AC895C895C895C2
:10437000C895415061F73093AA0C2093A90C9093F3
:10438000AE0C8093AD0C8091A90C9091AA0C0F9764
:1043900031F08091AD0C9091AE0C0F9711F40E940A
:1043A000912108951092E40C009903C081E080935C
:1043B000E40C019905C08091E40C82608093E40CC8
:1043C0000C949C21CF93DF93C0E0D0E0FE01E25635
:1043D000FF4F6491CE010E9434212196C032D10555
:1043E000A9F7C0E2D0E06FEFCE010E9434216FEF59
:1043F000CE0101960E943421A096C11588E0D8070D
:1044000091F7DF91CF910895CF9380E090E00E94E3
:104410003E21C82F81E090E00E943E21282F30E00D
:10442000322F22272C0F311D81E02A35354509F026
:1044300080E0CF910895FC0167870895E8EBFCE0E8
:1044400081E091E0958B848B638B0895FC019081D2
:104450009F7590830895FC019081906490830895E6
:10446000FC0166870895FC0162870895FC0163875B
:104470000895CF93DF93EC01462F298130E0F901B5
:10448000EE0FFF1FE85FF24B65917491F901E40FA5
:10449000F11D47FDFA95EE0FFF1FE85FF24B859186
:1044A0009491861B970B688570E00E9477306115A8
:1044B000710511F461E070E0EA8186E0E89FF001A7
:1044C0001124E854F34F81819281860F971F9283C4
:1044D00081837E836D838881886088838981480F8A
:1044E0004F83DF91CF910895FC0160870895FC010F
:1044F00064830895FC0182810C945E26FC01918105
:10450000690F618382810C944726FC019181961B7F
:10451000692F918382810C9447261F93CF93DF9359
:10452000EC01162F8A810E94472619838881877F94
:104530008883DF91CF911F910895DC0114968C91AF
:104540001497882319F155962D913C91569766231F
:1045500079F0772767FD70956F5F7F4FAB01440F50
:10456000551F640F751F261B370B09C0EF3F39F02D
:1045700023503109F9013297E491ED30B9F756969D
:104580003C932E935597815014968C930895909355
:104590005D0D80935C0D8FE680935F0D1092B60CDD
:1045A000E7EFFCE080E090E13FEF28E1DF011E97BC
:1045B0008C9312979C931D961C9211973C9310829A
:1045C00011972C9313979C938F5F7796853071F793
:1045D0000895DC01ED91FC9111979F012F5F3F4FF2
:1045E00011963C932E93E491E7FD03C08E2F90E04B
:1045F0000895EF778E2F90E09695982F88279795BE
:1046000087952F5F3F4FF9013197E4914E2F4F77F8
:10461000840F911DE7FDF0CF2D933C930895EF9209
:10462000FF920F931F93CF93DF931F92CDB7DEB707
:104630007C01162FFC018081082F001F0027001F1E
:1046400017869FEF96874587148A877B808312861B
:1046500011862183148293838281833069F401114E
:1046600001C0122F81E091E09093CD0C8093CC0C8F
:1046700081E08093CB0C39C0843069F51092D30C63
:1046800080915C0D90915D0DF9E06F9F800D911D03
:104690001124FC013196A591B491B093D50CA0934F
:1046A000D40CAC01495F5F4FFA0165917491059696
:1046B000FC0185919491681B790B7093D70C6093E2
:1046C000D60CFA0185919491A80FB91FB093D90C1B
:1046D000A093D80C05C060E029830E945E26298142
:1046E000622FF70182810E944726F701002311F013
:1046F000118B01C0108BE0915C0DF0915D0D39E0E4
:10470000139FE00DF11D1124339685919491F701CB
:10471000009719F4168A158A08C0138AFC0124919F
:10472000F701228B0196968B858B0F90DF91CF91AD
:104730001F910F91FF90EF900895CF93DF93E09139
:104740005C0DF0915D0D99E0899FE00DF11D112444
:10475000E491E130E9F0E230E9F02091FE0C27FF2E
:104760001DC020910F0D281302C0411117C02091C8
:10477000150D27FF11C02091260D281302C04111ED
:104780000BC02091120D9091290D921728F406C0AC
:10479000C3E005C0C4E003C0C2E001C0C1E097E1CE
:1047A000C99FE0011124C951D34F90E898831E8A14
:1047B0001D8A20E5462F682FCE010E940F23888195
:1047C00080628883DF91CF910895CF93DF93A82FE4
:1047D000B0E097E1899FF0011124E951F34F808106
:1047E00085FF02C087FD2EC0211118C097E19A9F56
:1047F000F0019B9FF00D1124E951F34F9785911122
:1048000002C086FF158697E19A9FF0019B9FF00DED
:104810001124E951F34F8F7B808314C0822F242F02
:1048200097E19A9FE0019B9FD00D1124C951D34F6E
:1048300018821E8A1D8A482FCE010E940F2388816C
:1048400080628883DF91CF9108956F927F928F92DB
:104850009F92AF92BF92CF92DF92EF92FF920F930F
:104860001F93CF93DF93C7EEDCE008EB1CE0D80189
:104870009E0140E050E0CA018951934F6C01FC0158
:104880008785882391F06685992787FD9095860F07
:10489000911D8F3F910519F014F08FEF90E097FF75
:1048A00002C080E090E0F6018687F901F080F3FE17
:1048B0002AC06581768111968D919C911297860F01
:1048C000971F12969C938E931197F601E780EE2D19
:1048D000F0E0EE0FFF1FE85FF24BC590D490161684
:1048E000170624F48C159D0530F40DC0672B59F084
:1048F000C816D90640F01296DC92CE9211978F2DF1
:10490000877FF9018083495E5F4F295E3F4F16968E
:104910004337510509F0AFCF8091B60C882309F4D5
:10492000CCC057E1F52E80915A0D90915B0D2091EE
:10493000600D3091610D8217930709F0B9C0209185
:10494000630D3091640DB9016F5F7F4F7093640DFB
:104950006093630DF90144914F3F79F5A9014E5FD2
:104960005F4F5093640D4093630DFB0164916F3270
:1049700019F41092B60C9CC0663009F08CC0FA0194
:104980004491C90104969093640D8093630DF901DD
:104990003396E491E33529F49093660D8093650D89
:1049A0007AC0E53409F077C08091650D9091660D6D
:1049B0009093640D8093630D6EC047FD40935E0D30
:1049C00090915E0D892F8F7047FF08C02E5F3F4F7B
:1049D0003093640D2093630DFB014491907F903BD5
:1049E000E1F0903C09F451C0903909F054C0E091D5
:1049F000630DF091640D9F012F5F3F4F3093640D65
:104A00002093630D2491220FF89EF0011124E951A7
:104A1000F34F60890E94E5233EC0E091630DF09161
:104A2000640D9F012F5F3F4F3093640D2093630D02
:104A3000E491473049F4F89ED0011124A951B34FB5
:104A4000EE0F1C96EC9327C04B3049F4F89ED00132
:104A50001124A951B34FEE0F1396EC931CC04C35A3
:104A600049F4F89ED0011124A951B34FEE0F1A96C4
:104A7000EC9311C0443679F4F89ED0011124A95169
:104A8000B34FEE0F1B96EC9306C0F89EF001112475
:104A9000E951F34F408B83E69DE00E94E922909319
:104AA000610D8093600D10925B0D10925A0D3BCFFB
:104AB000019690935B0D80935A0D90EFA92E9CE088
:104AC000B92E2AEFC22E2CE0D22E3BEFE32E3CE093
:104AD000F32E66246A94712C888185FF42C02D894B
:104AE0003E89232B09F43DC086FD3BC04701F2E01F
:104AF0008F1A9108D6019C91F401808198132EC0E1
:104B0000ED89FE89BF016F5F7F4F7E8B6D8B849136
:104B10008F3F31F488818F7788831E8A1D8A1EC05B
:104B20009F012E5F3F4F3E8B2D8BFB016491E82F41
:104B3000F0E0EE0FFF1FE254FF4F25913491CE01BC
:104B4000F9010995ED89FE89CF0101969E8B8D8B28
:104B5000E491D401EC93F6011082CCCF9F5FD60193
:104B60009C93988195FF6CC0F70180818F3F11F075
:104B70008F5F808397FD04C0F7013897908101C053
:104B80009FEFF70137978081882309F44EC0319653
:104B90005081552309F449C0992309F446C0409136
:104BA0005F0D442309F441C0899FC00111249395EE
:104BB000892F9927589F9001599F300D1124C901C1
:104BC0009395892F99273B975081589F9001599F22
:104BD000300D11243395232F3327429FC001439F6B
:104BE000900D11249395892F9927379620812223A0
:104BF000F1F0D501EC91F0E0E050F14BE491E05898
:104C00002E9FF0011124F395EF2FFF27A3014E1BD8
:104C10005F0B489F9001499F300D589F300D112424
:104C2000C9019395892F992702C080E090E0F50192
:104C30003081F70139972081230FD5012C9302C0D1
:104C400080E090E0F801808367960A5F1F4FF7E1EC
:104C5000AF0EB11C87E1C80ED11C97E1E90EF11C23
:104C6000ADE0CA35DA0709F037CFDF91CF911F9158
:104C70000F91FF90EF90DF90CF90BF90AF909F90FB
:104C80008F907F906F90089580935F0D089599277E
:104C90007727833009F40895E8E0FDE4660F771F75
:104CA000E60FF71FA591B491E8EBFCE026E0289F02
:104CB000E00DF11DA183B283112408959927772770
:104CC000E8EBFCE026E0289FE00DF11D6E3F31F49B
:104CD0006091CB0C6E7F6093CB0C0BC06F3F31F4B7
:104CE0006091CB0C6E6F6093CB0C03C07FE4760FAA
:104CF00075831124089500000000000000000000EA
:104D000080E08093B70C089522002400260028003C
:104D10002B002D0030003300360039003D004000EC
:104D2000440048004C00510056005B0060006600E3
:104D30006C00730079008100880090009900A20047
:104D4000AC00B600C100CC00D800E500F3000101C2
:104D5000100121013201440157016C0181019801C8
:104D6000B001CA01E5010202210241026402880287
:104D7000AE02D7020303300361039403CB0305049F
:104D800042048304C70410055D05AF0505066106EE
:104D9000C206290796070908830805098E09200A13
:104DA000BA0A5D0B0A0CC10C840D510E2B0F1210A8
:104DB00007110A121D1340147415BA16141883191A
:104DC000071BA31C571E24200E22142439267F28DB
:104DD000E82A752D293006330F364539AD3C494058
:104DE0001B442848734CFE50CF55EA5A51600C665C
:104DF0001D6C8B725A79928037885090E598FDA18E
:104E00009FABD3B5A3C0000000000000000000006D
:104E10000000000000000000000000000000000092
:104E20000000000000000000000000000000000082
:104E30000000000000000000000000000000000072
:104E40000000000000000000000000000000000062
:104E50000000000000000000000000000000000052
:104E60000000000000000000000000000000000042
:104E70000000000000000000000000000000000032
:104E80000000000000000000000000000000000022
:104E90000000000000000000000000000000000012
:104EA0000000000000000000000000000000000002
:104EB00000000000000000000000000000000000F2
:104EC00000000000000000000000000000000000E2
:104ED00000000000000000000000000000000000D2
:104EE00000000000000000000000000000000000C2
:104EF00000000000000000000000000000000000B2
:104F0000000306090C101316191C1F2225282B2E2E
:104F1000313336393C3F414447494C4E5153555843
:104F20005A5C5E60626466686A6B6D6F7071737400
:104F3000757678797A7A7B7C7D7D7E7E7E7F7F7FB9
:104F40007F7F7F7F7E7E7E7D7D7C7B7A7A7978769F
:104F500075747371706F6D6B6A68666462605E5CB5
:104F60005A585553514E4C494744413F3C393633CA
:104F7000312E2B2825221F1C191613100C0906038D
:104F800000FDFAF7F4F0EDEAE7E4E1DEDBD8D5D294
:104F9000CFCDCAC7C4C1BFBCB9B7B4B2AFADABA85F
:104FA000A6A4A2A09E9C9A9896959391908F8D8C82
:104FB0008B8A8887868685848383828282818181A9
:104FC0008181818182828283838485868687888AA3
:104FD0008B8C8D8F9091939596989A9C9EA0A2A46D
:104FE000A6A8ABADAFB2B4B7B9BCBFC1C4C7CACD38
:104FF000CFD2D5D8DBDEE1E4E7EAEDF0F4F7FAFD55
:10500000808182838485868788898A8B8C8D8E8F28
:10501000909192939495969798999A9B9C9D9E9F18
:10502000A0A1A2A3A4A5A6A7A8A9AAABACADAEAF08
:10503000B0B1B2B3B4B5B6B7B8B9BABBBCBDBEBFF8
:10504000C0C1C2C3C4C5C6C7C8C9CACBCCCDCECFE8
:10505000D0D1D2D3D4D5D6D7D8D9DADBDCDDDEDFD8
:10506000E0E1E2E3E4E5E6E7E8E9EAEBECEDEEEFC8
:10507000F0F1F2F3F4F5F6F7F8F9FAFBFCFDFEFFB8
:10508000000102030405060708090A0B0C0D0E0FA8
:10509000101112131415161718191A1B1C1D1E1F98
:1050A000202122232425262728292A2B2C2D2E2F88
:1050B000303132333435363738393A3B3C3D3E3F78
:1050C000404142434445464748494A4B4C4D4E4F68
:1050D000505152535455565758595A5B5C5D5E5F58
:1050E000606162636465666768696A6B6C6D6E6F48
:1050F000707172737475767778797A7B7C7D7E7F38
:1051000000020406080A0C0E10121416181A1C1EAF
:1051100020222426282A2C2E30323436383A3C3E9F
:1051200040424446484A4C4E50525456585A5C5E8F
:1051300060626466686A6C6E70727476787A7C7E7F
:105140007F7D7B79777573716F6D6B69676563615F
:105150005F5D5B59575553514F4D4B49474543414F
:105160003F3D3B39373533312F2D2B29272523213F
:105170001F1D1B19171513110F0D0B09070503012F
:10518000FFFDFBF9F7F5F3F1EFEDEBE9E7E5E3E11F
:10519000DFDDDBD9D7D5D3D1CFCDCBC9C7C5C3C10F
:1051A000BFBDBBB9B7B5B3B1AFADABA9A7A5A3A1FF
:1051B0009F9D9B99979593918F8D8B8987858381EF
:1051C00080828486888A8C8E90929496989A9C9EEF
:1051D000A0A2A4A6A8AAACAEB0B2B4B6B8BABCBEDF
:1051E000C0C2C4C6C8CACCCED0D2D4D6D8DADCDECF
:1051F000E0E2E4E6E8EAECEEF0F2F4F6F8FAFCFEBF
:105200007F7F7F7F7F7F7F7F7F7F7F7F7F7F7F7FAE
:105210007F7F7F7F7F7F7F7F7F7F7F7F7F7F7F7F9E
:105220007F7F7F7F7F7F7F7F7F7F7F7F7F7F7F7F8E
:105230007F7F7F7F7F7F7F7F7F7F7F7F7F7F7F7F7E
:105500000309131E28313A40464C5054585B5E61E3
:10551000636567696B6C6E6F7071727374757677A3
:10552000777879797A7A7B7B7C7C7C7D7D7D7E7EC9
:105530007E7E7F7F7F7F7F7F7F7F7F7F7F7F7F7F7D
:105540007F7F7F7F7F7F7F7F7F7F7F7F7F7E7E7E6E
:105550007E7D7D7D7C7C7C7B7B7A7A7979787777A0
:10556000767574737271706F6E6C6B696765636169
:105570005E5B5854504C46403A31281E13090300D4
:10558000C6CCD5DBDFE3E5E7E9EAEBECEDEEEFEFE8
:10559000F0F0F0F1F1F1F1F2F2F2F2F2F2F2F2F3F4
:1055A000F3F3F3F3F3F3F3F3F3F3F3F3F3F3F3F3CB
:1055B000F3F3F3F3F3F3F3F3F3F3F3F3F3F3F3F3BB
:1055C000F3F3F3F3F3F3F3F3F3F3F3F3F3F3F3F3AB
:1055D000F3F3F3F3F3F3F3F3F3F3F3F3F3F3F3F39B
:1055E000F2F2F2F2F2F2F2F2F1F1F1F1F0F0F0EFA8
:1055F000EFEEEDECEBEAE9E7E5E3DFDBD5CCC60067
:1056000000283D42302D2C2B2C2D2E2F30323335BF
:1056100037393B3D3F414345484A4C4E505355571F
:10562000595B5D5F61636567696B6C6E7071737404
:10563000757778797A7B7C7D7D7E7E7F7F7F7F7FAB
:105640007F7F7F7F7F7F7E7E7D7D7C7B7A79787791
:1056500075747371706E6C6B69676563615F5D5BB8
:1056600059575553504E4C4A484543413F3D3B39AD
:1056700037353332302F2E2D2C2B2C2D30423D2818
:1056800000E9E5FED4D7D7D7D6D4D2D0CECCCAC87D
:10569000C6C3C1BFBDBAB8B6B4B1AFADABA9A7A5BB
:1056A000A3A19F9E9C9A999795949391908F8D8C8E
:1056B0008B8A89888887868585848484838383838D
:1056C0008383838383848484858586878888898A85
:1056D0008B8C8D8F909193949597999A9C9E9FA176
:1056E000A3A5A7A9ABADAFB1B4B6B8BABDBFC1C38E
:1056F000C6C8CACCCED0D2D4D6D7D7D7D4FEE5E947
:10570000F9F8F9F5EBE1DDDEE0E2E4E5E6E5E4E217
:10571000DED9D2CAC1B7ACA299918A868381808032
:105720008182838586888A8C8D8F909293959697B7
:1057300098999A9B9B9C9D9D9D9E9E9E9F9F9F9F9F
:105740009F9F9F9E9E9E9D9D9D9C9B9B9A99989797
:1057500096959392908F8D8C8A888685838281809E
:10576000808183868A9199A2ACB7C1CAD2D9DEE280
:10577000E4E5E6E5E4E2E0DEDDE1EBF5F9F8F90089
:105780000708070B151F2322201E1C1B1A1B1C1E9B
:1057900022272E363F49545E676F767A7E7F7F7F61
:1057A0007F7E7D7B7A7876747371706E6D6B6A69BB
:1057B00068676665656464636362626261616161B2
:1057C000616161626262636363646565666768699B
:1057D0006A6B6D6E7071737476787A7B7D7E7F7F75
:1057E0007F7F7E7A766F675E54493F362E27221E72
:1057F0001C1B1A1B1C1E2022231F150B0708070049
:105800001F313D444E5354565A5F64696E74767925
:105810007C7F7F7F7F7F7F7F7F7F7F7F7F7F7F7F9B
:105820007F7F7F7F7F7F7F7F7F7F7F7F7F7F7F7F88
:105830007F7F7F7F7F7F7F7F7F7F7F7F7F7F7F7F78
:105840007F7F7F7F7F7F7F7F7F7F7F7F7F7F7F7F68
:105850007F7F7F7F7F7F7F7F7F7F7F7F7F7F7F7F58
:105860007F7F7F7F7F7F7F7F7F7F7F7F7F7F7F7F48
:105870007F7F7F7F7F7F7F7F7F7F7F7C7871684C9A
:105880002C1C120C0A0B0A05FDF3E9DFD4CAC0B7C1
:10589000AEA69E97918B8685828080808080808056
:1058A00080808080808080808080808080808080F8
:1058B00080808080808080808080808080808080E8
:1058C00080808080808080808080808080808080D8
:1058D00080808080808080808080808080808080C8
:1058E00080808080808080808080808080808080B8
:1058F000808080808087919DACC4CBD4DDF2FAFAA1
:105900008091DB0C90916A0D891778F4E82FF0E014
:105910009F01220F331FE20FF31FE65CF34FA081BC
:10592000B18192819C938F5FEDCF08952F923F922A
:105930004F925F926F927F928F929F92AF92BF929F
:10594000CF92DF92EF92FF920F931F93CF93DF934B
:1059500000D000D0CDB7DEB780910005882309F4D0
:10596000E0C08091DA0C8093DB0C80936A0DE2E05A
:10597000CE2EE5E0DE2E712CF6012081203E09F4CA
:10598000B1C080919C0C90E0820F911D41812091CB
:105990009D0C30E0240F311DAC0173E05695479506
:1059A0007A95E1F7642E877011F092E001C091E0E2
:1059B0009983A90163E0569547956A95E1F7542EBE
:1059C000277019F052E0352E02C03324339430E0B2
:1059D000322F2227F901E80FF11DFC83EB83E12C24
:1059E000F12CBE2CAA24262C452C4E0C842C912C58
:1059F000842D20919E0C422F50E0440F551F841699
:105A0000950614F0220F03C0421610F0842D821B5D
:105A1000FFE1F21518F400EE020D01C0022D282F4F
:105A200026952695269510E040E2249F000D111D35
:105A3000112423E0000F111F2A95E1F78770080F4A
:105A4000111D00501F4FF801708181E07C3108F476
:105A500080E021E03091DB0C731718F020E0882300
:105A600051F160916A0D6C3120F5882331F084EE9C
:105A7000870F7A830E94B21D06C0222329F0872F48
:105A80007A830E94411E7A8180916A0DE82FF0E0AE
:105A90009F01220F331FE20FF31FE65CF34F1183C8
:105AA00000837283F801808321E0280F20936A0D20
:105AB000782F7C3138F42B813C81A501672F872D0D
:105AC0000E94CE1EFFEFAF1ABF0A2394822D8619C3
:105AD0009981891708F48CCFEFEFEE1AFE0AE314D0
:105AE00008F47FCF7394F4E0CF0ED11C4EE0741213
:105AF00043CF0F900F900F900F90DF91CF911F9198
:105B00000F91FF90EF90DF90CF90BF90AF909F905C
:105B10008F907F906F905F904F903F902F900C945C
:105B2000802C0F900F900F900F90DF91CF911F91CD
:105B30000F91FF90EF90DF90CF90BF90AF909F902C
:105B40008F907F906F905F904F903F902F9008952F
:105B5000E2E0F5E080EE8083349695E0EA33F907E1
:105B6000D1F780E280939E0C1092990C08954F9289
:105B70005F926F927F928F929F92AF92BF92CF92DD
:105B8000DF92EF92FF920F931F93CF93DF93682ED4
:105B9000562E7A01FA01749031968490C72CD12C3C
:105BA00000E010E0912C9814F1F0C0E0D0E0580132
:105BB000F2E0AF0EB11C492C450CC71580F49501DD
:105BC0002C0F3D1FF701E20FF31F2491422F50E0ED
:105BD000642D8C2F860D0E9405212196EECF939483
:105BE0000C0D1D1DE0CFDF91CF911F910F91FF9004
:105BF000EF90DF90CF90BF90AF909F908F907F906D
:105C00006F905F904F9008950F931F93CF93DF9302
:105C1000062FC42FD52F182F141BFE0144914423A7
:105C200049F04F774052602F8C2F810F0E94012145
:105C30002196F3CFDF91CF911F910F9108950F938C
:105C40001F93CF93DF938C01C0E0D0E0C017D10742
:105C500044F40E941E218823E1F30E942221219610
:105C6000F5CFDF91CF911F910F9108958FE099E0CB
:105C70000E94C7228FE091E00E9419210E94F72024
:105C80008FE090E00E941F2E41E06FEF80E00E94C5
:105C90009D2349EF50E06CE08CE00E94B72D83E03B
:105CA00090E00E941F2E48EE50E06CE08CE00E94D5
:105CB000B72D82E090E00E941F2E49EF50E06CE08B
:105CC0008CE00E94B72D81E490E00E941F2E0E947C
:105CD000F72084E190E00C941F2E8093680D1092C1
:105CE0006C0D81E080936B0D662321F080916B0D2C
:105CF0008111FCCF0895811103C08FEF87B90895FA
:105D000091E090936D0D9093690D0C946D2E8091A0
:105D10006B0D882301F180916C0D811119C0809168
:105D2000680D80936C0DE0916D0DF0E0E552FF4F32
:105D3000E491E7B99091690D80916D0D890F809381
:105D40006D0D882311F08D3031F410926B0D089594
:105D5000815080936C0D08950E94872E0C94962C90
:105D60000F931F93CF93DF931F92CDB7DEB78C01B4
:105D7000862F69830E942821D80115969C938E93C3
:105D800014976981E62FF0E0009751F0DF01AA0F28
:105D9000BB1FA052B34F2D913C918217930721F066
:105DA000D80116961C9207C0D80116962C9116970A
:105DB0002F5F16962C93EE0FFF1FE052F34F2081BA
:105DC0003181A9014095509548235923D801119656
:105DD0005C934E93AC014095509524233523139644
:105DE0003C932E931297918380830F90DF91CF91F4
:105DF0001F910F910895DF92EF92FF920F931F93DF
:105E0000CF93DF93DB01FB011491319664915FEF37
:105E1000510F242F217040FF04C0952FFF24FA94C6
:105E200003C0FF24F39490E041FF05C07FEF760F9D
:105E3000EE24EA9403C0EE24E39470E0211101C043
:105E400050E000E0061709F17103E0011124D82E9B
:105E5000D10E8D15B1F09E01290F311D97FD3A9598
:105E60002E5F3F4FFD01E20FF31F249134E0839F2B
:105E7000F0011124EB5DF14F22838F5F43839F0D6F
:105E8000E8CF7E0D0F5F952FDDCFDF91CF911F9172
:105E90000F91FF90EF90DF900895DF92EF92FF92C5
:105EA0000F931F93CF93DF93A0919E0C98E0A99F2F
:105EB0007001112450E038EFA39F302D112470E0C1
:105EC000701709F1D42E132F140FB82FB20F962F7D
:105ED0008B17A9F0C4E08C9FF0011124EF01CB5D7A
:105EE000D14F9883A03228F4E416F50614F41983F0
:105EF00003C0EB5DF14FD1828F5F985FE9CF7F5F89
:105F0000485F5F4FDDCFDF91CF911F910F91FF90E1
:105F1000EF90DF9008959091DC0C911106C0A5E2FE
:105F2000BEE0E2E0F5E020E026C0A2E0B5E022EF2E
:105F3000280F882389F0815034E0839FF0011124D9
:105F4000EB5DF14F40815181628173814D935D938F
:105F50006D937D938213EDCF91709093DC0C089537
:105F60004D915D916D917D914193519361937193A9
:105F70002F5F2E3089F32813F3CFEECF0F93CF93FB
:105F8000C0E001E021E040E060EE8C2F0E944D2F48
:105F9000CF5FCC31B1F78EE0CF910F910C948B2F66
:105FA0000F93EEE8FDE0108213820E94BE2F44EAB8
:105FB00059E060E270E080E090E00E94042E4EE93B
:105FC00059E06FE070E088E090E00E94042E42E922
:105FD00059E060E170E088E090E00E94042E41E822
:105FE00059E065E170E086E090E00E94042E44EA0A
:105FF00059E06AE170E084E090E00E94042E46EDF2
:1060000056E365E086E00E94B72D40E06AEE7DE150
:1060100080E00E94FB2E01E021E048E768E380E099
:106020000E944D2F81E00F910C948B2F0F93809144
:106030001E0E85FF0BC09091910D911107C081E05C
:106040008093910D01E021E040E80BC084FF0DC07A
:106050008091910D813049F41092910D01E021E081
:1060600048E768E380E00E944D2F81E00F910C9497
:106070008B2F89EB99E00E94C7220E94F7208FEFB7
:106080000E94442680EF9DE10E94192180E091E169
:106090000E94F22083E20E94162160E083E00E94C9
:1060A0007B2E0E94D02F81E090E00E941F2E60E0A6
