:100000000C94482F0C94B12F0C94B12F0C94B12F59
:100010000C94B12F0C94B12F0C94B12F0C94B12FE0
:100020000C9429350C94B12F0C94B12F0C94B12F52
:100030000C94B12F0C94F5320C9435330C94B12FF1
:100040000C94B12F0C94B12F0C94B12F0C94B12FB0
:100050000C94B12F0C94B12F0C94B12F0C94B12FA0
:100060000C94B12F0C94B12F0C94B12F0C94B12F90
:100070002B573A572E573A5731573A5734573A5722
:1000800037573A578100450027FF24FF2A902B1C41
:10009000210C22FB850084008903888D81096F0271
:1000A000444247004501B083B300B10125118A4F96
:1000B0008B035A55012001010038080000000000A0
:1000C0000000000000000000000000000000000030
:1000D0000000D236D536313735373C37DD36E2369B
:1000E000E7364437EA36ED36F0362B372E375437BD
:1000F00000408891D2E4ADB5B6BEBFFF0503001342
:100100001415161718191A1B1C1D1E1F00050400B4
:100110000102030405060708090A0B0C0D000E0F67
:10012000101112000000000000000000000000009C
:1001300000000000000000000000000000000000BF
:1001400000000000000000000000000000000000AF
:10015000000000000000000000000000000000009F
:10016000000000000000000000000000000000008F
:10017000000000000000000000000000000000007F
:10018000000049000000000049525200000049529E
:10019000531C25004952522425251B52525C2D2DFB
:1001A0001C121200000000000000000000000040CF
:1001B00049494900404949525B5B5B4A52525B1CCA
:1001C0001C13125B1C241C12090909241B120909A7
:1001D00009090A0A0A0A0A0A0A0A130A0A120A0A70
:1001E00012130A0000000000000000925252525206
:1001F00052524913121309001C1B130A1212401BFE
:1002000065641C090A0009241B1C65120000251CDA
:100210001C1C1C010025241C1C1C1C00242524243F
:10022000241C1C00000000000000004940000000E9
:1002300000000052494900000000001C5B4A4800D1
:100240000000001C2552490000000065246449009C
:1002500000000065256449000000006D2E5C490027
:1002600000000000000000000040520000000000FC
:1002700049525C00000000535224250000005352F4
:1002800025252500004A5225251B0000005B25136B
:1002900000001B005B53000A1C3737095B1C657F9D
:1002A000372E2E522E2E1C131312002E251B131226
:1002B0000000121C1C12000012251C120000122E3D
:1002C000371C1300132E37361C131B37372E2E25E1
:1002D000131C1C2E2E2E2E1B1C1C1C6E6E6E1C1C2A
:1002E0001C1C1C09131312121313001313131313E2
:1002F0001C0009131313131C0100371313131C13D1
:10030000002E2E1B1B1C1C001C772E1B1B250013F4
:100310007F251C1C1C010A37241C1C1C130A2E25BB
:10032000250900132E2425252525252E25252525BF
:1003300025252525252D2E251B1C1C2E2E251C1381
:10034000251B13251C1C1C1C0109521C1C1300011D
:100350001C5B5C0A000165775C1B00016E7F6E52BE
:100360001B00006D1C5249000000001C13530000CC
:100370000000001C524A00000000005B5B0000000F
:100380000000005C00000000000000000000000011
:10039000000000000000000000000000000000005D
:1003A000000000135B7F776E6E6E6E136577766E5E
:1003B0006E6E6E1B65777676766E771B5BBF76B654
:1003C00076767609136DBFB7B6B765001B125C76FB
:1003D000BF766D0000121B125B5B5C000000000921
:1003E0000A12136E77241C1C1C1C1C77251C1C1C59
:1003F0001C24256E1C1C1C2425251B1C1C242525A7
:10040000130000646D6D1B00096EBF6D5B09126EF9
:10041000BF6D5B5B125B645B121312131B1212093C
:100420000100001C242E1C0900096E25240100096E
:10043000767F7F000012777F7F641264BFBF775B97
:10044000121B09BF6D5B121B09000012131B090070
:100450000000000900000000000000000000000093
:100460000000007F7F53131300000064121B010083
:100470000000001B1200000000000000000000004F
:10048000000000000000000000000000000000006C
:10049000000000000000000000000000000000005C
:1004A0000000000000000000000000260000002600
:1004B0000026262F0000002F000000370000003724
:1004C000000000FF000000FF000000BF000000BFB0
:1004D0000000BF370000370000370000262600006C
:1004E0000026260000000000000000262626002628
:1004F00026262600002F002F0000000037000037BE
:10050000000000FF000000FFFFFFFF00000000BF31
:10051000000000000000003700000026262600260C
:1005200026262600000000000000002600262626C1
:1005300026000000002F0000002F00000037000000
:100540000037000000FFFFFFFF00000000BF0000B9
:1005500000BF0000003700000037002600262626D6
:1005600026000000000000000000000000262626F3
:10057000002600002F00002F002F0037000000375A
:10058000000037FF000000FF000000BF000000BFB8
:100590000000BF3700003700003700262626000085
:1005A00000260000000000000000000000260000FF
:1005B00000000000002F00000000000037000000D5
:1005C000000000FF0000000000000000BF0000006D
:1005D00000000000003700000000000000260000BE
:1005E000000000000000000000000000000000000B
:1005F00000000000000000000000000000000000FB
:100600000000E400000000099BEDF60000009BA440
:10061000ADBFBF00529BA4767F7FB75B9B6D777F9A
:10062000766EB70000000000000000000000005BD4
:10063000B6F6F6005BF6FFFFFFFFBFF6FFFFFFFF1A
:10064000BFBFAEFFBFFFFFFFB7AD65BFBFFFFFB7C7
:10065000B6AD65B7BFFFFFBFB7AE6EB7BFFFFFBF99
:10066000B7B7650000000000000000F6F6EDEDAD44
:10067000A4A49BB66D6D5C526E656465656552653C
:10068000766D255C5C52536E24656E6552526E2504
:100690002524255B52772D25252524526E6E2D2588
:1006A00025252500000000000000009B49000000F7
:1006B000000000A49B920000000000256493490004
:1006C000000000652E9B52000000006D2565520061
:1006D0000000006D2D6552000000006E2E64520077
:1006E000000000000000000000495B000000000066
:1006F0004A5B65000000005B9B6D2D0000005B5BAA
:100700002D2E250000525B2E2E1C0900015B2D1C96
:1007100001091C005C5B014A65777F4A5B1C6E7FA8
:100720007777769B77776D656E6EA4776E65656576
:100730005BA4B725255C52526DBFBF130949647F86
:10074000BFBFBF095C7F7FBFBFB7BF7F7F777F7FA2
:10075000B7BFBF77777F7F6EB7BFBF777F7F6E777B
:10076000BFBFBFB6FFFFFFBFBFB75BBFFFFFFFBF8E
:10077000BFA464BFFFFFFFBFADA47FBFFFFFFFBFEC
:10078000A4BF7FFFFFFFBFADBFBFBFFFFFFFB6BF6F
:10079000BFBF77FFFFF7BFBFBF7777FFFFFFBFBFC9
:1007A000BF64526D7F6E2E2D2D256E7F766E6E6E20
:1007B0002E2565777777762E1C25247F776E251C6E
:1007C000251C1B776525251C090A5B6E6E1C0949D3
:1007D0002564645B494A6E7F645C005377BF775B36
:1007E0005C00006E255B4A000000001C1B5B0000E3
:1007F000000000245B5300000000005B5C00000070
:100800000000006400000000000000000000000084
:1008100000000000000000000000000000000000D8
:100820000000005B5C7FBF777677775C6D7FB77782
:100830007777775C6D7FBF777777BF5C64BFBFBF2B
:10084000BFBF7F0A5C6EBFBFBFBF760065646DBF70
:10085000BFBFBF00005B6D646DADB600000000124D
:100860005B646D777F6E6E77BFBFBF7F766D767787
:10087000BFBFBF776D6E767FBFBFBF6D6E767FBF28
:10088000B7ADF676BFBF76A4ADFFFFBFB664ADFFD0
:10089000FFFFFFB6ADBFFFFFFFFFF6ADB6AD645B78
:1008A000520000FFFFBFBFAD5B64BFFFFFB6ADAD41
:1008B000BFFFBFFFF6FFFFFFFFBF64FFFFFFFFBFEC
:1008C000B6765BFFFFFFBFBF5B0000FFFFFF5C0072
:1008D000000000A400000000000000000000000074
:1008E000000000BFBF645C5C0000006E5C654900F6
:1008F0000000006D5B000000000000000000000030
:1009000000000000000000000000000000000000E7
:1009100000000000000000000000000000000000D7
:100920000000000000002C09000000000002080088
:10093000085504085A0000F8000990000A1E320504
:100940000000FF4952495320574153204120464F50
:100950004F4C0000414E4420534F204152452059F6
:100960004F5500574954482054484520454D45525D
:10097000414C44532052455455524E45440054482E
:10098000455245204953204E4F2053544F50504913
:100990004E47204F555200444F4D494E494F4E202F
:1009A0004F564552205448452047414C4158590024
:1009B000004E4F5720594F552057494C4C20444921
:1009C00045002300594F5520444F4E54204B4E4F65
:1009D00057005748415420594F5520415245204413
:1009E0004F494E47002300594F5520415245204D55
:1009F000414B494E472041204D495354414B4500FE
:100A00002300594F552043414E542048415645201C
:100A10005448454D20414C4C002300594F5520412E
:100A200052452050455253495354454E54002300DB
:100A300049204B4E4557205448455920574F554C57
:100A4000442053454E4420594F55002300495249F4
:100A50005320484153204245545241594544205562
:100A60005300004845204841532053544F4C454EB5
:100A700020544845203520454D4552414C445300B3
:100A80004F4620504F57455220414E442057494C25
:100A90004C20535552454C59004252494E47205222
:100AA00055494E20544F20555320414C4C00004492
:100AB000455354524F592048494D20414E442052ED
:100AC000455455524E2054484500454D4552414CE1
:100AD000445320544F204252494E472050454143F1
:100AE0004520544F005448452047414C4158590037
:100AF0002300555A4500004C4A4200004141410044
:100B0000004242420000434343000044444400008A
:100B100054414C4C59200047414D45204F564552B9
:100B200000424F4E5553004C4556454C20434C45D2
:100B300041520050415553450058204558495420D2
:100B400047414D450058204D41494E204D454E5599
:100B50000054494D4520004C495645532000534808
:100B600049454C44200053434F524520000048491A
:100B700047482053434F5245530053544152540069
:100B80004D555349432042592054414E4E45522021
:100B900048454C4C414E440032303136204C415790
:100BA00052454E43452042524F4F4B530000C00028
:100BB00000C10100B0077F00077F0090436400463A
:100BC00064004B64004F6400B1077400913364000B
:100BD000FF0601531D9133640A336414904B640083
:100BE0004664004364009133642733641490466480
:100BF000004364004B64004F640091336414336419
:100C00000A904164004D640A4164004664004A64ED
:100C1000004D6400912E641E2E64092E64149041D0
:100C200064004664004A6400912E64282E64149087
:100C30004164004664004A64004D6400912E6413D0
:100C40002E640A903F64004B640A3F6400446400D1
:100C50004864004B6400912C641E2C640A2C6414BC
:100C6000904164004664004A6400912C64132E6431
:100C70001490466400912C6414903F640043640017
:100C8000486400912E6414306414904364004864F6
:100C9000004B64004F64009130641D30640A30647E
:100CA00014904B6400486400436400913064283021
:100CB0006413904364004864004B64004F640091E7
:100CC00030641430640A904164004D640A43640047
:100CD0004664004B64004F64009133641E33640922
:100CE000336414904B6400466400436400913364A1
:100CF00028336414904664004364004B64004F64DE
:100D0000009133641333640A904164004D640A41D6
:100D100064004664004A64004D6400912E641E2EF7
:100D2000640A2E6414904164004664004A64009191
:100D30002E64272E6414904164004664004A6400C7
:100D40004D6400912E64142E640A903F64004B643D
:100D50000A3F64004464004864004B6400912C64C2
:100D60001D2C640A2C6414904164004664004A649B
:100D700000912C64142E641490466400912C64132A
:100D8000903F640043640048640091306414306410
:100D90001490486400912C6E142C4B06904A640EFB
:100DA000912C4B0D904B6406912C6E14904D640069
:100DB000912C4B142C4B07904B640D912C6E0D9085
:100DC0004A6407912C4B139048640091306E1430A4
:100DD0004B07904A640D91304B0D9046640791305B
:100DE0006E139043640091304B14304B079046646F
:100DF0000D91306E0D9048640791304B149048640B
:100E000000912C6E132C4B07904A640D912C4B0DC6
:100E1000904B6407912C6E14904D6400912C4B14F0
:100E20002C4B06904B640D912C6E0E904D640691E8
:100E30002C4B14904F640091306E14304B0790503F
:100E4000640D91304B0E904D640591306E14904FAF
:100E5000640091304B14304B07904D640D91306E0F
:100E60000D904B640791304B13904D6400912B6EA5
:100E7000142B4B07904F640D912B4B0D904D640735
:100E8000912B6E14904B6400912B4B132B4B0790BE
:100E900046640D912B6E0D904B6407912B4B149073
:100EA0004D6400912C6E132C4B079050640D912CC7
:100EB0004B0D904F6407912C6E14904D6400912C53
:100EC0004B142C4B069048640D912C6E0E904D6483
:100ED00006912C4B149052640091276E0D90506433
:100EE0000791274B06904F640E50640091274B0DDD
:100EF000904F640691276E07904D640D4B640091EE
:100F0000274B14274B079046640D91276E0D904B8D
:100F1000640791274B139047640091266E14264B6B
:100F200007904A640D91264B0D904F640791266EF1
:100F3000149053640091264B13264B079056640D72
:100F400091266E0D905B640791264B14903D6400D2
:100F500091316406904164074464074964064D6416
:100F6000075064065564075964075C6406596407B2
:100F70005564065064074D6407496406446407419C
:100F800064063D64073864073D64064164074464B1
:100F9000064964074464074164064364009137646A
:100FA00007904764064A64074F6406536407566413
:100FB000075B64065F64076264065F64075B64073F
:100FC0005664065364074F64064A64074764074340
:100FD00064063E64074364064764074A64074F6437
:100FE000064A6407476406466400913A6407904ADB
:100FF00064074D64065264075664065964075E64CC
:10100000076264066564076264065E6407596407E4
:101010005664065264074D64064A640746640741F5
:1010200064064664074A64064D64075264074D64CB
:10103000064A6407547F004364004864004B640020
:101040004F64009130641D30640A306414904B6426
:101050000048640043640091306428306414904375
:1010600064004864004B64004F64009130641330A6
:10107000640A904164004D640A4364004664004B76
:1010800064004F64009133641E33640A3364149027
:101090004B64004664004364009133642733641456
:1010A000904664004364004B64004F6400913364D5
:1010B0001433640A904164004D640A41640046643C
:1010C000004A64004D6400912E641D2E640A2E6453
:1010D00014904164004664004A6400912E64272EF7
:1010E0006414904164004664004A64004D640091B9
:1010F0002E64142E640A903F64004B640A3F64001F
:101100004464004864004B6400912C641E2C640904
:101110002C6414904164004664004A6400912C647D
:10112000142E641490466400912C6414903F640063
:10113000436400486400912E641330641490436447
:10114000004864004B64004F64009130641E3064BA
:101150000A306414904B640048640043640091308A
:101160006427306414904364004864004B64004F6B
:1011700064009130641430640A904164004D640A44
:101180004364004664004B64004F64009133641D67
:1011900033640A336414904B640046640043640073
:1011A00091336428336413904664004364004B64B5
:1011B000004F64009133641433640A904164004D1D
:1011C000640A4164004664004A64004D6400912E44
:1011D000641E2E64092E6414904164004664004A23
:1011E0006400912E64282E641490416400466400CB
:1011F0004A64004D6400912E64132E640A903F648B
:10120000004B640A3F64004464004864004B64007F
:10121000912C641E2C640A2C641490416400466472
:10122000004A6400912C64132E641490466400916B
:101230002C640FFF06014505903F6400436400489D
:101240006400913064143064810AFF2F0000C000F4
:1012500000C10100B0077F00B1077400FF06015311
:101260001B9048780091306E0790435500913050A4
:10127000079048550091305007904A780091306EA1
:1012800007904B55009130500790485500913050D1
:1012900007904A780091306E07904B55009130507E
:1012A00007904D550091305007904A780091306E6C
:1012B00007904B550091305007904D55009130509C
:1012C00007904F780091306E07904B550091305049
:1012D00007904D7800912E6E07904F55075078007B
:1012E00091306E06904D550091305007904F55004B
:1012F00091305007904B780091306E07904D55001B
:1013000091305007904A550091305007306E03904D
:101310004B780448550091305007904A5500913061
:1013200050079046780091306E07904D55009130EF
:1013300050079046780091305007904F55009130FB
:101340006E079046780091305007904D5500912ED1
:101350006E079046780748550091306E07904355C8
:1013600000913050079048550091305007904A55F1
:101370000091306E07904B550091305007904855C2
:101380000091305006904A550091306E07904B55B1
:101390000091305007904D550091305007904A55BC
:1013A0000091306E07904B550091305007904D558D
:1013B0000091305007904F550091306E07904B557B
:1013C0000091305007904D5500912E6E07904F556B
:1013D0000750550091306E07904D550091305007E1
:1013E000904F550091305007904B550091306E074B
:1013F000904D550091305007904A5500913050075C
:10140000306E02904B550548550091305007904A78
:101410005500913050079046550091306E06904D22
:101420005500913050079046550091305007904F2D
:10143000550091306E079046550091305007904D01
:101440005500912E6E0790465507487800912C6EF6
:101450000790435500912C500790485500912C500F
:1014600007904A7800912C6E07904B5500912C50B4
:101470000790485500912C5007904A7800912C6EA7
:1014800007904B5500912C5007904D5500912C50D2
:1014900007904A7800912C6E07904B5500912C5084
:1014A00007904D5500912C5007904F7800912C6E6D
:1014B00007904B5500912C5007904D7800912B6E62
:1014C00006904F5507507800912C6E07904D5500AF
:1014D000912C5007904F5500912C5007904B78005D
:1014E000912C6E07904D5500912C5007904A550055
:1014F000912C50072C6E02904B7805485500912C8A
:101500005007904A5500912C500790467800912C36
:101510006E07904D5500912C500790467800912C05
:101520005007904F5500912C6E0790467800912CF3
:101530005007904D5500912B6E07904678074855FF
:101540000091296E07904355009129500790485506
:101550000091295006904A550091296E07904B55ED
:1015600000912950079048550091295007904A55FD
:1015700000912B6E07904B5500912B5007904D55C5
:1015800000912B5007904A5500912B6E07904B55B8
:1015900000912B5007904D5500912B5007904F55BF
:1015A00000912C6E07904B5500912C5007904D5593
:1015B00000912C6E07904F5507505500912E6E07E5
:1015C000904D5500912E5007904F5500912E500789
:1015D000904B5500912E6E07904D5500912E50075F
:1015E000904A5500912E50072E6E02904B5505489B
:1015F0005500912E5006904A5500912E5007904666
:101600005500912E6E07904D5500912E5007904633
:101610005500912E5007904F5500912E6E07904621
:101620005500912E5007904D5500912E6E07904613
:10163000550748550091306E079043550091305042
:10164000079048550091305007904A550091306EF0
:1016500007904B55009130500790485500913050FD
:1016600007904A550091306E07904B5500913050CD
:1016700007904D550091305007904A550091306EBB
:1016800007904B550091305007904D5500913050C8
:1016900007904F550091306E06904B550091305099
:1016A00007904D5500912E6E07904F5507505500ED
:1016B00091306E07904D550091305007904F550076
:1016C00091305007904B550091306E07904D55006A
:1016D00091305007904A550091305007306E02907B
:1016E0004B550548550091305007904A55009130B0
:1016F00050079046550091306E07904D550091303F
:1017000050079046550091305007904F550091304A
:101710006E079046550091305007904D5500912E20
:101720006E079046550748550091306E0690435518
:1017300000913050079048550091305007904A551D
:101740000091306E07904B550091305007904855EE
:101750000091305007904A550091306E07904B55DC
:101760000091305007904D550091305007904A55E8
:101770000091306E07904B550091305007904D55B9
:101780000091305007904F550091306E07904B55A7
:101790000091305007904D5500912E6E07904F5597
:1017A0000750550091306E07904D5500913050070D
:1017B000904F550091305007904B550091306E0777
:1017C000904D550091305007904A55009130500689
:1017D000306E03904B550448550091305007904AA5
:1017E0005500913050079046550091306E07904D4E
:1017F0005500913050079046550091305007904F5A
:10180000550091306E079046550091305007904D2D
:101810005500912E6E0790465507487800912C6E22
:101820000790435500912C500790485500912C503B
:1018300007904A7800912C6E07904B5500912C50E0
:101840000790485500912C5007904A7800912C6ED3
:1018500007904B5500912C5007904D5500912C50FE
:1018600007904A7800912C6E06904B5500912C50B1
:1018700007904D5500912C5007904F7800912C6E99
:1018800007904B5500912C5007904D7800912B6E8E
:1018900007904F5507507800912C6E07904D5500DA
:1018A000912C5007904F5500912C5007904B780089
:1018B000912C6E07904D5500912C5007904A550081
:1018C000912C50072C6E02904B7805485500912CB6
:1018D0005007904A5500912C500790467800912C63
:1018E0006E07904D5500912C500790467800912C32
:1018F0005007904F5500912C6E0790467800912C20
:101900005007904D5500912B6E069046780748552C
:101910000091296E07904355009129500790485532
:101920000091295007904A550091296E07904B5518
:1019300000912950079048550091295007904A5529
:1019400000912B6E07904B5500912B5007904D55F1
:1019500000912B5007904A5500912B6E07904B55E4
:1019600000912B5007904D5500912B5007904F55EB
:1019700000912C6E07904B5500912C5007904D55BF
:1019800000912C6E07904F5507505500912E6E0711
:10199000904D5500912E5007904F5500912E5007B5
:1019A000904B5500912E6E06904D5500912E50078C
:1019B000904A5500912E50072E6E03904B550448C7
:1019C0005500912E5007904A5500912E5007904691
:1019D0005500912E6E07904D5500912E5007904660
:1019E0005500912E5007904F550091306E0790464C
:1019F000550091305007904D5500912E6E0790463E
:101A0000550754640048640091306E073050073029
:101A10005007306E07305007305007306E07305097
:101A200006305007306E07305007305007306E07D1
:101A30003050072E6E0E306E073050073050073092
:101A40006E07305007305007306E07305007305067
:101A500007306E07305007305007306E06305007A1
:101A60002E6E0E903364003764003C640091306E3B
:101A700007305007305007903264003764003A64F2
:101A80000091306E073050073050079033640037B4
:101A900064003C640091306E07305007305007906E
:101AA0003764003A64003E640091306E073050079E
:101AB000305007903764003C64003F640091306E02
:101AC00007305007903764003A64003E640091305C
:101AD0006E07306E07903A64004364003F640091E3
:101AE000336E06335007335007336E0733500733D6
:101AF0005007903764003A64003F640091336E07EA
:101B0000335007335007336E073350073350079075
:101B10003A64003F640043640091336E073350071A
:101B2000336E07336E07904164003E64003A6400F0
:101B3000912E6E072E50072E50072E6E072E50073F
:101B40002E5006903564003A64003E6400912E6E7B
:101B5000072E50072E50072E6E072E50072E5007C7
:101B6000903A64003E6400416400912E6E072E504E
:101B7000072E6E072E6E07903764003C64003F64AA
:101B80000091306E07305007305007306E073050EC
:101B900007305007306E07305007305007306E0660
:101BA000305007305007306E073050072E6E0E3021
:101BB0006E07305007305007306E073050073050F6
:101BC00007306E07305007305007306E073050072F
:101BD000305007306E073050072E6E0D9033640082
:101BE0003764003C640091306E0730500730500776
:101BF000903264003764003A640091306E073050D0
:101C000007305007903364003764003C6400913023
:101C10006E07305007305007903764003A64003E3A
:101C2000640091306E0730500730500790376400E1
:101C30003C64003F640091306E0730500790376479
:101C4000003A64003E6400912E6E0E903A640043A8
:101C500064003F640091336E0733500733500733FD
:101C60006E06335007335007903764003A64003FE4
:101C7000640091336E07335007335007336E0733D8
:101C80005007335007903A64003F6400436400916A
:101C9000336E07335007326E0E904164003E64008D
:101CA0003A6400912E6E072E50072E50072E6E07B5
:101CB0002E50072E5007903564003A64003E6400B1
:101CC000912E6E072E50062E50072E6E072E5007AF
:101CD0002E5007903A64003E6400416400912E6EDD
:101CE00005FF06014502912E50072C6E0E903764B9
:101CF000003C64003F640091306E07305007305064
:101D000007306E07305007305007306E07305007ED
:101D1000305007306E07305007305007FF2F00005B
:101D20000000961E00000000000000961E0000004B
:101D300000000000851E000000000000002F1E00B3
:101D4000000000000000851E000000000000005E92
:101D50001D000000000000005E1D000000000007E4
:101D60007F0002030000FF00084101040401040495
:101D70000104040104040104040104040104040135
:101D8000040401040403076400083C010404010482
:101D90000401040401040401040401040401040412
:101DA000010404010404030750000837010404017E
:101DB00004040104040104040104040104040104F2
:101DC000040104040104040307320008320104047E
:101DD00001040401040401040401040401040401D5
:101DE000040401040401040403072800082D01046D
:101DF00004010404010404010404010404010404B2
:101E00000104040104040104040307140008280168
:101E10000404010404010404010404010404010491
:101E20000401040401040401040401050000FF008E
:101E3000020300077F0008500104060104060104A4
:101E40000601070003077F0008500104060104068D
:101E500001040601070003085000072001040601E1
:101E600004060104060104060107000308500007E8
:101E70000F0104060104060104060104060107001F
:101E800001050000FF0002040007700000D80008F0
:101E90003C01050000FF0002040000DD00FFFEFE23
:101EA000FEFEFEFEFE87FEFEFEFEFEFE8787FEFEB7
:101EB000FEFEFEFE8787FEFEFEFE85858587FEFE12
:101EC000FE8587878785FEFE858787878785FE85D0
:101ED000878787858587858787858587878787879C
:101EE00087FEFEFEFEFED2D2EBD2FEFEFEFE87D2C3
:101EF000FDEBFEFEFEFE8787EBD2FEFEFEFE858733
:101F000087D2FEFEFEFE8785858785FEFEFE87EF73
:101F100087878785FEFEEFFFEF878785FEFEFEFE43
:101F2000FEFEFEFEFEFEFEFEFEFEFEFEFE87FEFE48
:101F3000FEFEFEFE8787FEFEFEFEFEFE8787FEFE9D
:101F4000FEFE85858587FEFEFE8587878785FEFEEA
:101F5000858787878785FE85878787858587FEFEB6
:101F6000FEFEFEFEFEFE878787FEFEFEFEFED2D24E
:101F7000EBD2FEFEFEFE87D2FDEBFEFEFEFE878765
:101F8000EBD2FEFEFEFE858787D2FEFEFEFE878533
:101F9000858785FEFEFE87EF87878785FEFEFEFE2E
:101FA000FEFEFEFEFEFEFEFEFEFEFEFEFEFEFEFE51
:101FB000FEFEFEFEFEFEFEBABABABABABAFEBABD5E
:101FC000BDBDBDBDBDBAFEBABABABABABAFEFEFE52
:101FD000FEFEFEFEFEFEFEFEFEFEFEFEFEFEFEFE21
:101FE000464646464646FEA5A5A5474746FEFE464A
:101FF000464747463F3F4646474746FEFEFE464663
:10200000474746FEFEFEFE464647473F3FFEFEA5CB
:10201000A5A547FEFEFEFEFE46464646FEFEFEFE29
:10202000FE07FEFEFEFEFEFE070707FEFEFEFE07A3
:1020300007270707FEFE07072777270707FEFE0784
:1020400007270707FEFEFEFE070707FEFEFEFEFE51
:10205000FE07FEFEFEFEFEFEFEFEFEFEFEFEFEFE97
:10206000FED2FEFEFEFEFEFED2D2D2FEFEFEFED26C
:10207000D2E4D2D2FEFED2D2E4F5E4D2D2FEFED237
:10208000D2E4D2D2FEFEFEFED2D2D2FEFEFEFEFE92
:10209000FED2FEFEFEFEFEFEFEFEFEFEFEFEFEFE8C
:1020A000FE38FEFEFEFEFEFE383838FEFEFEFE382E
:1020B00038BC3838FEFE3838BCBEBC3838FEFE3876
:1020C00038BC3838FEFEFEFE383838FEFEFEFEFE16
:1020D000FE38FEFEFEFEFEFEFEFEFEFEFEFEFEFEE6
:1020E000FEA2FEFEFEFEFEFEA2A2A2FEFEFEFEA2DC
:1020F000A2AAA2A2FEFEA2A2AAADAAA2A2FEFEA22D
:10210000A2AAA2A2FEFEFEFEA2A2A2FEFEFEFEFE6B
:10211000FEA2FEFEFEFEFEFEFEFEFEFEFEFEFEFE3B
:10212000FE6EFEFEFEFEFEFE6E6E6EFEFEFEFE6E9F
:102130006E6F6E6EFEFE6E6E6F776F6E6EFEFE6E73
:102140006E6F6E6EFEFEFEFE6E6E6EFEFEFEFEFE9E
:10215000FE6EFEFEFEFEFEFEFEFEFEFEFEFEFEFE2F
:10216000FEFEFEFEFEFEFEFEFEFEFEFEFEFEFEFE8F
:10217000FEFEFEFEFEFEFEFEFEFEFEFEFEFEFEFE7F
:10218000FEFEFEFEFEFEFEFEFEFEFEFEFEFEFEFE6F
:10219000FEFEFEFEFEFEFEFEFEFEFEFEFEFE85874F
:1021A0008785FE858787FE858785FE858787FE85EF
:1021B0008787ADADADADFEFE8587ADADADADFEFEA5
:1021C0008587ADADADADFEFEFE85A4AD8787FEFE75
:1021D000FEFEA4A48587FEFEFEFEA4A4858787EFED
:1021E00087858785FEFE87878785878785FEADADD6
:1021F000ADADAD8785FEADADADADADADA4ADADAD15
:10220000ADADADA4A4A487878785FEFEFEFE8787BB
:102210008785FEFEFEFE87878785FEFEFEFE87EF32
:1022200087858785FEFE87878785878785FEADAD95
:10223000ADADAD8785FEADADADADADADA4ADADADD4
:10224000ADADADA4A4A487878785FEFEFEFE87877B
:102250008785FEFEFEFE878785FEFEFEFEFE8587E5
:1022600087858587878785878785FE858787FE851C
:102270008785FE858787FE858787ADADADADFEFE80
:102280008587ADADADADFEFE8587ADADADADFEFED6
:10229000FE85A4AD8787FEFEFEFEA4A48587EFFF22
:1022A000EF878785FEFE87EF87858785FEFE878718
:1022B0008785878785FEADADADADAD8785FEADADBC
:1022C000ADADADADA4ADADADADADADA4A4A48787AE
:1022D0008787FEFEFEFE878787FEFEFEFEFE87EFF7
:1022E00087858785FEFE87878785878785FEADADD5
:1022F000ADADAD8785FEADADADADADADA4ADADAD14
:10230000ADADADA4A4A487878787FEFEFEFE8787B8
:102310008787FEFEFEFE878787FEFEFEFEFEEFFF3E
:10232000EF878785FEFE87EF87858785FEFE878797
:102330008785878785FEADADADADAD8785FEADAD3B
:10234000ADADADADA4ADADADADADADA4A4A487872D
:102350008787FEFEFEFE8787878787FEFEFEFEFEDE
:10236000FEFEFEFEFEFEFEFEFEFEFEFEFEFEFEFE8D
:10237000FE2707FEFEFEFEFE27772707FEFEFEFE77
:1023800007270707FEFEFEFEFE0707FEFEFEFEFE17
:10239000FEFEFEFEFEFEFEFEFEFEFEFEFEFEFEFE5D
:1023A000FEFEFEFE8587FEFEFEFEFEFE8587FEFE2D
:1023B000FEFEFE858787FEFEFEFEFE858787FEFE0B
:1023C000FEFE858787FEFEFEFEFE858787FEFEFEFB
:1023D000FEFEA4A4A4FEFEFEFEFEA4A4A4A487FE0A
:1023E0008585FEFEFEFE87FE858585FEFEFEFEFEE1
:1023F000858585FEFEFEFEFE858585FEFEFEFEFED3
:10240000858585FEFEFEFEFE858585FEFEFEFEFEC2
:10241000A4A4A4FEFEFEFEFEA4A4A4A4FEFEFEFE52
:10242000FEFEFEFEFE85FEFEFEFEFEFEFE85FEFEBE
:10243000FEFEFE858587FEFEFEFE85878787FEFE03
:10244000FEA487878787FEFEFEA4878787FEFEFEA1
:10245000FEA4A4FEFEFEFEFEFEA4A4A4FEFE87874C
:1024600087FEFEFEFEFE87878787FEFEFEFE8787CD
:102470008787FEFEFEFE878787FEFEFEFEFE8785BF
:1024800085FEFEFEFEFE858585FEFEFEFEFEA4A404
:10249000A4FEFEFEFEFEA4A4A4A4FEFEFEFEFEFE1E
:1024A000FEFEA4A48587FEFEFEFE85858585FEFED4
:1024B000FEFE85858585A4A48585858585FEA4A4E5
:1024C0008585858585FEA4A485858585FEFEA4FE7B
:1024D000FEFEFEFEFEFEFEFEFEFEFEFEFEFE87870A
:1024E00087FEFEFEFEFEFE858787FEFEFEFEFE8563
:1024F000878787FEFEFEFEFE858787FEFEFEFEFEC8
:1025000085878787FEFEFEFEFE858787FEFEFEFE30
:10251000FEA4A4A4FEFEFEFEFEA4A4A4A4FEFEFE51
:10252000FEFEFEFEFE85FEFEFEFEFEFEFE85FEFEBD
:10253000FEFEFE858585FEFEFEFE85858585FEFE0A
:10254000FEA485858585FEFEFEA4858585FEFEFEAE
:10255000FEA4A4FEFEFEFEFEFEA4A4A4FEFE87874B
:1025600087FEFEFEFEFE85878785FEFEFEFE8587D2
:102570008785FEFEFEFE858787FEFEFEFEFE8587C2
:1025800087FEFEFEFEFE858787FEFEFEFEFEA4A4FD
:10259000A4FEFEFEFEFEA4A4A4A4FEFEFEFEFEFE1D
:1025A000FEFEA4A48587FEFEFEFE85858585FEFED3
:1025B000FEFE85858585A4A485858585A4A4A4A41F
:1025C00085858585A4A4A4A485858585A4A4A4FE69
:1025D000FEFEFEFEA4FEFEFEFEFEFEFEFEFE878763
:1025E000858787FEFEFEFEFE85878787FEFEFEFE50
:1025F00085878787FEFE8585858787FEFEFE878720
:10260000878787FEFEFE87878787FEFEFEFEFEFE2B
:10261000FEFEFEFEFEFEFEFEFEFEFEFEFEFEFEFEDA
:10262000FEFEFEFEFEFEFEFE12121212FEFEAD12B7
:102630000F1F1F0F12ADAD121212121212ADADAD5F
:1026400012121212ADADAD12AD1212AD12ADADFE41
:1026500012121212FEADADFEFEFEFEFEFEADFEFE3D
:10266000FEFEFEFEFEFEFEFEFEFEFEFEFE7FFEFE09
:10267000FEFEFE7F7F7FFEFEFEFE7F7F7F7FFEFEF3
:10268000FEFEFEFE7F7FFEFEFEFEFEFEFEFEFEFE68
:10269000FEFEFEFEFEFEFEFEFEFEFEFEFEFEA4FEB4
:1026A000FEFEFEFEFEFEA4ADFEFEFFFFA4ADA4AD49
:1026B000F6FFFFA4ADF6A4ADF6FFA4ADF6FFA4AD02
:1026C000FEFEA4ADF6FFA4FEFEA4A4ADF6FEFEFE43
:1026D000FEA4A4ADF6F6FEFEFEFEFEFEFEFEFEFE2F
:1026E000FEFEFEFEFEFEF6FFFFFFD2FEFEFEFFFF39
:1026F000FFFFD2EBFEFEFFFEFFFFEBFDD2FEFEFE74
:10270000FEFFD2EBD2D2FEFEFEFEFEFEFEFEF6FE87
:10271000FEFEFEFEFEFEFEFEFEFEFEFEFEFEFEFED9
:10272000BF7F7FBFFEFEFE7F7F7F7F7F7FFEBF7FFD
:102730007F7F7F7F7FBF7F7F7F7F7F7F7F7F7F7F69
:102740007F7F7F7F7F7FBF7F7F7F7F7F7FBFFE7F9A
:102750007F7F7F7F7FFEFEFEBF7F7FBFFEFEFEFE90
:10276000FEFEFEFEFEFEFEFEFEFEFEFEFEFEFEFE89
:10277000FE7F7FFEFEFEFEFE7F7F7F7FFEFEFEFE73
:102780007F7F7F7FFEFEFEFEFE7F7FFEFEFEFEFE63
:10279000FEFEFEFEFEFEFEFEFEFEFEFEFEFEFEFE59
:1027A000BF7F7FBFFEFEFE7F7F7F7F7F7FFEBF7F7D
:1027B000FEFE7F7F7FBF7FFEFEFEFE7F7F7FFEFEF1
:1027C000FEFEFEFE7F7FFEFEFEFEFEFE7FBFFEFEE5
:1027D000FEFEFEFE7FFEFEFEFEFEFEBFFEFEFEFED7
:1027E000FEFEFEFEFEFEFEFEFEFEFEFEFEFEFEFE09
:1027F000FEFEFEFEFEFEFEFEFEE3FEFEFEFEFEFE14
:10280000FEFFFEFEFEFEFEFEFEFEFEFEFEFEFEFEE7
:10281000FEFEFEFEFEFEFEFEFEFEFEFEFEFEFEFED8
:10282000FEFEFEFEFEFEFEFEFEFEFFFEFEFEFEFEC7
:10283000FEFE7FFFFEFEFEFEFEFE7F7FFFFEFEFE33
:10284000FEFE7F7F7FFFFEFEFEFE7F7F7FFEFEFEA1
:10285000FEFE7F7FFEFEFEFEFEFE7FFEFEFEFEFE15
:10286000FEFEFEFEFEFEFEFEFEFEFEFEFEFEFEFE88
:10287000FEFEFEFEFEFEFEFEFEFEFEFEFEFE7F7F76
:102880007F7F7F7FFFFEFE7F7F7F7FFFFEFEFEFE5E
:102890007F7FFFFEFEFEFEFEFEFEFEFEFEFEFEFE55
:1028A000FEFFFEFEFEFEFEFEFF7F7FFEFEFEFEFF43
:1028B0007F7F7F7FFEFEFF7F7F7F7F7F7FFEFEFE2D
:1028C000FEFEFEFEFEFEFEFEFEFEFEFEFEFEFEFE28
:1028D000FEFEFEFEFEFEFEFEFEFEFEFEFEFEFEFE18
:1028E00012121212FEFEFE120F1F1F0F12FEAD1269
:1028F0001212121212ADAD12AD1212AD12ADADAD7B
:1029000012121212ADADADFE12121212FEADADFEDC
:10291000FEFEFEFEFEADADFEFEFEFEFEFEADFEFECA
:10292000FEFEFEFEFEFEFEFEFEFEFEFEFE7FFEFE46
:10293000FEFEFEFE7F7FFEFEFEFEFEFEFE7FFEFE34
:10294000FEFEFEFEFEFEFEFEFEFEFEFEFEFEFEFEA7
:10295000FEFEFEFEFEFEFEFEFEFEFEFEFEFEA4FEF1
:10296000FEFEFEFEFEFEA4A4FEFEFEFEFEFEA4A4EF
:10297000ADFEFEFEFEFEA4A4ADADFEFEFEFEA4A4D2
:10298000ADADF6FEFEFEA4A4ADADF6F6FFFFA4A429
:10299000ADADF6F6FFFFA4A4ADADF6F6FFFFFEFE6B
:1029A000FEFEFEFEFEFEFEFEFEFEFEFEFEFEFEFE47
:1029B000FFFFFFFFA4A4FEFFFFFFFFA4A4A4FFFFEF
:1029C000FFFFFFA4A4A4FFFFFFFFA4A4A4ADFFFF8B
:1029D000FFFFA4A4ADADFFFFFFA4A4ADADF6FEFEC6
:1029E000FEFEFEFEFEFEFEFEFEFEFEFEFEFEA4ADB2
:1029F000ADF6F6FFFFFFA4ADADF6F6FFFFFFADAD00
:102A0000F6F6FFFFFFFFADF6F6FFFFFFFFFFF6F65E
:102A1000FFFFFFFFFFFFF6FFFF7F7FFFFFFFFEFED1
:102A2000FEFEFEFEFEFEFEFEFEFEFEFEFEFED2FEF2
:102A3000FEFEFEFEFEFED2D2FEFEFEFEFEFED2D266
:102A4000D2FEFEFEFEFED2D3EBD3FEFEFEFED2EBA6
:102A5000FDEBD2FEFEFED2D3EBD3D2D2FEFEA4A477
:102A6000ADADF6F6FFFFA4A4ADADF6F6FFFFA4A44E
:102A7000ADADF6F6FFFFA4A4ADADF67F7FFEA4A436
:102A8000ADAD7F7F7FFEA4A4ADFEFE7FFEFEA4A4BD
:102A9000FEFEFEFEFEFEA4FEFEFEFEFEFEFEFFFFAE
:102AA000FEA4ADADF6F6FFFEA4A4ADADF6F6FEFEB7
:102AB000A4A4ADADF6F6FEA4A4A4ADADF6F6FEA4B6
:102AC000A4A4A4ADADF6A4A4A4A4A4A4ADADA4A450
:102AD000A4A4A4A4A4ADA4A4A4A4A4A4A4A4FFFFF7
:102AE0007F7F7F7FFFFFFFFE7F7F7F7FFEFFFEFEFA
:102AF0007F7F7FFEFEFEFEFEFE7FFEFEFEFEF6FEFA
:102B0000FEFEFEFEFEFEF6F6FEFEFEFEFEFEADF64E
:102B1000F6FEFEFEFEFEADADF6F6FEFEFEFED2D2E7
:102B2000D2D2D2D2D2FEFFFFFFFFFFFFFFFFFEFE99
:102B3000FEFEFEFEFEFEFEFEFEFEFEFEFEFEFEFEB5
:102B4000FEFEFEFEFEFEFEFEFEFEFEFEFEFEFEFEA5
:102B5000FEFEFEFEFEFEFEFEFEFEFEFEFEFEEFFFA3
:102B6000EF878785FEFE87EF87858785FEFE87874F
:102B70008785878785FEADADADADAD8785FEADADF3
:102B8000ADADADADA4ADADADADADADA4A4A48787E5
:102B90008785FEFEFEFE878785FEFEFEFEFEFEFEAC
:102BA000FEFEA4A48587FEFEFEFE85858787FEFEC9
:102BB000FEFE85878787A4A48585858787FEA4A4D4
:102BC0008787878787FEA4A487878787FEFEA4FE62
:102BD000FEFEFEFEFEFEFEFEFEFEFEFEFEFE878703
:102BE00085FEFEFEFEFEFE858585FEFEFEFEFE8562
:102BF000858585FEFEFEFEFE858585FEFEFEFEFECB
:102C000085858585FEFEFEFEFE858585FEFEFEFE33
:102C1000FEA4A4A4FEFEFEFEFEA4A4A4A4FEFEFE4A
:102C2000FEFEFEFEFEFEFEFEFEFEFEFEFEFEFEFEC4
:102C3000FEFEFEFEFEFEFEFEFEFEFEFEFEFEFEFEB4
:102C4000FEFEFEFEFEFEFEFEFEFEFE858585FEA469
:102C5000878787878787A4A4878787878787FEFEDC
:102C6000FEFEFEFEFEFEFEFEFEFEFEFEFE87FEFEFB
:102C7000FEFE85858587FEFEFE8587878785FEFEAD
:102C800085858787878785858585858787AD8787BC
:102C90008787AD85878787878787ADADA4A487871A
:102CA0008787FEFEFEFE87D2D2EBD2FEFEFE87872E
:102CB000D2FDEBFEFEFE878787EBD2FEFEFE85850A
:102CC0008787D2FEFEFEADADADADAD87EFFEADADFB
:102CD000ADADADADA4ADA4ADADADADA4A4A4A4A463
:102CE000ADADF6F6FFFFA4A4ADADF6F6FFFFA4A4CC
:102CF000ADADF6F6FFFFA4A4ADADF67F7F7FA4A433
:102D0000ADAD7F7F7FFEA4A4ADFE7F7F7FFEA4A438
:102D1000FEFEFE7FFEFEA4FEFEFEFEFEFEFEFFFFAA
:102D20007F7F7F7FFFFFFF7F7F7F7F7F7FFFFEFEB5
:102D30007F7F7F7FFEFEFEFE7F7F7FFEFEFEF6FE34
:102D4000FE7FFEFEFEFEF6F6FEFEFEFEFEFEADF68B
:102D5000F6FEFEFEFEFEADADF6F6FEFEFEFE010147
:102D60002901011E01010501011301010404022BC7
:102D70002C2D2E39303A3204022B2C2D2E2F3031AF
:102D80003203012A202103011F2021030136373895
:102D9000020302030F121C1D020302030F3334351A
:102DA000020300010C111A1B020302030F10181971
:102DB000020300010C0E1617020300010C0D14157E
:102DC00001010A01010901010801010701010601D0
:102DD0000124010123010122010125010128010132
:102DE0002701012601010B00000000000000000087
:102DF00000000000000000000000000000000000D3
:102E000000000000000000000000000000000000C2
:102E100000000000000000000000000000000000B2
:102E200000000000000000FFFFFFFFFFFFFFFFFFAB
:102E3000FFFFFFFFFFFFFFFFFFFFFDFDFFFFFFFFA6
:102E4000FDFDFBF8FDFDFFFFF8FBF8FBF8F8FDFFCB
:102E5000FBF8F8FBF8F8F8FFF8F8FBF8F8F8F8FFDB
:102E6000F8F8F8F8F8F8F8FFFFFFFFFFFFFFFFFFA3
:102E7000FFFFFFFFFFFFFFFFFFFFFDFDFFFFFFFF66
:102E8000FDFDFBF8FDFDFFFDF8FBF8FBF8F8FDF894
:102E9000FBF8F8FBF8F8F8F8F8F8FBF8F8F8F8F8A9
:102EA000F8F8F8F8F8F8F8FFFFFFFFFFFFFFFFFF63
:102EB000FFFFFFFFFFFFFFFFFFFFFDFDFFFFFFFF26
:102EC000FDFDFBF8FDFDFFFDF8FBF8FBF8F8FFF852
:102ED000FBF8F8FBF8F8FFF8F8F8FBF8F8F8FFF85B
:102EE000F8F8F8F8F8F8FFFAF8F8F8F8F8F8F8F859
:102EF000F8FBF8F8F8FBF8F8F8FBF8FBFBF8F8F843
:102F0000F8F8FBF8F8F8F8F8F8FBF8FBF8F8F8F838
:102F1000FBF8F8FBF8F8F8F8F8F8FBF8F8F8F8F828
:102F2000F8F8F8F8F8F8F8ACACACACACACACACACCD
:102F3000ACACACACACACACADADADADADADADADADC8
:102F4000ADADADADADADADAEAEAEAEAEAEAEAEAEA8
:102F5000AEAEAEAEAEAEAEAFAFAFAFAFAFAFAFAF88
:102F6000AFAFAFAFAFAFAFABABABABABABABABAB95
:102F7000ABABABABABABABABABABABABABABABABA1
:102F8000ABABABABABABABABABABABABABABABAB91
:102F9000ABABABABABABABABABABABABABABABAB81
:102FA000ABABABABABABABA0A0A0A0A0A0A0A0A0D4
:102FB000A0A0A0A0A0A0A0A0A0A0A0A0A0A0A0A011
:102FC000A0A0A0A0A0A0A0A0A0A0A0A0A0A0A0A001
:102FD000A0A0A0A0A0A0A0A0A0A0A0A0A0A0A0A0F1
:102FE000A0A0A0A0A0A0A0ABABABABABABABABAB7E
:102FF000ABABABABABABABABABABABABABABABAB21
:10300000ADADADADADADABAEAEAEAEAEAEAEAEABEC
:10301000AEAEAEAEAEAEABABABABABABABABABABEE
:10302000ABABABABABABABFFFFFFFFFFFFFFA3FF58
:10303000FFFFFFFFFFFFA3A3FFFFFFFFFFA3A0A36F
:10304000FFFFFFFFFFA3A0A0A3FFFFFFA3A0A0A07F
:10305000A3FFFFFFA3A0A0A0A0A3FFA3A0A0A0A0E8
:10306000A0A3FFA3A0A0A0A0A0A0A3FFA3A0A0A096
:10307000A0A0A3FFA3A0A0A0A0A3FFFFFFA3A0A0C8
:10308000A0A3FFFFFFA3A0A0A3FFFFFFFFFFA3A03C
:10309000A3FFFFFFFFFFA3A3FFFFFFFFFFFFFFA3B0
:1030A000FFFFFFFFFFFFFF070707070707070707E8
:1030B00007070707070707060606060606060606A9
:1030C00006060606060606050505050505050505A9
:1030D00005050505050505040404040404040404A9
:1030E00004040404040404020202020202020202B2
:1030F000020B0202020B02020B020B020B020B027A
:10310000020B020B020B02020B0202020B02020272
:10311000020B020B020B02020B020B020B02020259
:10312000020B0202020B025C5C5C5C5C5C5C5C5C43
:103130005C5C5C5C5C5C5C025C025C025C025C0291
:10314000020B020B020B02020B0202020B02020232
:10315000020B020B020B02020B020B020B02020219
:10316000020B0202020B02271F271F1F1F271F1F10
:103170001F1F271F271F1F271F271F1F2F271F1F27
:10318000272F1F271F1F1F1F1F271F2F1F271F1F0F
:10319000271F271F1F2F1F1F1F2F1F1F271F271FFF
:1031A0001F1F271F1F1F1F6E656E656E656E65658D
:1031B0006E656E656E656E6E656E656E656E656577
:1031C0006E656E656E656E6E656E656E656E656567
:1031D0006E656E656E656E6E656E656E656E656557
:1031E0006E656E656E656E2B282B282B282B282884
:1031F0002B282B282B282B282B282B282B282B2837
:103200002B656E656E282B28656E656E656E2B6569
:103210006E656E656E656E6E656E656E656E656516
:103220006E656E656E656EB52323B5B52323B5B5A2
:10323000B5B52323B5B5B5B5060606060606B5062B
:1032400006060606060606B5060606060606B5B511
:10325000B506060606B5B5B5060677770606B506C1
:10326000067702027706062364636223646362239F
:103270006463622364636223656565236565652312
:103280006565652365656523B523B523B523B5233A
:10329000B523B523B523B5232323B523B523B5B56E
:1032A0002323B5B52323B55050505050505050AD46
:1032B000ADAD50ADADADADADA4AD50ADA4ADADAD0A
:1032C000ADAD50ADADADAD5050505050505050AD73
:1032D000ADADADADADAD50ADA4ADADADA4AD50ADEA
:1032E000ADADADADADAD50A5A5A5A5A5A5A5A5A4B4
:1032F000A4A4A4A4A4A4A4A4A4A4A4A4A4A4A4AD85
:10330000ADAD50ADADADAD5050505050505050AD32
:10331000ADADADADADAD50ADA4ADADADA4AD50ADA9
:10332000ADADADADADAD508080800080808080803F
:10333000808000808080808000000080808080808D
:10334000008080808080808000000080808080807D
:103350008080000000808080808080807F808080EE
:103360008080807F807F8065656565656565655D5A
:1033700066655D65666665656565665D65655D6511
:103380005C656565656565656565656565656565F6
:103390006565656565655C5C5C6565655C65655C0A
:1033A0005C5C5C5C5C5C5C5C1C65655D5C5C6513CA
:1033B00013131413655D655C65131465651C651353
:1033C000135C131365136514145C135D5C13131CF9
:1033D00013135C5C5C5C5C1C145C131313131313FD
:1033E0005C655C13135C13131313131313132F1364
:1033F0001313131313132F2F13131313132F772FC9
:1034000013131313132F77772F1313132F77777744
:103410002F1313132F777777772F132F77777777EC
:10342000772F132F7777777777772F132F77777714
:1034300077772F132F777777772F1313132F7777CC
:10344000772F1313132F77772F13131313132F774C
:103450002F13131313132F2F131313131313132FCC
:1034600013131313131313BFBFBFBFBFBFBFBFBF20
:10347000BFBFBFBFBFBFBFBFBFBFBFBFBFBFBFBF5C
:10348000BFBFBFBFBFBFBFBFBFBFBF00000000BF48
:10349000BFBFBF00000000BFBFBFBF00000000BF34
:1034A000BFBFBF00000000BFBFBFBFBFBFBFBFBF28
:1034B000BFBFBFBFBFBFBFBFBFBFBFBFBFBFBFBF1C
:1034C000BFBFBFBFBFBFBF000000000000000000C3
:1034D00000000000000000000000000000000000EC
:1034E00000000000000000BFBFBFBFBFBFBFBFBF25
:1034F000BFBFBFBFBFBFBFBFBFBFBFBFBFBFBFBFDC
:10350000BFBFBFBFBFBFBF00000000BFBFBFBF0086
:10351000000000BFBFBFBF00000000BFBFBFBF00B3
:10352000000000BFBFBFBF0000000000000000009F
:10353000000000000000000000000000000000008B
:103540000000E3000000000000E3FFE300000000D3
:103550000000E30000000000000000000000000088
:10356000000000000000000000000000000000005B
:10357000000000000000000000000000000000004B
:103580000000D2000000000000D2E3D200000000E2
:103590000000D20000000000000000000000000059
:1035A00000000000000000BFBFBFBF00000000BF60
:1035B000BFBFBF00000000BFBFBFBF00000000BF13
:1035C000BFBFBF00000000BFBFBFBF00000000BF03
:1035D000BFBFBF00000000BFBFBFBF00000000BFF3
:1035E000BFBFBF0000000000000000BFBFBFBF00A2
:1035F000000000BFBFBFBF00000000BFBFBFBF00D3
:10360000000000BFBFBFBF00000000BFBFBFBF00C2
:10361000000000BFBFBFBF00000000BFBFBFBF00B2
:10362000000000BFBFBFBFBFBFBFBFBFBFBFBFBFE7
:10363000BFBFBFBFBFBFBFBFBFBFBFBFBFBFBFBF9A
:10364000BFBFBFBFBFBFBFBFBFBFBFBFBFBFBFBF8A
:10365000BFBFBFBFBFBFBFBFBFBFBFBFBFBFBFBF7A
:10366000BFBFBFBFBFBFBF00000000000000000021
:10367000000000000096960000000000969696005C
:1036800000000096969696000000969696969600F4
:103690000096969696969600009696969696960022
:1036A00096969696969696009696969696960096E6
:1036B00096969696969696969696969696969696AA
:1036C000969696969696969696969696969696969A
:1036D000969696969696969696969696969696968A
:1036E000969696969696960000000000000000962A
:1036F00096000000000000969696000000000096DC
:103700009696960000000096969696960000009673
:1037100096969696960000969696969696000096A1
:1037200096969696969600009696969596969600FC
:10373000969696959696969696969696959696962B
:10374000969696969596969696969696969596961B
:1037500096969696BF95969584969696BF96958CD6
:1037600083838C96BF969696969696969696969600
:1037700096969696969696969696969696969696E9
:1037800096969696969696969696969696969696D9
:1037900096969696969696969696969696969696C9
:1037A0009696969696969696969695969696009650
:1037B0009696959696960096969596969696969641
:1037C000969596969696969695969696969696969B
:1037D000959696969695969596969696959595968F
:1037E000969696948C8C958282828282BF96960061
:1037F000D8D8D8BFFFBF8200D8D8BFFFFFFFBF0017
:10380000D8BFFFFFFFFFFFBFBFFFFFFFFFFFFF00AE
:1038100000BFFFFFFFFFFF000094BFFFFFFFBF00DF
:1038200000008CBFFFBFD896969696969696968384
:10383000838C8C8C8C8C83D8D8D8D8D8D8D8D8BF47
:10384000D8D8D8D8D8D8D8FFBFBFD8D8D8D8D8BF1C
:10385000D8D8D8D8D8D8D8D8D8D8D8D8D8D8D8D8E8
:10386000D8D8D8D8D8828296968C83838C8C8C8337
:1038700082838383838C008282828383838300821A
:1038800082828383838300D88282838383830082BE
:1038900082828383830000828283838395000082F7
:1038A00082838395000000404040404040404040BB
:1038B00040404040404040414141414141414141FF
:1038C00041414141414141424242424242424242DF
:1038D00042424242424242434343434343434343BF
:1038E000434343434343430000009695FFD8D80029
:1038F00000000096FF83820000000000FF96960003
:1039000000000000BF96960000000000BF969600E1
:1039100000000000BF96960000000000BF000000FD
:1039200000000000770000D8D8D88282828282828C
:10393000828282828383838C8C838383838C95961B
:103940009696969696969696969696969696969617
:10395000969696969696969696969696969696009D
:103960009696969696960083838C95960000008393
:103970008C96960000000096969600000000009637
:103980009696000000000096960000000000009649
:103990009600000000000000000000000000000091
:1039A00000000000000000444444444444444444B3
:1039B00044444444444444454545454545454545BE
:1039C000454545454545454646464646464646469E
:1039D000464646464646464747474747474747477E
:1039E000474747474747470000000000770000006F
:1039F00000000000770000000000000077000000D9
:103A000000000000770000000000000077000000C8
:103A1000000000007700000000000000000000002F
:103A20000000000000000000000000000000000096
:103A3000003F3F3F3F2F00003F3F2F003F3F2F0001
:103A40003F3F2F3F3F3F2F003F3F3F2F3F3F2F0044
:103A50003F3F2F003F3F2F00003F3F3F3F2F0000E1
:103A60000000000000000000000000000000000056
:103A700000003F3F2F000000003F3F3F2F000000AD
:103A800000003F3F2F00000000003F3F2F000000DC
:103A900000003F3F2F0000003F3F3F3F3F3F2F00D0
:103AA0000000000000000000000000000000000016
:103AB000003F3F3F3F2F00003F3F00003F3F2F00B0
:103AC0000000003F3F2F000000003F3F2F0000009C
:103AD000003F3F2F000000003F3F3F3F3F3F2F0090
:103AE00000000000000000000000000000000000D6
:103AF0003F3F3F3F3F3F2F000000003F3F2F000070
:103B000000003F3F2F0000000000003F3F2F00005B
:103B10003F3F00003F3F2F00003F3F3F3F2F00004F
:103B20000000000000000000000000000000000095
:103B30000000003F3F2F000000003F3F3F2F0000EC
:103B4000003F3F3F3F2F00003F3F003F3F2F00001F
:103B50003F3F3F3F3F3F2F000000003F3F2F00000F
:103B60000000000000000000000000000000000055
:103B70003F3F3F3F3F3F2F003F3F2F0000000000EF
:103B80003F3F3F3F3F2F0000000000003F3F2F001E
:103B90003F3F00003F3F2F00003F3F3F3F2F0000CF
:103BA0000000000000000000000000000000000015
:103BB000003F3F3F3F2F00003F3F2F00000000002D
:103BC0003F3F3F3F3F2F00003F3F2F003F3F2F0031
:103BD0003F3F2F003F3F2F00003F3F3F3F2F000060
:103BE00000000000000000000000000000000000D5
:103BF0003F3F3F3F3F3F2F00000000003F3F2F006F
:103C00000000003F3F2F000000003F3F2F0000005A
:103C1000003F3F2F00000000003F3F2F000000004A
:103C20000000000000000000000000000000000094
:103C3000003F3F3F3F2F00003F3F2F003F3F2F00FF
:103C4000003F3F3F3F2F00003F3F2F003F3F2F00EF
:103C50003F3F2F003F3F2F00003F3F3F3F2F0000DF
:103C60000000000000000000000000000000000054
:103C7000003F3F3F3F2F00003F3F2F003F3F2F00BF
:103C8000003F3F3F3F3F2F00000000003F3F2F001D
:103C90000000003F3F2F0000003F3F3F2F0000008B
:103CA0000000000000000000000000000000000014
:103CB0000000FFFFE300000000FFFFFFFFE3000044
:103CC000FFFFE300FFFFE300FFFFE300FFFFE30070
:103CD000FFFFFFFFFFFFE300FFFFE300FFFFE30045
:103CE00000000000000000000000000000000000D4
:103CF000FFFFFFFFFFE30000FFFFE300FFFFE30024
:103D0000FFFFFFFFFFE30000FFFFE300FFFFE30013
:103D1000FFFFE300FFFFE300FFFFFFFFFFE3000003
:103D20000000000000000000000000000000000093
:103D300000FFFFFFFFE30000FFFFE300FFFFE300E2
:103D4000FFFFE30000000000FFFFE30000000000B1
:103D5000FFFFE300FFFFE30000FFFFFFFFE30000C2
:103D60000000000000000000000000000000000053
:103D7000FFFFFFFFE3000000FFFFE3FFFFE30000A2
:103D8000FFFFE300FFFFE300FFFFE300FFFFE300AF
:103D9000FFFFE3FFFFE30000FFFFFFFFE300000082
:103DA0000000000000000000000000000000000013
:103DB000FFFFFFFFFFFFE300FFFFE3000000000045
:103DC000FFFFFFFFFFE30000FFFFE3000000000034
:103DD000FFFFE30000000000FFFFFFFFFFFFE30025
:103DE00000000000000000000000000000000000D3
:103DF000FFFFFFFFFFFFE300FFFFE3000000000005
:103E0000FFFFFFFFFFE30000FFFFE30000000000F3
:103E1000FFFFE30000000000FFFFE30000000000E0
:103E20000000000000000000000000000000000092
:103E300000FFFFFFFFFFE300FFFFE30000000000C3
:103E4000FFFFE30000000000FFFFE3FFFFFFE300D0
:103E5000FFFFE300FFFFE30000FFFFFFFFFFE300C2
:103E60000000000000000000000000000000000052
:103E7000FFFFE300FFFFE300FFFFE300FFFFE300BE
:103E8000FFFFFFFFFFFFE300FFFFE300FFFFE30093
:103E9000FFFFE300FFFFE300FFFFE300FFFFE3009E
:103EA0000000000000000000000000000000000012
:103EB000FFFFFFFFFFFFE3000000FFFFE300000044
:103EC0000000FFFFE30000000000FFFFE300000030
:103ED0000000FFFFE3000000FFFFFFFFFFFFE30024
:103EE00000000000000000000000000000000000D2
:103EF000000000FFFFFFE30000000000FFFFE30001
:103F000000000000FFFFE30000000000FFFFE300EF
:103F1000FFFF0000FFFFE30000FFFFFFFFE30000E3
:103F20000000000000000000000000000000000091
:103F3000FFFFE300FFFFE300FFFFE3FFFFE30000FD
:103F4000FFFFFFFFE3000000FFFFFFFFE3000000B3
:103F5000FFFFE3FFFFE30000FFFFE300FFFFE300DD
:103F60000000000000000000000000000000000051
:103F7000FFFFE30000000000FFFFE300000000007F
:103F8000FFFFE30000000000FFFFE300000000006F
:103F9000FFFFE30000000000FFFFFFFFFFFFE30063
:103FA000000000000000000000000000000000FF12
:103FB000FFE30000FFFFE3FFFFFFE3FFFFFFE3FF7F
:103FC000FFFFFFFFFFFFE3FFFFE3FFE3FFFFE3FF71
:103FD000FFE30000FFFFE3FFFFE30000FFFFE3005C
:103FE00000000000000000000000000000000000D1
:103FF000FFFFE300FFFFE300FFFFFFE3FFFFE3003E
:10400000FFFFFFFFFFFFE300FFFFFFFFFFFFE300F6
:10401000FFFFE3FFFFFFE300FFFFE300FFFFE3001D
:104020000000000000000000000000000000000090
:1040300000FFFFFFFFE30000FFFFE300FFFFE300DF
:10404000FFFFE300FFFFE300FFFFE300FFFFE300EC
:10405000FFFFE300FFFFE30000FFFFFFFFE30000BF
:104060000000000000000000000000000000000050
:10407000FFFFFFFFFFE30000FFFFE300FFFFE300A0
:10408000FFFFE300FFFFE300FFFFFFFFFFE3000090
:10409000FFFFE30000000000FFFFE300000000005E
:1040A0000000000000000000000000000000000010
:1040B00000FFFFFFFFE30000FFFFE300FFFFE3005F
:1040C000FFFFE300FFFFE300FFFFE300FFFFE3006C
:1040D000FFFFE3FFFFE3000000FFFFE3FFFFE3005C
:1040E00000000000000000000000000000000000D0
:1040F000FFFFFFFFFFE30000FFFFE300FFFFE30020
:10410000FFFFE300FFFFE300FFFFFFFFFFE300000F
:10411000FFFFE3FFFFE30000FFFFE300FFFFE3001B
:10412000000000000000000000000000000000008F
:1041300000FFFFFFFFE30000FFFFE30000000000BF
:1041400000FFFFFFFFE3000000000000FFFFE300AF
:1041500000000000FFFFE30000FFFFFFFFE300009F
:10416000000000000000000000000000000000004F
:10417000FFFFFFFFFFFFE3000000FFFFE300000081
:104180000000FFFFE30000000000FFFFE30000006D
:104190000000FFFFE30000000000FFFFE30000005D
:1041A000000000000000000000000000000000000F
:1041B000FFFFE300FFFFE300FFFFE300FFFFE3007B
:1041C000FFFFE300FFFFE300FFFFE300FFFFE3006B
:1041D000FFFFE300FFFFE300FFFFFFFFFFFFE30040
:1041E00000000000000000000000000000000000CF
:1041F000FFFF0000FFFFE300FFFF0000FFFFE30001
:10420000FFFF0000FFFFE300FFFF0000FFFFE300F0
:1042100000FFFFFFFFE300000000FFFFE3000000DE
:10422000000000000000000000000000000000FF8F
:10423000FFE30000FFFFE3FFFFE30000FFFFE3FFFA
:10424000FFE3FFE3FFFFE3FFFFFFFFFFFFFFE3FFEE
:10425000FFFFE3FFFFFFE3FFFFE30000FFFFE300DB
:10426000000000000000000000000000000000004E
:10427000FFFFE300FFFFE300FFFFE300FFFFE300BA
:1042800000FFFFFFFFE3000000FFFFFFFFE3000070
:10429000FFFFE300FFFFE300FFFFE300FFFFE3009A
:1042A000000000000000000000000000000000000E
:1042B000FFFFE300FFFFE300FFFFE300FFFFE3007A
:1042C00000FFFFFFFFE300000000FFFFE30000002E
:1042D0000000FFFFE30000000000FFFFE30000001C
:1042E00000000000000000000000000000000000CE
:1042F000FFFFFFFFFFFFE300000000FFFFE3000000
:104300000000FFFFE300000000FFFFE300000000EB
:10431000FFFFE30000000000FFFFFFFFFFFFE300DF
:1043200000000000000000BFBFBFBF00000000BFD2
:10433000BFBFBF00000000BFBFBFBF00000000BF85
:10434000BFBFBF00000000BFBFBFBFBFBFBFBFBF79
:10435000BFBFBFBFBFBFBFBFBFBFBFBFBFBFBFBF6D
:10436000BFBFBFBFBFBFBF00000000000000000014
:10437000000000000000000000000000000000003D
:1043800000000000000000BFBFBFBFBFBFBFBFBF76
:10439000BFBFBFBFBFBFBFBFBFBFBFBFBFBFBFBF2D
:1043A000BFBFBFBFBFBFBF00000000BFBFBFBF00D8
:1043B000000000BFBFBFBF00000000BFBFBFBF0005
:1043C000000000BFBFBFBFBFBFBFBFBFBFBFBFBF3A
:1043D000BFBFBFBFBFBFBFBFBFBFBFBFBFBFBFBFED
:1043E000BFBFBFBFBFBFBFA0A0A0A0A0A0A0FFA095
:1043F000A0A0A0A0A0FFFFA0A0A0A0A0FFFF02A0DF
:10440000A0A0A0FFFF0202A0A0A0FFFF020202A046
:10441000A0FFFF02020202A0FFFF0202020202FF4F
:10442000FF020202020202FF02020202020202FF75
:10443000020202020202020202020202020202025C
:10444000020202020202020202020202020202024C
:10445000020202020202020202020202020202023C
:1044600002020202020202FFFFFFFFFFFFFFFF0244
:10447000020202020202020202020202020202A07E
:10448000A0A0A0A0A0A0A0A0A0A0A0A0A0A0A0A02C
:10449000A0A0A0A0A0A0A0A0A0A0A0A0A0A0A0A01C
:1044A000A0A0A0A0A0A0A0FFFFFFFFFFFFFFFF02B2
:1044B00002FFFFFFFF0202020202FFFF020202A050
:1044C000A0A0FFA0A0A0A0A0A0A0A0A0A0A0A0A08D
:1044D000A0A0A0A0A0A0A0A0A0A0A0A0A0A0A0A0DC
:1044E000A0A0A0A0A0A0A00202020202020202025A
:1044F000020202020202020202020202020202029C
:10450000020202020202020202020202020202028B
:10451000020202020202020202020202020202027B
:10452000020202020202020202020202020202026B
:10453000020202020202020202020202020202025B
:1045400002020202020202020202FFFF0202020251
:1045500002FFFFFFFF020202FFFFFFFFFFFF02FF5C
:10456000FFFFFFFFFFFFFF07070707070707070713
:1045700007070707070707070707070707070707CB
:1045800007070707070707070707070707070707BB
:1045900007070707070707070707070707070707AB
:1045A00007070707070707030303030303030303BF
:1045B00003030303030303030303030303030303CB
:1045C00003030303030303030303030303030303BB
:1045D00003030303030303030303030303030303AB
:1045E00003030303030303030303030303031F037F
:1045F00003030303030F060303030303020206037B
:10460000030303020202060303030202020206037B
:104610000302020202060203020202020202020274
:10462000020202020202021F2F2F2F2F2F2F1F061E
:1046300006061F1F1F06020202061F061F060202B1
:10464000020602061F060202020602060602060211
:10465000060602020602060206020202060206061A
:10466000020202020602021F0303030303030306FE
:104670000F030303030303060202030303030306FA
:1046800002020203030303060602020203030302FB
:1046900002020202020303020202020202020306F3
:1046A00002020202020202030303030303030203E2
:1046B00003030303030202030303030302020203CF
:1046C00003030302020202030303020202020203C3
:1046D00003020202020202030202020202020202B8
:1046E00002020202020202020303030303030302A3
:1046F000020303030303030202020303030303028F
:104700000202020303030302020202020303030282
:104710000202020202030302020202020202030276
:1047200002020202020202FDFDFDFDFDFDFDFDFD96
:10473000FDFDFDFDFDFDFDFDFDFDFDFDFDFDFDFDA9
:10474000FDFDFDFDFDFDFDFDFDFDFDFDFDFDFDFD99
:10475000FDFDFDFDFDFDFDFDFDFDFDFDFDFDFDFD89
:10476000FDFDFDFDFDFDFDFCFCFCFCFCFCFCFCFC82
:10477000FCFCFCFCFCFCFCFCFCFCFCFCFCFCFCFC79
:10478000FCFCFCFCFCFCFCB7B7B7B7B7B7B7B7B7D6
:10479000B7B7B7B7B7B7B7B6B6B6B6B6B6B6B6B6B2
:1047A000B6B6B6B6B6B6B6B5B5B5B5B5B5B5B5B5B2
:1047B000B5B5B5B5B5B5B5B5B5B5B5B5B5B5B5B5A9
:1047C000B5B5B5B5B5B5B5B5B5B5B5B5B5B5B5B599
:1047D000B5B5B5B5B5B5B5B5B5B5B5B5B5B5B5B589
:1047E000B5B5B5B5B5B5B580808080808080808056
:1047F00080808080808080808080808080808080B9
:1048000080808080808080808080808080808080A8
:104810008080808080808080808080808080808098
:104820008080808080808080808080808080808088
:104830008080808080808080808080808080808078
:104840008080E3808080808080E3FFE380808080C0
:104850008080E380808080808080808080808080F5
:104860008080808080808080808080808080AB801D
:104870008080808080ABAB8080808080ABABAB8061
:10488000808080ABABABAB808080ABABABABAB80A5
:1048900080ABABABABABAB80ABABABABABABABABBE
:1048A000ABABABABABABABABABABABABABABABAB58
:1048B000ABABABABABABABABABAB7F7FABABABABA0
:1048C000ABAB7F7FABABABABABAB7F7FABABABABE8
:1048D000ABAB7F7FABABABABABABABABABABABAB80
:1048E000ABABABABABABAB808080808080809B8080
:1048F00080808080809B9B80808080809B9B9B8031
:104900008080809B9B9B9B8080809B9B9B9B9B80B4
:10491000809B9B9B9B9B9B809B9B9B9B9B9B9B9B1D
:104920009B9B9B9B9B9B9B9B9B9B9B9B9B9B9B9BD7
:104930009B9B9B9B9B9B9B9B9B9B9B9B9B9B9B9BC7
:104940009B9B9B9B9B9B9B9B9B9B9B9B9B9B9B9BB7
:104950009B9B9B9B9B9B9B9B9B9B9B9B9B9B9B9BA7
:104960009B9B9B9B9B9B9B9B9B9B9B9B9B9B9B9B97
:104970009B9B9B9B9B9B9B9B9B9B9B9B9B9B9B9B87
:104980009B9B7F9B9B9B9B9B9B9B7F9B9B9B9B9BAF
:104990009B9B9B9B9B9B9B9B9B9B9B9B9B9B9B9B67
:1049A0009B9B9B9B9B9B9BFDFDFDFDFDFDFDFDFDE5
:1049B000FDFDFDFDFDFDFDBEBEBEBEBEBEBEBEBE5E
:1049C000BEBEBEBEBEBEBEB7B7B7B7B7B7B7B7B746
:1049D000B7B7B7B7B7B7B7777777777777777777A7
:1049E0007777777777777777777777777777777757
:1049F0007777777777777777777777777777777747
:104A00007777777777777777777777777777777736
:104A10007777777777777777777777777777777726
:104A20007777777777777777777777777777777716
:104A30007777777777777777777777777777777706
:104A400077777777777777777777777777777777F6
:104A50007777777777777777777777776D64657715
:104A60007777776E5B5B517777777777777777773D
:104A700077777777777777777777777777777777C6
:104A800077777777777777777777777777777777B6
:104A900077775B5B5B5B5B1C2551000009090909AB
:104AA0000809090909090977777777777777777799
:104AB0007777777777777777777777777777777786
:104AC000777777777777776E52525A6E6E7777006F
:104AD00000005A095B6477091109080909121209D3
:104AE0000909095B5B52097777777777777777776B
:104AF0007777777777777777777777777777777746
:104B00007777777777777777777777777777777735
:104B10006D647777777777095212121C6D6D6D008F
:104B20000009090A5A5B097777777777777777777C
:104B30007777777777777777777777777777777705
:104B400077777777777777777777777777777777F5
:104B50007777777777777777777777777777775A02
:104B60005B5B6E7777777777640A09090008005AEC
:104B700052090800000010777759646E096D257797
:104B800077777777771C0977777777777777647791
:104B900077777777777777777777777777777777A5
:104BA000777777777777770008095A09515150005E
:104BB00009091B51007F1C095109136E001C776401
:104BC0000912651C00111C006E776D5B6E1C6E7700
:104BD00065651C0A656E007777777777121C7777A3
:104BE00077777777771C0A500909485151000913E4
:104BF00065776D096D6E77770A0900760912777708
:104C00000977091C64771C09131309010900776EE1
:104C10001C090900256E09001200771B081B7F097B
:104C20007F1277091C127709080909080909091375
:104C300000090909115A09121C6E7613110908009E
:104C4000001B776E2500776E6D7777000909776511
:104C500077776577090A0977770052011C777F7F9C
:104C6000007777777777770900095B115A095C112C
:104C70001B13125C136463095A0077777777777F89
:104C800013777777777777137F7777777777777774
:104C900077777777777777777777777777777777A4
:104CA00077777777777777777777777777776E779D
:104CB0007777777777777777777777777777777784
:104CC0007777777777777777777777777777777774
:104CD0007777777777777777777777777777777764
:104CE000777777777777771C6D130077137F6D0A67
:104CF00064006477136E00770A00777F000A777785
:104D00007F0077086E7777777748006E77777777C9
:104D10007765007777777777770101777777777798
:104D20000B000177777777097F7777777777776EDB
:104D30007777777777777777777777777777777703
:104D400077777777777777777777777777777777F3
:104D500077777777777777777777777777777777E3
:104D600077777777777777250100313233343536A7
:104D70003738393A3B3C3D3E3F404142434445464B
:104D80004748494A4B4C4D4E4F50515253541C02C8
:104D90002B2B2B2B2B2B2B2B2B2B2B2B2B2B2B2B63
:104DA0002B2B2B2B2B2B2B2B2B2B2B2B2F2F2F2F43
:104DB0002F2F2F2F2F2F2F2F2F2F2F2F2F2F2F2F03
:104DC0002F2F2F2F2F2F2F2F01011E01011D01012A
:104DD0001801011901011601011701011501011442
:104DE00001011301011201011101011001010F0163
:104DF000010E01010D01010C01010A01010901016E
:104E0000040101030101020101010F091A1B1B1B0F
:104E10001B1B1B1B1B1B1B1B1B1B1C1F0000000049
:104E2000000000000000000000201F000000000043
:104E30000000000000000000201F00000000000033
:104E400000000000000000201F0000000000000023
:104E5000000000000000201F000000000000000013
:104E60000000000000201F00000000000000000003
:104E700000000000201F00000000000000000000F3
:104E800000000020555656565656565656565656FB
:104E90005656570F052121210021212100222324CC
:104EA0001D21212100210000211E000025262700B0
:104EB00021001D1E21001D2100000028292A00219B
:104EC00021210021000021001D002C2D2E000000BA
:104ED00021212121002100000030001E002121217C
:104EE00001010000000000000000000000001D00A3
:104EF000000000000000000000001D000000000095
:104F000000000000000000000000000000000000A1
:104F1000000000001E0000000000000000001D0056
:104F20000000000000000000000000000000000081
:104F3000000000000000001D000000000000001D37
:104F4000000000000000000000001E000000000043
:104F50001D00000000000000000000000000000034
:104F600000000000000000000000001D0000000024
:104F70000000001D0000000000000000001E0000F6
:104F80000000000000000000001E00000000000003
:104F900000000000001D00001D00000000000000D7
:104FA0000000000000000000001D000000000000E4
:104FB00000000000000000000000000000001E00D3
:104FC00000001E1D000000000000000000001D0089
:104FD00000000000000000001D00000000000000B4
:104FE00000000000000000000000000000000000C1
:104FF0001E00000000000000000000000000000093
:10500000000000000000001D000000000000000083
:105010000000000000001D00000000000000000073
:105020000000001E00000000000000000000000062
:105030001E000000000000000000001D0000000035
:10504000000000000000000000001E000000000042
:1050500000001D1D00000000000000000000000016
:1050600000001D0000000000000000000000000023
:105070001D00000000000000000000000000000013
:1050800000001D0000000000000000000000000003
:105090000000000000000000001E000000000000F2
:1050A000000000001D0000000000000000000000E3
:1050B0001E000000000000000000001D00000000B5
:1050C00000000000000000001D00000000000000C3
:1050D000000000001D0000000000001D0000000096
:1050E00000000000000000000000000000000000C0
:1050F000001D000000000000001E00000000000075
:10510000000000000000000000001E000000000081
:105110001D000000001D0000000000000000000055
:10512000000000000000000000000000000000007F
:10513000000000001E000000001D0000001D1E00F9
:10514000000000000000000000000000000000005F
:105150000000000000000000001D00000000000032
:10516000000000000000000000001E000000000021
:105170001D000000000000080500010203040506F0
:10518000070809000A0B00030C0D0E0F1011121373
:105190001415161718191A1B1C060C1D031E1F03C5
:1051A0002006060606060606060606060606060685
:1051B000060606060606060606060806060606068D
:1051C000060606060606060606060606060606067F
:1051D0000606060404040404040404040404040489
:1051E0000404040404040404040404040606060677
:1051F000060606060606050505050507070707074F
:105200000707070707060608060606060606060538
:10521000050505050707070707070707070704042C
:10522000040404040404040404040404040404043E
:1052300004040909090909070707070707070707FA
:1052400007070707070707070707070707070707EE
:1052500007070707070707070707070707070707DE
:1052600007070707020202020202020202020909FC
:1052700009090907070707070707070707070707B8
:10528000070707070707070707070707070758075D
:10529000070707595A5B5B5A5C07070707070707A9
:1052A0000707070707070707070707070707020793
:1052B0000707020407070707020707070204070793
:1052C00002040402020404040404040404020207A5
:1052D000070704040202070404040402040404048B
:1052E0000404040404040707070707070707070760
:1052F000070707070702070707070402070707074B
:10530000070707070707070707070707070707072D
:105310000707070707070702070707070707070722
:105320000707070707070707070707070A0A0A0A01
:105330000A070707070707070707070707070707FA
:1053400007070707070207070707070707070707F2
:1053500007070707070707070702020202020404FC
:1053600004040407075C5B5A5A5B5C070707075D88
:1053700007070202020202040404040407070204ED
:1053800004070204040402040404040404040404DE
:1053900004040404040404020707040404020704C8
:1053A00004040402040404040404040404040707B9
:1053B000070707070707070707070707070A0A0A74
:1053C0000A0A040404040407070702040707020486
:1053D000040702040404020404040404040404048E
:1053E0000402070707040402070704040402070471
:1053F0000404040204040404045E5E5E5E5E5E5EF9
:105400005E5E5E5E5E5E5E5E5E5E5E5E5E5E5E5EBC
:105410005E5E5E5E5E5E5E5E5E5E5E5E0B0B0B0BF8
:105420000B5F5F5F5F5F5F5F5F5F5F5E5E5E5E5EE5
:105430005E5E5E5E5E0B0B0B0B0B5F5F5F5F5F5F25
:105440006061625F5F5F5F5F5F5F5F5F5F5F5F5F66
:105450005F5F5F5F5F5F5F5F5F5F5F5F5F635C5C5E
:105460005C645F5F5F5F5F5F5F5F5F5F5F5F5F5F4A
:105470005F5F5F5F5F5F5F5F5F5F5F5F5F5F5F5F3C
:105480005F5F5F5F5F0D0D0D0D0D5F5F5F5F5F5FC6
:105490005F5F5F5F5F5F5F5F5F5F5F5F5F5F5F5F1C
:1054A0005F5F5F5F5F5F5F0C5F5F5F5F5F5F5F5F5F
:1054B0005F5F5F5F5F5F5F0C5F5F5F5F0C0E0E0E95
:1054C0000E5F5F5F5F5F5F5F5F5F5F5F5F5F5F5F3D
:1054D0005F5F5F0C5F0E0E0E0C0C5F5F5F5F5F5FC8
:1054E0005F5F5F5F5F5F5F5F5F5F5F5F5F5F0D0D70
:1054F0000D0D0D5F5F5F5F5F5F5F5F5F5F5F5F5FB2
:105500005F5F5F5F5F5F5F5F5F5F5F0D5F5F5F0C50
:105510000C5F5F0C0C0C5F0C0C0C0C0C0C0C0C0CD2
:105520000C0C0C0C0C0C0C0E0E0E0C0C0C0C0C0CB5
:105530000C0C0C0C0C0C0C0C0C0C0C0C0C0C0E0EA7
:105540000C0C0C0C0C0C0C0C0C0C0C0C0C0C0C0C9B
:105550000C0C0C0C0C0C0C0C5F5F5F5F0C0C5F5F99
:105560005F0C0C0C5F5F0C0C0C0C5F0C0C0C0C0D2E
:105570005F5F5F5F5F5F5F5F5F5F5F5F5F5F5F5F3B
:105580005F5F5F5F0C0E0E0E0E5F5F5F5F5F5F5FC2
:105590005F5F5F5F5F5F5F5F5F5F5F5F5F0E0E0E0E
:1055A0000C0C5F5F5F5F5F5F5F5F5F5F5F5F5F5FB1
:1055B0005F5F5F5F5F5F5F0C0C0E0E5F5F5F5F5F43
:1055C0005F5F5F5F5F5F5F5F5F5F5F5F5F5F5F0E3C
:1055D0000E0E0E0E5F5F5F5F5F5F5F5F5F5F5F5F1F
:1055E0005F5F5F5F5F5F5F5F0C0C5F5F5F5F5F5F71
:1055F0005F5F5F5F5F5F5F5F5F5F5F5F0D0D0D0D03
:105600000D0C0C0C0C0C5F5F5F5F5F5F5F5F5F5F9B
:105610005F5F5F5F5F0D0D5F5F5F0C0C0E0E0E5FD7
:105620005F5F0D0C5F5F0D0C0C5F0D0C0C0C0D0C17
:105630000C0C0C0C0C0C0C0C0C0C0C0C0C0C0C0CAA
:105640000C0C0C0C0C0C0C0C0C0C0C0C0C0C0C0C9A
:105650000C0D5F5F5F5F0C0D5F5F5F0C0C0D5F5F9C
:105660000C0C0C5F5F0C0C0C0E0E5F5F5F0C0C5F84
:105670005F0C0C0C5F0C0C0C0C0D0C0C0C0C0C0CC3
:105680000C0C0C0C5F5F5F5F0C0C5F5F5F0C0C0C15
:105690005F5F0C0C0C0D0D0C0C0C0C0C5F5F5F5F56
:1056A0005F5F5F5F5F0C5F5F5F0C0C0D0D0D0C0C9F
:1056B0000C0C0C0C0C0C0C0C0C0E0C0C0C0C0C0C28
:1056C0000C0C0C0C0C0C0C0C0C0C0C0C0C0C0E0E16
:1056D0000E0E0C0C0C0C0C0C0C0C0C0C0C0C0C0C06
:1056E0000C0C0C0C0C0C0C0C0C0C5F5F0C0C0C0C54
:1056F0005F0C0C0C0C0C0C0C0C0C0C0C0C0C0C0C97
:105700006565656565656565656565656565656549
:105710006565656565656565656565656565656539
:105720006565656666666666676767676767676714
:1057300067676767676767676767676767676767F9
:1057400067676767676767676767676767676767E9
:10575000676767676767676767676767676767122E
:105760001212121267671167676767676767676773
:1057700067676767676767676767676767676767B9
:105780006767676767676767676767671010101005
:10579000100F0F0F0F0F67676767676767676767A8
:1057A0006767676767676767676704040404046778
:1057B00067676767676767676767676767676710D0
:1057C000101067040F0F0F046868686868686868DD
:1057D0006868686868686868686868686868686849
:1057E0006868686868686868686868686869686838
:1057F0006868686868686868686868686868686829
:10580000686A6868686A0668686A060668686B6B32
:105810006B68686868686868686868686868686805
:10582000686868686868686B6B6B6B6868686868EC
:10583000686868686868686868686814141414148C
:1058400068686868686868686868686868686868D8
:1058500068686868141414141468681568686B6BB9
:105860006B686C6B6B6B6C6D6B6B6B6E6E6B6B6B81
:105870006E6E6B6B6B6E6E6B6B6B6B686B6B6B6B6F
:10588000686B6B6B6B686B6B6B6B686B6B6B6B6874
:105890006868686868686868686868686E6E6E6876
:1058A000686E6E6E68686E6E6E6868686868686854
:1058B000686868686868686814141414141313130B
:1058C0001313686B6B6868686B6B6E686806066EAE
:1058D00068141414141413131313136B6B6B6E6E80
:1058E0006B6B6B6E6E0606066E6E14141414141336
:1058F000131313136B6B6B6B686B6B6B6B68060628
:105900000606681414141414131313131368686E22
:105910006E6E68686E6E6E68686E6E6E1414141427
:105920001413131313136565656565656565656512
:105930006F6F6F6F6F70707070707070707070706C
:105940007070707070707070707070707070707057
:105950007070707070707070717273747576777823
:10596000797A707B7C7D7070707070707070707000
:105970007070707070707070707070707070707027
:105980001616161616171717171733053737373722
:105990003737373737373737373737373737373797
:1059A0003737373737373737373737373737373787
:1059B0003737373737373737373737373737374D61
:1059C0004D4D4D4D4D4D4D4D4D4D4D4D4D4D4D4D07
:1059D0004D4D4D4D4D4D4D4D4D4D4D4D4D4D4D4DF7
:1059E0004D4D4D4D4D4D4D4D4D4D4D4D4D4D4D4DE7
:1059F0004D4D4E4E4E4E4E4F4E4E4E4E4E4E4E4EC8
:105A00004E4E4E4E4E4E4E4E4E4E4E4E4E4E4E4EB6
:105A10004E4E4E4E4E4E4E4E4E4E4E4E4E4E4E4EA6
:105A20004E4E4E4E4E4E4F4E4E4E4E4E4F4E4E4E94
:105A30004E4E4E4E4E4E4E4E4E4E4E4E4E4E4E4E86
:105A40004E4E4E4E4E4E4E4E4E4E4E4E4E4E4E4E76
:105A50004E4E4E4E4E4E4E4E505050505050505056
:105A60005050505050505050505050505050505036
:105A70005050505050505050505050505050505026
:105A8000505050505050505050505033053F403FB0
:105A9000403F3F3F3F3F3F3F3F3F3F3F3F3F3F3F15
:105AA0003F3F3F3F3F3F3F3F3F3F3F3F3F3F3F3F06
:105AB0003F3F3F3F3F3F3F3F3F3F3F3F3F3F3F3FF6
:105AC000403F403F3F3F3F3F3F3F3F3F3F3F3F3FE4
:105AD0003F3F3F3F3F3F3F3F3F3F3F3F3F3F3F3FD6
