:100000000C9498470C9401480C9401480C940148B6
:100010000C9401480C9401480C9401480C9401483C
:100020000C947B4D0C9401480C9401480C940148AD
:100030000C9401480C94454B0C94854B0C9401484E
:100040000C9401480C9401480C9401480C9401480C
:100050000C9401480C9401480C9401480C940148FC
:100060000C9401480C9401480C9401480C940148EC
:10007000725D755D785D7B5D7E5D815D845D810017
:10008000450027FF24FF2A902B1C210C22FB850012
:1000900084008903888D81096F024442470045012D
:1000A000B083B300B10125118A4F8B035A5501204B
:1000B00001010038080000000000000000000000FE
:1000C000000000000000000000000000274E2A4E43
:1000D000864E8A4E914E324E374E3C4E994E3F4E92
:1000E000424E454E804E834EA94E00408891D2E448
:1000F000ADB5B6BEBFFF05030013141516171819CA
:100100001A1B1C1D1E1F0005040001020304050626
:100110000708090A0B0C0D000E0F10111200000049
:1001200000000000000000000000000000000000CF
:1001300000000000000000000000000000000000BF
:1001400000000000000000000000000000000000AF
:10015000000000000000000000000000000000009F
:10016000000000000000000000000000000000008F
:100170000000000000000000000000004900000036
:1001800000004952520000004952531C25004952B8
:10019000522425251B52525C2D2D1C1212000000EA
:1001A00000000000000000000040494949004049AB
:1001B00049525B5B5B4A52525B1C1C13125B1C2452
:1001C0001C12090909241B12090909090A0A0A0A49
:1001D0000A0A0A0A130A0A120A0A12130A0000007B
:1001E0000000000000925252525252524913121310
:1001F00009001C1B130A1212401B65641C090A002B
:1002000009241B1C65120000251C1C1C1C01002558
:10021000241C1C1C1C0024252424241C1C0000005D
:100220000000000000494000000000000052494961
:1002300000000000001C5B4A48000000001C255222
:100240004900000000652464490000000065256441
:1002500049000000006D2E5C490000000000000015
:100260000000004052000000000049525C00000005
:100270000053522425000000535225252500004A32
:100280005225251B0000005B251300001B005B535B
:10029000000A1C3737095B1C657F372E2E522E2E25
:1002A0001C131312002E251B13120000121C1C120B
:1002B000000012251C120000122E371C1300132EF2
:1002C00037361C131B37372E2E25131C1C2E2E2EB3
:1002D0002E1B1C1C1C6E6E6E1C1C1C1C1C0913137C
:1002E000121213130013131313131C000913131307
:1002F000131C0100371313131C13002E2E1B1B1C81
:100300001C001C772E1B1B2500137F251C1C1C01A9
:100310000A37241C1C1C130A2E25250900132E2421
:1003200025252525252E2525252525252525252D6C
:100330002E251B1C1C2E2E251C13251B13251C1CB7
:100340001C1C0109521C1C1300011C5B5C0A0001EF
:1003500065775C1B00016E7F6E521B00006D1C52A6
:1003600049000000001C135300000000001C524A0A
:1003700000000000005B5B0000000000005C00006B
:10038000000000000000000000000000000000006D
:1003900000000000000000000000000000135B7F70
:1003A000776E6E6E6E136577766E6E6E6E1B65770A
:1003B0007676766E771B5BBF76B676767609136DAA
:1003C000BFB7B6B765001B125C76BF766D00001232
:1003D0001B125B5B5C00000000090A12136E77249D
:1003E0001C1C1C1C1C77251C1C1C1C24256E1C1C86
:1003F0001C2425251B1C1C242525130000646D6D61
:100400001B00096EBF6D5B09126EBF6D5B5B125BFB
:10041000645B121312131B1212090100001C242E1C
:100420001C0900096E2524010009767F7F00001257
:10043000777F7F641264BFBF775B121B09BF6D5B60
:10044000121B09000012131B090000000009000024
:10045000000000000000000000000000007F7F534B
:10046000131300000064121B01000000001B1200A7
:10047000000000000000000000000000000000007C
:10048000000000000000000000000000000000006C
:10049000000000000000000000000000000000005C
:1004A000000000000026000000260026262F000085
:1004B000002F0000003700000037000000FF0000A0
:1004C00000FF000000BF000000BF0000BF370000B9
:1004D0003700003700002626000000262600000016
:1004E0000000000000262626002626262600002FD3
:1004F000002F0000000037000037000000FF000060
:1005000000FFFFFFFF00000000BF00000000000030
:10051000003700000026262600262626260000009A
:100520000000000000260026262626000000002FDE
:100530000000002F0000003700000037000000FF1F
:10054000FFFFFF00000000BF000000BF00000037F9
:1005500000000037002600262626260000000000A6
:1005600000000000000000262626002600002F00C4
:10057000002F002F003700000037000037FF000079
:1005800000FF000000BF000000BF0000BF370000F8
:100590003700003700262626000000260000000055
:1005A0000000000000000026000000000000002FF6
:1005B00000000000000037000000000000FF000005
:1005C000000000000000BF00000000000000003735
:1005D00000000000000000260000000000000000F5
:1005E000000000000000000000000000000000000B
:1005F000000000000000000000000000E400000017
:1006000000099BEDF60000009BA4ADBFBF00529B0C
:10061000A4767F7FB75B9B6D777F766EB700000017
:100620000000000000000000005BB6F6F6005BF67C
:10063000FFFFFFFFBFF6FFFFFFFFBFBFAEFFBFFF24
:10064000FFFFB7AD65BFBFFFFFB7B6AD65B7BFFF73
:10065000FFBFB7AE6EB7BFFFFFBFB7B76500000003
:100660000000000000F6F6EDEDADA4A49BB66D6DA4
:100670005C526E65646565655265766D255C5C529D
:10068000536E24656E6552526E252524255B527784
:100690002D25252524526E6E2D25252525000000AB
:1006A00000000000009B49000000000000A49B9295
:1006B00000000000002564934900000000652E9BA7
:1006C00052000000006D256552000000006D2D6590
:1006D00052000000006E2E64520000000000000076
:1006E000000000495B00000000004A5B650000005C
:1006F000005B9B6D2D0000005B5B2D2E25000052E2
:100700005B2E2E1C0900015B2D1C01091C005C5B8B
:10071000014A65777F4A5B1C6E7F7777769B777798
:100720006D656E6EA4776E6565655BA4B725255C07
:1007300052526DBFBF130949647FBFBFBF095C7FC1
:100740007FBFBFB7BF7F7F777F7FB7BFBF77777F21
:100750007F6EB7BFBF777F7F6E77BFBFBFB6FFFF2C
:10076000FFBFBFB75BBFFFFFFFBFBFA464BFFFFFFB
:10077000FFBFADA47FBFFFFFFFBFA4BF7FFFFFFF91
:10078000BFADBFBFBFFFFFFFB6BFBFBF77FFFFF764
:10079000BFBFBF7777FFFFFFBFBFBF64526D7F6EE4
:1007A0002E2D2D256E7F766E6E6E2E2565777777D2
:1007B000762E1C25247F776E251C251C1B7765252E
:1007C000251C090A5B6E6E1C09492564645B494A55
:1007D0006E7F645C005377BF775B5C00006E255BC7
:1007E0004A000000001C1B5B0000000000245B535B
:1007F00000000000005B5C000000000000640000DE
:1008000000000000000000000000000000000000E8
:10081000000000000000000000000000005B5C7FA2
:10082000BF777677775C6D7FB7777777775C6D7F0B
:10083000BF777777BF5C64BFBFBFBFBF7F0A5C6E07
:10084000BFBFBFBF760065646DBFBFBFBF00005BA9
:100850006D646DADB600000000125B646D777F6E55
:100860006E77BFBFBF7F766D7677BFBFBF776D6E88
:10087000767FBFBFBF6D6E767FBFB7ADF676BFBF69
:1008800076A4ADFFFFBFB664ADFFFFFFFFB6ADBFFF
:10089000FFFFFFFFF6ADB6AD645B520000FFFFBF88
:1008A000BFAD5B64BFFFFFB6ADADBFFFBFFFF6FFDF
:1008B000FFFFFFBF64FFFFFFFFBFB6765BFFFFFFD9
:1008C000BFBF5B0000FFFFFF5C00000000A4000052
:1008D00000000000000000000000000000BFBF6436
:1008E0005C5C0000006E5C6549000000006D5B0010
:1008F00000000000000000000000000000000000F8
:1009000000000000000000000000000000000000E7
:1009100000000000000000000000000000000000D7
:1009200026090000000000020800085504085A00CB
:1009300000F8000990000A1E32050000FF555A45D4
:1009400000004C4A42000041414100004242420046
:100950000043434300004444440000202020474C0F
:100960004143494553202020005041555345440000
:1009700045584954202D2058004C495645533A00BB
:10098000534849454C443A0053434F52453A00536B
:10099000454C454354202D20412F5354415254007F
:1009A000484947482053434F5245530053544152FE
:1009B000540032303136204C415752454E43452089
:1009C00042524F4F4B530000C00000C10100B0071E
:1009D0007F00077F00904364004664004B64004F33
:1009E0006400B107740091336400FF0601531D9148
:1009F00033640A336414904B64004664004364001B
:100A000091336427336414904664004364004B645C
:100A1000004F64009133641433640A904164004DC4
:100A2000640A4164004664004A64004D6400912EEB
:100A3000641E2E64092E6414904164004664004ACA
:100A40006400912E64282E64149041640046640072
:100A50004A64004D6400912E64132E640A903F6432
:100A6000004B640A3F64004464004864004B640027
:100A7000912C641E2C640A2C64149041640046641A
:100A8000004A6400912C64132E6414904664009113
:100A90002C6414903F6400436400486400912E6409
:100AA00014306414904364004864004B64004F6445
:100AB000009130641D30640A306414904B64004827
:100AC00064004364009130642830641390436400F0
:100AD0004864004B64004F64009130641430640A31
:100AE000904164004D640A4364004664004B640016
:100AF0004F64009133641E336409336414904B6473
:100B000000466400436400913364283364149046C3
:100B100064004364004B64004F64009133641333FA
:100B2000640A904164004D640A4164004664004ACE
:100B300064004D6400912E641E2E640A2E6414908D
:100B40004164004664004A6400912E64272E6414B8
:100B5000904164004664004A64004D6400912E6434
:100B6000142E640A903F64004B640A3F640044649E
:100B7000004864004B6400912C641D2C640A2C64B2
:100B800014904164004664004A6400912C64142E61
:100B9000641490466400912C6413903F6400436495
:100BA00000486400913064143064149048640091EB
:100BB0002C6E142C4B06904A640E912C4B0D904BCE
:100BC0006406912C6E14904D6400912C4B142C4BA8
:100BD00007904B640D912C6E0D904A6407912C4B3D
:100BE000139048640091306E14304B07904A640DA6
:100BF00091304B0D9046640791306E139043640022
:100C000091304B14304B079046640D91306E0D902F
:100C100048640791304B1490486400912C6E132C5B
:100C20004B07904A640D912C4B0D904B6407912C0F
:100C30006E14904D6400912C4B142C4B06904B6419
:100C40000D912C6E0E904D6406912C4B14904F64B8
:100C50000091306E14304B079050640D91304B0E64
:100C6000904D640591306E14904F640091304B1498
:100C7000304B07904D640D91306E0D904B64079191
:100C8000304B13904D6400912B6E142B4B07904FFB
:100C9000640D912B4B0D904D6407912B6E14904B6E
:100CA0006400912B4B132B4B079046640D912B6ED8
:100CB0000D904B6407912B4B14904D6400912C6E5A
:100CC000132C4B079050640D912C4B0D904F6407E3
:100CD000912C6E14904D6400912C4B142C4B06906B
:100CE00048640D912C6E0E904D6406912C4B14901F
:100CF00052640091276E0D9050640791274B069027
:100D00004F640E50640091274B0D904F640691275D
:100D10006E07904D640D4B640091274B14274B07D1
:100D20009046640D91276E0D904B640791274B13ED
:100D30009047640091266E14264B07904A640D91EB
:100D4000264B0D904F640791266E149053640091CA
:100D5000264B13264B079056640D91266E0D905B23
:100D6000640791264B14903D6400913164069041D4
:100D700064074464074964064D640750640655647B
:100D8000075964075C640659640755640650640794
:100D90004D64074964064464074164063D640738AE
:100DA00064073D640641640744640649640744647B
:100DB0000741640643640091376407904764064A1C
:100DC00064074F64065364075664075B64065F64F8
:100DD000076264065F64075B640756640653640732
:100DE0004F64064A64074764074364063E6407434A
:100DF00064064764074A64074F64064A6407476409
:100E000006466400913A6407904A64074D640652AE
:100E100064075664065964075E6407626406656485
:100E2000076264065E6407596407566406526407E5
:100E30004D64064A64074664074164064664074AEF
:100E400064064D64075264074D64064A6407547F84
:100E5000004364004864004B64004F6400913064B8
:100E60001D30640A306414904B640048640043648D
:100E70000091306428306414904364004864004B4F
:100E800064004F64009130641330640A9041640040
:100E90004D640A4364004664004B64004F64009153
:100EA00033641E33640A336414904B640046640058
:100EB00043640091336427336414904664004364B0
:100EC000004B64004F64009133641433640A904112
:100ED00064004D640A4164004664004A64004D6445
:100EE00000912E641D2E640A2E6414904164004605
:100EF00064004A6400912E64272E641490416400BB
:100F00004664004A64004D6400912E64142E640A05
:100F1000903F64004B640A3F6400446400486400EE
:100F20004B6400912C641E2C64092C641490416461
:100F3000004664004A6400912C64142E64149046A8
:100F40006400912C6414903F640043640048640082
:100F5000912E6413306414904364004864004B6421
:100F6000004F64009130641E30640A306414904B6A
:100F70006400486400436400913064273064149036
:100F80004364004864004B64004F64009130641473
:100F900030640A904164004D640A43640046640072
:100FA0004B64004F64009133641D33640A3364144E
:100FB000904B6400466400436400913364283364BA
:100FC00013904664004364004B64004F6400913307
:100FD000641433640A904164004D640A416400461D
:100FE00064004A64004D6400912E641E2E64092E34
:100FF0006414904164004664004A6400912E6428A1
:101000002E6414904164004664004A64004D6400FC
:10101000912E64132E640A903F64004B640A3F646F
:10102000004464004864004B6400912C641E2C64EE
:101030000A2C6414904164004664004A6400912CB8
:1010400064132E641490466400912C640FFF060113
:101050004505903F64004364004864009130641487
:101060003064810AFF2F0000C00000C10100B007FA
:101070007F00B1077400FF0601531B904878009170
:10108000306E0790435500913050079048550091BD
:10109000305007904A780091306E07904B55009180
:1010A0003050079048550091305007904A78009191
:1010B000306E07904B550091305007904D55009180
:1010C000305007904A780091306E07904B55009150
:1010D000305007904D550091305007904F78009157
:1010E000306E07904B550091305007904D7800912D
:1010F0002E6E07904F550750780091306E06904D38
:10110000550091305007904F550091305007904B4B
:10111000780091306E07904D550091305007904AFD
:10112000550091305007306E03904B7804485500BD
:1011300091305007904A5500913050079046780002
:1011400091306E07904D55009130500790467800D1
:1011500091305007904F550091306E0790467800BF
:1011600091305007904D5500912E6E0790467807AC
:1011700048550091306E07904355009130500790CC
:1011800048550091305007904A550091306E0790B5
:101190004B550091305007904855009130500690C3
:1011A0004A550091306E07904B5500913050079092
:1011B0004D550091305007904A550091306E079080
:1011C0004B550091305007904D550091305007908D
:1011D0004F550091306E07904B550091305007905D
:1011E0004D5500912E6E07904F5507505500913088
:1011F0006E07904D550091305007904F550091303B
:101200005007904B550091306E07904D550091302E
:101210005007904A550091305007306E02904B5560
:101220000548550091305007904A550091305007BD
:101230009046550091306E06904D55009130500704
:101240009046550091305007904F550091306E07F1
:101250009046550091305007904D5500912E6E07E5
:1012600090465507487800912C6E079043550091A1
:101270002C500790485500912C5007904A780091C7
:101280002C6E07904B5500912C50079048550091BB
:101290002C5007904A7800912C6E07904B55009186
:1012A0002C5007904D5500912C5007904A78009192
:1012B0002C6E07904B5500912C5007904D55009186
:1012C0002C5007904F7800912C6E07904B55009151
:1012D0002C5007904D7800912B6E06904F5507507B
:1012E0007800912C6E07904D5500912C5007904F2F
:1012F0005500912C5007904B7800912C6E07904D23
:101300005500912C5007904A5500912C50072C6E97
:1013100002904B7805485500912C5007904A550093
:10132000912C500790467800912C6E07904D5500F7
:10133000912C500790467800912C5007904F550003
:10134000912C6E0790467800912C5007904D5500D7
:10135000912B6E079046780748550091296E0790AB
:101360004355009129500790485500912950069007
:101370004A550091296E07904B55009129500790CE
:1013800048550091295007904A5500912B6E0790BF
:101390004B5500912B5007904D5500912B500790C5
:1013A0004A5500912B6E07904B5500912B5007909A
:1013B0004D5500912B5007904F5500912C6E079082
:1013C0004B5500912C5007904D5500912C6E079075
:1013D0004F5507505500912E6E07904D5500912E98
:1013E0005007904F5500912E5007904B5500912E6D
:1013F0006E07904D5500912E5007904A5500912E42
:1014000050072E6E02904B5505485500912E500600
:10141000904A5500912E500790465500912E6E0728
:10142000904D5500912E500790465500912E500733
:10143000904F5500912E6E0790465500912E500703
:10144000904D5500912E6E079046550748550091D6
:10145000306E0790435500913050079048550091E9
:10146000305007904A550091306E07904B550091CF
:101470003050079048550091305007904A550091E0
:10148000306E07904B550091305007904D550091AC
:10149000305007904A550091306E07904B5500919F
:1014A000305007904D550091305007904F550091A6
:1014B000306E06904B550091305007904D5500917D
:1014C0002E6E07904F550750550091306E07904D86
:1014D000550091305007904F550091305007904B78
:1014E000550091306E07904D550091305007904A4D
:1014F000550091305007306E02904B55054855000D
:1015000091305007904A5500913050079046550051
:1015100091306E07904D5500913050079046550020
:1015200091305007904F550091306E07904655000E
:1015300091305007904D5500912E6E0790465507FB
:1015400048550091306E06904355009130500790F9
:1015500048550091305007904A550091306E0790E1
:101560004B550091305007904855009130500790EE
:101570004A550091306E07904B55009130500790BE
:101580004D550091305007904A550091306E0790AC
:101590004B550091305007904D55009130500790B9
:1015A0004F550091306E07904B5500913050079089
:1015B0004D5500912E6E07904F55075055009130B4
:1015C0006E07904D550091305007904F5500913067
:1015D0005007904B550091306E07904D550091305B
:1015E0005007904A550091305006306E03904B558D
:1015F0000448550091305007904A550091305007EB
:101600009046550091306E07904D5500913050072F
:101610009046550091305007904F550091306E071D
:101620009046550091305007904D5500912E6E0711
:1016300090465507487800912C6E079043550091CD
:101640002C500790485500912C5007904A780091F3
:101650002C6E07904B5500912C50079048550091E7
:101660002C5007904A7800912C6E07904B550091B2
:101670002C5007904D5500912C5007904A780091BE
:101680002C6E06904B5500912C5007904D550091B3
:101690002C5007904F7800912C6E07904B5500917D
:1016A0002C5007904D7800912B6E07904F550750A6
:1016B0007800912C6E07904D5500912C5007904F5B
:1016C0005500912C5007904B7800912C6E07904D4F
:1016D0005500912C5007904A5500912C50072C6EC4
:1016E00002904B7805485500912C5007904A5500C0
:1016F000912C500790467800912C6E07904D550024
:10170000912C500790467800912C5007904F55002F
:10171000912C6E0790467800912C5007904D550003
:10172000912B6E069046780748550091296E0790D8
:101730004355009129500790485500912950079032
:101740004A550091296E07904B55009129500790FA
:1017500048550091295007904A5500912B6E0790EB
:101760004B5500912B5007904D5500912B500790F1
:101770004A5500912B6E07904B5500912B500790C6
:101780004D5500912B5007904F5500912C6E0790AE
:101790004B5500912C5007904D5500912C6E0790A1
:1017A0004F5507505500912E6E07904D5500912EC4
:1017B0005007904F5500912E5007904B5500912E99
:1017C0006E06904D5500912E5007904A5500912E6F
:1017D00050072E6E03904B5504485500912E50072C
:1017E000904A5500912E500790465500912E6E0755
:1017F000904D5500912E500790465500912E500760
:10180000904F550091306E0790465500913050072B
:10181000904D5500912E6E07904655075464004830
:10182000640091306E07305007305007306E07303B
:101830005007305007306E07305006305007306E7A
:1018400007305007305007306E073050072E6E0EAD
:10185000306E07305007305007306E073050073079
:101860005007306E07305007305007306E07305049
:1018700007305007306E063050072E6E0E903364DE
:10188000003764003C640091306E073050073050E0
:1018900007903264003764003A640091306E07307C
:1018A0005007305007903364003764003C64009167
:1018B000306E07305007305007903764003A6400AC
:1018C0003E640091306E0730500730500790376407
:1018D000003C64003F640091306E07305007903741
:1018E00064003A64003E640091306E07306E0790E9
:1018F0003A64004364003F640091336E063350073E
:10190000335007336E073350073350079037640066
:101910003A64003F640091336E0733500733500739
:10192000336E07335007335007903A64003F64002A
:1019300043640091336E07335007336E07336E07ED
:10194000904164003E64003A6400912E6E072E5070
:10195000072E50072E6E072E50072E500690356426
:10196000003A64003E6400912E6E072E50072E5000
:10197000072E6E072E50072E5007903A64003E64E3
:1019800000416400912E6E072E50072E6E072E6EBA
:1019900007903764003C64003F640091306E07306C
:1019A0005007305007306E07305007305007306E08
:1019B00007305007305007306E0630500730500760
:1019C000306E073050072E6E0E306E0730500730E5
:1019D0005007306E07305007305007306E073050D8
:1019E00007305007306E07305007305007306E0711
:1019F0003050072E6E0D903364003764003C640055
:101A000091306E07305007305007903264003764D1
:101A1000003A640091306E07305007305007903321
:101A200064003764003C640091306E07305007302A
:101A30005007903764003A64003E640091306E07AE
:101A4000305007305007903764003C64003F64001A
:101A500091306E07305007903764003A64003E645E
:101A600000912E6E0E903A64004364003F64009132
:101A7000336E07335007335007336E063350073346
:101A80005007903764003A64003F640091336E075A
:101A9000335007335007336E0733500733500790E6
:101AA0003A64003F640043640091336E073350078B
:101AB000326E0E904164003E64003A6400912E6ED6
:101AC000072E50072E50072E6E072E50072E500758
:101AD000903564003A64003E6400912E6E072E50EB
:101AE000062E50072E6E072E50072E5007903A6490
:101AF000003E6400416400912E6E05FF0601450220
:101B0000912E50072C6E0E903764003C64003F64A9
:101B10000091306E07305007305007306E0730505C
:101B200007305007306E07305007305007306E07CF
:101B3000305007305007FF2F000000004B1B000003
:101B400000000000004B1B00000000000204000029
:101B5000DD00FF0000031500000000000000000091
:101B60000000000000000000000000000000000075
:101B70000000000000000000000000000000000065
:101B80000000000000000000000000000000000055
:101B90000000000000000000000000000000000045
:102340000000000000000000000000000000000687
:10235000060606060606060606060606060606061D
:10236000060606060606060606060606060606060D
:1023700006060606060606060606060606060606FD
:1023800006060606060606060606060606060606ED
:1023900006060606060606060606060606060606DD
:1023A00006060606060606060606060606060606CD
:1023B00006060606060606060606060606060606BD
:1023C00006060606060606060606060606060606AD
:1023D000060606060606060606060606060606069D
:1023E000060606060606060606060606060606068D
:1023F000060606060606060606060606060606067D
:10240000060606060606060606060606060606066C
:10241000060606060606060606060606060606065C
:10242000060606060606060606060606060606064C
:10243000060606060606060606060606060606063C
:10244000060606060606060606060606060605052E
:10245000050505050505050505050505050505052C
:10246000050505050505050505050505050505051C
:10247000050505050505050505050505050505050C
:1024800005050505050505050505050505050505FC
:102950000505050505050505050505050502010132
:102960000101010305050505050505050505050525
:102970000505050505050505050505050505050507
:1029800005050505050505050505050505050505F7
:102990000505050505050505050201010101010300
:1029A00005050505050505050505050505050505D7
:1029B00005050505050505050505050505050505C7
:1029C00005050505050505050505050505050505B7
:1029D00005050505050201010101010305050505C0
:1029E0000505050505050505050505050505050597
:1029F0000505050505050505050505050505050587
:102A00000505050505050505050505050505050576
:102A1000050201010101010305050505050505057F
:102A20000505050505050505050505050505050556
:102A30000505050505050505050505050505050546
:102A40000505050505050505050505050505050536
:102A50000505050505050505050505050505050526
:102E5000050201010101010305050505050505023E
:102E60000101010101030505050505050505050528
:102E70000505050505050505050505050505050502
:102E800005050505050505050505050505020101FD
:102E90000101010305050505050505020101010103
:102EA00001030505050505050505050505050505D8
:102EB00005050505050505050505050505050505C2
:102EC00005050505050505050502010101010103CB
:102ED00005050505050505020101010101030505BB
:102EE0000505050505050505050505050505050592
:102EF0000505050505050505050505050505050582
:102F0000050505050502010101010103050505058A
:102F1000050505020101010101030505050505057A
:102F20000505050505050505050505050505050551
:102F30000505050505050505050505050505050541
:102F40000505050505050505050505050505050531
:102F50000505050505050505050505050505050521
:103330000505050505050505050505050505050141
:10334000010101010101010101010101010101016D
:10335000010101010101010101010101010101015D
:10336000010101010101010101010101010101014D
:103370000101050505050501010101010101010129
:10338000010101010101010101010101010101012D
:10339000010101010101010101010101010101011D
:1033A000010101010101010101010101010101010D
:1033B00001010101010101010101010101010101FD
:1033C00001010101010101010101010101010101ED
:1033D00001010101010101010101010101010101DD
:1033E00001010101010101010101010101010101CD
:1033F00001010101010101010101010101010101BD
:1034000001010101010101010101010101010101AC
:10341000010101010101010101010101010101019C
:10342000010101010101010101010101010101018C
:103430000101010101010101010101010101040476
:10344000040404040404040404040404040404043C
:10345000040404040404040404040404040404042C
:10346000040404040404040404040404040404041C
:103470000405050505050404040404040404040407
:1034800004040404040404040404040404040404FC
:1034900004040404040404040404040404040404EC
:1034A00004040404040404040404040404040404DC
:1034B00004040404040404040404040404040404CC
:1034C00004040404040404040404040404040404BC
:1034D00004040404040404040404040404040404AC
:1034E000040404040404040404040404040404049C
:1034F000040404040404040404040404040404048C
:10350000040404040404040404040404040404047B
:10351000040404040404040404040404040404046B
:10352000040404040404040404040404040404045B
:103530000404040404040404040404040405050548
:10354000050505050505050505050505050505052B
:10355000050505050505050505050505050505051B
:10356000050505050505050505050505050505050B
:1035700005050505050505050505050505050505FB
:104340000505050201010101010305050505050536
:10435000050505050505050505050505050505050D
:1043600005050505050505050505050505050505FD
:1043700005050505050505050505050505050502F0
:1043800001010101010305050505050505050505F3
:1043900005050505050505050505050505050505CD
:1043A00005050505050505050505050505050505BD
:1043B00005050505050505050505050201010101C0
:1043C00001030505050505050505050505050505A3
:1043D000050505050505050505050505050505058D
:1043E000050505050505050505050505050505057D
:1043F0000505050505050502010101010103050586
:10440000050505050505050505050505050505055C
:10441000050505050505050505050505050505054C
:10442000050505050505050505050505050505053C
:10443000050505050505050505050505050505052C
:104830000505050505050502010101010103050541
:104840000505050505020101010101030505050531
:104850000505050505050505050505050505050508
:1048600005050505050505050505050505050505F8
:104870000505050201010101010305050505050501
:1048800005020101010101030505050505050505F1
:1048900005050505050505050505050505050505C8
:1048A00005050505050505050505050505050502BB
:1048B00001010101010305050505050505020101C9
:1048C00001010103050505050505050505050505A6
:1048D0000505050505050505050505050505050588
:1048E000050505050505050505050502010101018B
:1048F0000103050505050505050201010101010387
:104900000505050505050505050505050505050557
:104910000505050505050505050505050505050547
:104920000505050505050505050505050505050537
:104930000505050505050505050505050505050527
:104D2000050505050501010101010101010101015F
:104D30000101010101010101010101010101010163
:104D40000101010101010101010101010101010153
:104D50000101010101010101010101010101010143
:104D60000101010101010101010101010101010133
:104D70000101010101010101010101010101010123
:104D800001010101010101050505050501010101FF
:104D90000101010101010101010101010101010103
:104DA00001010101010101010101010101010101F3
:104DB00001010101010101010101010101010101E3
:104DC00001010101010101010101010101010101D3
:104DD00001010101010101010101010101010101C3
:104DE00001010101010101010101010101010101B3
:104DF00001010101010101010101010101010101A3
:104E00000101010101010101010101010101010192
:104E10000101010101010101010101010101010182
:104E2000010101010404040404040404040404044E
:104E30000404040404040404040404040404040432
:104E40000404040404040404040404040404040422
:104E50000404040404040404040404040404040412
:104E60000404040404040404040404040404040402
:104E700004040404040404040404040404040404F2
:104E800004040404040405050505050404040404DD
:104E900004040404040404040404040404040404D2
:104EA00004040404040404040404040404040404C2
:104EB00004040404040404040404040404040404B2
:104EC00004040404040404040404040404040404A2
:104ED0000404040404040404040404040404040492
:104EE0000404040404040404040404040404040482
:104EF0000404040404040404040404040404040472
:104F00000404040404040404040404040404040461
:104F10000404040404040404040404040404040451
:104F20000404040505050505050505050505050534
:104F30000505050505050505050505050505050521
:104F40000505050505050505050505050505050511
:104F50000505050505050505050505050505050501
:104F600005050505050505050505050505050505F1
:105D2000050505050505050505020101010101033C
:105D30000505050505050505050505050505050513
:105D40000505050505050505050505050505050503
:105D500005050505050505050505050505050505F3
:105D600005050505050201010101010305050505FC
:105D700005050505050505050505050505050505D3
:105D800005050505050505050505050505050505C3
:105D900005050505050505050505050505050505B3
:105DA00005020101010101030505050505050505BC
:105DB0000505050505050505050505050505050593
:105DC0000505050505050505050505050505050583
:105DD000050505050505050505050505050201017E
:105DE0000101010305050505050505050505050571
:105DF0000505050505050505050505050505050553
:105E00000505050505050505050505050505050542
:105E10000505050505050505050505050505050532
:105E20000505050505050505050505050505050522
:106210000505050505050505050505050502010139
:10622000010101030505050505050502010101013F
:106230000103050505050505050505050505050514
:1062400005050505050505050505050505050505FE
:106250000505050505050505050201010101010307
:1062600005050505050505020101010101030505F7
:1062700005050505050505050505050505050505CE
:1062800005050505050505050505050505050505BE
:1062900005050505050201010101010305050505C7
:1062A00005050502010101010103050505050505B7
:1062B000050505050505050505050505050505058E
:1062C000050505050505050505050505050505057E
:1062D000050201010101010305050505050505028A
:1062E0000101010101030505050505050505050574
:1062F000050505050505050505050505050505054E
:10630000050505050505050505050505050505053D
:10631000050505050505050505050505050505052D
:10632000050505050505050505050505050505051D
:10670000050505050505050505050501010101014D
:106710000101010101010101010101010101010169
:106720000101010101010101010101010101010159
:106730000101010101010101010101010101010149
:106740000101010101010101010101010101010139
:106750000101010101010101010101010101010129
:106760000101010101010101010101010101010119
:106770000101010101010101010101010101010109
:1067800001010101010101010101010101010101F9
:1067900001010101010101010101010101010101E9
:1067A00001010101010101010101010101010101D9
:1067B00001010101010101010101010101010101C9
:1067C00001010101010101010101010101010101B9
:1067D00001010101010101010101010101010101A9
:1067E0000101010101010101010101010101010199
:1067F0000101010101010101010101010101010189
:106800000101010101010101010104040404040466
:106810000404040404040404040404040404040438
:106820000404040404040404040404040404040428
:106830000404040404040404040404040404040418
:106840000404040404040404040404040404040408
:1068500004040404040404040404040404040404F8
:1068600004040404040404040404040404040404E8
:1068700004040404040404040404040404040404D8
:1068800004040404040404040404040404040404C8
:1068900004040404040404040404040404040404B8
:1068A00004040404040404040404040404040404A8
:1068B0000404040404040404040404040404040498
:1068C0000404040404040404040404040404040488
:1068D0000404040404040404040404040404040478
:1068E0000404040404040404040404040404040468
:1068F0000404040404040404040404040404040458
:10690000040404040404040404FEFEFEFEFEFEFE71
:1069100087FEFEFEFEFEFE8787FEFEFEFEFEFE8773
:1069200087FEFEFEFE85858587FEFEFE85878787BE
:1069300085FEFE858787878785FE8587878785858E
:10694000878587878585878787878787FEFEFEFE01
:10695000FED2D2EBD2FEFEFEFE87D2FDEBFEFEFEA5
:10696000FE8787EBD2FEFEFEFE858787D2FEFEFE07
:10697000FE87858587EFFEFEFE87EF878787EFFE20
:10698000FEEFFFEF8787EFFEFEFEFEFEFEFEFEFE41
:10699000FEFEFEFEFEFEFEFE87FEFEFEFEFEFE8705
:1069A00087FEFEFEFEFEFE8787FEFEFEFE858585D7
:1069B00087FEFEFE8587878785FEFE85878787871A
:1069C00085FE85878787858587FEFEFEFEFEFEFEA7
:1069D000FE878787FEFEFEFEFED2D2EBD2FEFEFED3
:1069E000FE87D2FDEBFEFEFEFE8787EBD2FEFEFEAB
:1069F000FE858787D2FEFEFEFE87858587EFFEFE39
:106A0000FE87EF878787EFFEFEFEFEFEFEFEFEFEA0
:106A1000FEFEFEFEFEFEFEFEFEFEFEFEFEFEFEFE96
:106A2000FEFEBABABABABABAFEBABDBDBDBDBDBDE8
:106A3000BAFEBABABABABABAFEFEFEFEFEFEFEFE52
:106A4000FEFEFEFEFEFEFEFEFEFEFE4646464646FE
:106A500046FEA5A5A5474746FEFE46464747463F94
:106A60003F4646474746FEFEFE4646474746FEFE31
:106A7000FEFE464647473F3FFEFEA5A5A547FEFE54
:106A8000FEFEFE46464646FEFEFEFEFEFEFEFEFE06
:106A9000FEFEFEFEFEFEFEFEFEFEFEFEFEFEFEFE16
:106AA000FEFEFEFEFEFEFEFEFEFEFEFEFEFEFEFE06
:106AB000FEFEFEFEFEFEFEFEFEFEFEFEFEFEFEFEF6
:106AC000FEFEFEFEFEFEFEFEFE85878785FE8587B6
:106AD00087FE858785FE858787FE858787ADADAD77
:106AE000ADFEFE8587ADADADADFEFE8587ADADAD2E
:106AF000ADFEFEFE85A4AD8787FEFEFEFEA4A48546
:106B000087FEFEFEFEA4A4858787EF878587EFFEBC
:106B1000FE878787858787EFFEADADADADAD87EF8B
:106B2000FEADADADADADADA4ADADADADADADA4A45F
:106B3000A4878787EFFEFEFEFE878787EFFEFEFEB7
:106B4000FE878787EFFEFEFEFE87EF878587EFFED5
:106B5000FE878787858787EFFEADADADADAD87EF4B
:106B6000FEADADADADADADA4ADADADADADADA4A41F
:106B7000A4878787EFFEFEFEFE878787EFFEFEFE77
:106B8000FE8787EFFEFEFEFEFE8587878585878769
:106B90008785878785FE858787FE858785FE85872C
:106BA00087FE858787ADADADADFEFE8587ADADAD0A
:106BB000ADFEFE8587ADADADADFEFEFE85A4AD8715
:106BC00087FEFEFEFEA4A48587EFFFEF8787EFFE1A
:106BD000FE87EF878587EFFEFE878787858787EFAC
:106BE000FEADADADADAD87EFFEADADADADADADA420
:106BF000ADADADADADADA4A4A4878787EFFEFEFE1D
:106C0000FE8787EFFEFEFEFEFEEFFFEF8787EFFEBB
:106C1000FE87EF878587EFFEFE878787858787EF6B
:106C2000FEADADADADAD87EFFEADADADADADADA4DF
:106C3000ADADADADADADA4A4A4878787EFFEFEFEDC
:106C4000FE87878787EFFEFEFEFEFEFEFEFEFEFE4F
:106C5000FEFEFEFEFEFEFEFEFEFEFEFE2707FEFE22
:106C6000FEFEFE27772707FEFEFEFE07270707FE2C
:106C7000FEFEFEFE0707FEFEFEFEFEFEFEFEFEFE22
:106C8000FEFEFEFEFEFEFEFEFEFEFEFEFEFEFE859D
:106C900087FEFEFEFEFEFE8587FEFEFEFEFE85876B
:106CA000EFFEFEFEFEFE8587EFFEFEFEFE8587EF11
:106CB000FEFEFEFEFE8587EFFEFEFEFEFEA4A4A401
:106CC000FEFEFEFEFEA4A4A4A4EFFE85EFFEFEFEE3
:106CD000FEEFFE8585EFFEFEFEFEFE8585EFFEFEE5
:106CE000FEFEFE8585EFFEFEFEFEFE8585EFFEFEC6
:106CF000FEFEFE8585EFFEFEFEFEFEA4A4A4FEFEC3
:106D0000FEFEFEA4A4A4A4FEFEFEFEFEFEFEFEFE0B
:106D100085FEFEFEFEFEFEFE85FEFEFEFEFE858577
:106D200087FEFEFEFE85878787FEFEFEA487878797
:106D3000EFFEFEFEA4EFEFEFFEFEFEFEA4A4FEFEBD
:106D4000FEFEFEFEA4A4A4FEFE878785FEFEFEFED8
:106D5000FE87878785FEFEFEFE878787EFFEFEFEA5
:106D6000FE87EFEFFEFEFEFEFEEF85EFFEFEFEFE6F
:106D7000FE8585EFFEFEFEFEFEA4A4A4FEFEFEFE42
:106D8000FEA4A4A4A4FEFEFEFEFEFEFEFEA4A485B8
:106D900087FEFEFEFE858585EFFEFEFEFE8585856F
:106DA000EFA4A485858585EFFEA4A485858585EF60
:106DB000FEA4A4EFEFEFEFFEFEA4FEFEFEFEFEFE3D
:106DC000FEFEFEFEFEFEFEFEFE8787EFFEFEFEFEE0
:106DD000FEFE8587EFFEFEFEFEFE858787EFFEFE48
:106DE000FEFEFE8587EFFEFEFEFEFE858787EFFE38
:106DF000FEFEFEFE8587EFFEFEFEFEFEA4A4A4FEC0
:106E0000FEFEFEFEA4A4A4A4FEFEFEFEFEFEFEFE0A
:106E100085FEFEFEFEFEFEFE85FEFEFEFEFE858576
:106E200085FEFEFEFE85858585FEFEFEA4858585A4
:106E3000EFFEFEFEA4EFEFEFFEFEFEFEA4A4FEFEBC
:106E4000FEFEFEFEA4A4A4FEFE8787EFFEFEFEFE6D
:106E5000FE8587EF85FEFEFEFE8587EFEFFEFEFED8
:106E6000FE8587EFFEFEFEFEFE8587EFFEFEFEFE40
:106E7000FE8587EFFEFEFEFEFEA4A4A4FEFEFEFE3F
:106E8000FEA4A4A4A4FEFEFEFEFEFEFEFEA4A485B7
:106E900087FEFEFEFE858585EFFEFEFEFE8585856E
:106EA000EFA4A485858585A4A4A4A485858585A44F
:106EB000A4A4A4EFEFEFEFA4A4A4FEFEFEFEFEA4A4
:106EC000FEFEFEFEFEFEFEFEFE87878587EFFEFECF
:106ED000FEFEFE858787EFFEFEFEFE858787EFFEBE
:106EE000FE85858587EFFEFEFE87878787EFFEFE9E
:106EF000FEEFEFEFEFFEFEFEFEFEFEFEFEFEFEFEEE
:106F0000FEFEFEFEFEFEFEFEFEFEFEFEFEFEFEFEA1
:106F1000FEFEFE12121212FEFEAD120F1F1F0F1206
:106F2000ADAD121212121212ADADAD12121212AD9F
:106F3000ADAD12AD1212AD12ADADFE12121212FEB7
:106F4000ADADFEFEFEFEFEFEADFEFEFEFEFEFEFE54
:106F5000FEFEFEFEFEFEFEFE7FFEFEFEFEFE7F7FCE
:106F60007FFEFEFEFE7F7F7F7FFEFEFEFEFEFE7F3B
:106F70007FFEFEFEFEFEFEFEFEFEFEFEFEFEFEFEB0
:106F8000FEFEFEFEFEFEFEFEFEA4FEFEFEFEFEFE7B
:106F9000FEA4ADFEFEFFFFA4ADA4ADF6FFFFA4ADC1
:106FA000F6A4ADF6FFA4ADF6FFA4ADFEFEA4ADF6CB
:106FB000FFA4FEFEA4A4ADF6FEFEFEFEA4A4ADF664
:106FC000F6FEFEFEFEFEFEFEFEFEFEFEFEFEFEFEE9
:106FD000FEF6FFFFFFD2FEFEFEFFFFFFFFD2EBFE3D
:106FE000FEFFFEFFFFEBFDD2FEFEFEFEFFD2EBD268
:106FF000D2FEFEFEFEFEFEFEFEF6FEFEFEFEFEFEE5
:10700000FEFEFEFEFEFEFEFEFEFEFEBF7F7FBFFE1C
:10701000FEFE7F7F7F7F7F7FFEBF7F7F7F7F7F7FC3
:10702000BF7F7F7F7F7F7F7F7F7F7F7F7F7F7F7F30
:107030007FBF7F7F7F7F7F7FBFFE7F7F7F7F7F7F61
:10704000FEFEFEBF7F7FBFFEFEFEFEFEFEFEFEFEDC
:10705000FEFEFEFEFEFEFEFEFEFEFEFE7F7FFEFE4E
:10706000FEFEFE7F7F7F7FFEFEFEFE7F7F7F7FFE38
:10707000FEFEFEFE7F7FFEFEFEFEFEFEFEFEFEFE2E
:10708000FEFEFEFEFEFEFEFEFEFEFEBF7F7FBFFE9C
:10709000FEFE7F7F7F7F7F7FFEBF7FFEFE7F7F7F45
:1070A000BF7FFEFEFEFE7F7F7FFEFEFEFEFEFE7FBA
:1070B0007FFEFEFEFEFEFE7FBFFEFEFEFEFEFE7FAC
:1070C000FEFEFEFEFEFEBFFEFEFEFEFEFEFEFEFE1F
:1070D000FEFEFEFEFEFEFEFEFEFEFEFEFEFEFEFED0
:1070E000FEFEFEFEFEFEFEFEFEFEFEFEBFE3FEFE1A
:1070F000FEFEFEFEFEFEFEFEFEFEFEFEFEFEFEFEB0
:10710000FEFEFEFEFEFEFEFEFEFEFEFEFEFEFEFE9F
:10711000FEFEFEFEFEFFFEFEFEFEFEFEFE7FFFFE0C
:10712000FEFEFEFEFE7F7FFFFEFEFEFEFE7F7F7FF9
:10713000FFFEFEFEFE7F7F7FFEFEFEFEFE7F7FFEE9
:10714000FEFEFEFEFE7FFEFEFEFEFEFEFEFEFEFEDE
:10715000FEFEFEFEFEFEFEFEFEFEFEFEFEFEFEFE4F
:10716000FEFEFEFEFEFEFEFEFE7F7F7F7F7F7FFF38
:10717000FEFE7F7F7F7FFFFEFEFEFE7F7FFFFEFE27
:10718000FEFEFEFEFEFEFEFEFEFEFEFEFFFEFEFE1E
:10719000FEFEFEFF7F7FFEFEFEFEFF7F7F7F7FFE07
:1071A000FEFF7F7F7F7F7F7FFEFEFEFEFEFEFEFEF8
:1071B000FEFEFEFEFEFEFEFEFEFEFEFEFEFEFEFEEF
:1071C000FEFEFEFEFEFEFEFEFEFEFE12121212FE8F
:1071D000FEFE120F1F1F0F12FEAD1212121212121C
:1071E000ADAD12AD1212AD12ADADAD12121212ADA7
:1071F000ADADFE12121212FEADADFEFEFEFEFEFEA3
:10720000ADADFEFEFEFEFEFEADFEFEFEFEFEFEFE91
:10721000FEFEFEFEFEFEFEFE7FFEFEFEFEFEFE7F8C
:107220007FFEFEFEFEFEFEFE7FFEFEFEFEFEFEFE7C
:10723000FEFEFEFEFEFEFEFEFEFEFEFEFEFEFEFE6E
:10724000FEFEFEFEFEFEFEFEFEA4FEFEFEFEFEFEB8
:10725000FEA4A4FEFEFEFEFEFEA4A4ADFEFEFEFE07
:10726000FEA4A4ADADFEFEFEFEA4A4ADADF6FEFEF2
:10727000FEA4A4ADADF6F6FFFFA4A4ADADF6F6FFF7
:10728000FFA4A4ADADF6F6FFFFFEFEFEFEFEFEFE81
:10729000FEFEFEFEFEFEFEFEFEFEFEFFFFFFFFA464
:1072A000A4FEFFFFFFFFA4A4A4FFFFFFFFFFA4A411
:1072B000A4FFFFFFFFA4A4A4ADFFFFFFFFA4A4ADA4
:1072C000ADFFFFFFA4A4ADADF6FEFEFEFEFEFEFE8A
:1072D000FEFEFEFEFEFEFEFEFEA4ADADF6F6FFFFD8
:1072E000FFA4ADADF6F6FFFFFFADADF6F6FFFFFF75
:1072F000FFADF6F6FFFFFFFFFFF6F6FFFFFFFFFF14
:10730000FFF6FFFFFEFEFFFFFFFEFEFEFEFEFEFE9F
:10731000FEFEFEFEFEFEFEFEFED2FEFEFEFEFEFEB9
:10732000FED2D2FEFEFEFEFEFED2D2D2FEFEFEFE59
:10733000FED2D3EBD3FEFEFEFED2EBFDEBD2FEFE81
:10734000FED2D3EBD3D2D2FEFEA4A4ADADF6F6FFAF
:10735000FFA4A4ADADF6F6FFFFA4A4ADADF6F6FF15
:10736000FFA4A4ADADF6FEFEFEA4A4ADADFEFEFEF0
:10737000FEA4A4ADFEFEFEFEFEA4A4FEFEFEFEFEE6
:10738000FEA4FEFEFEFEFEFEFEFFFFFEA4ADADF679
:10739000F6FFFEA4A4ADADF6F6FEFEA4A4ADADF6D8
:1073A000F6FEA4A4A4ADADF6F6FEA4A4A4A4ADADCF
:1073B000F6A4A4A4A4A4A4ADADA4A4A4A4A4A4A429
:1073C000ADA4A4A4A4A4A4A4A4FFFFFEFEFEFEFFFB
:1073D000FFFFFEFEFEFEFEFEFFFEFEFEFEFEFEFECA
:1073E000FEFEFEFEFEFEFEFEFEF6FEFEFEFEFEFEC5
:1073F000FEF6F6FEFEFEFEFEFEADF6F6FEFEFEFE1E
:10740000FEADADF6F6FEFEFEFED2D2D2D2D2D2D282
:10741000FEFFFFFFFFFFFFFFFFFEFEFEFEFEFEFE84
:10742000FEFEFEFEFEFEFEFEFEFEFEFEFEFEFEFE7C
:10743000FEFEFEFEFEFEFEFEFEFEFEFEFEFEFEFE6C
:10744000FEFEFEFEFEFEFEFEFEFEFEFEFEA4A48589
:1074500087FEFEFEFE858587EFFEFEFEFE858787A2
:10746000EFA4A485858587EFFEA4A487878787EF8F
:10747000FEA4A4EFEFEFEFFEFEA4FEFEFEFEFEFE76
:10748000FEFEFEFEFEFEFEFEFE8787EFFEFEFEFE19
:10749000FEFE8585EFFEFEFEFEFE858585EFFEFE87
:1074A000FEFEFE8585EFFEFEFEFEFE858585EFFE77
:1074B000FEFEFEFE8585EFFEFEFEFEFEA4A4A4FEFB
:1074C000FEFEFEFEA4A4A4A4FEFEFEFEFEFEFEFE44
:1074D000FEFEFEFEFEFEFEFEFEFEFEFEFEFEFEFECC
:1074E000FEFEFEFEFEFEFEFEFEFEFEFEFEFEFEFEBC
:1074F000FEFEFEFEFEFE858585FEA48787878787C4
:1075000087A4A4EFEFEFEFEFEFFEFEFEFEFEFEFE20
:10751000FEFEFEFEFEFEFEFE87FEFEFEFE8585856D
:1075200087FEFEFE8587878785FEFE8585878787A0
:107530008785858585858787AD87878787AD85879B
:1075400087EFEFEFEFADADA4A487878787FEFEFE40
:10755000FE87D2D2EBD2FEFEFE8787D2FDEBFEFE87
:10756000FE878787EBD2FEFEFE85858787D2FEFEEB
:10757000FEADADADADAD87EFFEADADADADADADA486
:10758000ADA4ADADADADA4A4A401012301011801CA
:10759000010501010D010104040225262728292ADD
:1075A0002B2C0301241A1B0301191A1B03012F3072
:1075B00031020302030A0C1617020302030A0B2D01
:1075C0002E0203000107091415020302030A0B121D
:1075D0001302030001070910110203000107080E3E
:1075E0000F01011E01011D01011C01011F010122EA
:1075F000010121010120010106000000000000003E
:10760000000000000000000000000000000000007A
:10761000000000000000000000000000000000006A
:10762000000000000000000000000000000000005A
:10763000000000000000000000FFFFFFFFFFFFFF51
:10764000FFFFFFFFFFFFFFFFFFFFFFFFFDFDFFFF4E
:10765000FFFFFDFDFBF8FDFDFFFFF8FBF8FBF8F871
:10766000FDFFFBF8F8FBF8F8F8FFF8F8FBF8F8F87E
:10767000F8FFF8F8F8F8F8F8F8FFFFFFFFFFFFFF52
:10768000FFFFFFFFFFFFFFFFFFFFFFFFFDFDFFFF0E
:10769000FFFFFDFDFBF8FDFDFFFDF8FBF8FBF8F833
:1076A000FDF8FBF8F8FBF8F8F8F8F8F8FBF8F8F84C
:1076B000F8F8F8F8F8F8F8F8F8FFFFFFFFFFFFFF19
:1076C000FFFFFFFFFFFFFFFFFFFFFFFFFDFDFFFFCE
:1076D000FFFFFDFDFBF8FDFDFFFDF8FBF8FBF8F8F3
:1076E000FFF8FBF8F8FBF8F8FFF8F8F8FBF8F8F803
:1076F000FFF8F8F8F8F8F8F8FFFAF8F8F8F8F8F8FA
:10770000F8F8F8FBF8F8F8FBF8F8F8FBF8FBFBF8EA
:10771000F8F8F8F8FBF8F8F8F8F8F8FBF8FBF8F8E0
:10772000F8F8FBF8F8FBF8F8F8F8F8F8FBF8F8F8D0
:10773000F8F8F8F8F8F8F8F8F8ACACACACACACACDD
:10774000ACACACACACACACACACADADADADADADAD72
:10775000ADADADADADADADADADAEAEAEAEAEAEAE52
:10776000AEAEAEAEAEAEAEAEAEAFAFAFAFAFAFAF32
:10777000AFAFAFAFAFAFAFAFAFABABABABABABAB35
:10778000ABABABABABABABABABABABABABABABAB49
:10779000ABABABABABABABABABABABABABABABAB39
:1077A000ABABABABABABABABABABABABABABABAB29
:1077B000ABABABABABABABABABA0A0A0A0A0A0A066
:1077C000A0A0A0A0A0A0A0A0A0A0A0A0A0A0A0A0B9
:1077D000A0A0A0A0A0A0A0A0A0A0A0A0A0A0A0A0A9
:1077E000A0A0A0A0A0A0A0A0A0A0A0A0A0A0A0A099
:1077F000A0A0A0A0A0A0A0A0A0ABABABABABABAB3C
:10780000ABABABABABABABABABABABABABABABABC8
:10781000ABABADADADADADADABAEAEAEAEAEAEAE97
:10782000AEABAEAEAEAEAEAEABABABABABABABAB93
:10783000ABABABABABABABABABABABABABABABAB98
:10784000ABABABABABABABABA0ABABABABABA0A0A9
:10785000A0ABABABABA0A0A0A0ABABABA0A0A0A0DB
:10786000A0ABABA0A0A0A0A0A0ABABA0A0A0A0A0EC
:10787000A0ABA0A0A0A0A0A0A0ABA4FFFFFFFFFF13
:10788000ABA0A0A4FFFFFFFFFFA0A0A0A4FFFFFFED
:10789000FFA0A0A0A0A4FFFFFFA0A0A0A0A0A4FF05
:1078A000FFA0A0A0A0A0A0A4FFA0A0A0A0A0A0A412
:1078B000FFA0A0A0A0A0A0A0A4ABABABABABABAB18
:1078C000ABFFABABABABABABABFFFFFFABABABABB8
:1078D000ABFFFFFFFFABABABABFFFFFFFFFFABAB04
:1078E000ABFFFFFFFFFFFFABABFFFFFFFFFFFFABF8
:1078F000ABFFFFFFFFFFFFFFAB0000000000000039
:107900000000000000000000000000000000000077
:1079100000000000E3000000000000E3FFE30000BF
:1079200000000000E3000000000000000000000074
:10793000000000000000000000ABA0A0A0A0A0A0DC
:10794000A0A0A0A0A0A0A0A0A0A0A0A0A0A0A0A037
:10795000A0A0A0A0A0A0A0A0A0A0A0A0A0A0A0A027
:10796000A0A0A0A0A0A0A0A0A0A0A0A0A0A0A0A017
:10797000A0ABA0A0A0A0A0A0A0A0A0A0A0A0A0A0FC
:10798000A4A0A0A0A0A0A0A0A0A0A0A0A0A0A0A0F3
:10799000A0A0A0A0A0A0A0A0A0A0A0A0A0A0A0A0E7
:1079A000A0A0A0A0A0A0A0A0A0A0A0A0A0A0A0A0D7
:1079B000A0A0A0A0A0A0A0A0A4FFFFFFFFFFFFFF2A
:1079C000ABA4FFFFFFFFFFFFFFA4FFFFFFFFFFFFD1
:1079D000FFA4FFFFFFFFFFFFFFA4FFFFFFFFFFFF6D
:1079E000FFA4FFFFFFFFFFFFFFA4FFFFFFFFFFFF5D
:1079F000FFFFFFFFFFFFFFFFABABA0A0A0A0A0A079
:107A0000A0ABABA0A0A0A0A0A0ABABA0A0A0A0A04A
:107A1000A0ABABABA0A0A0A0A0ABABABABA0A0A019
:107A2000A0ABABABABABA0A0A0ABABABABABABABD2
:107A3000A0ABABABABABABABABA0A0A0A0A0A0A0EE
:107A4000A4A0A0A0A0A0A0A4FFA0A0A0A0A0A0A4CB
:107A5000FFA0A0A0A0A0A4FFFFA0A0A0A0A4FFFF43
:107A6000FFA0A0A0A4FFFFFFFFA0A0A4FFFFFFFFB7
:107A7000FFABA4FFFFFFFFFFABFFFFFFFFFFFFFF19
:107A8000ABFFFFFFFFFFFFABABFFFFFFFFFFFFAB56
:107A9000ABFFFFFFFFFFABABABFFFFFFFFABABAB42
:107AA000ABFFFFFFABABABABABFFABABABABABABD6
:107AB000ABABABABABABABABABBFBFBFBFBFBFBF8A
:107AC000BFBFBFBFBFBFBFBFBFBFBFBFBFBFBFBFC6
:107AD000BFBFBFBFBFBFBFBFBFBFBFBFBFBFBFBFB6
:107AE000BFBFBFBFBFBFBFBFBFBFBFBFBFBFBFBFA6
:107AF000BFBFBFBFBFBFBFBFBF00000000000000CF
:107B0000000000000000009696000000000096961D
:107B1000960000000096969696000000969696961F
:107B2000960000969696969696000096969696964D
:107B30009600969696969696960096969696969611
:107B4000009696969696969696969696969696966B
:107B500096969696969696969696969696969696C5
:107B600096969696969696969696969696969696B5
:107B700096969696969696969600000000000000BF
:107B80000096960000000000009696960000000007
:107B9000009696969600000000969696969600009F
:107BA00000969696969696000096969696969600CD
:107BB000009696969696969600BFBFBFBFBFBFBF72
:107BC000BF000000000000000000000000000000F6
:107BD00000000000000000000000000000000000A5
:107BE0000000000000000000000000000000000095
:107BF0000000000000000000000096969695969602
:107C000096009696969596969696969696969596AC
:107C10009696969696969596969696969696969506
:107C2000969696969696BF95969584969696BF96B6
:107C3000958C83838C96BF969696969696969696F6
:107C400096969696969696969696969696969696D4
:107C500096969696969696969696969696969696C4
:107C600096969696969696969696969696969696B4
:107C700096969696969696969696969695969696A5
:107C800000969696959696960096969596969696C2
:107C90009696969596969696969695969696969686
:107CA0009696959696969695969596969696959579
:107CB0009596969696948C8C958282828282BF96B7
:107CC0009600D8D8D8BFFFBF8200D8D8BFFFFFFF2B
:107CD000BF00D8BFFFFFFFFFFFBFBFFFFFFFFFFFDA
:107CE000FF0000BFFFFFFFFFFF000094BFFFFFFF8B
:107CF000BF0000008CBFFFBFD896969696969696CA
:107D00009683838C8C8C8C8C83D8D8D8D8D8D8D8B0
:107D1000D8BFD8D8D8D8D8D8D8FFBFBFD8D8D8D807
:107D2000D8BFD8D8D8D8D8D8D8D8D8D8D8D8D8D8EC
:107D3000D8D8D8D8D8D8D8828296968C83838C8C81
:107D40008C8382838383838C008282828383838378
:107D5000008282828383838300D8828283838383A9
:107D600000828282838383000082828383839500E2
:107D70000082828383950000000000000000000064
:107D800000000000000000000000000000000000F3
:107D900000000000000000000000000000000000E3
:107DA00000000000000000000000000000000000D3
:107DB00000BFBFBFBFBFBFBFBF0000009695FFD8C9
:107DC000D80000000096FF83820000000000FF96AC
:107DD000960000000000BF96960000000000BF96CD
:107DE000960000000000BF96960000000000BF0053
:107DF000000000000000770000D8D8D8828282827C
:107E00008282828282828383838C8C838383838C2D
:107E10009596969696969696969696969696969603
:107E200096969696969696969696969696969696F2
:107E300096009696969696960083838C959600006B
:107E400000838C9696000000009696960000000035
:107E50000096969600000000009696000000000034
:107E600000969600000000000000000000000000E6
:107E7000000000000000000000000000000077008B
:107E80000000000000007700000000000000770004
:107E900000000000000077000000000000007700F4
:107EA000000000000000770000000000000000005B
:107EB00000000000000000000000000000000000C2
:107EC00000000000000000000000000000000000B2
:107ED00000000000000000000000000000000000A2
:107EE0000000000000000000000000000000000092
:107EF0000000000000000000000000000000000082
:107F000000000000FFFF000000000000FFFF000075
:107F100000000000FFFF000000000000FFFF000065
:107F2000000000000000000000000000FFFF000053
:107F30000000000000000000000000000000000041
:107F40000000000000000000000000000000000031
:107F50000000000000000000000000000000000021
:107F60000000000000000000000000000000000011
:107F70000000000000000000000000000000000001
:107F800000000000000000000000000000000000F1
:107F900000000000000000000000000000000000E1
:107FA00000000000000000000000000000000000D1
:107FB00000000000000000000000000000000000C1
:107FC00000000000000000000000000000000000B1
:107FD00000000000000000000000000000000000A1
:107FE0000000000000000000000000000000000091
:107FF0000000000000000000000000000000000081
:108000000000000000000000000000000000000070
:108010000000000000000000000000000000000060
:108020000000000000000000000000000000000050
:108030000000000000000000000000000000000040
:108040000000000000000000000000000000000030
:108050000000000000000000000000000000000020
:108060000000000000000000000000000000000010
:108070000000000000000000000000000000000000
:1080800000000000000000000000000000000000F0
:1080900000000000000000000000000000000000E0
:1080A00000000000000000000000000000000000D0
:1080B00000000000000000000000000000000000C0
:1080C0000000000000FFFFFF00000000FFFFFF00B6
:1080D00000000000FFFF000000000000FFFF0000A4
:1080E00000000000FFFFFF000000000000FFFFFF96
:1080F0000000000000000000000000000000000080
:108100000000FFFFFF000000000000FFFFFF000075
:1081100000000000FFFF000000000000FFFF000063
:10812000000000FFFFFF00000000FFFFFF00000055
:10813000000000000000000000000000000000003F
:10814000000000000000000000000000000000002F
:10815000000000000000000000000000000000001F
:10816000000000000000000000000000000000000F
:1081700000000000000000000000000000000000FF
:1081800000000000000000000000000000000000EF
:1081900000000000000000000000000000000000DF
:1081A00000000000000000000000000000000000CF
:1081B00000000000000000000000000000000000BF
:1081C00000000000000000000000000000000000AF
:1081D000000000000000000000000000000000009F
:1081E00000000000FFFF000000000000FFFF000093
:1081F000000000FFFF000000000000000000000081
:10820000000000000000000000000000000000006E
:108210000000FFFFFFFFFFFF000000000000000064
:10822000000000000000000000000000000000004E
:10823000000000000000000000000000000000003E
:10824000000000000000000000000000000000002E
:10825000000000000000000000000000000000001E
:1082600000000000FFFF000000000000FFFF000012
:1082700000000000000000000000000000000000FE
:10828000000000000000FFFF0000000000FFFF00F2
:1082900000000000FFFF0000000000FFFF000000E2
:1082A0000000FFFF000000000000FF0000000000D1
:1082B00000000000000000000000000000000000BE
:1082C0000000006F6F6F6F0000006F6F00006F6F36
:1082D00000006F6F006F6F6F00006F6F6F006F6F48
:1082E00000006F6F00006F6F0000006F6F6F6F0016
:1082F000000000000000000000000000000000007E
:10830000000000006F6F00000000006F6F6F000042
:10831000000000006F6F0000000000006F6F0000A1
:10832000000000006F6F000000006F6F6F6F6F6FD5
:10833000000000000000000000000000000000003D
:108340000000006F6F6F6F0000006F6F00006F6FB5
:1083500000000000006F6F00000000006F6F000061
:108360000000006F6F00000000006F6F6F6F6F6F95
:1083700000000000000000000000000000000000FD
:1083800000006F6F6F6F6F6F00000000006F6F0075
:10839000000000006F6F000000000000006F6F0021
:1083A00000006F6F00006F6F0000006F6F6F6F0055
:1083B00000000000000000000000000000000000BD
:1083C00000000000006F6F00000000006F6F6F0082
:1083D0000000006F6F6F6F0000006F6F006F6F0025
:1083E00000006F6F6F6F6F6F00000000006F6F0015
:1083F000000000000000000000000000000000007D
:1084000000006F6F6F6F6F6F00006F6F00000000F4
:1084100000006F6F6F6F6F000000000000006F6F53
:1084200000006F6F00006F6F0000006F6F6F6F00D4
:10843000000000000000000000000000000000003C
:108440000000006F6F6F6F0000006F6F0000000092
:1084500000006F6F6F6F6F0000006F6F00006F6F35
:1084600000006F6F00006F6F0000006F6F6F6F0094
:1084700000000000000000000000000000000000FC
:1084800000006F6F6F6F6F6F0000000000006F6F74
:1084900000000000006F6F00000000006F6F000020
:1084A0000000006F6F0000000000006F6F00000010
:1084B00000000000000000000000000000000000BC
:1084C0000000006F6F6F6F0000006F6F00006F6F34
:1084D0000000006F6F6F6F0000006F6F00006F6F24
:1084E00000006F6F00006F6F0000006F6F6F6F0014
:1084F000000000000000000000000000000000007C
:108500000000006F6F6F6F0000006F6F00006F6FF3
:108510000000006F6F6F6F6F0000000000006F6F52
:1085200000000000006F6F000000006F6F6F000020
:10853000000000000000000000000000000000003B
:10854000000000000000000000000000000000002B
:10855000000000000000000000000000000000001B
:10856000000000000000000000000000000000000B
:10857000000000000000000000000000FFFF0000FD
:1085800000000000FFFF000000000000FFFF0000EF
:1085900000000000FFFF000000000000FFFF0000DF
:1085A00000000000FFFF000000000000FFFF0000CF
:1085B00000000000FFFF00000000000000000000BD
:1085C00000000000000000000000000000000000AB
:1085D000000000000000000000000000000000009B
:1085E000000000000000000000000000000000008B
:1085F000000000000000000000000000000000007B
:10860000000000000000000000000000000000006A
:10861000000000000000000000000000000000005A
:10862000000000000000000000000000000000004A
:10863000000000000000000000000000000000003A
:10864000000000000000000000000000000000002A
:10865000000000000000000000000000000000001A
:10866000000000000000000000000000000000000A
:1086700000000000000000000000000000000000FA
:10868000000000FFFFFFFF000000FFFF0000FFFFF2
:108690000000000000FFFF0000000000FFFF0000DE
:1086A000000000000000000000000000FFFF0000CC
:1086B00000000000000000000000000000000000BA
:1086C000000000FFFFFFFF000000FFFF0000FFFFB2
:1086D0000000FFFF00FFFFFF0000FFFF00FFFFFFA4
:1086E0000000FFFF00000000000000FFFFFFFFFF91
:1086F000000000000000000000000000000000007A
:1087000000000000FFFF0000000000FFFFFFFF006F
:108710000000FFFF0000FFFF0000FFFF0000FFFF61
:108720000000FFFFFFFFFFFF0000FFFF0000FFFF53
:108730000000000000000000000000000000000039
:108740000000FFFFFFFFFF000000FFFF0000FFFF32
:108750000000FFFFFFFFFF000000FFFF0000FFFF22
:108760000000FFFF0000FFFF0000FFFFFFFFFF0012
:1087700000000000000000000000000000000000F9
:10878000000000FFFFFFFF000000FFFF0000FFFFF1
:108790000000FFFF000000000000FFFF00000000DD
:1087A0000000FFFF0000FFFF000000FFFFFFFF00D1
:1087B00000000000000000000000000000000000B9
:1087C0000000FFFFFFFF00000000FFFF00FFFF00B1
:1087D0000000FFFF0000FFFF0000FFFF0000FFFFA1
:1087E0000000FFFF00FFFF000000FFFFFFFF000091
:1087F0000000000000000000000000000000000079
:108800000000FFFFFFFFFFFF0000FFFF0000000070
:108810000000FFFFFFFFFF000000FFFF000000005F
:108820000000FFFF000000000000FFFFFFFFFFFF50
:108830000000000000000000000000000000000038
:108840000000FFFFFFFFFFFF0000FFFF0000000030
:108850000000FFFFFFFFFF000000FFFF000000001F
:108860000000FFFF000000000000FFFF000000000C
:1088700000000000000000000000000000000000F8
:10888000000000FFFFFFFFFF0000FFFF00000000EF
:108890000000FFFF000000000000FFFF00FFFFFFDF
:1088A0000000FFFF0000FFFF000000FFFFFFFFFFD1
:1088B00000000000000000000000000000000000B8
:1088C0000000FFFF0000FFFF0000FFFF0000FFFFB0
:1088D0000000FFFFFFFFFFFF0000FFFF0000FFFFA2
:1088E0000000FFFF0000FFFF0000FFFF0000FFFF90
:1088F0000000000000000000000000000000000078
:108900000000FFFFFFFFFFFF00000000FFFF00006F
:1089100000000000FFFF000000000000FFFF00005B
:1089200000000000FFFF00000000FFFFFFFFFFFF4F
:108930000000000000000000000000000000000037
:108940000000000000FFFFFF000000000000FFFF2C
:10895000000000000000FFFF000000000000FFFF1B
:108960000000FFFF0000FFFF000000FFFFFFFF000F
:1089700000000000000000000000000000000000F7
:108980000000FFFF0000FFFF0000FFFF00FFFF00EF
:108990000000FFFFFFFF00000000FFFFFFFF0000DF
:1089A0000000FFFF00FFFF000000FFFF0000FFFFCF
:1089B00000000000000000000000000000000000B7
:1089C0000000FFFF000000000000FFFF00000000AB
:1089D0000000FFFF000000000000FFFF000000009B
:1089E0000000FFFF000000000000FFFFFFFFFFFF8F
:1089F0000000000000000000000000000000000077
:108A00000000FFFF000000FFFF00FFFFFF00FFFF6F
:108A1000FF00FFFFFFFFFFFFFF00FFFF00FF00FF62
:108A2000FF00FFFF000000FFFF00FFFF000000FF4E
:108A3000FF00000000000000000000000000000037
:108A40000000FFFF0000FFFF0000FFFFFF00FFFF2F
:108A50000000FFFFFFFFFFFF0000FFFFFFFFFFFF22
:108A60000000FFFF00FFFFFF0000FFFF0000FFFF0F
:108A700000000000000000000000000000000000F6
:108A8000000000FFFFFFFF000000FFFF0000FFFFEE
:108A90000000FFFF0000FFFF0000FFFF0000FFFFDE
:108AA0000000FFFF0000FFFF000000FFFFFFFF00CE
:108AB00000000000000000000000000000000000B6
:108AC0000000FFFFFFFFFF000000FFFF0000FFFFAF
:108AD0000000FFFF0000FFFF0000FFFFFFFFFF009F
:108AE0000000FFFF000000000000FFFF000000008A
:108AF0000000000000000000000000000000000076
:108B0000000000FFFFFFFF000000FFFF0000FFFF6D
:108B10000000FFFF0000FFFF0000FFFF0000FFFF5D
:108B20000000FFFF00FFFF00000000FFFF00FFFF4D
:108B30000000000000000000000000000000000035
:108B40000000FFFFFFFFFF000000FFFF0000FFFF2E
:108B50000000FFFF0000FFFF0000FFFFFFFFFF001E
:108B60000000FFFF00FFFF000000FFFF0000FFFF0D
:108B700000000000000000000000000000000000F5
:108B8000000000FFFFFFFF000000FFFF00000000EB
:108B9000000000FFFFFFFF00000000000000FFFFDB
:108BA000000000000000FFFF000000FFFFFFFF00CB
:108BB00000000000000000000000000000000000B5
:108BC0000000FFFFFFFFFFFF00000000FFFF0000AD
:108BD00000000000FFFF000000000000FFFF000099
:108BE00000000000FFFF000000000000FFFF000089
:108BF0000000000000000000000000000000000075
:108C00000000FFFF0000FFFF0000FFFF0000FFFF6C
:108C10000000FFFF0000FFFF0000FFFF0000FFFF5C
:108C20000000FFFF0000FFFF0000FFFFFFFFFFFF4E
:108C30000000000000000000000000000000000034
:108C40000000FFFF0000FFFF0000FFFF0000FFFF2C
:108C50000000FFFF0000FFFF0000FFFF0000FFFF1C
:108C6000000000FFFFFFFF0000000000FFFF00000A
:108C700000000000000000000000000000000000F4
:108C80000000FFFF000000FFFF00FFFF000000FFEB
:108C9000FF00FFFF00FF00FFFF00FFFFFFFFFFFFE0
:108CA000FF00FFFFFF00FFFFFF00FFFF000000FFCE
:108CB000FF000000000000000000000000000000B5
:108CC0000000FFFF0000FFFF0000FFFF0000FFFFAC
:108CD000000000FFFFFFFF00000000FFFFFFFF009C
:108CE0000000FFFF0000FFFF0000FFFF0000FFFF8C
:108CF0000000000000000000000000000000000074
:108D00000000FFFF0000FFFF0000FFFF0000FFFF6B
:108D1000000000FFFFFFFF0000000000FFFF000059
:108D200000000000FFFF000000000000FFFF000047
:108D30000000000000000000000000000000000033
:108D40000000FFFFFFFFFFFF0000000000FFFF002B
:108D500000000000FFFF0000000000FFFF00000017
:108D60000000FFFF000000000000FFFFFFFFFFFF0B
:108D700000000000000000000000000000000000F3
:108D800000000000000000000000000000000000E3
:108D900000000000000000000000000000000000D3
:108DA00000000000000000000000000000000000C3
:108DB00000000000000000000000000000000000B3
:108DC00000000000000000000000000000000000A3
:108DD0000000000000000000000000000000000093
:108DE0000000000000000000000000000000000083
:108DF0000000000000000000000000000000000073
:108E00000000000000000000000000000000000062
:108E10000000000000000000000000000000000052
:108E20000000000000000000000000000000000042
:108E30000000000000000000000000000000000032
:108E40000000000000000000000000000000000022
:108E50000000000000000000000000000000000012
:108E60000000000000000000000000000000000002
:108E700000000000000000000000000000000000F2
:108E800000000000000000000000000000000000E2
:108E900000000000000000000000000000000000D2
:108EA000000000000000000000FFFFFFFFFFFFFFC9
:108EB000FF000000000000000001010C0303090A8C
:108EC0000B0D0E0F1011120101080101070101061F
:108ED0000101050101040101030101020101010F6A
:108EE0000513131300131313001415160013131393
:108EF000171317001317170018191A001317170064
:108F0000130000130000001B1C1D001313131E137D
:108F10001E00130000001F2021001E1E1313131338
:108F200000130000002200000013131301010000D1
:108F300011241FBECFEFD0E1DEBFCDBF15E0A0E012
:108F4000B5E0ECE9F2ED02C005900D92A230B10758
:108F5000D9F71EE0A2E0B5E001C01D92A33DB10724
:108F6000E1F70E94534D14BE88E10FB6F894809348
:108F70006000109260000FBE0E94104E811102C06E
:108F80000E94EE4DF89481E08093CC0C8093CD0C40
:108F90008093CB0C1092B80C1092BE0C1092C40CA3
:108FA0001092CA0C1092D00C1092A00C1092A20C2D
:108FB00092E19093A10C90EE9093A80C94E1909381
:108FC000A70C1092AC0C1092AB0C1092B00C10923B
:108FD000AF0C8093B70C0E944D5A8EE790E0FC01D5
:108FE00025913491F901FF273083029620E08C3AD5
:108FF0009207A9F778940E94DB5A0E9437670C9475
:109000004C690C940000E0E0E0936F00ADE8AA9595
:10901000F1F700000091DB0CEAE3FCE023E0029FA3
:10902000E00DF11DC0E0D1E020916A0D3CE3321B60
:10903000300F201751F000000000A191B1911C9158
:1090400011930C9303950217C0F313E01A95F1F7EF
:1090500000C03A95D1F7C0E0D1E020919C0C922F4E
:10906000287FC20F6E0100919D0C602F069506951A
:10907000069510919E0C101BF12E102F069506954B
:109080000695D00F1770C10F677040919A0C5091E0
:109090009B0C6090960C7090970C6ABC7BBC5E0138
:1090A000762F8F2D992E00919E0C202F06950695D8
:1090B0000695039527703091990C30300FB601FE5C
:1090C000662701FEC22F01FED02F01FE8FEF01FEA9
:1090D000992401FE4ABD01FE5BBD8090A80CBCD363
:1090E00024E02A95F1F700000E94B54823E12A9573
:1090F000F1F7000063958A9409F1683029F008E0DF
:109100000A95F1F70000EBCF66270C2F07700730A8
:1091100011F0C39502C0C87FD3958A9509F4E60182
:109120003A9509F4672F09F4E50109F48F2D09F444
:10913000992E09F46ABC09F47BBCD1CF29E02A95A9
:10914000F1F7000089D311240E940059E091A20C8C
:1091500042E0E160E427E093A20CF894E2E0E093BF
:109160006F00E2E0E09336000895CF93DF937F93A2
:109170006F933F93DF92CF929F927F926F9278E0AE
:10918000679F0AB51BB500501740000D111D18014F
:109190000AE315E0000D111D280130E41BE1692DE3
:1091A0006770E62EF89409F07894FE01E052208171
:1091B000239F020C131CF00195906F012881C85F5A
:1091C0002C310FB7239FA10100FDA201040E151E33
:1091D000D0012881C85F2C317FB670FA239FA1018E
:1091E0000EF4A201040E151EF0013F010024A60F8B
:1091F000B01D73E0679F00FF22C000C065E079E406
:10920000600D711D6F937F9308950D91C89508B9F6
:109210000D91C89508B90D91C89508B90D91C895DB
:1092200008B90D91C89508B90D91C89508B90D9167
:10923000C89508B90D91C89508B91EF540C0FD0143
:1092400067E279E4600D711D6F937F930895059136
:1092500000C008B9059100C008B9059100C008B95F
:10926000059100C008B9059100C008B9059100C07A
:1092700008B9059100C008B9059100C008B9F3010B
:10928000F6F0059108B92881059108B9239F059149
:1092900008B9C85F2C31059108B908F4A2010591FD
:1092A00008B9040E151E059108B92C311A950591BF
:1092B00008B9059139F1F00108B918F700C001911A
:1092C00008B928810191C85F08B9239F0191000066
:1092D00008B92C3100C0019108B908F0A101019131
:1092E000040E08B9151E00C0019108B971900191D2
:1092F000F00178B800002C311A9521F0000008B96F
:1093000000F6DDCF08B927F530F4F001019108B976
:10931000EA94E1F71FC0F601000098B8EA94C9F09A
:10932000059108B9EA94A9F0059108B9EA9489F081
:10933000059108B9EA9469F0059108B9EA9449F0F1
:10934000059108B9EA9429F0059108B9EA9409F061
:1093500000000000002708B96F907F909F90CF9089
:10936000DF903F916F917F91DF91CF91089520E43D
:10937000E091960CF091970C829FE00DF11DAAE30D
:10938000B5E0629FA00DB11D15901D9215901D9224
:1093900015901D9215901D9215901D9215901D927D
:1093A00015901D9215901D9215901D9215901D926D
:1093B00015901D9215901D9215901D9215901D925D
:1093C00015901D9215901D9215901D9215901D924D
:1093D00015901D9215901D9215901D9215901D923D
:1093E00015901D9215901D9215901D9215901D922D
:1093F00015901D9215901D9215901D9215901D921D
:1094000015901D9215901D9215901D9215901D920C
:1094100015901D9215901D9215901D9215901D92FC
:1094200015901D9215901D9215901D9215901D92EC
:1094300015901D9215901D9215901D9215901D92DC
:1094400015901D9215901D9215901D9215901D92CC
:1094500015901D9215901D9215901D9215901D92BC
:1094600015901D9215901D9215901D9215901D92AC
:1094700015901D9215901D9215901D9215901D929C
:1094800015901D9215901D921124089520E4EAE391
:10949000F5E0829FE00DF11DAAE3B5E0629FA00D0B
:1094A000B11D11901D9211901D9211901D9211905D
:1094B0001D9211901D9211901D9211901D9211906C
:1094C0001D9211901D9211901D9211901D9211905C
:1094D0001D9211901D9211901D9211901D9211904C
:1094E0001D9211901D9211901D9211901D9211903C
:1094F0001D9211901D9211901D9211901D9211902C
:109500001D9211901D9211901D9211901D9211901B
:109510001D9211901D9211901D9211901D9211900B
:109520001D9211901D9211901D9211901D921190FB
:109530001D9211901D9211901D9211901D921190EB
:109540001D9211901D9211901D9211901D921190DB
:109550001D9211901D9211901D9211901D921190CB
:109560001D9211901D9211901D9211901D921190BB
:109570001D9211901D9211901D9211901D921190AB
:109580001D9211901D9211901D9211901D9211909B
:109590001D9211901D9211901D9211901D9211908B
:1095A0001D92112408950F931F93CF93DF9394E09E
:1095B000899FE2E0F5E0E00DF11D03818281E0E4A6
:1095C0008E9FD00198E0099FCEE8DCE00024C10D19
:1095D000D01DE881F981EA0FFB1FAAE3B5E090E412
:1095E000699FA00DB11D1124DD27403051F4A20F59
:1095F000B11D822FC22F00FF11C03796C0E1C21BE0
:109600000DC088E0821B00FD04C0C82FE80FF11DCB
:1096100005C0C8E0C20FE20FF11D3197503051F480
:1096200098E0939FA00DB11D932F01FDE85C01FD13
:10963000FF4F0AC098E0931B632F6A9501FF692FC3
:1096400058E0569FE00DF11D6FEF7FEF00FF61E0E6
:1096500000FF772701FD609711243EEF58E0591B6A
:1096600048E0481B249123132C931196E60FF71F13
:109670004A95C1F7EC0FFD1FA80FB11D5A9581F750
:10968000DF91CF911F910F9108950F921F92EF9349
:10969000FF93EFB7EF93E0918400E251F1E0EF1711
:1096A00000F0F395FA30D8F30C94564BE091A10CEE
:1096B000EA95E093A10CF091A00CF0FD57C0EC30BE
:1096C00098F0F3E0F0938900FDE8F0938800E0FB68
:1096D000289826F4E1E00E943D4CB7C0E5E1EA9508
:1096E000F1F70000289AB1C0E63038F100C000C0A0
:1096F0002898E0FBE4E016F40E943D4CE4E0E0939F
:109700003600E6E0E0936F00A0C0EF93EFB7EF9371
:10971000E0918400ED55E13000F0E23000F0E330FC
:1097200000F0E43000F0E53000F0289AE2E0E09349
:109730006F00EF91EFBFEF91189500C0E0FB289804
:1097400026F4E1E00E943D4C05C0E5E1EA95F1F721
:109750000000289AE091A10CE03009F076C0EDEF0E
:10976000E093A10CE1E0E093A00C6FC0E7E0E09390
:109770008900EBE1E093880000C02898E2E000C097
:109780000E943D4CFDEF0090A70CF019E091A10C58
:10979000EF17D0F4FDEF0090A70CF0190090A80C83
:1097A000F019EF1788F0EDE1FF2700800F92EA959E
:1097B000E1F706E00A95F1F70E940348E1E0FF2790
:1097C0000F900192EE31E0F3E091A10CE03009F04E
:1097D0003CC02F933F934F935F936F937F938F93EF
:1097E0009F93AF93BF9378941124EE27E093A00C3E
:1097F000E2E1E093A10C8091B10C9091B20C019642
:109800008093B10C9093B20CE091A30CF091A40C56
:10981000E115F10509F009950E94DE4D0E945D5B9E
:109820000E94374C1124E091A50CF091A60CE11593
:10983000F10509F00995BF91AF919F918F917F91AB
:109840006F915F914F913F912F91EF91EFBFFF91FA
:10985000EF911F900F9018952898E2E000C00E94A9
:109860003D4CE091A10CEA95E093A10C0895E091A4
:10987000B70CE0FD0E94315008950F931F932F9372
:10988000CF93DF932E2F0091B90C1091BB0C100FCA
:109890000091BA0CE091BC0CF091BD0CE01F04915A
:1098A000E093BC0C1093BB0C1091B80C01030008A2
:1098B000C12DD02D00000091BF0C1091C10C100FD4
:1098C0000091C00CE091C20CF091C30CE01F049118
:1098D000E093C20C1093C10C1091BE0C20FD289A8D
:1098E00020FF00C0010300240008C10DD01D00911D
:1098F000C50C1091C70C100F0091C60CE091C80C5C
:10990000F091C90CE01F0491E093C80C1093C70CB0
:109910001091C40C01030008C10DD01D0091CC0CA6
:109920001091CD0CE091CE0CEA9592F4F091CB0C15
:10993000EF2FE695002E0694002600FA169507955F
:1099400016F9F0FF06F90093CC0C1093CD0C03C070
:1099500016E01A95F1F7E093CE0C10E821FD289A55
:1099600021FF00C000FD1FE70091CA0C1003000892
:10997000C10DD01D0091D30C1091D10C010F00939B
:10998000D30CE091D40C1091D20CE11FF091D50CC6
:1099900000E0F01F8F010090D60C1090D70C00193A
:1099A00011090090D80C1090D90CE015F10508F0C1
:1099B000F801E093D40CF093D50C04911091D00CE5
:1099C00001030008C10DD01D0024C038D0050CF0E3
:1099D000CFE70A94C038D0050CF4C0E8C058C09353
:1099E000B300DF91CF912F911F910F910895809334
