:100000000C9481380C94EA380C94EA380C94EA3851
:100010000C94EA380C94EA380C94EA380C94EA38D8
:100020000C946F3E0C94EA380C94EA380C94EA383D
:100030000C94EA380C943D3C0C947D3C0C94EA38CA
:100040000C94EA380C94EA380C94EA380C94EA38A8
:100050000C94EA380C94EA380C94EA380C94EA3898
:100060000C94EA380C94EA380C94EA380C94EA3888
:10007000BF61CB61D761C361C761CF61C361C36138
:10008000D361676573656A6573656D657365706572
:100090007365766579658100450027FF24FF2A9006
:1000A0002B1C210C22FB850084008903888D81098B
:1000B0006F02444247004501B083B300B1012511EE
:1000C0008A1C8B035A5501200101003808000000EA
:1000D0000000000000000000000000000000000020
:1000E0000000000018401B4077407B4082402340C6
:1000F00028402D408A4030403340364071407440A3
:100100009A4000408891D2E4ADB5B6BEBFFF202032
:100110002050524550415245002020544F20424526
:100120002049434544002320202020202020202057
:10013000202020202020435554450050494E4B207C
:10014000535549545320594F550023202020202037
:10015000202020202049204C494B45205452454521
:10016000530020414E442042454154494E475300DC
:1001700023202020202020202020204D59204755BA
:100180004E002020594F5552204641434500232020
:1001900020202020202020202020205945414820B8
:1001A00042555420495453002020412044525920A4
:1001B0004845415400232020202020202000434F88
:1001C0004E47524154530000594F5520484156451F
:1001D00020444546454154454400544845204B4E33
:1001E0004947485453204F462049524F5300414EEF
:1001F000442045534341504544205448454952000A
:10020000494E544552504C414E4554415259204458
:100210004546454E4345530000594F5520414C53E8
:100220004F204553434150454400544845495220CE
:10023000414E4E4F59494E47204F4E45204C494E56
:10024000455253000050415420594F555253454C8C
:1002500046204F4E20544845204241434B00464FD4
:10026000522041204A4F422057454C4C20444F4E8B
:10027000450023005448452035204B4E49474854FB
:1002800053204F462049524F530048415645205372
:10029000544F4C454E20594F555220504F574552C0
:1002A0002055505300414E4420464C454420544F65
:1002B00020544845495220484F4D45574F524C44D1
:1002C0005300004245434155534520544845592069
:1002D0005355434B000044455354524F5920544802
:1002E000454D20414E440054414B45204241434B33
:1002F00020594F55522053574147002300555A4526
:1003000000004C4A4200004141410000424242008C
:10031000004343430000444444000054414C4C59C2
:10032000200047414D45204F56455200424F4E5503
:1003300053004C4556454C20434C454152005041DA
:10034000555345005820455849542047414D4500D4
:1003500058204D41494E204D454E550054494D457C
:1003600020004C495645532000534849454C4420F1
:100370000053434F5245200000484947482053430B
:100380004F524553005354415254003230313720BC
:100390004C415752454E43452042524F4F4B53001C
:1003A00000C00000C10100B0077F00077F0090433C
:1003B00064004664004B64004F6400B10774009110
:1003C000336400FF0601531D9133640A33641490B3
:1003D0004B64004664004364009133642733641423
:1003E000904664004364004B64004F6400913364A2
:1003F0001433640A904164004D640A416400466409
:10040000004A64004D6400912E641E2E64092E641F
:1004100014904164004664004A6400912E64282EC2
:100420006414904164004664004A64004D64009185
:100430002E64132E640A903F64004B640A3F6400EC
:100440004464004864004B6400912C641E2C640AD0
:100450002C6414904164004664004A6400912C644A
:10046000132E641490466400912C6414903F640031
:10047000436400486400912E641430641490436413
:10048000004864004B64004F64009130641D306488
:100490000A306414904B6400486400436400913057
:1004A0006428306413904364004864004B64004F38
:1004B00064009130641430640A904164004D640A11
:1004C0004364004664004B64004F64009133641E33
:1004D000336409336414904B640046640043640041
:1004E00091336428336414904664004364004B6481
:1004F000004F64009133641333640A904164004DEB
:10050000640A4164004664004A64004D6400912E10
:10051000641E2E640A2E6414904164004664004AEE
:100520006400912E64272E64149041640046640098
:100530004A64004D6400912E64142E640A903F6456
:10054000004B640A3F64004464004864004B64004C
:10055000912C641D2C640A2C641490416400466440
:10056000004A6400912C64142E6414904664009137
:100570002C6413903F64004364004864009130642D
:100580001430641490486400912C6E142C4B069027
:100590004A640E912C4B0D904B6406912C6E149076
:1005A0004D6400912C4B142C4B07904B640D912CF7
:1005B0006E0D904A6407912C4B1390486400913063
:1005C0006E14304B07904A640D91304B0D90466489
:1005D0000791306E139043640091304B14304B07F9
:1005E0009046640D91306E0D9048640791304B1425
:1005F00090486400912C6E132C4B07904A640D9127
:100600002C4B0D904B6407912C6E14904D6400910F
:100610002C4B142C4B06904B640D912C6E0E904D70
:100620006406912C4B14904F640091306E14304B43
:10063000079050640D91304B0E904D640591306ED3
:1006400014904F640091304B14304B07904D640D63
:1006500091306E0D904B640791304B13904D6400B8
:10066000912B6E142B4B07904F640D912B4B0D90DB
:100670004D6407912B6E14904B6400912B4B132B00
:100680004B079046640D912B6E0D904B6407912B98
:100690004B14904D6400912C6E132C4B07905064BA
:1006A0000D912C4B0D904F6407912C6E14904D645E
:1006B00000912C4B142C4B069048640D912C6E0E1F
:1006C000904D6406912C4B149052640091276E0D4E
:1006D0009050640791274B06904F640E5064009130
:1006E000274B0D904F640691276E07904D640D4B7C
:1006F000640091274B14274B079046640D91276E99
:100700000D904B640791274B139047640091266E20
:1007100014264B07904A640D91264B0D904F6407A9
:1007200091266E149053640091264B13264B07902C
:1007300056640D91266E0D905B640791264B1490C4
:100740003D64009131640690416407446407496444
:10075000064D64075064065564075964075C6406D7
:100760005964075564065064074D6407496406449C
:1007700064074164063D64073864073D64064164CC
:1007800007446406496407446407416406436400FF
:1007900091376407904764064A64074F64065364C0
:1007A000075664075B64065F64076264065F64075C
:1007B0005B64075664065364074F64064A64074740
:1007C00064074364063E64074364064764074A645B
:1007D000074F64064A6407476406466400913A641A
:1007E00007904A64074D64065264075664065964CC
:1007F000075E64076264066564076264065E6407F8
:100800005964075664065264074D64064A640746F5
:1008100064074164064664074A64064D64075264EF
:10082000074D64064A6407547F004364004864002F
:100830004B64004F64009130641D30640A306414CE
:10084000904B640048640043640091306428306435
:1008500014904364004864004B64004F640091307E
:10086000641330640A904164004D640A4364004696
:1008700064004B64004F64009133641E33640A3398
:100880006414904B64004664004364009133642711
:10089000336414904664004364004B64004F64006A
:1008A0009133641433640A904164004D640A4164D6
:1008B000004664004A64004D6400912E641D2E645D
:1008C0000A2E6414904164004664004A6400912E2C
:1008D00064272E6414904164004664004A64004D0D
:1008E0006400912E64142E640A903F64004B640AE5
:1008F0003F64004464004864004B6400912C641E13
:100900002C64092C6414904164004664004A64001D
:10091000912C64142E641490466400912C641490FD
:100920003F6400436400486400912E6413306414F3
:10093000904364004864004B64004F64009130644D
:100940001E30640A306414904B64004864004364B1
:100950000091306427306414904364004864004B75
:1009600064004F64009130641430640A9041640064
:100970004D640A4364004664004B64004F64009178
:1009800033641D33640A336414904B64004664007E
:1009900043640091336428336413904664004364D5
:1009A000004B64004F64009133641433640A904137
:1009B00064004D640A4164004664004A64004D646A
:1009C00000912E641E2E64092E641490416400462A
:1009D00064004A6400912E64282E641490416400DF
:1009E0004664004A64004D6400912E64132E640A2C
:1009F000903F64004B640A3F640044640048640014
:100A00004B6400912C641E2C640A2C641490416485
:100A1000004664004A6400912C64132E64149046CE
:100A20006400912C640FFF06014505903F6400436C
:100A30006400486400913064143064810AFF2F0020
:100A400000C00000C10100B0077F00B1077400FFC3
:100A50000601531B9048780091306E079043550073
:100A6000913050079048550091305007904A7800D7
:100A700091306E07904B55009130500790485500CB
:100A800091305007904A780091306E07904B550096
:100A900091305007904D550091305007904A7800A2
:100AA00091306E07904B550091305007904D550096
:100AB00091305007904F780091306E07904B550061
:100AC00091305007904D7800912E6E07904F55074A
:100AD00050780091306E06904D550091305007903F
:100AE0004F550091305007904B780091306E079031
:100AF0004D550091305007904A55009130500730C5
:100B00006E03904B780448550091305007904A5539
:100B100000913050079046780091306E07904D5507
:100B200000913050079046780091305007904F5513
:100B30000091306E079046780091305007904D55E7
:100B400000912E6E079046780748550091306E0749
:100B50009043550091305007904855009130500710
:100B6000904A550091306E07904B550091305007D8
:100B70009048550091305006904A550091306E07CC
:100B8000904B550091305007904D550091305007D3
:100B9000904A550091306E07904B550091305007A8
:100BA000904D550091305007904F550091306E0791
:100BB000904B550091305007904D5500912E6E0787
:100BC000904F550750550091306E07904D5500914C
:100BD000305007904F550091305007904B55009181
:100BE000306E07904D550091305007904A55009156
:100BF000305007306E02904B5505485500913050EB
:100C000007904A5500913050079046550091306E3C
:100C100006904D5500913050079046550091305048
:100C200007904F550091306E079046550091305017
:100C300007904D5500912E6E079046550748780055
:100C4000912C6E0790435500912C50079048550009
:100C5000912C5007904A7800912C6E07904B5500CC
:100C6000912C500790485500912C5007904A7800DD
:100C7000912C6E07904B5500912C5007904D5500CC
:100C8000912C5007904A7800912C6E07904B55009C
:100C9000912C5007904D5500912C5007904F7800A3
:100CA000912C6E07904B5500912C5007904D780079
:100CB000912B6E06904F5507507800912C6E07903F
:100CC0004D5500912C5007904F5500912C50079096
:100CD0004B7800912C6E07904D5500912C50079049
:100CE0004A5500912C50072C6E02904B78054855C0
:100CF00000912C5007904A5500912C50079046784F
:100D000000912C6E07904D5500912C50079046781D
:100D100000912C5007904F5500912C6E079046780B
:100D200000912C5007904D5500912B6E07904678FE
:100D30000748550091296E079043550091295007A7
:100D40009048550091295006904A550091296E0708
:100D5000904B550091295007904855009129500714
:100D6000904A5500912B6E07904B5500912B5007E0
:100D7000904D5500912B5007904A5500912B6E07CE
:100D8000904B5500912B5007904D5500912B5007DB
:100D9000904F5500912C6E07904B5500912C5007A9
:100DA000904D5500912C6E07904F5507505500916E
:100DB0002E6E07904D5500912E5007904F55009183
:100DC0002E5007904B5500912E6E07904D55009177
:100DD0002E5007904A5500912E50072E6E02904BD0
:100DE0005505485500912E5006904A5500912E50B9
:100DF0000790465500912E6E07904D5500912E504C
:100E00000790465500912E5007904F5500912E6E39
:100E10000790465500912E5007904D5500912E6E2B
:100E2000079046550748550091306E07904355008E
:100E3000913050079048550091305007904A550026
:100E400091306E07904B55009130500790485500F7
:100E500091305007904A550091306E07904B5500E5
:100E600091305007904D550091305007904A5500F1
:100E700091306E07904B550091305007904D5500C2
:100E800091305007904F550091306E06904B5500B1
:100E900091305007904D5500912E6E07904F550799
:100EA00050550091306E07904D550091305007908D
:100EB0004F550091305007904B550091306E079080
:100EC0004D550091305007904A55009130500730F1
:100ED0006E02904B550548550091305007904A5589
:100EE00000913050079046550091306E07904D5557
:100EF00000913050079046550091305007904F5563
:100F00000091306E079046550091305007904D5536
:100F100000912E6E079046550748550091306E0699
:100F2000904355009130500790485500913050073C
:100F3000904A550091306E07904B55009130500704
:100F40009048550091305007904A550091306E07F7
:100F5000904B550091305007904D550091305007FF
:100F6000904A550091306E07904B550091305007D4
:100F7000904D550091305007904F550091306E07BD
:100F8000904B550091305007904D5500912E6E07B3
:100F9000904F550750550091306E07904D55009178
:100FA000305007904F550091305007904B550091AD
:100FB000306E07904D550091305007904A55009182
:100FC000305006306E03904B550448550091305018
:100FD00007904A5500913050079046550091306E69
:100FE00007904D5500913050079046550091305074
:100FF00007904F550091306E079046550091305044
:1010000007904D5500912E6E079046550748780081
:10101000912C6E0790435500912C50079048550035
:10102000912C5007904A7800912C6E07904B5500F8
:10103000912C500790485500912C5007904A780009
:10104000912C6E07904B5500912C5007904D5500F8
:10105000912C5007904A7800912C6E06904B5500C9
:10106000912C5007904D5500912C5007904F7800CF
:10107000912C6E07904B5500912C5007904D7800A5
:10108000912B6E07904F5507507800912C6E07906A
:101090004D5500912C5007904F5500912C500790C2
:1010A0004B7800912C6E07904D5500912C50079075
:1010B0004A5500912C50072C6E02904B78054855EC
:1010C00000912C5007904A5500912C50079046787B
:1010D00000912C6E07904D5500912C50079046784A
:1010E00000912C5007904F5500912C6E0790467838
:1010F00000912C5007904D5500912B6E069046782C
:101100000748550091296E079043550091295007D3
:101110009048550091295007904A550091296E0733
:10112000904B550091295007904855009129500740
:10113000904A5500912B6E07904B5500912B50070C
:10114000904D5500912B5007904A5500912B6E07FA
:10115000904B5500912B5007904D5500912B500707
:10116000904F5500912C6E07904B5500912C5007D5
:10117000904D5500912C6E07904F5507505500919A
:101180002E6E07904D5500912E5007904F550091AF
:101190002E5007904B5500912E6E06904D550091A4
:1011A0002E5007904A5500912E50072E6E03904BFB
:1011B0005504485500912E5007904A5500912E50E5
:1011C0000790465500912E6E07904D5500912E5078
:1011D0000790465500912E5007904F550091306E64
:1011E000079046550091305007904D5500912E6E56
:1011F000079046550754640048640091306E0730EC
:101200005007305007306E07305007305007306EAF
:1012100007305006305007306E0730500730500707
:10122000306E073050072E6E0E306E07305007308C
:101230005007306E07305007305007306E0730507F
:1012400007305007306E07305007305007306E06B9
:101250003050072E6E0E903364003764003C6400FB
:1012600091306E0730500730500790326400376479
:10127000003A640091306E073050073050079033C9
:1012800064003764003C640091306E0730500730D2
:101290005007903764003A64003E640091306E0756
:1012A000305007305007903764003C64003F6400C2
:1012B00091306E07305007903764003A64003E6406
:1012C0000091306E07306E07903A64004364003F2F
:1012D000640091336E06335007335007336E073383
:1012E0005007335007903764003A64003F64009120
:1012F000336E07335007335007336E0733500733CD
:101300005007903A64003F640043640091336E07D5
:10131000335007336E07336E07904164003E64001C
:101320003A6400912E6E072E50072E50072E6E073E
:101330002E50072E5006903564003A64003E64003B
:10134000912E6E072E50072E50072E6E072E500737
:101350002E5007903A64003E6400416400912E6E66
:10136000072E50072E6E072E6E07903764003C64E0
:10137000003F640091306E07305007305007306EE8
:1013800007305007305007306E0730500730500795
:10139000306E06305007305007306E073050072E41
:1013A0006E0E306E07305007305007306E073050E9
:1013B00007305007306E07305007305007306E0747
:1013C000305007305007306E073050072E6E0D90AA
:1013D0003364003764003C640091306E073050077E
:1013E000305007903264003764003A640091306EE8
:1013F00007305007305007903364003764003C6476
:101400000091306E07305007305007903764003A33
:1014100064003E640091306E0730500730500790F2
:101420003764003C64003F640091306E0730500721
:10143000903764003A64003E6400912E6E0E903A3C
:1014400064004364003F640091336E0733500733F8
:101450005007336E06335007335007903764003A15
:1014600064003F640091336E0733500733500733F5
:101470006E07335007335007903A64003F640043CF
:10148000640091336E07335007326E0E9041640052
:101490003E64003A6400912E6E072E50072E5007CE
:1014A0002E6E072E50072E5007903564003A6400C8
:1014B0003E6400912E6E072E50062E50072E6E07AA
:1014C0002E50072E5007903A64003E64004164009D
:1014D000912E6E05FF06014502912E50072C6E0ECF
:1014E000903764003C64003F640091306E073050D8
:1014F00007305007306E07305007305007306E0706
:10150000305007305007306E07305007305007FF1B
:101510002F0000000089160000000000000089165E
:10152000000000000000007816000000000000002D
:1015300022160000000000000078160000000000E5
:1015400000005115000000000000005115000000CF
:101550000000077F0002030000FF000841010404AF
:10156000010404010404010404010404010404014D
:10157000040401040401040403076400083C01049A
:10158000040104040104040104040104040104042A
:101590000104040104040104040307500008370196
:1015A000040401040401040401040401040401040A
:1015B0000401040401040401040403073200083296
:1015C00001040401040401040401040401040401ED
:1015D00004040104040104040104040307280008AE
:1015E0002D010404010404010404010404010404A1
:1015F00001040401040401040401040403071400A9
:101600000828010404010404010404010404010481
:10161000040104040104040104040104040105009C
:1016200000FF00020300077F0008500104060104C8
:101630000601040601070003077F000850010406A5
:1016400001040601040601070003085000072001F9
:10165000040601040601040601040601070003084C
:101660005000070F010406010406010406010406E8
:1016700001070001050000FF0002040007700000E0
:10168000D800083C01050000FF0002040000DD0056
:10169000FFFEFEFEFEFEFEFE87FEFEFEFEFEFE8757
:1016A00087FEFEFEFEFEFE8787FEFEFEFE8585852A
:1016B00087FEFEFE8587878785FEFE85878787876D
:1016C00085FE858787878585878587878585878741
:1016D00087878787FEFEFEFEFED2D2EBD2FEFEFE9D
:1016E000FE87D2FDEBFEFEFEFE8787EBD2FEFEFEFE
:1016F000FE858787D2FEFEFEFE8785858785FEFEF6
:10170000FE87EF87878785FEFEEFFFEF878785FEE1
:10171000FEFEFEFEFEFEFEFEFEFEFEFEFEFEFEFEE9
:1017200087FEFEFEFEFEFE8787FEFEFEFEFEFE87B5
:1017300087FEFEFEFE85858587FEFEFE8587878700
:1017400085FEFE858787878785FE858787878585D0
:1017500087FEFEFEFEFEFEFEFE878787FEFEFEFE85
:10176000FED2D2EBD2FEFEFEFE87D2FDEBFEFEFEE7
:10177000FE8787EBD2FEFEFEFE858787D2FEFEFE49
:10178000FE8785858785FEFEFE87EF87878785FE36
:10179000FEFEFEFEFEFEFEFEFEFEFEFEFEFEFEFE69
:1017A000FEFEFEFEFEFEFEFEFEFEBABABABABABAF1
:1017B000FEBABDBDBDBDBDBDBAFEBABABABABABAEF
:1017C000FEFEFEFEFEFEFEFEFEFEFEFEFEFEFEFE39
:1017D000FEFEFE464646464646FEA5A5A5474746AA
:1017E000FEFE46464747463F3F4646474746FEFEC3
:1017F000FE4646474746FEFEFEFE464647473F3FFB
:10180000FEFEA5A5A547FEFEFEFEFE46464646FE9A
:10181000FEFEFEFEFFFEFEFEFEFEFEFFFFFFFEFEE4
:10182000FEFEFFFFFDFFFFFEFEFFFFFDF8FDFFFFD9
:10183000FEFEFFFFFDFFFFFEFEFEFEFFFFFFFEFEC2
:10184000FEFEFEFEFFFEFEFEFEFEFEFEFEFEFEFEB7
:10185000FEFEFEFE07FEFEFEFEFEFE070707FEFE84
:10186000FEFE0707270707FEFE070727772707075C
:10187000FEFE0707270707FEFEFEFE070707FEFE20
:10188000FEFEFEFE07FEFEFEFEFEFEFEFEFEFEFE6F
:10189000FEFEFEFE38FEFEFEFEFEFE383838FEFE80
:1018A000FEFE3838BC3838FEFE3838BCBEBC38388E
:1018B000FEFE3838BC3838FEFEFEFE383838FEFEF4
:1018C000FEFEFEFE38FEFEFEFEFEFEFEFEFEFEFEFE
:1018D000FEFEFEFEA2FEFEFEFEFEFEA2A2A2FEFE98
:1018E000FEFEA2A2AAA2A2FEFEA2A2AAADAAA2A245
:1018F000FEFEA2A2AAA2A2FEFEFEFEA2A2A2FEFEE0
:10190000FEFEFEFEA2FEFEFEFEFEFEFEFEFEFEFE53
:10191000FEFEFEFE6EFEFEFEFEFEFE6E6E6EFEFE27
:10192000FEFE6E6E6F6E6EFEFE6E6E6F776F6E6E8B
:10193000FEFE6E6E6F6E6EFEFEFEFE6E6E6EFEFE46
:10194000FEFEFEFE6EFEFEFEFEFEFEFEFEFEFEFE47
:10195000FEFEFEFEFEFEFEFEFEFEFEFEFEFEFEFEA7
:10196000FEFEFEFEFEFEFEFEFEFEFEFEFEFEFEFE97
:10197000FEFEFEFEFEFEFEFEFEFEFEFEFEFEFEFE87
:10198000FEFEFEFEFEFEFEFEFEFEFEFEFEFEFEFE77
:10199000FE85878785FE858787FE858785FE858707
:1019A00087FE858787ADADADADFEFE8587ADADAD5C
:1019B000ADFEFE8587ADADADADFEFEFE85A4AD8767
:1019C00087FEFEFEFEA4A48587FEFEFEFEA4A4857F
:1019D0008787EF87858785FEFE8787878587878549
:1019E000FEADADADADAD8785FEADADADADADADA4DC
:1019F000ADADADADADADA4A4A487878785FEFEFED9
:101A0000FE87878785FEFEFEFE87878785FEFEFEB2
:101A1000FE87EF87858785FEFE8787878587878591
:101A2000FEADADADADAD8785FEADADADADADADA49B
:101A3000ADADADADADADA4A4A487878785FEFEFE98
:101A4000FE87878785FEFEFEFE878785FEFEFEFEFB
:101A5000FE858787858587878785878785FE858734
:101A600087FE858785FE858787FE858787ADADAD37
:101A7000ADFEFE8587ADADADADFEFE8587ADADADEE
:101A8000ADFEFEFE85A4AD8787FEFEFEFEA4A48506
:101A900087EFFFEF878785FEFE87EF87858785FEC7
:101AA000FE87878785878785FEADADADADAD878520
:101AB000FEADADADADADADA4ADADADADADADA4A420
:101AC000A487878787FEFEFEFE878787FEFEFEFED1
:101AD000FE87EF87858785FEFE87878785878785D1
:101AE000FEADADADADAD8785FEADADADADADADA4DB
:101AF000ADADADADADADA4A4A487878787FEFEFED6
:101B0000FE87878787FEFEFEFE878787FEFEFEFE36
:101B1000FEEFFFEF878785FEFE87EF87858785FECF
:101B2000FE87878785878785FEADADADADAD87859F
:101B3000FEADADADADADADA4ADADADADADADA4A49F
:101B4000A487878787FEFEFEFE8787878787FEFE3E
:101B5000FEFEFEFEFEFEFEFEFEFEFEFEFEFEFEFEA5
:101B6000FEFEFEFE2707FEFEFEFEFE27772707FE8F
:101B7000FEFEFE07270707FEFEFEFEFE0707FEFE2F
:101B8000FEFEFEFEFEFEFEFEFEFEFEFEFEFEFEFE75
:101B9000FEFEFEA3A0A0A3FEFEFEA3A3A3A3A3A3F9
:101BA000FEA3A3A30707A3A3A3A0A307272707A315
:101BB000A0A0A307272707A3A0A3A3A30707A3A366
:101BC000A3FEA3A3A3A3A3A3FEFEFEA3A0A0A3FE24
:101BD000FEFEFEFEFEFEFEFEFEFEFEFEFEFEFEFE25
:101BE000FEFEFEFEEBD2FEFEFEFEFEEB77EBD2FE2D
:101BF000FEFEFED2EBD2D2FEFEFEFEFED2D2FEFEF4
:101C0000FEFEFEFEFEFEFEFEFEFEFEFEFEFEFEFEF4
:101C1000FEFEFEFEFEFEFEFEFEFEFEFEFEFEFEFEE4
:101C2000FEFEFEFEFEFEFEFEFEFEFEFFFFFFFFFFCF
:101C3000FFFEF8F8F8F8F8F8FEFFFFFFFFFFFFFEE1
:101C4000FEFEFEFEFEFEFEFEFEFEFEFEFEFEFEFEB4
:101C5000FEFEFEFEFEFEFEFEFEFEFEFEFEFEFEFEA4
:101C6000FEFEFEFEFEFEFEFEFEFE8787878787875E
:101C7000FE87EFEFEFEFEFEF87FE87878787878796
:101C8000FEFEFEFEFEFEFEFEFEFEFEFEFEFEFEFE74
:101C9000FEFEFEFEFEFEFEFEFEFEFEFEFEFEFEFE64
:101CA000FEFEFEFEA4A3FEFEFEFEFEA4A6A4A3FE70
:101CB000FEFEFEA3A4A3A3FEFEFEFEFEA3A3FEFE65
:101CC000FEFEFEFEFEFEFEFEFEFEFEFEFEFEFEFE34
:101CD000FEFEFEFEFEFEFE8587FEFEFEFEFEFE858D
:101CE00087FEFEFEFEFE858787FEFEFEFEFE8587E2
:101CF00087FEFEFEFE858787FEFEFEFEFE85878749
:101D0000FEFEFEFEFEA4A4A4FEFEFEFEFEA4A4A40F
:101D1000A487FE8585FEFEFEFE87FE858585FEFE88
:101D2000FEFEFE858585FEFEFEFEFE858585FEFEA9
:101D3000FEFEFE858585FEFEFEFEFE858585FEFE99
:101D4000FEFEFEA4A4A4FEFEFEFEFEA4A4A4A4FE29
:101D5000FEFEFEFEFEFEFEFE85FEFEFEFEFEFEFE1C
:101D600085FEFEFEFEFE858587FEFEFEFE858787DC
:101D700087FEFEFEA487878787FEFEFEA4878787EF
:101D8000FEFEFEFEA4A4FEFEFEFEFEFEA4A4A4FE35
:101D9000FE878787FEFEFEFEFE87878787FEFEFEA4
:101DA000FE87878787FEFEFEFE878787FEFEFEFE94
:101DB000FE878585FEFEFEFEFE858585FEFEFEFE17
:101DC000FEA4A4A4FEFEFEFEFEA4A4A4A4FEFEFEA9
:101DD000FEFEFEFEFEA4A48587FEFEFEFE85858532
:101DE00085FEFEFEFE85858585A4A4858585858581
:101DF000FEA4A48585858585FEA4A485858585FEAC
:101E0000FEA4FEFEFEFEFEFEFEFEFEFEFEFEFEFE4C
:101E1000FE878787FEFEFEFEFEFE858787FEFEFEAE
:101E2000FEFE85878787FEFEFEFEFE858787FEFE17
:101E3000FEFEFE85878787FEFEFEFEFE858787FE07
:101E4000FEFEFEFEA4A4A4FEFEFEFEFEA4A4A4A428
:101E5000FEFEFEFEFEFEFEFE85FEFEFEFEFEFEFE1B
:101E600085FEFEFEFEFE858585FEFEFEFE858585E1
:101E700085FEFEFEA485858585FEFEFEA4858585FE
:101E8000FEFEFEFEA4A4FEFEFEFEFEFEA4A4A4FE34
:101E9000FE878787FEFEFEFEFE85878785FEFEFEA7
:101EA000FE85878785FEFEFEFE858787FEFEFEFE99
:101EB000FE858787FEFEFEFEFE858787FEFEFEFE10
:101EC000FEA4A4A4FEFEFEFEFEA4A4A4A4FEFEFEA8
:101ED000FEFEFEFEFEA4A48587FEFEFEFE85858531
:101EE00085FEFEFEFE85858585A4A485858585A461
:101EF000A4A4A485858585A4A4A4A485858585A49A
:101F0000A4A4FEFEFEFEFEA4FEFEFEFEFEFEFEFEFF
:101F1000FE8787858787FEFEFEFEFE85878787FE14
:101F2000FEFEFE85878787FEFE8585858787FEFE08
:101F3000FE8787878787FEFEFE87878787FEFEFEF0
:101F4000FEFEFEFEFEFEFEFEFEFEFEFEFEFEFEFEB1
:101F5000FEFEFEFEFEFEFEFEFEFEFE00000000FE99
:101F6000FEAD000F1F1F0F00ADAD00000000000010
:101F7000ADADAD00000000ADADAD00AD0000AD00F9
:101F8000ADADFE00000000FEADADFEFEFEFEFEFEAD
:101F9000ADFEFE000000000000ADADAD1F0F000063
:101FA00000FEFE0000000000FEFEFEFE0000FEFE41
:101FB000FEFEFEFE0000FEFEFEFEFEFE0000FEFE39
:101FC000FEFE000000000000FE0000000000000017
:101FD00000FFFFFFFFFFFFFFA3FFFFFFFFFFFFFF6C
:101FE000A3A3FFFFFFFFFFA3FEA3FFFFFFFFFFA3CE
:101FF000FEFEA3FFFFFFA3FEFEFEA3FFFFFFA3FE67
:10200000FEFEFEA3FFA3FEFEFEFEFEA3FFA3FEFE5A
:10201000FEFEFEFE0707FEFEFEFEFE07270707FE8A
:10202000FEFE072777270707FEFE07072707070794
:10203000FEFEFE07270707FEFEFEFE070707FEFE61
:10204000FEFEFEFE0707FEFEFEFEFEFE07FEFEFE95
:10205000FEFEFEFE14FEFEFEFEFEFE141414FEFE48
:10206000FEFE14140F1414FEFE14140F060F1414A5
:10207000FEFE14140F1414FEFEFEFE141414FEFED5
:10208000FEFEFEFE14FEFEFEFEFEFEFEFEFEFEFE5A
:10209000FEFEFEFE7FFEFEFEFEFEFE7F7F7FFEFE5C
:1020A000FEFE7F7F077F7FFEFE7F7F0700077F7F2B
:1020B000FEFE7F7F077F7FFEFEFEFE7F7F7FFEFEB0
:1020C000FEFEFEFE7FFEFEFEFEFEFEFEFEFEFEFEAF
:1020D000FEFEFEFEFE38FEFEFEFEFEFE3838FEFE72
:1020E000FEFEFEFE383838FEFEFEFE3838BC38FEF6
:1020F000FEFE383838BC3838FEFE3838BCBEBC3836
:10210000FEFEFE3838BC38FEFEFEFEFE3838FEFE0F
:10211000FEFEFEFEFEFEFEFEFEFEFEFEFEFEFEFEDF
:102120007FFEFEFEFEFE7F7F7FFEFEFEFE7F7F7F48
:102130007FFEFEFEFEFEFE7F7FFEFEFEFEFEFEFE3C
:10214000FEFEFEFEFEFEFEFEFEFEFEFEFEFEFEFEAF
:10215000FEA4FEFEFEFEFEFEFEA4ADFEFEFFFFA4FC
:10216000ADA4ADF6FFFFA4ADF6A4ADF6FFA4ADF6A9
:10217000FFA4ADFEFEA4ADF6FFA4FEFEA4A4ADF642
:10218000FEFEFEFEA4A4ADF6F6FEFEFEFEFEFEFE84
:10219000FEFEFEFEFEFEFEFEFEF6FFFFFFD2FEFE90
:1021A000FEFFFFFFFFD2EBFEFEFFFEFFFFEBFDD2C7
:1021B000FEFEFEFEFFD2EBD2D2FEFEFEFEFEFEFED5
:1021C000FEF6FEFEFEFEFEFEFEFEFEFEFEFEFEFE37
:1021D000FEFEFEBF7F7FBFFEFEFE7F7F7F7F7F7F95
:1021E000FEBF7F7F7F7F7F7FBF7F7F7F7F7F7F7F00
:1021F0007F7F7F7F7F7F7F7F7FBF7F7F7F7F7F7FAF
:10220000BFFE7F7F7F7F7F7FFEFEFEBF7F7FBFFEA3
:10221000FEFEFEFEFEFEFEFEFEFEFEFEFEFEFEFEDE
:10222000FEFEFEFE7F7FFEFEFEFEFE7F7F7F7FFEC8
:10223000FEFEFE7F7F7F7FFEFEFEFEFE7F7FFEFEB8
:10224000FEFEFEFEFEFEFEFEFEFEFEFEFEFEFEFEAE
:10225000FEFEFEBF7F7FBFFEFEFE7F7F7F7F7F7F14
:10226000FEBF7FFEFE7F7F7FBF7FFEFEFEFE7F7F85
:102270007FFEFEFEFEFEFE7F7FFEFEFEFEFEFE7F7A
:10228000BFFEFEFEFEFEFE7FFEFEFEFEFEFEBFFE6B
:10229000FEFEFEFEFEFEFEFEFEFEFEFEFEFEFEFE5E
:1022A000FEFEFEFEFEFEFEFEFEFEFEFEE3FEFEFE69
:1022B000FEFEFEFEFFFEFEFEFEFEFEFEFEFEFEFE3D
:1022C000FEFEFEFEFEFEFEFEFEFEFEFEFEFEFEFE2E
:1022D000FEFEFEFEFEFEFEFEFEFEFEFEFEFFFEFE1D
:1022E000FEFEFEFEFE7FFFFEFEFEFEFEFE7F7FFF89
:1022F000FEFEFEFEFE7F7F7FFFFEFEFEFE7F7F7FF7
:10230000FEFEFEFEFE7F7FFEFEFEFEFEFE7FFEFE6A
:10231000FEFEFEFEFEFEFEFEFEFEFEFEFEFEFEFEDD
:10232000FEFEFEFEFEFEFEFEFEFEFEFEFEFEFEFECD
:10233000FE7F7F7F7F7F7FFFFEFE7F7F7F7FFFFEB1
:10234000FEFEFE7F7FFFFEFEFEFEFEFEFEFEFEFEAA
:10235000FEFEFEFEFFFEFEFEFEFEFEFF7F7FFEFE99
:10236000FEFEFF7F7F7F7FFEFEFF7F7F7F7F7F7F81
:10237000FEFEFEFEFEFEFEFEFEFEFEFEFEFEFEFE7D
:10238000FEFEFEFEFEFEFEFEFEFEFEFEFEFEFEFE6D
:10239000FEFEFE00000000FEFEFE000F1F1F0F00ED
:1023A000FEAD000000000000ADAD00AD0000AD00CE
:1023B000ADADAD00000000ADADADFE00000000FE13
:1023C000ADADFEFEFEFEFEFEADADFEFEFEFEFEFE71
:1023D000ADFEFEFE0000FEFEFEFEFE00000000FE62
:1023E000FEFE00000F0F0000FE00000F1F1F0F0079
:1023F000000000FEFEFEFE000000FEFEFEFEFEFEF1
:102400000000FEFEFEFEFEFE00FEFEFEFEFEFEFEE6
:10241000FEFEFEFEFEFEFEFEA4FEFEFEFEFEFEFE36
:10242000A4FEFEFEFE462746464747474627772737
:1024300046FE47474646274646FEFEFEFE464646C1
:10244000A4FEFEFEFEFEFEFEA4FEFEFEFEFEFEFE60
:10245000A4FEFEFE0A0AFEFEFEFE0A0A0A0A0A0A96
:10246000FEFE0A0A27270A0AFE0A0A277777270AA2
:102470000A0A0A277777270A0AFE0A0A27270A0A7A
:10248000FEFE0A0A0A0A0A0AFEFEFEFE0A0AFEFE0C
:10249000FEFEFEFEFEFEFEFEFEFEFEFEFEFEFEFE5C
:1024A000FEFEFEFEFEFEFEFEFEFE07070707070716
:1024B000FE0727272727272707FE070707070707FE
:1024C000FEFEFEFEFEFEFEFEFEFEFEFEFEFEFEFE2C
:1024D000FEFEFEFEFEFEFEFEFEFEFE0707FEFEFE0A
:1024E000FEFE07070707FEFEFE0707270707070789
:1024F000FE0727772727070707FE0727070707FE97
:10250000FEFEFE0707FEFEFEFEFEFEFEFEFEFEFED9
:10251000FEFEA3A4A3A3A4A3FEA3FEFEA4A4FEFE0A
:10252000A3FEFEFEBC38FEFEFEFEFEBCBEBC38FEB8
:10253000FEFEFE38BC3838FEFEFEFEFE3838FEFEDB
:10254000FEA3FEFEA4A4FEFEA3FEA3A4A3A3A4A335
:10255000FEFEFEFEFEFEFEFEFEFEFEFEFEFEFEFE9B
:102560007FFEFEFEFEFEFE7F7FFEFEFEFEFEFEFE08
:102570007FFEFEFEFEFEFEFEFEFEFEFEFEFEFEFEFA
:10258000FEFEFEFEFEFEFEFEFEFEFEFEFEFEFEFE6B
:10259000FEA4FEFEFEFEFEFEFEA4A4FEFEFEFEFE69
:1025A000FEA4A4ADFEFEFEFEFEA4A4ADADFEFEFEA6
:1025B000FEA4A4ADADF6FEFEFEA4A4ADADF6F6FFFE
:1025C000FFA4A4ADADF6F6FFFFA4A4ADADF6F6FFF3
:1025D000FFFEFEFEFEFEFEFEFEFEFEFEFEFEFEFE1A
:1025E000FEFEFEFFFFFFFFA4A4FEFFFFFFFFA4A46B
:1025F000A4FFFFFFFFFFA4A4A4FFFFFFFFA4A4A468
:10260000ADFFFFFFFFA4A4ADADFFFFFFA4A4ADADE0
:10261000F6FEFEFEFEFEFEFEFEFEFEFEFEFEFEFEE2
:10262000FEA4ADADF6F6FFFFFFA4ADADF6F6FFFFDD
:10263000FFADADF6F6FFFFFFFFADF6F6FFFFFFFFC4
:10264000FFF6F6FFFFFFFFFFFFF6FFFF7F7FFFFFB5
:10265000FFFEFEFEFEFEFEFEFEFEFEFEFEFEFEFE99
:10266000FED2FEFEFEFEFEFEFED2D2FEFEFEFEFE0E
:10267000FED2D2D2FEFEFEFEFED2D3EBD3FEFEFE93
:10268000FED2EBFDEBD2FEFEFED2D3EBD3D2D2FED6
:10269000FEA4A4ADADF6F6FFFFA4A4ADADF6F6FF23
:1026A000FFA4A4ADADF6F6FFFFA4A4ADADF67F7F09
:1026B000FEA4A4ADAD7F7F7FFEA4A4ADFEFE7FFE91
:1026C000FEA4A4FEFEFEFEFEFEA4FEFEFEFEFEFE38
:1026D000FEFFFFFEA4ADADF6F6FFFEA4A4ADADF681
:1026E000F6FEFEA4A4ADADF6F6FEA4A4A4ADADF630
:1026F000F6FEA4A4A4A4ADADF6A4A4A4A4A4A4AD81
:10270000ADA4A4A4A4A4A4A4ADA4A4A4A4A4A4A477
:10271000A4FFFF7F7F7F7FFFFFFFFE7F7F7F7FFE26
:10272000FFFEFE7F7F7FFEFEFEFEFEFE7FFEFEFEC4
:10273000FEF6FEFEFEFEFEFEFEF6F6FEFEFEFEFED1
:10274000FEADF6F6FEFEFEFEFEADADF6F6FEFEFEBC
:10275000FED2D2D2D2D2D2D2FEFFFFFFFFFFFFFFC6
:10276000FFFEFEFEFEFEFEFEFEFEFEFEFEFEFEFE88
:10277000FEFEFEFEFEFEFEFEFEFEFEFEFEFEFEFE79
:10278000FEFEFEFEFEFEFEFEFEFEFEFEFEFEFEFE69
:10279000FEEFFFEF878785FEFE87EF87858785FE43
:1027A000FE87878785878785FEADADADADAD878513
:1027B000FEADADADADADADA4ADADADADADADA4A413
:1027C000A487878785FEFEFEFE878785FEFEFEFEC8
:1027D000FEFEFEFEFEA4A48587FEFEFEFE85858726
:1027E00087FEFEFEFE85878787A4A485858587876B
:1027F000FEA4A48787878787FEA4A487878787FE90
:10280000FEA4FEFEFEFEFEFEFEFEFEFEFEFEFEFE42
:10281000FE878785FEFEFEFEFEFE858585FEFEFEAA
:10282000FEFE85858585FEFEFEFEFE858585FEFE17
:10283000FEFEFE85858585FEFEFEFEFE858585FE07
:10284000FEFEFEFEA4A4A4FEFEFEFEFEA4A4A4A41E
:10285000FEFEFEFEFEFEFEFEFEFEFEFEFEFEFEFE98
:10286000FEFEFEFEFEFEFEFEFEFEFEFEFEFEFEFE88
:10287000FEFEFEFEFEFEFEFEFEFEFEFEFEFE85856A
:1028800085FEA4878787878787A4A487878787870C
:1028900087FEFEFEFEFEFEFEFEFEFEFEFEFEFEFECF
:1028A00087FEFEFEFE85858587FEFEFE858787877F
:1028B00085FEFE85858787878785858585858787CA
:1028C000AD87878787AD85878787878787ADADA4E5
:1028D000A487878787FEFEFEFE87D2D2EBD2FEFE5C
:1028E000FE8787D2FDEBFEFEFE878787EBD2FEFEDA
:1028F000FE85858787D2FEFEFEADADADADAD87EF1F
:10290000FEADADADADADADA4ADA4ADADADADA4A4CA
:10291000A4A4A4ADADF6F6FFFFA4A4ADADF6F6FFFA
:10292000FFA4A4ADADF6F6FFFFA4A4ADADF67F7F86
:102930007FA4A4ADAD7F7F7FFEA4A4ADFE7F7F7F8B
:10294000FEA4A4FEFEFE7FFEFEA4FEFEFEFEFEFE34
:10295000FEFFFF7F7F7F7FFFFFFF7F7F7F7F7F7F88
:10296000FFFEFE7F7F7F7FFEFEFEFE7F7F7FFEFEFF
:10297000FEF6FEFE7FFEFEFEFEF6F6FEFEFEFEFE0E
:10298000FEADF6F6FEFEFEFEFEADADF6F6FEFEFE7A
:10299000FEFEFEFEFEFEFEFE00FEFEFEFEFEFE0053
:1029A00000FEFEFEFEFEFE0000FEFEFEFE02020235
:1029B00000FEFEFE0200000002FEFE02000000001B
:1029C00002FE0200000002020002000002020000FB
:1029D00000000000FEFEFEFEFE07072707FEFEFECB
:1029E000FE00077727FEFEFEFE00002707FEFEFE24
:1029F000FE02000007FEFEFEFE0002020002FEFED6
:102A0000FE00AD00000002FEFEADFFAD000002FEC4
:102A1000FEFEFEFEFEFEFEFEFEFEFEFEFEFEFEFED6
:102A200000FEFEFEFEFEFE0000FEFEFEFEFEFE00BE
:102A300000FEFEFEFE02020200FEFEFE020000009C
:102A400002FEFE020000000002FE02000000020280
:102A500000FEFEFEFEFEFEFEFE000000FEFEFEFE8E
:102A6000FE07072707FEFEFEFE00077727FEFEFE95
:102A7000FE00002707FEFEFEFE02000007FEFEFE2F
:102A8000FE0002020002FEFEFE00AD00000002FE9B
:102A9000FE02000002FE020000FE020002FE020032
:102AA00000FE02000005050505FEFE020005050505
:102AB00005FEFE020005050505FEFEFE02000500FE
:102AC00000FEFEFEFE00000200FEFEFEFE00000212
:102AD0000000AD00020002FEFE0000000200000245
:102AE000FE05050505050002FE05050505050500B1
:102AF00005050505050500000000000002FEFEFEBC
:102B0000FE00000002FEFEFEFE00000002FEFEFED1
:102B1000FE00AD00020002FEFE0000000200000206
:102B2000FE05050505050002FE0505050505050070
:102B300005050505050500000000000002FEFEFE7B
:102B4000FE00000002FEFEFEFE000002FEFEFEFE93
:102B5000FE020000020200000002000002FE02006D
:102B600000FE020002FE020000FE02000005050554
:102B700005FEFE020005050505FEFE020005050531
:102B800005FEFEFE0200050000FEFEFEFE00000245
:102B900000ADFFAD000002FEFE00AD00020002FE2F
:102BA000FE00000002000002FE050505050500020A
:102BB000FE050505050505000505050505050000DB
:102BC0000000000000FEFEFEFE000000FEFEFEFE15
:102BD000FE00AD00020002FEFE0000000200000246
:102BE000FE05050505050002FE05050505050500B0
:102BF00005050505050500000000000000FEFEFEBD
:102C0000FE00000000FEFEFEFE000000FEFEFEFED6
:102C1000FEADFFAD000002FEFE00AD00020002FEB0
:102C2000FE00000002000002FE0505050505000289
:102C3000FE0505050505050005050505050500005A
:102C40000000000000FEFEFEFE0000000000FEFE90
:102C5000FEFEFEFEFEFEFE0200FEFEFEFEFEFE028A
:102C600000FEFEFEFEFE020000FEFEFEFEFE020074
:102C700000FEFEFEFE020000FEFEFEFEFE02000062
:102C8000FEFEFEFEFE000000FEFEFEFEFE00000058
:102C90000000FE0202FEFEFEFE00FE020202FEFE3A
:102CA000FEFEFE020202FEFEFEFEFE020202FEFE2C
:102CB000FEFEFE020202FEFEFEFEFE020202FEFE1C
:102CC000FEFEFE000000FEFEFEFEFE00000000FE16
:102CD000FEFEFEFEFEFEFEFE02FEFEFEFEFEFEFE10
:102CE00002FEFEFEFEFE020200FEFEFEFE020000EE
:102CF00000FEFEFE0000000000FEFEFE00000000E0
:102D0000FEFEFEFE0000FEFEFEFEFEFE000000FED9
:102D1000FE000000FEFEFEFEFE00000000FEFEFEC5
:102D2000FE00000000FEFEFEFE000000FEFEFEFEB5
:102D3000FE000202FEFEFEFEFE020202FEFEFEFE9D
:102D4000FE000000FEFEFEFEFE00000000FEFEFE95
:102D5000FEFEFEFEFE00000200FEFEFEFE0202027D
:102D600002FEFEFEFE020202020000020202020257
:102D7000FE00000202020202FE000002020202FE47
:102D8000FE00FEFEFEFEFEFEFEFEFEFEFEFEFEFE61
:102D9000FE000000FEFEFEFEFEFE020000FEFEFE45
:102DA000FEFE02000000FEFEFEFEFE020000FEFE31
:102DB000FEFEFE02000000FEFEFEFEFE020000FE21
:102DC000FEFEFEFE000000FEFEFEFEFE0000000015
:102DD000FEFEFEFEFEFEFEFE02FEFEFEFEFEFEFE0F
:102DE00002FEFEFEFEFE020202FEFEFEFE020202E7
:102DF00002FEFEFE0002020202FEFEFE00020202CF
:102E0000FEFEFEFE0000FEFEFEFEFEFE000000FED8
:102E1000FE000000FEFEFEFEFE02000002FEFEFEC0
:102E2000FE02000002FEFEFEFE020000FEFEFEFEAE
:102E3000FE020000FEFEFEFEFE020000FEFEFEFEA2
:102E4000FE000000FEFEFEFEFE00000000FEFEFE94
:102E5000FEFEFEFEFE00000200FEFEFEFE0202027C
:102E600002FEFEFEFE020202020000020202020058
:102E70000000000202020200000000020202020042
:102E80000000FEFEFEFEFE00FEFEFEFEFEFEFEFE5C
:102E9000FE0000020000FEFEFEFEFE02000000FE3C
:102EA000FEFEFE02000000FEFE0202020000FEFE28
:102EB000FE0000000000FEFEFE00000000FEFEFE20
:102EC000FEFEFEFEFEFEFEFEFEFEFEFEFEFEFEFE22
:102ED000FEFEFEFEFEFEFEFEFEFEFEFEFEFEFEFE12
:102EE000FEFEFEFEFEFEFEFEFEFEFEFEFEFEFEFE02
:102EF000FEFEFEFEFEFEFEFEFEFEFEFEFEFE0202EA
:102F000002FE0000000000000000000000000000C1
:102F100000FEFEFEFEFEFEFEFEFEFEFEFEFEFEFECF
:102F200000FEFEFEFE02020200FEFEFE02000000A7
:102F300002FEFE0202000000000202020202000085
:102F4000050000000005020000000000000505006B
:102F50000000000000FEFEFEFE0007072707FEFE41
:102F6000FE0000077727FEFEFE0000002707FEFE9A
:102F7000FE0202000007FEFEFE0505050505000233
:102F8000FE0505050505050005000505050500000C
:102F90000001012801012901012701012601012564
:102FA0000101390101370101360101350101240117
:102FB000011401013401012301013A01010501015C
:102FC0001302034E4F53565F6003016162630203B5
:102FD0004E4F53545B5C02034C4D50555D5E0203F3
:102FE0004E4F53545B5C02034C4D5052595A0203EE
:102FF0004C4D50515758010138010118010117017A
:10300000011601011501010404023C3D3E3F4A4105
:103010004B4304023C3D3E3F4041424303013B2BB6
:103020002C03012A2B2C0301474849020302030FFA
:10303000122122020302030F444546020300010C41
:10304000111F20020302030F101D1E020300010CBA
:103050000E1B1C020300010C0D191A01010A0101CB
:103060000901010801010701010601012F01012EDB
:1030700001012D0101300101330101320101310152
:10308000011400000000000000000000000000002B
:103090000000000000000000000000000000000030
:1030A0000000000000000000000000000000000020
:1030B0000000000000000000000000000000000010
:1030C0000000FFFFFFFFFFFFFFFFFFFFFFFFFFFF0E
:1030D000FFFFFFFFFFFDFDFFFFFFFFFDFDFBF8FD15
:1030E000FDFFFFF8FBF8FBF8F8FDFFFBF8F8FBF835
:1030F000F8F8FFF8F8FBF8F8F8F8FFF8F8F8F8F83F
:10310000F8F8FFFFFFFFFFFFFFFFFFFFFFFFFFFFDD
:10311000FFFFFFFFFFFDFDFFFFFFFFFDFDFBF8FDD4
:10312000FDFFFDF8FBF8FBF8F8FDF8FBF8F8FBF8FD
:10313000F8F8F8F8F8FBF8F8F8F8F8F8F8F8F8F80C
:10314000F8F8FFFFFFFFFFFFFFFFFFFFFFFFFFFF9D
:10315000FFFFFFFFFFFDFDFFFFFFFFFDFDFBF8FD94
:10316000FDFFFDF8FBF8FBF8F8FFF8FBF8F8FBF8BB
:10317000F8FFF8F8F8FBF8F8F8FFF8F8F8F8F8F8BE
:10318000F8FFFAF8F8F8F8F8F8F8F8F8FBF8F8F8B3
:10319000FBF8F8F8FBF8FBFBF8F8F8F8F8FBF8F8A0
:1031A000F8F8F8F8FBF8FBF8F8F8F8FBF8F8FBF893
:1031B000F8F8F8F8F8FBF8F8F8F8F8F8F8F8F8F88C
:1031C000F8F8020202020202020202020B020202EA
:1031D0000B02020B020B020B020B02020B020B0290
:1031E0000B02020B0202020B020202020B020B0292
:1031F0000B02020B020B020B020202020B02020282
:103200000B025C5C5C5C5C5C5C5C5C5C5C5C5C5CA9
:103210005C5C025C025C025C025C02020B020B0260
:103220000B02020B0202020B020202020B020B0251
:103230000B02020B020B020B020202020B02020241
:103240000B021828182818281828281828182818B1
:103250002818281828182818281828180B020B02D4
:103260002818280B0202020B021802020B020B02A2
:103270000B02020B020B020B020202020B02020201
:103280000B025050505050505050ADADAD50ADAD00
:10329000ADADADA4AD50ADA4ADADADADAD50ADAD2A
:1032A000ADAD5050505050505050ADADADADADAD36
:1032B000AD50ADA4ADADADA4AD50ADADADADADAD0A
:1032C000AD50A5A5A5A5A5A5A5A5A4A4A4A4A4A401
:1032D000A4A4A4A4A4A4A4A4A4A4ADADAD50ADADD5
:1032E000ADAD5050505050505050ADADADADADADF6
:1032F000AD50ADA4ADADADA4AD50ADADADADADADCA
:10330000AD5065656565656565655D66655D656648
:103310006665656565665D65655D655C6565656574
:10332000656565656565656565656565656565654D
:10333000655C5C5C6565655C65655C5C5C5C5C5C97
:103340005C5C5C1C65655D5C5C6513131314136544
:103350005D655C65131465651C6513135C1313656B
:10336000136514145C135D5C13131C13135C5C5C19
:103370005C5C1C145C1313131313135C655C131354
:103380005C131414021D1D1402020214021D1414F5
:103390000202020202021402021D14141402021D8F
:1033A0001D1D141402021414141402020202141437
:1033B0000202141414020202021D14141414140242
:1033C00014141414141D1D1D1D1D020202020202FC
:1033D0000214141D1D1D1D14020214140202020207
:1033E00002140202021D1D1402021414140202022D
:1033F0001D1D0202020214021414141D1D141402D5
:1034000002021D1D1D1414141414141414020202BB
:10341000020202020202141414141D1D1D140202E1
:10342000020202020202021D1D0214141402020210
:103430001414020202021402020214141D1D1D1DA6
:1034400014146464646464646480646464646464C0
:1034500064806464646464646480646464646464F4
:103460008080646464646464808064646464648090
:1034700080806464646480808080646480808080F4
:1034800080800F0F020202020F0F3F0F02020202A2
:103490000F3F3F0F0F02020F0F3F2F3F3F02023F30
:1034A0003F2F2F2F2F2F2F2F2F2F2F2F2F2F2F2F1C
:1034B0002F2F2F2F2F2F2F2F2F2F2F2F2F2F2F2F1C
:1034C0002F2FFFFFFFFFFFFFFFA3FFFFFFFFFFFF08
:1034D000FFA3A3FFFFFFFFFFA3A0A3FFFFFFFFFFCB
:1034E000A3A0A0A3FFFFFFA3A0A0A0A3FFFFFFA393
:1034F000A0A0A0A0A3FFA3A0A0A0A0A0A3FFA3A002
:10350000A0A0092323090923230909090923230961
:10351000090909060606060606090606060606063F
:10352000060609060606060606090909060606062F
:103530000909090606777706060906067702027763
:103540000606271F271F1F1F271F1F1F1F271F2795
:103550001F1F271F271F1F2F271F1F272F1F271F33
:103560001F1F1F1F271F2F1F271F1F271F271F1F3B
:103570002F1F1F1F2F1F1F271F271F1F1F271F1F23
:103580001F1FD9C9D9C9C9C9D9C9C9C9C9D9C9D9AF
:10359000C9C9D9C9D9C9C9DBD9C9C9D9DBC9D9C927
:1035A000C9C9C9C9D9C9DBC9D9C9C9D9C9D9C9C939
:1035B000DBC9C9C9DBC9C9D9C9D9C9C9C9D9C9C927
:1035C000C9C92B292B2929292B292929292B292B21
:1035D00029292B292B29292C2B29292B2C292B294B
:1035E000292929292B292C292B29292B292B292940
:1035F0002C2929292C29292B292B2929292B29292F
:103600002929131313131313132F13131313131342
:10361000132F2F13131313132F772F1313131313A6
:103620002F77772F1313132F7777772F1313132FEA
:10363000777777772F132F77777777772F132F7702
:1036400077777777772F132F77777777772F132FF2
:10365000777777772F1313132F7777772F1313132A
:103660002F77772F13131313132F772F131313138E
:10367000132F2F131313131313132F1313131313C6
:103680001313A0A0A0A3FFA3A0A0A0A0A0A3FFA38A
:10369000A0A0A0A0A3FFFFFFA3A0A0A0A3FFFFFFE7
:1036A000A3A0A0A3FFFFFFFFFFA3A0A3FFFFFFFFB7
:1036B000FFA3A3FFFFFFFFFFFFFFA3FFFFFFFFFF2E
:1036C000FFFFA4A4A4A4A4A4A4A4000000000000DC
:1036D00000A400000000000000A4000000000000A2
:1036E00000A400000000000000A400000000000092
:1036F00000A400000000000000A400000000000082
:1037000000A40D0D0D0D0D0D0D0D0D0D0D0D0D0D5F
:103710000D0D0C0C0C0C0C0C0C0C0C0C0C0B0B0CE9
:103720000C0C0C0C0C0B0B0C0C0C0C0C0C0C0C0CDB
:103730000C0C0D0D0D0D0D0D0D0D0D0D0D0D0D0DBB
:103740000D0D0000000A0A000000000A0A0A0A0A19
:103750000A00000A0A0B0B0A0A000A0A0B0B0B0BE1
:103760000A0A0A0A0B0B0B0B0A0A000A0A0B0B0ABD
:103770000A00000A0A0A0A0A0A000000000A0A00EF
:103780000000BFBFBFBFBFBFBFBFBFBFBFBFBFBFC7
:10379000BFBFBFBFBFBFBFBFBFBFBFBFBF00000076
:1037A0000000BFBFBF0000000000BFBFBF0000009F
:1037B0000000BFBFBF0000000000BFBFBF0000008F
:1037C0000000BFBFBFBFBFBFBFBFBFBFBFBFBFBF87
:1037D000BFBFBFBFBFBFBFBFBFBF00000000000073
:1037E00000000000000000000000000000000000D9
:1037F00000000000000000000000000000000000C9
:103800000000BFBFBFBFBFBFBFBFBFBFBFBFBFBF46
:10381000BFBFBFBFBFBFBFBFBFBF0000000000BF73
:10382000BFBF0000000000BFBFBF0000000000BF1E
:10383000BFBF0000000000BFBFBF0000000000BF0E
:10384000BFBFBFBFBFBFBFBFBFBFBFBFBFBFBFBF88
:10385000BFBFBFBFBFBFBFBFBFBF000000000000F2
:103860000202000000020202020200000002020244
:10387000020200020202020202020002020202022C
:103880000202BFBFBFBFBFBFBFBFBFBFBFBFBFBFC2
:10389000BFBFBFBFBFBFBFBFBFBF020200000000AE
:1038A0000000020202020200000002020202020004
:1038B00000000202020202020200020202020202EE
:1038C00002000000000000000000000000000000F6
:1038D00000000000000000000000000000E3000005
:1038E00000000000E3FFE3000000000000E3000030
:1038F00000000000000000000000000000000000C8
:1039000000000000000000000000000000000000B7
:1039100000000000000000000000000000D20000D5
:1039200000000000D2E3D2000000000000D200003E
:103930000000000000000000000000000000000087
:103940000000BFBFBF0000000000BFBFBF000000FD
:103950000000BFBFBF0000000000BFBFBF000000ED
:103960000000BFBFBF0000000000BFBFBF000000DD
:103970000000BFBFBF0000000000BFBFBF000000CD
:1039800000000000000000BFBFBF0000000000BF3B
:10399000BFBF0000000000BFBFBF0000000000BFAD
:1039A000BFBF0000000000BFBFBF0000000000BF9D
:1039B000BFBF0000000000BFBFBF0000000000BF8D
:1039C000BFBF000202020202020200020202020261
:1039D00002020202020002020202020202020002CB
:1039E0000202270202770202020227272777020239
:1039F000020200272777770707070077777777771F
:103A0000272702020202020202000202020202024E
:103A1000020002020202000202020202020002028C
:103A20000202020202020202070702020202020767
:103A300007070707070707070700272727070707BD
:103A40000700777777777777772700027777772779
:103A50002727000002777727272700000077020733
:103A60000707000000770202020700000077020249
:103A7000020200000077020202020000007700004C
:103A80000202272727070707070027272707070717
:103A900002002707070707020000070707020200C6
:103AA00000000702020202000000020202020000FF
:103AB00000000202020200000000020200000000FA
:103AC0000000BFBFBFBFBFBFBFBFBFBFBFBFBFBF84
:103AD000BFBFBFBFBFBFBFBFBFBFBFBFBFBFBFBFF6
:103AE000BFBFBFBFBFBFBFBFBFBFBFBFBFBFBFBFE6
:103AF000BFBFBFBFBFBFBFBFBFBFBFBFBFBFBFBFD6
:103B0000BFBF000000000000000000000000000037
:103B1000969600000000009696960000000096968B
:103B20009696000000969696969600009696969623
:103B300096960000969696969696009696969696E7
:103B40009696009696969696960096969696969641
:103B50009696969696969696969696969696969605
:103B600096969696969696969696969696969696F5
:103B700096969696969696969696969696969696E5
:103B800096960000000000000000969600000000DD
:103B9000000096969600000000009696969600000B
:103BA00000009696969696000000969696969696A3
:103BB00000009696969696960000969696969696FD
:103BC0009600009696969596969600969696959659
:103BD0009696969696969695969696969696969587
:103BE000969696969696969695969696969696BF4D
:103BF00095969584969696BF96958C83838C96BF62
:103C00009696969696969696969696969696969654
:103C10009696969696969696969696969696969644
:103C20009696969696969696969696969696969634
:103C30009696969696969696969696969696969624
:103C400096969696969596969600969696959696AC
:103C5000960096969596969696969696959696969C
:103C600096969695969696969696969596969696F6
:103C70009596959696969695959596969696948CF5
:103C80008C95BFBFBF0000000000BFBFBF00000099
:103C90000000BFBFBF0000000000BFBFBF000000AA
:103CA0000000BFBFBF0000000000BFBFBFBFBFBF5D
:103CB000BFBFBFBFBFBFBFBFBFBFBFBFBFBFBFBF14
:103CC000BFBF000000000000000000000000000076
:103CD00000000000000000000000000000000000E4
:103CE00000000000000000000000BFBFBFBFBFBF5A
:103CF000BFBFBFBFBFBFBFBFBFBFBFBFBFBFBFBFD4
:103D0000BFBF0000000000BFBFBF0000000000BF39
:103D1000BFBF0000000000BFBFBF0000000000BF29
:103D2000BFBF0000000000BFBFBFBFBFBFBFBFBF5E
:103D3000BFBFBFBFBFBFBFBFBFBFBFBFBFBFBFBF93
:103D4000BFBF8282828282BF969600D8D8D8BFFF3A
:103D5000BF8200D8D8BFFFFFFFBF00D8BFFFFFFF63
:103D6000FFFFBFBFFFFFFFFFFFFF0000BFFFFFFF21
:103D7000FFFF000094BFFFFFFFBF0000008CBFFFEC
:103D8000BFD8969696969696969683838C8C8C8CB6
:103D90008C83D8D8D8D8D8D8D8D8BFD8D8D8D8D85D
:103DA000D8D8FFBFBFD8D8D8D8D8BFD8D8D8D8D8B7
:103DB000D8D8D8D8D8D8D8D8D8D8D8D8D8D8D8D883
:103DC000828296968C83838C8C8C8382838383837C
:103DD0008C008282828383838300828282838383B6
:103DE0008300D88282838383830082828283838359
:103DF0000000828283838395000082828383950002
:103E00000000404040404040404040404040404032
:103E10004040C0C0C0C0C0C0C0C0C0C0C0C0C0C0A2
:103E2000C0C0E0E0E0E0E0E0E0E0E0E0E0E0E0E0D2
:103E3000E0E0F0F0F0F0F0F0F0F0F0F0F0F0F0F0A2
:103E4000F0F00000009695FFD8D80000000096FF23
:103E500083820000000000FF96960000000000BF73
:103E600096960000000000BF96960000000000BF7C
:103E700096960000000000BF0000000000000077E0
:103E80000000D8D8D8828282828282828282828313
:103E900083838C8C838383838C9596969696969653
:103EA00096969696969696969696969696969696B2
:103EB0009696969696969696969600969696969638
:103EC000960083838C9596000000838C9696000064
:103ED000000096969600000000009696960000005E
:103EE000000096960000000000009696000000007A
:103EF00000000000000000000000000000000000C2
:103F00000000F8F8F8F8F8F8F8F8F8F8F8F8F8F821
:103F1000F8F8F9F9F9F9F9F9F9F9F9F9F9F9F9F913
:103F2000F9F9FAFAFAFAFAFAFAFAFAFAFAFAFAFAF3
:103F3000FAFAFBFBFBFBFBFBFBFBFBFBFBFBFBFBD3
:103F4000FBFB00000000007700000000000000778D
:103F50000000000000000077000000000000007773
:103F60000000000000000077000000000000007763
:103F70000000000000000000000000000000000041
:103F80000000000000000000000000003F3F3F3F35
:103F90002F00003F3F2F003F3F2F003F3F2F3F3F6D
:103FA0003F2F003F3F3F2F3F3F2F003F3F2F003F1E
:103FB0003F2F00003F3F3F3F2F0000000000000068
:103FC000000000000000000000000000003F3F2F44
:103FD000000000003F3F3F2F00000000003F3F2F48
:103FE00000000000003F3F2F00000000003F3F2F77
:103FF0000000003F3F3F3F3F3F2F00000000000018
:104000000000000000000000000000003F3F3F3FB4
:104010002F00003F3F00003F3F2F000000003F3FC8
:104020002F000000003F3F2F000000003F3F2F0007
:104030000000003F3F3F3F3F3F2F000000000000D7
:1040400000000000000000000000003F3F3F3F3F35
:104050003F2F000000003F3F2F000000003F3F2F98
:104060000000000000003F3F2F00003F3F00003FE6
:104070003F2F00003F3F3F3F2F00000000000000A7
:1040800000000000000000000000000000003F3FB2
:104090002F000000003F3F3F2F0000003F3F3F3F09
:1040A0002F00003F3F003F3F2F00003F3F3F3F3F7B
:1040B0003F2F000000003F3F2F00000000000000E5
:1040C00000000000000000000000003F3F3F3F3FB5
:1040D0003F2F003F3F2F00000000003F3F3F3F3F8A
:1040E0002F0000000000003F3F2F003F3F00003F37
:1040F0003F2F00003F3F3F3F2F0000000000000027
:104100000000000000000000000000003F3F3F3FB3
:104110002F00003F3F2F00000000003F3F3F3F3F88
:104120002F00003F3F2F003F3F2F003F3F2F003F1A
:104130003F2F00003F3F3F3F2F00000000000000E6
:1041400000000000000000000000003F3F3F3F3F34
:104150003F2F00000000003F3F2F000000003F3FC6
:104160002F000000003F3F2F000000003F3F2F00C6
:10417000000000003F3F2F00000000000000000092
:104180000000000000000000000000003F3F3F3F33
:104190002F00003F3F2F003F3F2F00003F3F3F3F9A
:1041A0002F00003F3F2F003F3F2F003F3F2F003F9A
:1041B0003F2F00003F3F3F3F2F0000000000000066
:1041C0000000000000000000000000003F3F3F3FF3
:1041D0002F00003F3F2F003F3F2F00003F3F3F3F5A
:1041E0003F2F00000000003F3F2F000000003F3F36
:1041F0002F0000003F3F3F2F0000000000000000A4
:1042000000000000000000000000000000FFFFE3CD
:1042100000000000FFFFFFFFE30000FFFFE300FFDF
:10422000FFE300FFFFE300FFFFE300FFFFFFFFFFEF
:10423000FFE300FFFFE300FFFFE3000000000000DA
:104240000000000000000000000000FFFFFFFFFF73
:10425000E30000FFFFE300FFFFE300FFFFFFFFFFBE
:10426000E30000FFFFE300FFFFE300FFFFE300FFC9
:10427000FFE300FFFFFFFFFFE3000000000000007E
:10428000000000000000000000000000FFFFFFFF32
:10429000E30000FFFFE300FFFFE300FFFFE3000098
:1042A000000000FFFFE30000000000FFFFE300FF4D
:1042B000FFE30000FFFFFFFFE3000000000000003D
:1042C0000000000000000000000000FFFFFFFFE30F
:1042D000000000FFFFE3FFFFE30000FFFFE300FF3C
:1042E000FFE300FFFFE300FFFFE300FFFFE3FFFF4B
:1042F000E30000FFFFFFFFE30000000000000000FC
:104300000000000000000000000000FFFFFFFFFFB2
:10431000FFE300FFFFE30000000000FFFFFFFFFFDF
:10432000E30000FFFFE30000000000FFFFE30000E8
:10433000000000FFFFFFFFFFFFE3000000000000A0
:104340000000000000000000000000FFFFFFFFFF72
:10435000FFE300FFFFE30000000000FFFFFFFFFF9F
:10436000E30000FFFFE30000000000FFFFE30000A8
:10437000000000FFFFE3000000000000000000005C
:10438000000000000000000000000000FFFFFFFF31
:10439000FFE300FFFFE30000000000FFFFE3000079
:1043A000000000FFFFE3FFFFFFE300FFFFE300FF6C
:1043B000FFE30000FFFFFFFFFFE30000000000003D
:1043C0000000000000000000000000FFFFE300FF0D
:1043D000FFE300FFFFE300FFFFE300FFFFFFFFFF3E
:1043E000FFE300FFFFE300FFFFE300FFFFE300FF49
:1043F000FFE300FFFFE300FFFFE300000000000019
:104400000000000000000000000000FFFFFFFFFFB1
:10441000FFE3000000FFFFE30000000000FFFFE3F8
:104420000000000000FFFFE30000000000FFFFE3CA
:10443000000000FFFFFFFFFFFFE30000000000009F
:104440000000000000000000000000000000FFFF6E
:10445000FFE30000000000FFFFE30000000000FF9A
:10446000FFE30000000000FFFFE300FFFF0000FF8C
:10447000FFE30000FFFFFFFFE3000000000000007B
:104480000000000000000000000000FFFFE300FF4C
:10449000FFE300FFFFE3FFFFE30000FFFFFFFFE399
:1044A000000000FFFFFFFFE3000000FFFFE3FFFF4E
:1044B000E30000FFFFE300FFFFE300000000000057
:1044C0000000000000000000000000FFFFE300000B
:1044D000000000FFFFE30000000000FFFFE300001A
:1044E000000000FFFFE30000000000FFFFE300000A
:1044F000000000FFFFFFFFFFFFE3000000000000DF
:1045000000000000000000000000FFFFE30000FFCB
:10451000FFE3FFFFFFE3FFFFFFE3FFFFFFFFFFFFFF
:10452000FFE3FFFFE3FFE3FFFFE3FFFFE30000FF25
:10453000FFE3FFFFE30000FFFFE3000000000000D7
:104540000000000000000000000000FFFFE300FF8B
:10455000FFE300FFFFFFE3FFFFE300FFFFFFFFFFBD
:10456000FFE300FFFFFFFFFFFFE300FFFFE3FFFFAD
:10457000FFE300FFFFE300FFFFE300000000000097
:10458000000000000000000000000000FFFFFFFF2F
:10459000E30000FFFFE300FFFFE300FFFFE300FF96
:1045A000FFE300FFFFE300FFFFE300FFFFE300FF87
:1045B000FFE30000FFFFFFFFE3000000000000003A
:1045C0000000000000000000000000FFFFFFFFFFF0
:1045D000E30000FFFFE300FFFFE300FFFFE300FF56
:1045E000FFE300FFFFFFFFFFE30000FFFFE300002A
:1045F000000000FFFFE300000000000000000000DA
:10460000000000000000000000000000FFFFFFFFAE
:10461000E30000FFFFE300FFFFE300FFFFE300FF15
:10462000FFE300FFFFE300FFFFE300FFFFE3FFFF07
:10463000E3000000FFFFE3FFFFE3000000000000D5
:104640000000000000000000000000FFFFFFFFFF6F
:10465000E30000FFFFE300FFFFE300FFFFE300FFD5
:10466000FFE300FFFFFFFFFFE30000FFFFE3FFFFAB
:10467000E30000FFFFE300FFFFE300000000000095
:10468000000000000000000000000000FFFFFFFF2E
:10469000E30000FFFFE3000000000000FFFFFFFF5A
:1046A000E3000000000000FFFFE30000000000FF47
:1046B000FFE30000FFFFFFFFE30000000000000039
:1046C0000000000000000000000000FFFFFFFFFFEF
:1046D000FFE3000000FFFFE30000000000FFFFE336
:1046E0000000000000FFFFE30000000000FFFFE308
:1046F0000000000000FFFFE30000000000000000D9
:104700000000000000000000000000FFFFE300FFC9
:10471000FFE300FFFFE300FFFFE300FFFFE300FF15
:10472000FFE300FFFFE300FFFFE300FFFFE300FF05
:10473000FFE300FFFFFFFFFFFFE3000000000000BA
:104740000000000000000000000000FFFF0000FF6C
:10475000FFE300FFFF0000FFFFE300FFFF0000FF9B
:10476000FFE300FFFF0000FFFFE30000FFFFFFFF8C
:10477000E300000000FFFFE3000000000000000075
:1047800000000000000000000000FFFFE30000FF49
:10479000FFE3FFFFE30000FFFFE3FFFFE3FFE3FFB3
:1047A000FFE3FFFFFFFFFFFFFFE3FFFFFFE3FFFF6D
:1047B000FFE3FFFFE30000FFFFE300000000000055
:1047C0000000000000000000000000FFFFE300FF09
:1047D000FFE300FFFFE300FFFFE30000FFFFFFFF39
:1047E000E3000000FFFFFFFFE30000FFFFE300FF27
:1047F000FFE300FFFFE300FFFFE300000000000015
:104800000000000000000000000000FFFFE300FFC8
:10481000FFE300FFFFE300FFFFE30000FFFFFFFFF8
:10482000E300000000FFFFE30000000000FFFFE3E3
:104830000000000000FFFFE3000000000000000097
:104840000000000000000000000000FFFFFFFFFF6D
:10485000FFE300000000FFFFE300000000FFFFE3B4
:1048600000000000FFFFE300000000FFFFE3000086
:10487000000000FFFFFFFFFFFFE30000000000005B
:104880000000ABABABABABABABABABABABABABABCE
:10489000ABABABABABABABABABABABABABABABAB68
:1048A000ABABABABABABABABABABABABABABABAB58
:1048B000ABABABABABABABABABABABABABABABAB48
:1048C000ABABABABABABABABABABABABABABABAB38
:1048D000ABABABABABABABABABABABADADADADAD1E
:1048E000ADABAEAEAEAEAEAEAEAEABAEAEAEAEAEEF
:1048F000AEABABABABABABABABABABABABABABAB05
:10490000ABABACACACACACACACACACACACACACACE9
:10491000ACACADADADADADADADADADADADADADADC9
:10492000ADADAEAEAEAEAEAEAEAEAEAEAEAEAEAEA9
:10493000AEAEAFAFAFAFAFAFAFAFAFAFAFAFAFAF89
:10494000AFAFA0A0A0A0A0A0A0A0A0A0A0A0A0A049
:10495000A0A0A0A0A0A0A0A0A0A0A0A0A0A0A0A057
:10496000A0A0A0A0A0A0A0A0A0A0A0A0A0A0A0A047
:10497000A0A0A0A0A0A0A0A0A0A0A0A0A0A0A0A037
:10498000A0A0A0A0A0A0A0A0A0FFA0A0A0A0A0A0C8
:10499000FFFFA0A0A0A0A0FFFF02A0A0A0A0FFFF7B
:1049A0000202A0A0A0FFFF020202A0A0FFFF0202DD
:1049B0000202A0FFFF0202020202FFFF0202020245
:1049C0000202FF02020202020202FF0202020202CD
:1049D00002020202020202020202020202020202B7
:1049E00002020202020202020202020202020202A7
:1049F0000202020202020202020202020202020297
:104A00000202FFFFFFFFFFFFFFFF0202020202029E
:104A100002020202020202020202A0A0A0A0A0A0C2
:104A2000A0A0A0A0A0A0A0A0A0A0A0A0A0A0A0A086
:104A3000A0A0A0A0A0A0A0A0A0A0A0A0A0A0A0A076
:104A4000A0A0FFFFFFFFFFFFFFFF0202FFFFFFFF2E
:104A50000202020202FFFF020202A0A0A0FFA0A029
:104A6000A0A0A0A0A0A0A0A0A0A0A0A0A0A0A0A046
:104A7000A0A0A0A0A0A0A0A0A0A0A0A0A0A0A0A036
:104A8000A0A00202020202020202020202020202CA
:104A900002020202020202020202020202020202F6
:104AA00002020202020202020202020202020202E6
:104AB00002020202020202020202020202020202D6
:104AC00002020202020202020202020202020202C6
:104AD00002020202020202020202020202020202B6
:104AE0000202020202FFFF0202020202FFFFFFFFB8
:104AF000020202FFFFFFFFFFFF02FFFFFFFFFFFFBA
:104B0000FFFF070707070707070707070707070745
:104B10000707070707070707070707070707070725
:104B20000707070707070707070707070707070715
:104B30000707070707070707070707070707070705
:104B400007070707070707070707070707070707F5
:104B500007070606060606060606060606060606F3
:104B600006060505050505050505050505050505F3
:104B700005050404040404040404040404040404F3
:104B800004040303030303030303030303030303F3
:104B900003030303030303030303030303030303E5
:104BA00003030303030303030303030303030303D5
:104BB00003030303030303030303030303030303C5
:104BC0000303030303030303031F03030303030399
:104BD0000F06030303030302020603030303020297
:104BE0000206030303020202020603030202020298
:104BF0000602030202020202020202020202020290
:104C000002021F2F2F2F2F2F2F1F0606061F1F1FD9
:104C100006020202061F061F060202020602061F05
:104C20000602020206020606020602060602020644
:104C3000020602060202020602060602020202063C
:104C400002021F03030303030303060F030303030B
:104C50000303060202030303030306020202030323
:104C60000303060602020203030302020202020217
:104C7000030302020202020202030602020202020D
:104C800002020303030303030302030303030303F7
:104C900002020303030303020202030303030202EB
:104CA00002020303030202020202030302020202DF
:104CB00002020302020202020202020202020202D3
:104CC00002020203030303030303020203030303B9
:104CD00003030202020303030303020202020303AB
:104CE000030302020202020303030202020202029F
:104CF0000303020202020202020302020202020291
:104D000002020909090808081818080909180818EA
:104D100008080909181808181818080818080808B1
:104D20000818180808180808080808181818180893
:104D30001808080808080808180818181818180883
:104D40001818181818080818181808080818080853
:104D50001818180818181808080818080818180843
:104D60001818180818181808081808180808080843
:104D70000818081818081818081818181808080823
:104D80000818180808080808181808081818081833
:104D90000808081818180818181808081808080823
:104DA0000818180808180808080808181818180813
:104DB0001808080808080808180818181818180803
:104DC00018181818180808090909080808180809FF
:104DD00009091808181818080909180808181808DF
:104DE00018181808181818080818081808080808C3
:104DF00008180818180818180818181818080808A3
:104E000008181808080808081818090818180818B1
:104E100008080918091808181818090918080808AE
:104E200008180909091808080808090909090918CA
:104E300018080809090909090918090909090909C6
:104E4000090918181808081818090808081808097E
:104E5000090918081818180909091808081809086C
:104E60000909180818090909090908180909080988
:104E700008090809090809090909090909090909A5
:104E80000909090909090909090909090909090992
:104E90000909090909090909090909090909090982
:104EA0000909090909090909090909090909090972
:104EB0000909090909090909090909090909090962
:104EC000090914021414021D140214020214021D12
:104ED0001402141D0214021D02021D1D021D021DDA
:104EE0001D021D02021D02141D021D02141D0202DC
:104EF0001D141D02141D14021D141D02141D140284
:104F00001D14141D14021D140214141D14021D146A
:104F100002141D1D02141D1402141D1D02141D0275
:104F2000141D021D02021D02141D021D14021D0289
:104F3000141D021D14021D14021D021D02141D1455
:104F400002141D02021D02021D021D14021D021484
:104F50001D021D14021D021D1D021D140214021D3E
:104F600014021D140214021D1D021D14021402025B
:104F70001D141414021402021D1D02020214021454
:104F8000141D021D021D1D140214141D02141D14F3
:104F900002141D1D02141D1D0214141D02141D1DDA
:104FA0000214021D02021D140214021D02021D023F
:104FB0000214021D02141D021D14021402141D020B
:104FC0001D14646464646464646464646464646438
:104FD0006464646464646464646464646464646491
:104FE0006464646464646464646464646464646481
:104FF0006464646464646464646464646464646471
:105000006464646464646464646464646464646460
:105010006464646464646464642D64646464646487
:10502000642D6464646464642D2D64646464642D1C
:105030002D2D646464642D2D2D2D646464642D2DE8
:105040002D2D642D2D2D2D2D2D2D2D2D2D2D2D2D59
:105050002D2D2D2D2D2D2D2D2D2D2D2D2D2D2D2D80
:105060002D2D2D2D2D2D2D2D2D2D2D2D2D2D2D2D70
:105070002D2D2D2D2D2D2D2D2D2D2D2D2D2D2D2D60
:105080002D2D2D2D2D64646464642D2D2D2D6464CF
:1050900064642D2D2D2D646464642D2D2D2D646488
:1050A00064642D2D2D2D646464642D2D2D2D646478
:1050B00064642D2D2D2D646464642D2D2D2D646468
:1050C00064646464646464646464646464646464A0
:1050D000646480646464646464648080646464643C
:1050E00064648080646464646464808080646464F4
:1050F0006464808080806464646480808080808058
:105100006464646464642D2D2D2D646464642D2DA9
:105110002D2D806464642D2D2D2D808064642D2DB3
:105120002D2D80806464642D2D2D80808064642DFD
:105130002D2D8080808064642D2D808080808080F3
:1051400064642D2D2D2D2D2D2D2D2D2D2D2D2D2D21
:105150002D2D2D2D2D2D2D2D2D2D2D2D2D2D2D2D7F
:105160002D2D2D2D2D2D2D2D2D2D2D2D2D2D2D2D6F
:105170002D2D2D2D2D2D2D2D2D2D2D2D2D2D2D2D5F
:105180002D2D2D2D2D2D646464802D2D2D2D6464E9
:1051900064802D2D2D64646464802D2D2D646464E1
:1051A00080802D2D2D64646480802D2D6464648046
:1051B00080802D2D6464808080802D64808080803C
:1051C00080808080808080808080808080808080DF
:1051D00080808080808080808080808080808080CF
:1051E00080808080808080808080808080808080BF
:1051F00080808080808080808080808080808080AF
:10520000808080808080808064648080808064640E
:105210006464808080646464642E808064646464F8
:10522000642E8080646464642D2E80646464642DC4
:105230002E2E646464642D2E2E2E646464642D2EE0
:105240002E2E642E2E2E2E2D2D2D2E2E2E2E2E2E4B
:105250002D2D2E2E2E2E2E2E2D2D2E2E2E2E2E2D73
:105260002D2D2E2E2E2E2E2D2D2D2E2E2E2E2E2D64
:105270002D2D2E2E2E2E2D2D2D2D2E2E2E2E2E2D55
:105280002D2D2D2D2D80808080802D2D2D2D808009
:1052900080802D2D2D2D648080802D2D2D2D6464FA
:1052A00080802D2D2D2D646464802D2D2D2D646422
:1052B00064802D2D2D2D646464642D2D2D2D64644A
:1052C0006464646464642D2E2E2E646464642D2EE4
:1052D0002E2E806464642D2E2E2E808064642D2EEC
:1052E0002E2E80806464642E2E2E80808064642D37
:1052F0002D2E8080808064642D2D80808080808031
:1053000064642E2E2E2E2E2D2D2D2E2E2E2E2E2D55
:105310002D2D2E2E2E2E2E2D2D2D2E2E2E2E2D2DB4
:105320002D2D2E2E2E2E2D2D2D2D2E2E2E2E2D2DA5
:105330002D2D2E2E2E2E2E2D2D2D2D2E2E2E2E2E93
:105340002D2D80808080808080AB808080808080D8
:10535000ABAB8080808080ABABAB80808080ABAB20
:10536000ABAB808080ABABABABAB8080ABABABAB64
:10537000ABAB80ABABABABABABABABABABABABABA8
:10538000ABABABABABABABABABABABABABABABAB6D
:10539000ABABABABAB7F7FABABABABABAB7F7FAB0D
:1053A000ABABABABAB7F7FABABABABABAB7F7FABFD
:1053B000ABABABABABABABABABABABABABABABAB3D
:1053C000ABAB808080808080809B8080808080806C
:1053D0009B9B80808080809B9B9B808080809B9B10
:1053E0009B9B8080809B9B9B9B9B80809B9B9B9B94
:1053F0009B9B809B9B9B9B9B9B9B9B9B9B9B9B9B18
:105400009B9B9B9B9B9B9B9B9B9B9B9B9B9B9B9BEC
:105410009B9B9B9B9B9B9B9B9B9B9B9B9B9B9B9BDC
:105420009B9B9B9B9B9B9B9B9B9B9B9B9B9B9B9BCC
:105430009B9B9B9B9B9B9B9B9B9B9B9B9B9B9B9BBC
:105440009B9B808080808080808000000000000026
:10545000000000000000000000008080A4A4A4A4BC
:1054600080808080A4A4A4A480808080A4A4A4A41C
:1054700080808080A4A4A4A480808080A4A4A4A40C
:1054800080809B9B9B9B9B9B9B9B9B9B9B9B9B9BA2
:105490009B9B9B9B9B9B9B9B9B9B9B9B9B7F9B9B78
:1054A0009B9B9B9B9B7F9B9B9B9B9B9B9B9B9B9B68
:1054B0009B9B9B9B9B9B9B9B9B9B9B9B9B9B9B9B3C
:1054C0009B9BFDFDFDFDFDFDFDFDFDFDFDFDFDFDD0
:1054D000FDFDFDFDFDFDFDFDFDFDFDFDFDFDFDFDFC
:1054E000FDFDFDFDFDFDFDFDFDFDFDFDFDFDFDFDEC
:1054F000FDFDFDFDFDFDFDFDFDFDFDFDFDFDFDFDDC
:10550000FDFDFDFDFDFDFDFDFDFDFDFDFDFDFDFDCB
:10551000FDFDBEBEBEBEBEBEBEBEBEBEBEBEBEBE2D
:10552000BEBEB7B7B7B7B7B7B7B7B7B7B7B7B7B7FD
:10553000B7B777777777777777777777777777777B
:1055400077777777777777777777777777777777EB
:1055500077777777777777777777777777777777DB
:1055600077777777777777777777777777777777CB
:1055700077777777777777777777777777777777BB
:1055800077777777777777777777777777777777AB
:10559000777777777777777777777777777777779B
:1055A00077777777772F2F77777777772F2F2F2F3B
:1055B0007777772F2F2F2F2F2F772F2F2F2F2F2FDB
:1055C0002F2F777777777777772F77777777777743
:1055D0002F2F77777777772F2F2F777777772F2F53
:1055E0002F2F7777772F2F2F2F2F77772F2F2F2F63
:1055F0002F2F772F2F2F2F2F2F2F2F2F2F2F2F2F73
:105600002F2F2F2F2F2F2F2F2F2F2F2F2F2F2F2FAA
:105610002F2F2F2F2F2F2F2F2F2F2F2F2F2F2F2F9A
:105620002F2F2F2F2F2F2F2F2F2F2F2F2F2F2F2F8A
:105630002F2F2F2F2F2F2F2F2F2F2F2F2F2F2F2F7A
:105640002F2F2F777777777777772F2F7777777752
:1056500077772F2F2F77777777772F2F2F2F7777D2
:1056600077772F2F2F2F2F7777772F2F2F2F2F2FE2
:1056700077772F2F2F2F2F2F2F772F2F2F2F2F2F62
:105680002F2F777777777777772F77777777777782
:105690002F2F77777777772F2F2F777777772F2F92
:1056A0002F2F7777772F2F2F2F2F77772F2F2F3F92
:1056B0003F3F772F2F2F3F3F3F3F2F2F2F3F3F3F22
:1056C0003F3F2F2F2F2F2F2F2F2F2F2F2F2F2F2FCA
:1056D0002F2F2F2F2F2F2F2F2F2F2F2F2F2F2F2FDA
:1056E0002F2F2F3F3F02023F3F2F3F0F0F02020F8E
:1056F0000F3F3F0F020202020F3F0F0F0202020292
:105700000F0F2F777777777777772F2F77777777D1
:1057100077772F2F2F77777777772F2F2F2F777711
:1057200077772F2F2F2F2F7777773F3F3F2F2F2FF1
:1057300077773F3F3F3F2F2F2F773F3F3F3F3F2F11
:105740002F2F2F2F2F3F3F3F3F3F2F2F2F2F3F3FF9
:105750003F3F2F2F2F2F2F3F3F3F2F2F2F2F2F2F09
:105760002F2F2F2F2F2F2F2F2F2F2F2F2F2F2F2F49
:105770002F2F2F2F2F2F2F2F2F2F2F2F2F2F2F2F39
:105780002F2F3F3F3F3F3F2F2F2F3F3F3F3F2F2F99
:105790002F2F3F3F3F2F2F2F2F2F2F2F2F2F2F2FE9
:1057A0002F2F2F2F2F2F2F2F2F2F2F2F2F2F2F2F09
:1057B0002F2F2F2F2F2F2F2F2F2F2F2F2F2F2F2FF9
:1057C0002F2F65656565656565655D66655D656603
:1057D000665D656565665D656565655C6565656590
:1057E0006565656565656565656565656565656569
:1057F00065655C5C6565655C655C5C5C5C5C5C5CB3
:105800005C5C0000000000000000000000000000E0
:1058100000A400000000000000A400000000000040
:1058200000A400000000000000A400000000000030
:1058300000A400000000000000A400000000000020
:1058400000A42501003C3D3E3F40414243444546C3
:105850004748494A4B4C4D4E4F5051525354555660
:105860005758595A5B5C5D5E5F1C023636363636D9
:1058700036363636363636363636363636363636C8
:10588000363636363636363A3A3A3A3A3A3A3A3A94
:105890003A3A3A3A3A3A3A3A3A3A3A3A3A3A3A3A68
:1058A0003A3A3A10061C1D1D1D1D1D1D1F201D1DF1
:1058B0001D1D1D1D1E2300000000000025260000E8
:1058C0000000000024230000000000002728000042
:1058D0000000000024230000000000000000000081
:1058E0000000000024230000000000000000000071
:1058F000000000002430313131313131313131316A
:1059000031313131320F091C1D1D1D1D1D1D1D1D85
:105910001D1D1D1D1D1E23000000000000000000B5
:105920000000000024230000000000000000000030
:105930000000002423000000000000000000000020
:105940000000242300000000000000000000000010
:105950000024230000000000000000000000000000
:1059600024230000000000000000000000000024CC
:1059700023000000000000000000000000002430B0
:1059800031313131313131313131313131320F0554
:1059900029292900292929002A2B2C2129292900F4
:1059A000290000292200002D2E2F00290021222964
:1059B000002129000000333435002929290029005D
:1059C0000029002100373839000000292929290041
:1059D000290000003B002200292929010100606004
:1059E00060606060606060606060606060606060B7
:1059F00060606060606060606060606061606060A6
:105A00006060606060606060606060606060606096
:105A10000404040404040404040404040404040446
:105A200004040404040404040460606060606060B2
:105A30006060606060606060626262626263636353
:105A4000636360606060606060616060606060604F
:105A500060626262626263636363630404040404F9
:105A600004040404040404040404040404040411E9
:105A7000111111116363636363636363636363633E
:105A800063636363636363636363636363636363E6
:105A90006363636363636363636363636363020298
:105AA000026363041111636363636363636363632A
:105AB0006363636363020202020211111111116335
:105AC0006363636363636363636363636363020268
:105AD0006363631104636363636363636363636347
