:100000000C94083C0C94713C0C94713C0C94713C25
:100010000C94713C0C94713C0C94713C0C94713CAC
:100020000C94E9410C94713C0C94713C0C94713C1F
:100030000C94713C0C94B53F0C94F53F0C94713CBE
:100040000C94713C0C94713C0C94713C0C94713C7C
:100050000C94713C0C94713C0C94713C0C94713C6C
:100060000C94713C0C94713C0C94713C0C94713C5C
:10007000DA65E665F265DE65E265EA65DE65DE6540
:10008000EE655B6967695E6967696169676964698B
:1000900067696A696D698100450027FF24FF2A901E
:1000A0002B1C210C22FB850084008903888D81098B
:1000B0006F02444247004501B083B300B1012511EE
:1000C0008A4F8B035A5501200101003808000000B7
:1000D0000000000000000000000000000000000020
:1000E0000000000092439543F143F543FC439D43D8
:1000F000A243A7430444AA43AD43B043EB43EE43BA
:10010000144400408891D2E4ADB5B6BEBFFF0503EC
:1001100000131415161718191A1B1C1D1E1F000595
:1001200004000102030405060708090A0B0C0D0070
:100130000E0F10111200000000000000000000006F
:1001400000000000000000000000000000000000AF
:10015000000000000000000000000000000000009F
:10016000000000000000000000000000000000008F
:10017000000000000000000000000000000000007F
:10018000000000000000000000000000000000006F
:100190000000000049000000000049525200000029
:1001A0004952531C25004952522425251B52525CAA
:1001B0002D2D1C12120000000000000000000000A5
:1001C000004049494900404949525B5B5B4A5252F1
:1001D0005B1C1C13125B1C241C12090909241B1232
:1001E000090909090A0A0A0A0A0A0A0A130A0A1262
:1001F0000A0A12130A000000000000000092525286
:10020000525252524913121309001C1B130A1212A4
:10021000401B65641C090A0009241B1C65120000B0
:10022000251C1C1C1C010025241C1C1C1C00242536
:100230002424241C1C000000000000000049400091
:10024000000000000052494900000000001C5B4A09
:1002500048000000001C255249000000006524648D
:10026000490000000065256449000000006D2E5C17
:1002700049000000000000000000004052000000A3
:10028000000049525C000000005352242500000089
:10029000535225252500004A5225251B0000005BEE
:1002A000251300001B005B53000A1C3737095B1C39
:1002B000657F372E2E522E2E1C131312002E251B57
:1002C00013120000121C1C12000012251C12000048
:1002D000122E371C1300132E37361C131B37372EE4
:1002E0002E25131C1C2E2E2E2E1B1C1C1C6E6E6EFF
:1002F0001C1C1C1C1C0913131212131300131313C0
:1003000013131C0009131313131C010037131313C9
:100310001C13002E2E1B1B1C1C001C772E1B1B25C8
:1003200000137F251C1C1C010A37241C1C1C130AEB
:100330002E25250900132E2425252525252E2525A6
:10034000252525252525252D2E251B1C1C2E2E2556
:100350001C13251B13251C1C1C1C0109521C1C13DF
:1003600000011C5B5C0A000165775C1B00016E7F6D
:100370006E521B00006D1C5249000000001C1353FC
:1003800000000000001C524A00000000005B5B00FF
:1003900000000000005C0000000000000000000001
:1003A000000000000000000000000000000000004D
:1003B0000000000000135B7F776E6E6E6E13657732
:1003C000766E6E6E6E1B65777676766E771B5BBF8C
:1003D00076B676767609136DBFB7B6B765001B1291
:1003E0005C76BF766D0000121B125B5B5C00000048
:1003F00000090A12136E77241C1C1C1C1C77251C78
:100400001C1C1C24256E1C1C1C2425251B1C1C24A8
:100410002525130000646D6D1B00096EBF6D5B091F
:10042000126EBF6D5B5B125B645B121312131B12C7
:1004300012090100001C242E1C0900096E2524014C
:100440000009767F7F000012777F7F641264BFBF50
:10045000775B121B09BF6D5B121B09000012131B97
:10046000090000000009000000000000000000007A
:1004700000000000007F7F53131300000064121B74
:1004800001000000001B120000000000000000003E
:10049000000000000000000000000000000000005C
:1004A000000000000000000000000000000000004C
:1004B0000000000000000000000000000026000016
:1004C00000260026262F0000002F00000037000025
:1004D0000037000000FF000000FF000000BF000028
:1004E00000BF0000BF37000037000037000026269D
:1004F000000000262600000000000000002626263E
:10050000002626262600002F002F000000003700BE
:100510000037000000FF000000FFFFFFFF000000A9
:1005200000BF000000000000003700000026262663
:1005300000262626260000000000000000260026D7
:10054000262626000000002F0000002F00000037A4
:1005500000000037000000FFFFFFFF00000000BFA9
:10056000000000BF00000037000000370026002612
:1005700026262600000000000000000000000026E3
:100580002626002600002F00002F002F0037000035
:100590000037000037FF000000FF000000BF000030
:1005A00000BF0000BF3700003700003700262626B6
:1005B00000000026000000000000000000000026EF
:1005C000000000000000002F0000000000003700C5
:1005D0000000000000FF0000000000000000BF005D
:1005E00000000000000000370000000000000026AE
:1005F00000000000000000000000000000000000FB
:1006000000000000000000000000000000000000EA
:1006100000000000E400000000099BEDF60000006F
:100620009BA4ADBFBF00529BA4767F7FB75B9B6D41
:10063000777F766EB7000000000000000000000029
:10064000005BB6F6F6005BF6FFFFFFFFBFF6FFFFAD
:10065000FFFFBFBFAEFFBFFFFFFFB7AD65BFBFFF6F
:10066000FFB7B6AD65B7BFFFFFBFB7AE6EB7BFFF91
:10067000FFBFB7B7650000000000000000F6F6ED10
:10068000EDADA4A49BB66D6D5C526E656465656549
:100690005265766D255C5C52536E24656E655252D0
:1006A0006E252524255B52772D25252524526E6E37
:1006B0002D2525252500000000000000009B490095
:1006C0000000000000A49B9200000000002564933D
:1006D0004900000000652E9B52000000006D25655A
:1006E00052000000006D2D6552000000006E2E6467
:1006F0005200000000000000000000495B00000004
:1007000000004A5B65000000005B9B6D2D0000004F
:100710005B5B2D2E250000525B2E2E1C0900015B19
:100720002D1C01091C005C5B014A65777F4A5B1C3C
:100730006E7F7777769B77776D656E6EA4776E6543
:1007400065655BA4B725255C52526DBFBF1309498F
:10075000647FBFBFBF095C7F7FBFBFB7BF7F7F77AD
:100760007F7FB7BFBF77777F7F6EB7BFBF777F7F52
:100770006E77BFBFBFB6FFFFFFBFBFB75BBFFFFF57
:10078000FFBFBFA464BFFFFFFFBFADA47FBFFFFFDC
:10079000FFBFA4BF7FFFFFFFBFADBFBFBFFFFFFF16
:1007A000B6BFBFBF77FFFFF7BFBFBF7777FFFFFFC2
:1007B000BFBFBF64526D7F6E2E2D2D256E7F766E6E
:1007C0006E6E2E2565777777762E1C25247F776EC3
:1007D000251C251C1B776525251C090A5B6E6E1CD4
:1007E00009492564645B494A6E7F645C005377BFA6
:1007F000775B5C00006E255B4A000000001C1B5B01
:100800000000000000245B5300000000005B5C005F
:100810000000000000640000000000000000000074
:1008200000000000000000000000000000000000C8
:1008300000000000005B5C7FBF777677775C6D7FA0
:10084000B7777777775C6D7FBF777777BF5C64BF6B
:10085000BFBFBFBF7F0A5C6EBFBFBFBF760065640E
:100860006DBFBFBFBF00005B6D646DADB600000023
:1008700000125B646D777F6E6E77BFBFBF7F766D52
:100880007677BFBFBF776D6E767FBFBFBF6D6E7669
:100890007FBFB7ADF676BFBF76A4ADFFFFBFB6642E
:1008A000ADFFFFFFFFB6ADBFFFFFFFFFF6ADB6AD7B
:1008B000645B520000FFFFBFBFAD5B64BFFFFFB6CC
:1008C000ADADBFFFBFFFF6FFFFFFFFBF64FFFFFF40
:1008D000FFBFB6765BFFFFFFBFBF5B0000FFFFFF00
:1008E0005C00000000A40000000000000000000008
:1008F0000000000000BFBF645C5C0000006E5C652F
:1009000049000000006D5B000000000000000000D6
:1009100000000000000000000000000000000000D7
:1009200000000000000000000000000000000000C7
:1009300000000000000000003E090000000000026E
:100940000800085504085A0000F8000990000A1E23
:1009500032050000FF2020205052455041524500F2
:100960002020544F20424520494345440023202065
:1009700020202020202020202020202020435554EB
:10098000450050494E4B20495320534F20594F5555
:1009900000232020202020202020202049204C49F6
:1009A0004B452054524545530020414E442042457A
:1009B0004154494E4753002320202020202020204E
:1009C00020204D592047554E002020594F55522088
:1009D00046414345002320202020202020202020A5
:1009E0002020594541482042555420495453002065
:1009F00020412044525920484541540023202020C2
:100A00002020202000434F4E4752415453000059AC
:100A10004F5520484156452044454645415445449C
:100A200000544845204B4E4947485453204F4620D8
:100A300049524F5300414E44204553434150454491
:100A400020544845495200494E544552504C414E5D
:100A5000455441525920444546454E4345530000B4
:100A6000594F5520414C534F204553434150454425
:100A700000544845495220414E4E4F59494E472057
:100A80004F4E45204C494E45525300005441502092
:100A9000594F555253454C46204F4E2054484520FF
:100AA0004241434B00464F522041204A4F4220577B
:100AB000454C4C20444F4E450023005448452035BA
:100AC000204B4E4947485453204F462049524F53DC
:100AD00000484156452053544F4C454E20594F55E0
:100AE0005220504F5745522055505300414E4420FC
:100AF000464C454420544F20544845495220484FC5
:100B00004D45574F524C445300000000424543416D
:100B1000554153452054484559205355434B0000F7
:100B2000000044455354524F59205448454D2041EC
:100B30004E440054414B45204241434B20594F55B0
:100B4000522053574147002300555A4500004C4A54
:100B50004200004141410000424242000043434301
:100B60000000444444000054414C4C59200047418B
:100B70004D45204F56455200424F4E5553004C456F
:100B800056454C20434C4541520050415553450079
:100B90005820455849542047414D450058204D4163
:100BA000494E204D454E550054494D4520004C4975
:100BB0005645532000534849454C44200053434F69
:100BC0005245200000484947482053434F5245535F
:100BD0000053544152540032303137204C41575267
:100BE000454E43452042524F4F4B530000C000003A
:100BF000C10100B0077F00077F0090436400466496
:100C0000004B64004F6400B107740091336400FF2F
:100C10000601531D9133640A336414904B640046FB
:100C20006400436400913364273364149046640085
:100C30004364004B64004F64009133641433640ACE
:100C4000904164004D640A4164004664004A6400B7
:100C50004D6400912E641E2E64092E64149041642C
:100C6000004664004A6400912E64282E641490416A
:100C700064004664004A64004D6400912E64132EA3
:100C8000640A903F64004B640A3F64004464004877
:100C900064004B6400912C641E2C640A2C64149034
:100CA0004164004664004A6400912C64132E64146D
:100CB00090466400912C6414903F640043640048A3
:100CC0006400912E641430641490436400486400FE
:100CD0004B64004F64009130641D30640A3064142A
:100CE000904B640048640043640091306428306491
:100CF00013904364004864004B64004F64009130DB
:100D0000641430640A904164004D640A43640046F0
:100D100064004B64004F64009133641E33640933F4
:100D20006414904B6400466400436400913364286B
:100D3000336414904664004364004B64004F6400C5
:100D40009133641333640A904164004D640A416432
:100D5000004664004A64004D6400912E641E2E64B7
:100D60000A2E6414904164004664004A6400912E87
:100D700064272E6414904164004664004A64004D68
:100D80006400912E64142E640A903F64004B640A40
:100D90003F64004464004864004B6400912C641D6F
:100DA0002C640A2C6414904164004664004A640078
:100DB000912C64142E641490466400912C6413905A
:100DC0003F6400436400486400913064143064144C
:100DD00090486400912C6E142C4B06904A640E913E
:100DE0002C4B0D904B6406912C6E14904D64009129
:100DF0002C4B142C4B07904B640D912C6E0D904A8C
:100E00006407912C4B139048640091306E14304B62
:100E100007904A640D91304B0D9046640791306EF7
:100E2000139043640091304B14304B079046640D8F
:100E300091306E0D9048640791304B1490486400D7
:100E4000912C6E132C4B07904A640D912C4B0D90F6
:100E50004B6407912C6E14904D6400912C4B142C14
:100E60004B06904B640D912C6E0E904D6406912CA8
:100E70004B14904F640091306E14304B07905064C7
:100E80000D91304B0E904D640591306E14904F646F
:100E90000091304B14304B07904D640D91306E0D26
:100EA000904B640791304B13904D6400912B6E145E
:100EB0002B4B07904F640D912B4B0D904D64079178
:100EC0002B6E14904B6400912B4B132B4B079046C9
:100ED000640D912B6E0D904B6407912B4B14904D2C
:100EE0006400912C6E132C4B079050640D912C4B89
:100EF0000D904F6407912C6E14904D6400912C4B13
:100F0000142C4B069048640D912C6E0E904D640687
:100F1000912C4B149052640091276E0D90506407F1
:100F200091274B06904F640E50640091274B0D9013
:100F30004F640691276E07904D640D4B6400912716
:100F40004B14274B079046640D91276E0D904B6410
:100F50000791274B139047640091266E14264B0788
:100F6000904A640D91264B0D904F640791266E14A4
:100F70009053640091264B13264B079056640D91B5
:100F8000266E0D905B640791264B14903D64009192
:100F9000316406904164074464074964064D640760
:100FA0005064065564075964075C64065964075524
:100FB00064065064074D640749640644640741644D
:100FC000063D64073864073D6406416407446406CF
:100FD0004964074464074164064364009137640729
:100FE000904764064A64074F6406536407566407D3
:100FF0005B64065F64076264065F64075B640756B0
:1010000064065364074F64064A64074764074364F1
:10101000063E64074364064764074A64074F640654
:101020004A6407476406466400913A6407904A643C
:10103000074D64065264075664065964075E6407E8
:101040006264066564076264065E64075964075655
:1010500064065264074D64064A64074664074164A7
:10106000064664074A64064D64075264074D6406E9
:101070004A6407547F004364004864004B64004F97
:1010800064009130641D30640A306414904B640035
:1010900048640043640091306428306414904364D1
:1010A000004864004B64004F640091306413306466
:1010B0000A904164004D640A4364004664004B6436
:1010C000004F64009133641E33640A336414904B00
:1010D00064004664004364009133642733641490D1
:1010E0004664004364004B64004F64009133641411
:1010F00033640A904164004D640A41640046640010
:101100004A64004D6400912E641D2E640A2E6414FE
:10111000904164004664004A6400912E64272E6466
:1011200014904164004664004A64004D6400912EAE
:1011300064142E640A903F64004B640A3F640044C8
:1011400064004864004B6400912C641E2C64092CDC
:101150006414904164004664004A6400912C641455
:101160002E641490466400912C6414903F640043F4
:101170006400486400912E6413306414904364004A
:101180004864004B64004F64009130641E30640A70
:10119000306414904B6400486400436400913064F0
:1011A00027306414904364004864004B64004F642B
:1011B000009130641430640A904164004D640A4325
:1011C00064004664004B64004F64009133641D3337
:1011D000640A336414904B640046640043640091D5
:1011E000336428336413904664004364004B640006
:1011F0004F64009133641433640A904164004D6479
:101200000A4164004664004A64004D6400912E6403
:101210001E2E64092E6414904164004664004A64E2
:1012200000912E64282E6414904164004664004AA4
:1012300064004D6400912E64132E640A903F640094
:101240004B640A3F64004464004864004B640091AE
:101250002C641E2C640A2C641490416400466400C3
:101260004A6400912C64132E641490466400912CFF
:10127000640FFF06014505903F6400436400486425
:1012800000913064143064810AFF2F0000C0000018
:10129000C10100B0077F00B1077400FF0601531BB6
:1012A0009048780091306E07904355009130500778
:1012B0009048550091305007904A780091306E0761
:1012C000904B550091305007904855009130500791
:1012D000904A780091306E07904B5500913050073E
:1012E000904D550091305007904A780091306E072C
:1012F000904B550091305007904D5500913050075C
:10130000904F780091306E07904B55009130500708
:10131000904D7800912E6E07904F550750780091B0
:10132000306E06904D550091305007904F5500910A
:10133000305007904B780091306E07904D550091DA
:10134000305007904A550091305007306E03904B53
:10135000780448550091305007904A55009130501C
:10136000079046780091306E07904D5500913050AF
:10137000079046780091305007904F550091306E9D
:10138000079046780091305007904D5500912E6E91
:10139000079046780748550091306E0790435500F6
:1013A000913050079048550091305007904A5500B1
:1013B00091306E07904B5500913050079048550082
:1013C00091305006904A550091306E07904B550071
:1013D00091305007904D550091305007904A55007C
:1013E00091306E07904B550091305007904D55004D
:1013F00091305007904F550091306E07904B55003B
:1014000091305007904D5500912E6E07904F550723
:1014100050550091306E07904D5500913050079017
:101420004F550091305007904B550091306E07900A
:101430004D550091305007904A550091305007307B
:101440006E02904B550548550091305007904A5513
:1014500000913050079046550091306E06904D55E2
:1014600000913050079046550091305007904F55ED
:101470000091306E079046550091305007904D55C1
:1014800000912E6E0790465507487800912C6E0704
:1014900090435500912C500790485500912C5007CF
:1014A000904A7800912C6E07904B5500912C500774
:1014B00090485500912C5007904A7800912C6E0767
:1014C000904B5500912C5007904D5500912C500792
:1014D000904A7800912C6E07904B5500912C500744
:1014E000904D5500912C5007904F7800912C6E072D
:1014F000904B5500912C5007904D7800912B6E0623
:10150000904F5507507800912C6E07904D550091E3
:101510002C5007904F5500912C5007904B7800911C
:101520002C6E07904D5500912C5007904A55009114
:101530002C50072C6E02904B7805485500912C508A
:1015400007904A5500912C500790467800912C6ED8
:1015500007904D5500912C500790467800912C50E3
:1015600007904F5500912C6E0790467800912C50B3
:1015700007904D5500912B6E07904678074855000F
:1015800091296E07904355009129500790485500C6
:1015900091295006904A550091296E07904B5500AD
:1015A000912950079048550091295007904A5500BD
:1015B000912B6E07904B5500912B5007904D550085
:1015C000912B5007904A5500912B6E07904B550078
:1015D000912B5007904D5500912B5007904F55007F
:1015E000912C6E07904B5500912C5007904D550053
:1015F000912C6E07904F5507505500912E6E079015
:101600004D5500912E5007904F5500912E50079048
:101610004B5500912E6E07904D5500912E5007901E
:101620004A5500912E50072E6E02904B5505485595
:1016300000912E5006904A5500912E500790465525
:1016400000912E6E07904D5500912E5007904655F3
:1016500000912E5007904F5500912E6E07904655E1
:1016600000912E5007904D5500912E6E07904655D3
:101670000748550091306E07904355009130500750
:101680009048550091305007904A550091306E07B0
:10169000904B5500913050079048550091305007BD
:1016A000904A550091306E07904B5500913050078D
:1016B000904D550091305007904A550091306E077B
:1016C000904B550091305007904D55009130500788
:1016D000904F550091306E06904B55009130500759
:1016E000904D5500912E6E07904F55075055009123
:1016F000306E07904D550091305007904F55009136
:10170000305007904B550091306E07904D55009129
:10171000305007904A550091305007306E02904B80
:10172000550548550091305007904A55009130506A
:10173000079046550091306E07904D5500913050FE
:10174000079046550091305007904F550091306EEC
:10175000079046550091305007904D5500912E6EE0
:10176000079046550748550091306E069043550046
:10177000913050079048550091305007904A5500DD
:1017800091306E07904B55009130500790485500AE
:1017900091305007904A550091306E07904B55009C
:1017A00091305007904D550091305007904A5500A8
:1017B00091306E07904B550091305007904D550079
:1017C00091305007904F550091306E07904B550067
:1017D00091305007904D5500912E6E07904F550750
:1017E00050550091306E07904D5500913050079044
:1017F0004F550091305007904B550091306E079037
:101800004D550091305007904A55009130500630A8
:101810006E03904B550448550091305007904A553F
:1018200000913050079046550091306E07904D550D
:1018300000913050079046550091305007904F5519
:101840000091306E079046550091305007904D55ED
:1018500000912E6E0790465507487800912C6E0730
:1018600090435500912C500790485500912C5007FB
:10187000904A7800912C6E07904B5500912C5007A0
:1018800090485500912C5007904A7800912C6E0793
:10189000904B5500912C5007904D5500912C5007BE
:1018A000904A7800912C6E06904B5500912C500771
:1018B000904D5500912C5007904F7800912C6E0759
:1018C000904B5500912C5007904D7800912B6E074E
:1018D000904F5507507800912C6E07904D55009110
:1018E0002C5007904F5500912C5007904B78009149
:1018F0002C6E07904D5500912C5007904A55009141
:101900002C50072C6E02904B7805485500912C50B6
:1019100007904A5500912C500790467800912C6E04
:1019200007904D5500912C500790467800912C500F
:1019300007904F5500912C6E0790467800912C50DF
:1019400007904D5500912B6E06904678074855003C
:1019500091296E07904355009129500790485500F2
:1019600091295007904A550091296E07904B5500D8
:10197000912950079048550091295007904A5500E9
:10198000912B6E07904B5500912B5007904D5500B1
:10199000912B5007904A5500912B6E07904B5500A4
:1019A000912B5007904D5500912B5007904F5500AB
:1019B000912C6E07904B5500912C5007904D55007F
:1019C000912C6E07904F5507505500912E6E079041
:1019D0004D5500912E5007904F5500912E50079075
:1019E0004B5500912E6E06904D5500912E5007904C
:1019F0004A5500912E50072E6E03904B55044855C2
:101A000000912E5007904A5500912E500790465550
:101A100000912E6E07904D5500912E50079046551F
:101A200000912E5007904F550091306E079046550B
:101A30000091305007904D5500912E6E07904655FD
:101A40000754640048640091306E073050073050EE
:101A500007306E07305007305007306E07305006A1
:101A6000305007306E07305007305007306E073067
:101A700050072E6E0E306E07305007305007306E14
:101A800007305007305007306E073050073050078E
:101A9000306E07305007305007306E063050072E3A
:101AA0006E0E903364003764003C640091306E0722
:101AB000305007305007903264003764003A6400B9
:101AC00091306E0730500730500790336400376410
:101AD000003C640091306E0730500730500790375B
:101AE00064003A64003E640091306E073050073065
:101AF0005007903764003C64003F640091306E07EB
:101B0000305007903764003A64003E640091306EB4
:101B100007306E07903A64004364003F64009133DD
:101B20006E06335007335007336E07335007335078
:101B300007903764003A64003F640091336E0733C6
:101B40005007335007336E07335007335007903A2E
:101B500064003F640043640091336E0733500733E1
:101B60006E07336E07904164003E64003A64009152
:101B70002E6E072E50072E50072E6E072E50072E62
:101B80005006903564003A64003E6400912E6E0762
:101B90002E50072E50072E6E072E50072E500790FE
:101BA0003A64003E6400416400912E6E072E500797
:101BB0002E6E072E6E07903764003C64003F640071
:101BC00091306E07305007305007306E07305007A5
:101BD000305007306E07305007305007306E0630F7
:101BE0005007305007306E073050072E6E0E306EA3
:101BF00007305007305007306E073050073050071D
:101C0000306E07305007305007306E0730500730C5
:101C10005007306E073050072E6E0D90336400373A
:101C200064003C640091306E0730500730500790DC
:101C30003264003764003A640091306E0730500718
:101C4000305007903364003764003C640091306E7C
:101C500007305007305007903764003A64003E6404
:101C60000091306E07305007305007903764003CC9
:101C700064003F640091306E073050079037640075
:101C80003A64003E6400912E6E0E903A6400436404
:101C9000003F640091336E07335007335007336EB3
:101CA00006335007335007903764003A64003F64AE
:101CB0000091336E07335007335007336E073350AC
:101CC00007335007903A64003F6400436400913347
:101CD0006E07335007326E0E904164003E64003A46
:101CE0006400912E6E072E50072E50072E6E072E81
:101CF00050072E5007903564003A64003E6400910E
:101D00002E6E072E50062E50072E6E072E50072ED1
:101D10005007903A64003E6400416400912E6E05C5
:101D2000FF06014502912E50072C6E0E903764007D
:101D30003C64003F640091306E073050073050071C
:101D4000306E07305007305007306E073050073084
:101D50005007306E07305007305007FF2F0000004B
:101D600000D51E00000000000000D51E000000008D
:101D7000000000C41E000000000000006E1E0000F5
:101D80000000000000C41E000000000000009D1DB7
:101D9000000000000000009D1D0000000000077F03
:101DA0000002030000FF00084101040401040401D3
:101DB00004040104040104040104040104040104F2
:101DC0000401040403076400083C01040401040442
:101DD00001040401040401040401040401040401D5
:101DE000040401040403075000083701040401043B
:101DF00004010404010404010404010404010404B2
:101E00000104040104040307320008320104040140
:101E10000404010404010404010404010404010491
:101E20000401040401040403072800082D0104042C
:101E30000104040104040104040104040104040174
:101E40000404010404010404030714000828010425
:101E50000401040401040401040401040401040451
:101E600001040401040401040401050000FF000250
:101E70000300077F00085001040601040601040660
:101E800001070003077F0008500104060104060152
:101E9000040601070003085000072001040601049E
:101EA0000601040601040601070003085000070F9D
:101EB00001040601040601040601040601070001ED
:101EC000050000FF0002040007700000D800083C75
:101ED00001050000FF0002040000DD00FFFEFEFE21
:101EE000FEFEFEFE87FEFEFEFEFEFE8787FEFEFE77
:101EF000FEFEFE8787FEFEFEFE85858587FEFEFED2
:101F00008587878785FEFE858787878785FE858706
:101F1000878785858785878785858787878787875B
:101F2000FEFEFEFEFED2D2EBD2FEFEFEFE87D2FD0C
:101F3000EBFEFEFEFE8787EBD2FEFEFEFE85878768
:101F4000D2FEFEFEFE8785858785FEFEFE87EF8733
:101F5000878785FEFEEFFFEF878785FEFEFEFEFE8C
:101F6000FEFEFEFEFEFEFEFEFEFEFEFE87FEFEFE08
:101F7000FEFEFE8787FEFEFEFEFEFE8787FEFEFE5D
:101F8000FE85858587FEFEFE8587878785FEFE8523
:101F90008787878785FE85878787858587FEFEFEFD
:101FA000FEFEFEFEFE878787FEFEFEFEFED2D2EB21
:101FB000D2FEFEFEFE87D2FDEBFEFEFEFE8787EB25
:101FC000D2FEFEFEFE858787D2FEFEFEFE87858559
:101FD0008785FEFEFE87EF87878785FEFEFEFEFE75
:101FE000FEFEFEFEFEFEFEFEFEFEFEFEFEFEFEFE11
:101FF000FEFEFEFEFEFEBABABABABABAFEBABDBD5F
:10200000BDBDBDBDBAFEBABABABABABAFEFEFEFED0
:10201000FEFEFEFEFEFEFEFEFEFEFEFEFEFEFE4698
:102020004646464646FEA5A5A5474746FEFE464609
:102030004747463F3F4646474746FEFEFE46464721
:102040004746FEFEFEFE464647473F3FFEFEA5A52D
:10205000A547FEFEFEFEFE46464646FEFEFEFEFE90
:10206000FFFEFEFEFEFEFEFFFFFFFEFEFEFEFFFF8A
:10207000FDFFFFFEFEFFFFFDF8FDFFFFFEFEFFFF81
:10208000FDFFFFFEFEFEFEFFFFFFFEFEFEFEFEFE6C
:10209000FFFEFEFEFEFEFEFEFEFEFEFEFEFEFEFE5F
:1020A00007FEFEFEFEFEFE070707FEFEFEFE07071A
:1020B000270707FEFE07072777270707FEFE070704
:1020C000270707FEFEFEFE070707FEFEFEFEFEFEDA
:1020D00007FEFEFEFEFEFEFEFEFEFEFEFEFEFEFE17
:1020E00038FEFEFEFEFEFE383838FEFEFEFE3838B4
:1020F000BC3838FEFE3838BCBEBC3838FEFE383836
:10210000BC3838FEFEFEFE383838FEFEFEFEFEFE0F
:1021100038FEFEFEFEFEFEFEFEFEFEFEFEFEFEFEA5
:10212000A2FEFEFEFEFEFEA2A2A2FEFEFEFEA2A2F7
:10213000AAA2A2FEFEA2A2AAADAAA2A2FEFEA2A2EC
:10214000AAA2A2FEFEFEFEA2A2A2FEFEFEFEFEFECF
:10215000A2FEFEFEFEFEFEFEFEFEFEFEFEFEFEFEFB
:102160006EFEFEFEFEFEFE6E6E6EFEFEFEFE6E6EEF
:102170006F6E6EFEFE6E6E6F776F6E6EFEFE6E6E33
:102180006F6E6EFEFEFEFE6E6E6EFEFEFEFEFEFECE
:102190006EFEFEFEFEFEFEFEFEFEFEFEFEFEFEFEEF
:1021A000FEFEFEFEFEFEFEFEFEFEFEFEFEFEFEFE4F
:1021B000FEFEFEFEFEFEFEFEFEFEFEFEFEFEFEFE3F
:1021C000FEFEFEFEFEFEFEFEFEFEFEFEFEFEFEFE2F
:1021D000FEFEFEFEFEFEFEFEFEFEFEFEFE85878786
:1021E00085FE858787FE858785FE858787FE8587AF
:1021F00087ADADADADFEFE8587ADADADADFEFE8567
:1022000087ADADADADFEFEFE85A4AD8787FEFEFEBB
:10221000FEA4A48587FEFEFEFEA4A4858787EF8723
:10222000858785FEFE87878785878785FEADADAD6F
:10223000ADAD8785FEADADADADADADA4ADADADADD4
:10224000ADADA4A4A487878785FEFEFEFE878787A1
:1022500085FEFEFEFE87878785FEFEFEFE87EF87F2
:10226000858785FEFE87878785878785FEADADAD2F
:10227000ADAD8785FEADADADADADADA4ADADADAD94
:10228000ADADA4A4A487878785FEFEFEFE87878761
:1022900085FEFEFEFE878785FEFEFEFEFE858787A5
:1022A000858587878785878785FE858787FE8587DC
:1022B00085FE858787FE858787ADADADADFEFE8542
:1022C00087ADADADADFEFE8587ADADADADFEFEFE1D
:1022D00085A4AD8787FEFEFEFEA4A48587EFFFEFF1
:1022E000878785FEFE87EF87858785FEFE87878740
:1022F00085878785FEADADADADAD8785FEADADAD56
:10230000ADADADA4ADADADADADADA4A4A487878793
:1023100087FEFEFEFE878787FEFEFEFEFE87EF87B6
:10232000858785FEFE87878785878785FEADADAD6E
:10233000ADAD8785FEADADADADADADA4ADADADADD3
:10234000ADADA4A4A487878787FEFEFEFE8787879E
:1023500087FEFEFEFE878787FEFEFEFEFEEFFFEF96
:10236000878785FEFE87EF87858785FEFE878787BF
:1023700085878785FEADADADADAD8785FEADADADD5
:10238000ADADADA4ADADADADADADA4A4A487878713
:1023900087FEFEFEFE8787878787FEFEFEFEFEFE27
:1023A000FEFEFEFEFEFEFEFEFEFEFEFEFEFEFEFE4D
:1023B0002707FEFEFEFEFE27772707FEFEFEFE072E
:1023C000270707FEFEFEFEFE0707FEFEFEFEFEFEE0
:1023D000FEFEFEFEFEFEFEFEFEFEFEFEFEFEFEA378
:1023E000A0A0A3FEFEFEA3A3A3A3A3A3FEA3A3A357
:1023F0000707A3A3A3A0A307272707A3A0A0A307BA
:10240000272707A3A0A3A3A30707A3A3A3FEA3A310
:10241000A3A3A3A3FEFEFEA3A0A0A3FEFEFEFEFEBA
:10242000FEFEFEFEFEFEFEFEFEFEFEFEFEFEFEFECC
:10243000EBD2FEFEFEFEFEEB77EBD2FEFEFEFED200
:10244000EBD2D2FEFEFEFEFED2D2FEFEFEFEFEFE6F
:10245000FEFEFEFEFEFEFEFEFEFEFEFEFEFEFEFE9C
:10246000FEFEFEFEFEFEFEFEFEFEFEFEFEFEFEFE8C
:10247000FEFEFEFEFEFEFEFFFFFFFFFFFFFEF8F882
:10248000F8F8F8F8FEFFFFFFFFFFFFFEFEFEFEFE7E
:10249000FEFEFEFEFEFEFEFEFEFEFEFEFEFEFEFE5C
:1024A000FEFEFEFEFEFEFEFEFEFEFEFEFEFEFEFE4C
:1024B000FEFEFEFEFEFE878787878787FE87EFEF9B
:1024C000EFEFEFEF87FE878787878787FEFEFEFEA9
:1024D000FEFEFEFEFEFEFEFEFEFEFEFEFEFEFEFE1C
:1024E000FEFEFEFEFEFEFEFEFEFEFEFEFEFEFEFE0C
:1024F000A4A3FEFEFEFEFEA4A6A4A3FEFEFEFEA373
:10250000A4A3A3FEFEFEFEFEA3A3FEFEFEFEFEFEB1
:10251000FEFEFEFEFEFEFEFEFEFEFEFEFEFEFEFEDB
:10252000FEFEFE8587FEFEFEFEFEFE8587FEFEFEAB
:10253000FEFE858787FEFEFEFEFE858787FEFEFE89
:10254000FE858787FEFEFEFEFE858787FEFEFEFE79
:10255000FEA4A4A4FEFEFEFEFEA4A4A4A487FE8501
:1025600085FEFEFEFE87FE858585FEFEFEFEFE855F
:102570008585FEFEFEFEFE858585FEFEFEFEFE8551
:102580008585FEFEFEFEFE858585FEFEFEFEFEA422
:10259000A4A4FEFEFEFEFEA4A4A4A4FEFEFEFEFE77
:1025A000FEFEFEFE85FEFEFEFEFEFEFE85FEFEFE3D
:1025B000FEFE858587FEFEFEFE85878787FEFEFE82
:1025C000A487878787FEFEFEA4878787FEFEFEFE20
:1025D000A4A4FEFEFEFEFEFEA4A4A4FEFE87878742
:1025E000FEFEFEFEFE87878787FEFEFEFE8787874C
:1025F00087FEFEFEFE878787FEFEFEFEFE87858540
:10260000FEFEFEFEFE858585FEFEFEFEFEA4A4A463
:10261000FEFEFEFEFEA4A4A4A4FEFEFEFEFEFEFE42
:10262000FEA4A48587FEFEFEFE85858585FEFEFE52
:10263000FE85858585A4A48585858585FEA4A485DC
:1026400085858585FEA4A485858585FEFEA4FEFE80
:10265000FEFEFEFEFEFEFEFEFEFEFEFEFE878787FF
:10266000FEFEFEFEFEFE858787FEFEFEFEFE8587E1
:102670008787FEFEFEFEFE858787FEFEFEFEFE8548
:10268000878787FEFEFEFEFE858787FEFEFEFEFE36
:10269000A4A4A4FEFEFEFEFEA4A4A4A4FEFEFEFED0
:1026A000FEFEFEFE85FEFEFEFEFEFEFE85FEFEFE3C
:1026B000FEFE858585FEFEFEFE85858585FEFEFE89
:1026C000A485858585FEFEFEA4858585FEFEFEFE2D
:1026D000A4A4FEFEFEFEFEFEA4A4A4FEFE87878741
:1026E000FEFEFEFEFE85878785FEFEFEFE85878751
:1026F00085FEFEFEFE858787FEFEFEFEFE85878741
:10270000FEFEFEFEFE858787FEFEFEFEFEA4A4A45E
:10271000FEFEFEFEFEA4A4A4A4FEFEFEFEFEFEFE41
:10272000FEA4A48587FEFEFEFE85858585FEFEFE51
:10273000FE85858585A4A485858585A4A4A4A48516
:10274000858585A4A4A4A485858585A4A4A4FEFE6E
:10275000FEFEFEA4FEFEFEFEFEFEFEFEFE8787855A
:102760008787FEFEFEFEFE85878787FEFEFEFE85CE
:10277000878787FEFE8585858787FEFEFE8787879C
:102780008787FEFEFE87878787FEFEFEFEFEFEFE33
:10279000FEFEFEFEFEFEFEFEFEFEFEFEFEFEFEFE59
:1027A000FEFEFEFEFEFEFE00000000FEFEAD000F7F
:1027B0001F1F0F00ADAD000000000000ADADAD006B
:1027C000000000ADADAD00AD0000AD00ADADFE0050
:1027D000000000FEADADFEFEFEFEFEFEADFEFE0004
:1027E0000000000000ADADAD1F0F000000FEFE00B8
:1027F00000000000FEFEFEFE0000FEFEFEFEFEFEED
:102800000000FEFEFEFEFEFE0000FEFEFEFE0000DC
:1028100000000000FE0000000000000000FFFFFFBD
:10282000FFFFFFFFA3FFFFFFFFFFFFFFA3A3FFFFCC
:10283000FFFFFFA3FEA3FFFFFFFFFFA3FEFEA3FF1B
:10284000FFFFA3FEFEFEA3FFFFFFA3FEFEFEFEA30F
:10285000FFA3FEFEFEFEFEA3FFA3FEFEFEFEFEFEA7
:102860000707FEFEFEFEFE07270707FEFEFE072700
:1028700077270707FEFE070727070707FEFEFE0765
:10288000270707FEFEFEFE070707FEFEFEFEFEFE12
:102890000707FEFEFEFEFEFE07FEFEFEFEFEFEFE3D
:1028A00014FEFEFEFEFEFE141414FEFEFEFE1414C4
:1028B0000F1414FEFE14140F060F1414FEFE14144D
:1028C0000F1414FEFEFEFE141414FEFEFEFEFEFEA9
:1028D00014FEFEFEFEFEFEFEFEFEFEFEFEFEFEFE02
:1028E0007FFEFEFEFEFEFE7F7F7FFEFEFEFE7F7F02
:1028F000077F7FFEFE7F7F0700077F7FFEFE7F7FD3
:10290000077F7FFEFEFEFE7F7F7FFEFEFEFEFEFE59
:102910007FFEFEFEFEFEFEFEFEFEFEFEFEFEFEFE56
:10292000FE38FEFEFEFEFEFE3838FEFEFEFEFEFE19
:10293000383838FEFEFEFE3838BC38FEFEFE383829
:1029400038BC3838FEFE3838BCBEBC38FEFEFE3817
:1029500038BC38FEFEFEFEFE3838FEFEFEFEFEFEF1
:10296000FEFEFEFEFEFEFEFEFEFEFEFE7FFEFEFE06
:10297000FEFE7F7F7FFEFEFEFE7F7F7F7FFEFEFEF0
:10298000FEFEFE7F7FFEFEFEFEFEFEFEFEFEFEFE65
:10299000FEFEFEFEFEFEFEFEFEFEFEFEFEA4FEFEB1
:1029A000FEFEFEFEFEA4ADFEFEFFFFA4ADA4ADF64E
:1029B000FFFFA4ADF6A4ADF6FFA4ADF6FFA4ADFEF7
:1029C000FEA4ADF6FFA4FEFEA4A4ADF6FEFEFEFE40
:1029D000A4A4ADF6F6FEFEFEFEFEFEFEFEFEFEFE2C
:1029E000FEFEFEFEFEF6FFFFFFD2FEFEFEFFFFFF35
:1029F000FFD2EBFEFEFFFEFFFFEBFDD2FEFEFEFE72
:102A0000FFD2EBD2D2FEFEFEFEFEFEFEFEF6FEFE84
:102A1000FEFEFEFEFEFEFEFEFEFEFEFEFEFEFEBF15
:102A20007F7FBFFEFEFE7F7F7F7F7F7FFEBF7F7F3A
:102A30007F7F7F7FBF7F7F7F7F7F7F7F7F7F7F7F66
:102A40007F7F7F7F7FBF7F7F7F7F7F7FBFFE7F7F97
:102A50007F7F7F7FFEFEFEBF7F7FBFFEFEFEFEFE0E
:102A6000FEFEFEFEFEFEFEFEFEFEFEFEFEFEFEFE86
:102A70007F7FFEFEFEFEFE7F7F7F7FFEFEFEFE7FEF
:102A80007F7F7FFEFEFEFEFE7F7FFEFEFEFEFEFEE1
:102A9000FEFEFEFEFEFEFEFEFEFEFEFEFEFEFEBF95
:102AA0007F7FBFFEFEFE7F7F7F7F7F7FFEBF7FFE3B
:102AB000FE7F7F7FBF7FFEFEFEFE7F7F7FFEFEFEEE
:102AC000FEFEFE7F7FFEFEFEFEFEFE7FBFFEFEFEE2
:102AD000FEFEFE7FFEFEFEFEFEFEBFFEFEFEFEFED4
:102AE000FEFEFEFEFEFEFEFEFEFEFEFEFEFEFEFE06
:102AF000FEFEFEFEFEFEFEFEE3FEFEFEFEFEFEFE11
:102B0000FFFEFEFEFEFEFEFEFEFEFEFEFEFEFEFEE4
:102B1000FEFEFEFEFEFEFEFEFEFEFEFEFEFEFEFED5
:102B2000FEFEFEFEFEFEFEFEFEFFFEFEFEFEFEFEC4
:102B3000FE7FFFFEFEFEFEFEFE7F7FFFFEFEFEFE30
:102B4000FE7F7F7FFFFEFEFEFE7F7F7FFEFEFEFE9E
:102B5000FE7F7FFEFEFEFEFEFE7FFEFEFEFEFEFE12
:102B6000FEFEFEFEFEFEFEFEFEFEFEFEFEFEFEFE85
:102B7000FEFEFEFEFEFEFEFEFEFEFEFEFE7F7F7FF2
:102B80007F7F7FFFFEFE7F7F7F7FFFFEFEFEFE7F5B
:102B90007FFFFEFEFEFEFEFEFEFEFEFEFEFEFEFED3
:102BA000FFFEFEFEFEFEFEFF7F7FFEFEFEFEFF7FBF
:102BB0007F7F7FFEFEFF7F7F7F7F7F7FFEFEFEFEAB
:102BC000FEFEFEFEFEFEFEFEFEFEFEFEFEFEFEFE25
:102BD000FEFEFEFEFEFEFEFEFEFEFEFEFEFEFE0013
:102BE000000000FEFEFE000F1F1F0F00FEAD0000E4
:102BF00000000000ADAD00AD0000AD00ADADAD001A
:102C0000000000ADADADFE00000000FEADADFEFE6B
:102C1000FEFEFEFEADADFEFEFEFEFEFEADFEFEFEC7
:102C20000000FEFEFEFEFE00000000FEFEFE0000B4
:102C30000F0F0000FE00000F1F1F0F00000000FE1E
:102C4000FEFEFE000000FEFEFEFEFEFE0000FEFE9A
:102C5000FEFEFEFE00FEFEFEFEFEFEFEFEFEFEFE92
:102C6000FEFEFEFEA4FEFEFEFEFEFEFEA4FEFEFE38
:102C7000FE462746464747474627772746FE4747AB
:102C80004646274646FEFEFEFE464646A4FEFEFE9D
:102C9000FEFEFEFEA4FEFEFEFEFEFEFEA4FEFEFE08
:102CA0000A0AFEFEFEFE0A0A0A0A0A0AFEFE0A0ACC
:102CB00027270A0AFE0A0A277777270A0A0A0A2715
:102CC0007777270A0AFE0A0A27270A0AFEFE0A0A57
:102CD0000A0A0A0AFEFEFEFE0A0AFEFEFEFEFEFECC
:102CE000FEFEFEFEFEFEFEFEFEFEFEFEFEFEFEFE04
:102CF000FEFEFEFEFEFE070707070707FE07272763
:102D00002727272707FE070707070707FEFEFEFE00
:102D1000FEFEFEFEFEFEFEFEFEFEFEFEFEFEFEFED3
:102D2000FEFEFEFEFEFEFE0707FEFEFEFEFE07079F
:102D30000707FEFEFE07072707070707FE07277797
:102D40002727070707FE0727070707FEFEFEFE07E0
:102D500007FEFEFEFEFEFEFEFEFEFEFEFEFEA3A43F
:102D6000A3A3A4A3FEA3FEFEA4A4FEFEA3FEFEFE58
:102D7000BC38FEFEFEFEFEBCBEBC38FEFEFEFE38CB
:102D8000BC3838FEFEFEFEFE3838FEFEFEA3FEFE18
:102D9000A4A4FEFEA3FEA3A4A3A3A4A3FEFEFEFE82
:102DA000FEFEFEFEFEFEFEFEFEFEFEFE7FFEFEFEC2
:102DB000FEFEFE7F7FFEFEFEFEFEFEFE7FFEFEFEB0
:102DC000FEFEFEFEFEFEFEFEFEFEFEFEFEFEFEFE23
:102DD000FEFEFEFEFEFEFEFEFEFEFEFEFEA4FEFE6D
:102DE000FEFEFEFEFEA4A4FEFEFEFEFEFEA4A4ADBC
:102DF000FEFEFEFEFEA4A4ADADFEFEFEFEA4A4AD4E
:102E0000ADF6FEFEFEA4A4ADADF6F6FFFFA4A4ADA4
:102E1000ADF6F6FFFFA4A4ADADF6F6FFFFFEFEFE95
:102E2000FEFEFEFEFEFEFEFEFEFEFEFEFEFEFEFFC1
:102E3000FFFFFFA4A4FEFFFFFFFFA4A4A4FFFFFF6A
:102E4000FFFFA4A4A4FFFFFFFFA4A4A4ADFFFFFF06
:102E5000FFA4A4ADADFFFFFFA4A4ADADF6FEFEFE42
:102E6000FEFEFEFEFEFEFEFEFEFEFEFEFEA4ADAD7E
:102E7000F6F6FFFFFFA4ADADF6F6FFFFFFADADF632
:102E8000F6FFFFFFFFADF6F6FFFFFFFFFFF6F6FFD1
:102E9000FFFFFFFFFFF6FFFF7F7FFFFFFFFEFEFE4E
:102EA000FEFEFEFEFEFEFEFEFEFEFEFEFED2FEFE6E
:102EB000FEFEFEFEFED2D2FEFEFEFEFEFED2D2D20E
:102EC000FEFEFEFEFED2D3EBD3FEFEFEFED2EBFDF7
:102ED000EBD2FEFEFED2D3EBD3D2D2FEFEA4A4AD43
:102EE000ADF6F6FFFFA4A4ADADF6F6FFFFA4A4ADCA
:102EF000ADF6F6FFFFA4A4ADADF67F7FFEA4A4ADB2
:102F0000AD7F7F7FFEA4A4ADFEFE7FFEFEA4A4FEE7
:102F1000FEFEFEFEFEA4FEFEFEFEFEFEFEFFFFFE29
:102F2000A4ADADF6F6FFFEA4A4ADADF6F6FEFEA48C
:102F3000A4ADADF6F6FEA4A4A4ADADF6F6FEA4A431
:102F4000A4A4ADADF6A4A4A4A4A4A4ADADA4A4A4CB
:102F5000A4A4A4A4ADA4A4A4A4A4A4A4A4FFFF7F97
:102F60007F7F7FFFFFFFFE7F7F7F7FFEFFFEFE7F75
:102F70007F7FFEFEFEFEFEFE7FFEFEFEFEF6FEFEF6
:102F8000FEFEFEFEFEF6F6FEFEFEFEFEFEADF6F6D2
:102F9000FEFEFEFEFEADADF6F6FEFEFEFED2D2D287
:102FA000D2D2D2D2FEFFFFFFFFFFFFFFFFFEFEFEE9
:102FB000FEFEFEFEFEFEFEFEFEFEFEFEFEFEFEFE31
:102FC000FEFEFEFEFEFEFEFEFEFEFEFEFEFEFEFE21
:102FD000FEFEFEFEFEFEFEFEFEFEFEFEFEEFFFEF2E
:102FE000878785FEFE87EF87858785FEFE87878733
:102FF00085878785FEADADADADAD8785FEADADAD49
:10300000ADADADA4ADADADADADADA4A4A487878786
:1030100085FEFEFEFE878785FEFEFEFEFEFEFEFEB0
:10302000FEA4A48587FEFEFEFE85858787FEFEFE44
:10303000FE85878787A4A48585858787FEA4A487C6
:1030400087878787FEA4A487878787FEFEA4FEFE66
:10305000FEFEFEFEFEFEFEFEFEFEFEFEFE878785F7
:10306000FEFEFEFEFEFE858585FEFEFEFEFE8585DD
:103070008585FEFEFEFEFE858585FEFEFEFEFE8546
:10308000858585FEFEFEFEFE858585FEFEFEFEFE36
:10309000A4A4A4FEFEFEFEFEA4A4A4A4FEFEFEFEC6
:1030A000FEFEFEFEFEFEFEFEFEFEFEFEFEFEFEFE40
:1030B000FEFEFEFEFEFEFEFEFEFEFEFEFEFEFEFE30
:1030C000FEFEFEFEFEFEFEFEFEFE858585FEA4875C
:1030D0008787878787A4A4878787878787FEFEFEE1
:1030E000FEFEFEFEFEFEFEFEFEFEFEFE87FEFEFE77
:1030F000FE85858587FEFEFE8587878785FEFE85A2
:10310000858787878785858585858787AD87878735
:1031100087AD85878787878787ADADA4A487878795
:1031200087FEFEFEFE87D2D2EBD2FEFEFE8787D25E
:10313000FDEBFEFEFE878787EBD2FEFEFE858587D0
:1031400087D2FEFEFEADADADADAD87EFFEADADAD50
:10315000ADADADA4ADA4ADADADADA4A4A4A4A4ADDE
:10316000ADF6F6FFFFA4A4ADADF6F6FFFFA4A4AD47
:10317000ADF6F6FFFFA4A4ADADF67F7F7FA4A4ADAE
:10318000AD7F7F7FFEA4A4ADFE7F7F7FFEA4A4FE63
:10319000FEFE7FFEFEA4FEFEFEFEFEFEFEFFFF7FA5
:1031A0007F7F7FFFFFFF7F7F7F7F7F7FFFFEFE7F31
:1031B0007F7F7FFEFEFEFE7F7F7FFEFEFEF6FEFE31
:1031C0007FFEFEFEFEF6F6FEFEFEFEFEFEADF6F60F
:1031D000FEFEFEFEFEADADF6F6FEFEFEFEFEFEFEC1
:1031E000FEFEFEFE00FEFEFEFEFEFE0000FEFEFEF9
:1031F000FEFEFE0000FEFEFEFE02020200FEFEFEDD
:103200000200000002FEFE020000000002FE0200BA
:1032100000000202000200000202000000000000A4
:10322000FEFEFEFEFE07072707FEFEFEFE000777F6
:1032300027FEFEFEFE00002707FEFEFEFE02000047
:1032400007FEFEFEFE0002020002FEFEFE00AD00D2
:10325000000002FEFEADFFAD000002FEFEFEFEFE1F
:10326000FEFEFEFEFEFEFEFEFEFEFEFE00FEFEFE7C
:10327000FEFEFE0000FEFEFEFEFEFE0000FEFEFE66
:10328000FE02020200FEFEFE0200000002FEFE023E
:103290000000000002FE02000000020200FEFEFE2E
:1032A000FEFEFEFEFE000000FEFEFEFEFE070727FD
:1032B00007FEFEFEFE00077727FEFEFEFE0000274B
:1032C00007FEFEFEFE02000007FEFEFEFE000202FA
:1032D0000002FEFEFE00AD00000002FEFE02000045
:1032E00002FE020000FE020002FE020000FE0200DA
:1032F0000005050505FEFE020005050505FEFE02AA
:103300000005050505FEFEFE0200050000FEFEFEAE
:10331000FE00000200FEFEFEFE0000020000AD0006
:10332000020002FEFE00000002000002FE0505058C
:1033300005050002FE050505050505000505050551
:10334000050500000000000002FEFEFEFE00000079
:1033500002FEFEFEFE00000002FEFEFEFE00AD00CC
:10336000020002FEFE00000002000002FE0505054C
:1033700005050002FE050505050505000505050511
:10338000050500000000000002FEFEFEFE00000039
:1033900002FEFEFEFE000002FEFEFEFEFE02000039
:1033A000020200000002000002FE020000FE020015
:1033B00002FE020000FE02000005050505FEFE02F9
:1033C0000005050505FEFE020005050505FEFEFEDD
:1033D0000200050000FEFEFEFE00000200ADFFAD93
:1033E000000002FEFE00AD00020002FEFE00000032
:1033F00002000002FE05050505050002FE050505A3
:10340000050505000505050505050000000000008F
:1034100000FEFEFEFE000000FEFEFEFEFE00AD0011
:10342000020002FEFE00000002000002FE0505058B
:1034300005050002FE050505050505000505050550
:10344000050500000000000000FEFEFEFE0000007A
:1034500000FEFEFEFE000000FEFEFEFEFEADFFAD25
:10346000000002FEFE00AD00020002FEFE000000B1
:1034700002000002FE05050505050002FE05050522
:10348000050505000505050505050000000000000F
:1034900000FEFEFEFE0000000000FEFEFEFEFEFE40
:1034A000FEFEFE0200FEFEFEFEFEFE0200FEFEFE30
:1034B000FEFE020000FEFEFEFEFE020000FEFEFE1C
:1034C000FE020000FEFEFEFEFE020000FEFEFEFE0C
:1034D000FE000000FEFEFEFEFE0000000000FE02F8
:1034E00002FEFEFEFE00FE020202FEFEFEFEFE02E6
:1034F0000202FEFEFEFEFE020202FEFEFEFEFE02D4
:103500000202FEFEFEFEFE020202FEFEFEFEFE00C5
:103510000000FEFEFEFEFE00000000FEFEFEFEFEBF
:10352000FEFEFEFE02FEFEFEFEFEFEFE02FEFEFEB3
:10353000FEFE020200FEFEFEFE02000000FEFEFE97
:103540000000000000FEFEFE00000000FEFEFEFE89
:103550000000FEFEFEFEFEFE000000FEFE0000007B
:10356000FEFEFEFEFE00000000FEFEFEFE0000006D
:1035700000FEFEFEFE000000FEFEFEFEFE00020259
:10358000FEFEFEFEFE020202FEFEFEFEFE00000049
:10359000FEFEFEFEFE00000000FEFEFEFEFEFEFE43
:1035A000FE00000200FEFEFEFE02020202FEFEFE21
:1035B000FE0202020200000202020202FE000002FB
:1035C00002020202FE000002020202FEFE00FEFEF5
:1035D000FEFEFEFEFEFEFEFEFEFEFEFEFE00000005
:1035E000FEFEFEFEFEFE020000FEFEFEFEFE0200ED
:1035F0000000FEFEFEFEFE020000FEFEFEFEFE02DB
:10360000000000FEFEFEFEFE020000FEFEFEFEFECC
:10361000000000FEFEFEFEFE00000000FEFEFEFEBC
:10362000FEFEFEFE02FEFEFEFEFEFEFE02FEFEFEB2
:10363000FEFE020202FEFEFEFE02020202FEFEFE8E
:103640000002020202FEFEFE00020202FEFEFEFE7A
:103650000000FEFEFEFEFEFE000000FEFE0000007A
:10366000FEFEFEFEFE02000002FEFEFEFE02000066
:1036700002FEFEFEFE020000FEFEFEFEFE02000056
:10368000FEFEFEFEFE020000FEFEFEFEFE0000004C
:10369000FEFEFEFEFE00000000FEFEFEFEFEFEFE42
:1036A000FE00000200FEFEFEFE02020202FEFEFE20
:1036B000FE020202020000020202020000000002FA
:1036C0000202020000000002020202000000FEFEF0
:1036D000FEFEFE00FEFEFEFEFEFEFEFEFE00000200
:1036E0000000FEFEFEFEFE02000000FEFEFEFE02E8
:1036F000000000FEFE0202020000FEFEFE000000CE
:103700000000FEFEFE00000000FEFEFEFEFEFEFECD
:10371000FEFEFEFEFEFEFEFEFEFEFEFEFE000000C3
:10372000FEFEFEFEFEFE000000FEFEFEFEFE0000AF
:103730000000FEFEFEFEFE000000FEFEFEFEFE009D
:10374000000000FEFEFEFEFE000000FEFEFEFEFE8D
:10375000000000FEFEFEFEFE00000000FE0101284B
:10376000010129010127010126010125010139017A
:103770000137010136010135010124010114010164
:103780003401012301013A01010501011302034E35
:103790004F53565F6002034E4F53545B6102034C1C
:1037A0004D50555D5E02034E4F53545B5C02034C1B
:1037B0004D5052595A02034C4D505157580101383F
:1037C000010118010117010116010115010104048D
:1037D000023C3D3E3F4A414B4304023C3D3E3F409C
:1037E00041424303013B2B2C03012A2B2C030147AD
:1037F0004849020302030F122122020302030F446D
:103800004546020300010C111F20020302030F10A2
:103810001D1E020300010C0E1B1C020300010C0DF7
:10382000191A01010A010109010108010107010139
:103830000601012F01012E01012D0101300101338B
:1038400001013201013101011400000000000000FB
:103850000000000000000000000000000000000068
:103860000000000000000000000000000000000058
:103870000000000000000000000000000000000048
:10388000000000000000000000FFFFFFFFFFFFFF3F
:10389000FFFFFFFFFFFFFFFFFFFFFFFFFDFDFFFF3C
:1038A000FFFFFDFDFBF8FDFDFFFFF8FBF8FBF8F85F
:1038B000FDFFFBF8F8FBF8F8F8FFF8F8FBF8F8F86C
:1038C000F8FFF8F8F8F8F8F8F8FFFFFFFFFFFFFF40
:1038D000FFFFFFFFFFFFFFFFFFFFFFFFFDFDFFFFFC
:1038E000FFFFFDFDFBF8FDFDFFFDF8FBF8FBF8F821
:1038F000FDF8FBF8F8FBF8F8F8F8F8F8FBF8F8F83A
:10390000F8F8F8F8F8F8F8F8F8FFFFFFFFFFFFFF06
:10391000FFFFFFFFFFFFFFFFFFFFFFFFFDFDFFFFBB
:10392000FFFFFDFDFBF8FDFDFFFDF8FBF8FBF8F8E0
:10393000FFF8FBF8F8FBF8F8FFF8F8F8FBF8F8F8F0
:10394000FFF8F8F8F8F8F8F8FFFAF8F8F8F8F8F8E7
:10395000F8F8F8FBF8F8F8FBF8F8F8FBF8FBFBF8D8
:10396000F8F8F8F8FBF8F8F8F8F8F8FBF8FBF8F8CE
:10397000F8F8FBF8F8FBF8F8F8F8F8F8FBF8F8F8BE
:10398000F8F8F8F8F8F8F8F8F80202020202020271
:103990000202020B0202020B02020B020B020B02DA
:1039A0000B02020B020B020B02020B0202020B02C1
:1039B0000202020B020B020B02020B020B020B02B1
:1039C0000202020B0202020B025C5C5C5C5C5C5C4F
:1039D0005C5C5C5C5C5C5C5C5C025C025C025C028F
:1039E0005C02020B020B020B02020B0202020B0230
:1039F0000202020B020B020B02020B020B020B0271
:103A00000202020B0202020B0218281828182818BA
:103A10002828182818281828182818281828182896
:103A20001828180B020B022818280B0202020B029E
:103A30001802020B020B020B02020B020B020B021A
:103A40000202020B0202020B025050505050505022
:103A500050ADADAD50ADADADADADA4AD50ADA4ADBF
:103A6000ADADADAD50ADADADAD505050505050506E
:103A700050ADADADADADADAD50ADA4ADADADA4AD42
:103A800050ADADADADADADAD50A5A5A5A5A5A5A558
:103A9000A5A4A4A4A4A4A4A4A4A4A4A4A4A4A4A4E5
:103AA000A4ADADAD50ADADADAD5050505050505037
:103AB00050ADADADADADADAD50ADA4ADADADA4AD02
:103AC00050ADADADADADADAD5065656565656565D8
:103AD000655D66655D65666665656565665D6565AA
:103AE0005D655C6565656565656565656565656597
:103AF00065656565656565655C5C5C6565655C659A
:103B0000655C5C5C5C5C5C5C5C5C1C65655D5C5C19
:103B1000651313131413655D655C65131465651CEB
:103B20006513135C131365136514145C135D5C1348
:103B3000131C13135C5C5C5C5C1C145C131313138C
:103B400013135C655C13135C131414021D1D140223
:103B5000020214021D1414020202020202140202E2
:103B60001D14141402021D1D1D1414020214141439
:103B700014020202021414020214141402020202B9
:103B80001D14141414140214141414141D1D1D1DDA
:103B90001D0202020202020214141D1D1D1D140248
:103BA0000214140202020202140202021D1D140277
:103BB000021414140202021D1D0202020214021455
:103BC00014141D1D14140202021D1D1D14141414BE
:103BD0001414141402020202020202020214141447
:103BE000141D1D1D140202020202020202021D1D0A
:103BF0000214141402020214140202020214020239
:103C00000214141D1D1D1D14146464646464646432
:103C1000806464646464646480646464646464642C
:103C200080646464646464808064646464646480E4
:103C30008064646464648080806464646480808080
:103C40008064648080808080800F0F020202020FF7
:103C50000F3F0F020202020F3F3F0F0F02020F0F32
:103C60003F2F3F3F02023F3F2F2F2F2F2F2F2F2F6E
:103C70002F2F2F2F2F2F2F2F2F2F2F2F2F2F2F2F54
:103C80002F2F2F2F2F2F2F2F2FFFFFFFFFFFFFFF94
:103C9000A3FFFFFFFFFFFFFFA3A3FFFFFFFFFFA3A4
:103CA000A0A3FFFFFFFFFFA3A0A0A3FFFFFFA3A010
:103CB000A0A0A3FFFFFFA3A0A0A0A0A3FFA3A0A07C
:103CC000A0A0A0A3FFA3A0A0A00923230909232348
:103CD0000909090923230909090906060606060632
:103CE000090606060606060606090606060606066E
:103CF0000909090606060609090906067777060670
:103D0000090606770202770606271F271F1F1F27AF
:103D10001F1F1F1F271F271F1F271F271F1F2F277B
:103D20001F1F272F1F271F1F1F1F1F271F2F1F2763
:103D30001F1F271F271F1F2F1F1F1F2F1F1F271F5B
:103D4000271F1F1F271F1F1F1FD9C9D9C9C9C9D99D
:103D5000C9C9C9C9D9C9D9C9C9D9C9D9C9C9DBD971
:103D6000C9C9D9DBC9D9C9C9C9C9C9D9C9DBC9D95F
:103D7000C9C9D9C9D9C9C9DBC9C9C9DBC9C9D9C95F
:103D8000D9C9C9C9D9C9C9C9C92B292B2929292BDD
:103D9000292929292B292B29292B292B29292C2B86
:103DA00029292B2C292B29292929292B292C292B75
:103DB00029292B292B29292C2929292C29292B2967
:103DC0002B2929292B2929292913131313131313F9
:103DD0002F131313131313132F2F13131313132F43
:103DE000772F13131313132F77772F1313132F77A3
:103DF00077772F1313132F777777772F132F777703
:103E00007777772F132F7777777777772F132F772A
:103E1000777777772F132F777777772F1313132FE2
:103E20007777772F1313132F77772F13131313131A
:103E30002F772F13131313132F2F1313131313137E
:103E4000132F13131313131313A0A0A0A3FFA3A0E6
:103E5000A0A0A0A0A3FFA3A0A0A0A0A3FFFFFFA3DA
:103E6000A0A0A0A3FFFFFFA3A0A0A3FFFFFFFFFF51
:103E7000A3A0A3FFFFFFFFFFA3A3FFFFFFFFFFFF21
:103E8000FFA3FFFFFFFFFFFFFFA4A4A4A4A4A4A41B
:103E9000A400000000000000A400000000000000DA
:103EA000A400000000000000A400000000000000CA
:103EB000A400000000000000A400000000000000BA
:103EC000A400000000000000A40D0D0D0D0D0D0D4F
:103ED0000D0D0D0D0D0D0D0D0D0C0C0C0C0C0C0C19
:103EE0000C0C0C0C0B0B0C0C0C0C0C0C0B0B0C0C16
:103EF0000C0C0C0C0C0C0C0C0C0D0D0D0D0D0D0DFB
:103F00000D0D0D0D0D0D0D0D0D0000000A0A000028
:103F100000000A0A0A0A0A0A00000A0A0B0B0A0A27
:103F2000000A0A0B0B0B0B0A0A0A0A0B0B0B0B0AF3
:103F30000A000A0A0B0B0A0A00000A0A0A0A0A0AFD
:103F4000000000000A0A000000BFBFBFBFBFBFBF24
:103F5000BFBFBFBFBFBFBFBFBFBFBFBFBFBFBFBF71
:103F6000BFBFBFBF0000000000BFBFBF0000000018
:103F700000BFBFBF0000000000BFBFBF00000000C7
:103F800000BFBFBF0000000000BFBFBFBFBFBFBFBB
:103F9000BFBFBFBFBFBFBFBFBFBFBFBFBFBFBFBF31
:103FA000BF00000000000000000000000000000052
:103FB0000000000000000000000000000000000001
:103FC000000000000000000000BFBFBFBFBFBFBFB8
:103FD000BFBFBFBFBFBFBFBFBFBFBFBFBFBFBFBFF1
:103FE000BF0000000000BFBFBF0000000000BFBF57
:103FF000BF0000000000BFBFBF0000000000BFBF47
:10400000BF0000000000BFBFBFBFBFBFBFBFBFBF7B
:10401000BFBFBFBFBFBFBFBFBFBFBFBFBFBFBFBFB0
:10402000BF000000000000020200000002020202C5
:104030000200000002020202020002020202020268
:10404000020002020202020202BFBFBFBFBFBFBF27
:10405000BFBFBFBFBFBFBFBFBFBFBFBFBFBFBFBF70
:10406000BF02020000000000000202020202000083
:104070000002020202020000000202020202020228
:104080000002020202020202000000000000000022
:104090000000000000000000000000000000000020
:1040A00000000000E3000000000000E3FFE3000068
:1040B00000000000E300000000000000000000001D
:1040C00000000000000000000000000000000000F0
:1040D00000000000000000000000000000000000E0
:1040E00000000000D2000000000000D2E3D2000077
:1040F00000000000D20000000000000000000000EE
:10410000000000000000000000BFBFBF0000000072
:1041100000BFBFBF0000000000BFBFBF0000000025
:1041200000BFBFBF0000000000BFBFBF0000000015
:1041300000BFBFBF0000000000BFBFBF0000000005
:1041400000BFBFBF00000000000000000000BFBFB4
:10415000BF0000000000BFBFBF0000000000BFBFE5
:10416000BF0000000000BFBFBF0000000000BFBFD5
:10417000BF0000000000BFBFBF0000000000BFBFC5
:10418000BF0000000000BFBFBF0002020202020227
:104190000200020202020202020202020002020203
:1041A0000202020202000202022702027702020257
:1041B00002272727770202020200272777770707BF
:1041C0000700777777777727270202020202020239
:1041D00000020202020202020002020202000202C5
:1041E00002020202000202020202020202020207AC
:1041F0000702020202020707070707070707070768
:1042000000272727070707070077777777777777DC
:10421000270002777777272727000002777727275D
:10422000270000007702070707000000770202025C
:10423000070000007702020202000000770202027B
:104240000200000077000002022727270707070760
:10425000002727270707070200270707070702008D
:104260000007070702020000000702020202000026
:10427000000202020200000000020202020000002E
:10428000000202000000000000BFBFBFBFBFBFBFF1
:10429000BFBFBFBFBFBFBFBFBFBFBFBFBFBFBFBF2E
:1042A000BFBFBFBFBFBFBFBFBFBFBFBFBFBFBFBF1E
:1042B000BFBFBFBFBFBFBFBFBFBFBFBFBFBFBFBF0E
:1042C000BFBFBFBFBFBFBFBFBF0000000000000037
:1042D0000000000000000096960000000000969686
:1042E0009600000000969696960000009696969688
:1042F00096000096969696969600009696969696B6
:104300009600969696969696960096969696969679
:1043100000969696969696969696969696969696D3
:10432000969696969696969696969696969696962D
:10433000969696969696969696969696969696961D
:104340009696969696969696960000000000000027
:10435000009696000000000000969696000000006F
:104360000096969696000000009696969696000007
:104370000096969696969600009696969696960035
:104380000096969696969696000096969695969690
:104390009600969696959696969696969696959655
:1043A00096969696969695969696969696969695AF
:1043B000969696969696BF95969584969696BF965F
:1043C000958C83838C96BF9696969696969696969F
:1043D000969696969696969696969696969696967D
:1043E000969696969696969696969696969696966D
:1043F000969696969696969696969696969696965D
:10440000969696969696969696969696959696964D
:10441000009696969596969600969695969696966A
:10442000969696959696969696969596969696962E
:104430009696959696969695969596969696959521
:104440009596969696948C8C95BFBFBF0000000001
:1044500000BFBFBF0000000000BFBFBF00000000E2
:1044600000BFBFBF0000000000BFBFBF00000000D2
:1044700000BFBFBFBFBFBFBFBFBFBFBFBFBFBFBF0B
:10448000BFBFBFBFBFBFBFBFBF0000000000000075
:10449000000000000000000000000000000000001C
:1044A000000000000000000000000000000000000C
:1044B00000BFBFBFBFBFBFBFBFBFBFBFBFBFBFBFCB
:1044C000BFBFBFBFBFBFBFBFBF0000000000BFBFB7
:1044D000BF0000000000BFBFBF0000000000BFBF62
:1044E000BF0000000000BFBFBF0000000000BFBF52
:1044F000BFBFBFBFBFBFBFBFBFBFBFBFBFBFBFBFCC
:10450000BFBFBFBFBFBFBFBFBF8282828282BF9615
:104510009600D8D8D8BFFFBF8200D8D8BFFFFFFF12
:10452000BF00D8BFFFFFFFFFFFBFBFFFFFFFFFFFC1
:10453000FF0000BFFFFFFFFFFF000094BFFFFFFF72
:10454000BF0000008CBFFFBFD896969696969696B1
:104550009683838C8C8C8C8C83D8D8D8D8D8D8D898
:10456000D8BFD8D8D8D8D8D8D8FFBFBFD8D8D8D8EF
:10457000D8BFD8D8D8D8D8D8D8D8D8D8D8D8D8D8D4
:10458000D8D8D8D8D8D8D8828296968C83838C8C69
:104590008C8382838383838C008282828383838360
:1045A000008282828383838300D882828383838391
:1045B00000828282838383000082828383839500CA
:1045C000008282838395000000404040404040408C
:1045D000404040404040404040C0C0C0C0C0C0C05B
:1045E000C0C0C0C0C0C0C0C0C0E0E0E0E0E0E0E0EB
:1045F000E0E0E0E0E0E0E0E0E0F0F0F0F0F0F0F04B
:10460000F0F0F0F0F0F0F0F0F00000009695FFD838
:10461000D80000000096FF83820000000000FF9693
:10462000960000000000BF96960000000000BF96B4
:10463000960000000000BF96960000000000BF003A
:10464000000000000000770000D8D8D88282828263
:104650008282828282828383838C8C838383838C15
:1046600095969696969696969696969696969696EB
:1046700096969696969696969696969696969696DA
:1046800096009696969696960083838C9596000053
:1046900000838C969600000000969696000000001D
:1046A000009696960000000000969600000000001C
:1046B00000969600000000000000000000000000CE
:1046C000000000000000000000F8F8F8F8F8F8F822
:1046D000F8F8F8F8F8F8F8F8F8F9F9F9F9F9F9F953
:1046E000F9F9F9F9F9F9F9F9F9FAFAFAFAFAFAFA33
:1046F000FAFAFAFAFAFAFAFAFAFBFBFBFBFBFBFB13
:10470000FBFBFBFBFBFBFBFBFB000000000077005F
:1047100000000000000077000000000000007700AB
:10472000000000000000770000000000000077009B
:104730000000000000007700000000000000000002
:104740000000000000000000000000000000000069
:104750000000003F3F3F3F2F00003F3F2F003F3F03
:104760002F003F3F2F3F3F3F2F003F3F3F2F3F3F17
:104770002F003F3F2F003F3F2F00003F3F3F3F2F85
:104780000000000000000000000000000000000029
:10479000000000003F3F2F000000003F3F3F2F0080
:1047A000000000003F3F2F00000000003F3F2F00AF
:1047B000000000003F3F2F0000003F3F3F3F3F3FD2
:1047C0002F000000000000000000000000000000BA
:1047D0000000003F3F3F3F2F00003F3F00003F3FB2
:1047E0002F000000003F3F2F000000003F3F2F0040
:1047F0000000003F3F2F000000003F3F3F3F3F3F92
:104800002F00000000000000000000000000000079
:1048100000003F3F3F3F3F3F2F000000003F3F2F42
:10482000000000003F3F2F0000000000003F3F2F2E
:1048300000003F3F00003F3F2F00003F3F3F3F2F22
:104840000000000000000000000000000000000068
:1048500000000000003F3F2F000000003F3F3F2FBF
:104860000000003F3F3F3F2F00003F3F003F3F2FF2
:1048700000003F3F3F3F3F3F2F000000003F3F2FE2
:104880000000000000000000000000000000000028
:1048900000003F3F3F3F3F3F2F003F3F2F000000C2
:1048A00000003F3F3F3F3F2F0000000000003F3F20
:1048B0002F003F3F00003F3F2F00003F3F3F3F2F73
:1048C00000000000000000000000000000000000E8
:1048D0000000003F3F3F3F2F00003F3F2F00000000
:1048E00000003F3F3F3F3F2F00003F3F2F003F3F33
:1048F0002F003F3F2F003F3F2F00003F3F3F3F2F04
:1049000000000000000000000000000000000000A7
:1049100000003F3F3F3F3F3F2F00000000003F3F70
:104920002F000000003F3F2F000000003F3F2F00FE
:104930000000003F3F2F00000000003F3F2F00001D
:104940000000000000000000000000000000000067
:104950000000003F3F3F3F2F00003F3F2F003F3F01
:104960002F00003F3F3F3F2F00003F3F2F003F3FC2
:104970002F003F3F2F003F3F2F00003F3F3F3F2F83
:104980000000000000000000000000000000000027
:104990000000003F3F3F3F2F00003F3F2F003F3FC1
:1049A0002F00003F3F3F3F3F2F00000000003F3FF0
:1049B0002F000000003F3F2F0000003F3F3F2F002F
:1049C00000000000000000000000000000000000E7
:1049D00000000000FFFFE300000000FFFFFFFFE317
:1049E0000000FFFFE300FFFFE300FFFFE300FFFF26
:1049F000E300FFFFFFFFFFFFE300FFFFE300FFFF18
:104A0000E3000000000000000000000000000000C3
:104A10000000FFFFFFFFFFE30000FFFFE300FFFFD9
:104A2000E300FFFFFFFFFFE30000FFFFE300FFFFE6
:104A3000E300FFFFE300FFFFE300FFFFFFFFFFE3F3
:104A40000000000000000000000000000000000066
:104A5000000000FFFFFFFFE30000FFFFE300FFFF98
:104A6000E300FFFFE30000000000FFFFE3000000A1
:104A70000000FFFFE300FFFFE30000FFFFFFFFE395
:104A80000000000000000000000000000000000026
:104A90000000FFFFFFFFE3000000FFFFE3FFFFE375
:104AA0000000FFFFE300FFFFE300FFFFE300FFFF65
:104AB000E300FFFFE3FFFFE30000FFFFFFFFE30072
:104AC00000000000000000000000000000000000E6
:104AD0000000FFFFFFFFFFFFE300FFFFE300000018
:104AE0000000FFFFFFFFFFE30000FFFFE300000007
:104AF0000000FFFFE30000000000FFFFFFFFFFFFDB
:104B0000E3000000000000000000000000000000C2
:104B10000000FFFFFFFFFFFFE300FFFFE3000000D7
:104B20000000FFFFFFFFFFE30000FFFFE3000000C6
:104B30000000FFFFE30000000000FFFFE3000000B3
:104B40000000000000000000000000000000000065
:104B5000000000FFFFFFFFFFE300FFFFE300000096
:104B60000000FFFFE30000000000FFFFE3FFFFFF86
:104B7000E300FFFFE300FFFFE30000FFFFFFFFFF95
:104B8000E300000000000000000000000000000042
:104B90000000FFFFE300FFFFE300FFFFE300FFFF74
:104BA000E300FFFFFFFFFFFFE300FFFFE300FFFF66
:104BB000E300FFFFE300FFFFE300FFFFE300FFFF71
:104BC000E300000000000000000000000000000002
:104BD0000000FFFFFFFFFFFFE3000000FFFFE30017
:104BE00000000000FFFFE30000000000FFFFE30003
:104BF00000000000FFFFE3000000FFFFFFFFFFFFDA
:104C0000E3000000000000000000000000000000C1
:104C10000000000000FFFFFFE30000000000FFFFB6
:104C2000E30000000000FFFFE30000000000FFFFC2
:104C3000E300FFFF0000FFFFE30000FFFFFFFFE3D3
:104C40000000000000000000000000000000000064
:104C50000000FFFFE300FFFFE300FFFFE3FFFFE3D0
:104C60000000FFFFFFFFE3000000FFFFFFFFE30086
:104C70000000FFFFE3FFFFE30000FFFFE300FFFF93
:104C8000E300000000000000000000000000000041
:104C90000000FFFFE30000000000FFFFE300000052
:104CA0000000FFFFE30000000000FFFFE300000042
:104CB0000000FFFFE30000000000FFFFFFFFFFFF19
:104CC000E300000000000000000000000000000001
:104CD00000FFFFE30000FFFFE3FFFFFFE3FFFFFF35
:104CE000E3FFFFFFFFFFFFFFE3FFFFE3FFE3FFFF44
:104CF000E3FFFFE30000FFFFE3FFFFE30000FFFF30
:104D0000E3000000000000000000000000000000C0
:104D10000000FFFFE300FFFFE300FFFFFFE3FFFFF3
:104D2000E300FFFFFFFFFFFFE300FFFFFFFFFFFFC9
:104D3000E300FFFFE3FFFFFFE300FFFFE300FFFFF0
:104D4000E300000000000000000000000000000080
:104D5000000000FFFFFFFFE30000FFFFE300FFFF95
:104D6000E300FFFFE300FFFFE300FFFFE300FFFFBF
:104D7000E300FFFFE300FFFFE30000FFFFFFFFE3AF
:104D80000000000000000000000000000000000023
:104D90000000FFFFFFFFFFE30000FFFFE300FFFF56
:104DA000E300FFFFE300FFFFE300FFFFFFFFFFE380
:104DB0000000FFFFE30000000000FFFFE300000031
:104DC00000000000000000000000000000000000E3
:104DD000000000FFFFFFFFE30000FFFFE300FFFF15
:104DE000E300FFFFE300FFFFE300FFFFE300FFFF3F
:104DF000E300FFFFE3FFFFE3000000FFFFE3FFFF2F
:104E0000E3000000000000000000000000000000BF
:104E10000000FFFFFFFFFFE30000FFFFE300FFFFD5
:104E2000E300FFFFE300FFFFE300FFFFFFFFFFE3FF
:104E30000000FFFFE3FFFFE30000FFFFE300FFFFD1
:104E4000E30000000000000000000000000000007F
:104E5000000000FFFFFFFFE30000FFFFE300000092
:104E6000000000FFFFFFFFE3000000000000FFFF65
:104E7000E30000000000FFFFE30000FFFFFFFFE38F
:104E80000000000000000000000000000000000022
:104E90000000FFFFFFFFFFFFE3000000FFFFE30054
:104EA00000000000FFFFE30000000000FFFFE30040
:104EB00000000000FFFFE30000000000FFFFE30030
:104EC00000000000000000000000000000000000E2
:104ED0000000FFFFE300FFFFE300FFFFE300FFFF31
:104EE000E300FFFFE300FFFFE300FFFFE300FFFF3E
:104EF000E300FFFFE300FFFFE300FFFFFFFFFFFF13
:104F0000E3000000000000000000000000000000BE
:104F10000000FFFF0000FFFFE300FFFF0000FFFFB6
:104F2000E300FFFF0000FFFFE300FFFF0000FFFFC3
:104F3000E30000FFFFFFFFE300000000FFFFE300CE
:104F40000000000000000000000000000000000061
:104F500000FFFFE30000FFFFE3FFFFE30000FFFFB0
:104F6000E3FFFFE3FFE3FFFFE3FFFFFFFFFFFFFFC1
:104F7000E3FFFFFFE3FFFFFFE3FFFFE30000FFFFAF
:104F8000E30000000000000000000000000000003E
:104F90000000FFFFE300FFFFE300FFFFE300FFFF70
:104FA000E30000FFFFFFFFE3000000FFFFFFFFE360
:104FB0000000FFFFE300FFFFE300FFFFE300FFFF50
:104FC000E3000000000000000000000000000000FE
:104FD0000000FFFFE300FFFFE300FFFFE300FFFF30
:104FE000E30000FFFFFFFFE300000000FFFFE3001E
:104FF00000000000FFFFE30000000000FFFFE300EF
:1050000000000000000000000000000000000000A0
:105010000000FFFFFFFFFFFFE300000000FFFFE3D2
:1050200000000000FFFFE300000000FFFFE30000BE
:105030000000FFFFE30000000000FFFFFFFFFFFF95
:10504000E30000000000000000ABABABABABABABD0
:10505000ABABABABABABABABABABABABABABABABA0
:10506000ABABABABABABABABABABABABABABABAB90
:10507000ABABABABABABABABABABABABABABABAB80
:10508000ABABABABABABABABABABABABABABABAB70
:10509000ABABABABABABABABABABABABABABABAB60
:1050A000ABABADADADADADADABAEAEAEAEAEAEAE2F
:1050B000AEABAEAEAEAEAEAEABABABABABABABAB2B
:1050C000ABABABABABABABABABACACACACACACAC29
:1050D000ACACACACACACACACACADADADADADADAD09
:1050E000ADADADADADADADADADAEAEAEAEAEAEAEE9
:1050F000AEAEAEAEAEAEAEAEAEAFAFAFAFAFAFAFC9
:10510000AFAFAFAFAFAFAFAFAFA0A0A0A0A0A0A018
:10511000A0A0A0A0A0A0A0A0A0A0A0A0A0A0A0A08F
:10512000A0A0A0A0A0A0A0A0A0A0A0A0A0A0A0A07F
:10513000A0A0A0A0A0A0A0A0A0A0A0A0A0A0A0A06F
:10514000A0A0A0A0A0A0A0A0A0A0A0A0A0A0A0A05F
:10515000FFA0A0A0A0A0A0FFFFA0A0A0A0A0FFFF74
:1051600002A0A0A0A0FFFF0202A0A0A0FFFF0202D9
:1051700002A0A0FFFF02020202A0FFFF0202020241
:1051800002FFFF020202020202FF02020202020208
:1051900002FF0202020202020202020202020202F2
:1051A00002020202020202020202020202020202DF
:1051B00002020202020202020202020202020202CF
:1051C000020202020202020202FFFFFFFFFFFFFFD4
:1051D000FF020202020202020202020202020202B2
:1051E00002A0A0A0A0A0A0A0A0A0A0A0A0A0A0A05D
:1051F000A0A0A0A0A0A0A0A0A0A0A0A0A0A0A0A0AF
:10520000A0A0A0A0A0A0A0A0A0FFFFFFFFFFFFFF05
:10521000FF0202FFFFFFFF0202020202FFFF020283
:1052200002A0A0A0FFA0A0A0A0A0A0A0A0A0A0A0BD
:10523000A0A0A0A0A0A0A0A0A0A0A0A0A0A0A0A06E
:10524000A0A0A0A0A0A0A0A0A002020202020202B0
:10525000020202020202020202020202020202022E
:10526000020202020202020202020202020202021E
:10527000020202020202020202020202020202020E
:1052800002020202020202020202020202020202FE
:1052900002020202020202020202020202020202EE
:1052A000020202020202020202020202FFFF0202E4
:1052B000020202FFFFFFFF020202FFFFFFFFFFFFEC
:1052C00002FFFFFFFFFFFFFFFF07070707070707B3
:1052D000070707070707070707070707070707075E
:1052E000070707070707070707070707070707074E
:1052F000070707070707070707070707070707073E
:10530000070707070707070707070707070707072D
:105310000707070707070707070606060606060624
:105320000606060606060606060505050505050524
:105330000505050505050505050404040404040424
:105340000404040404040404040303030303030324
:10535000030303030303030303030303030303031D
:10536000030303030303030303030303030303030D
:1053700003030303030303030303030303030303FD
:1053800003030303030303030303030303030303ED
:105390001F0303030303030F0603030303030202B4
:1053A00006030303030202020603030302020202CE
:1053B00006030302020202060203020202020202C2
:1053C0000202020202020202021F2F2F2F2F2F2F92
:1053D0001F0606061F1F1F06020202061F061F06E3
:1053E0000202020602061F06020202060206060268
:1053F0000602060602020602060206020202060271
:105400000606020202020602021F0303030303034D
:1054100003060F030303030303060202030303034C
:105420000306020202030303030606020202030349
:105430000302020202020203030202020202020249
:105440000306020202020202020303030303030330
:105450000203030303030302020303030303020221
:105460000203030303020202020303030202020215
:105470000203030202020202020302020202020209
:1054800002020202020202020202030303030303F6
:1054900003020203030303030302020203030303E1
:1054A00003020202020303030302020202020303D5
:1054B00003020202020202030302020202020202C9
:1054C000030202020202020202090909080808187E
:1054D00018080909180818080809091818081818D8
:1054E00018080818080808081818080818080808EC
:1054F00008081818181808180808080808080818CC
:10550000081818181818081818181818080818185B
:10551000180808081808081818180818181808088B
:10552000081808081818081818180818181808086B
:10553000180818080808080818081818081818087B
:10554000181818180808080818180808080808186B
:10555000180808181808180808081818180818183B
:10556000180808180808080818180808180808086B
:10557000080818181818081808080808080808184B
:1055800008181818181808181818181808080909F9
:105590000908080818080909091808181818080936
:1055A00009180808181808181818081818180808EA
:1055B00018081808080808081808181808181808FB
:1055C00018181818080808081818080808080818EB
:1055D00018090818180818080809180918081818C8
:1055E00018090918080808081809090918080808F6
:1055F0000809090909091818080809090909090900
:1056000018090909090909090918181808081818B2
:1056100009080808180809090918081818180909B4
:1056200009180808180908090918081809090909B2
:1056300009081809090809080908090908090909D0
:1056400009090909090909090909090909090909CA
:1056500009090909090909090909090909090909BA
:1056600009090909090909090909090909090909AA
:10567000090909090909090909090909090909099A
:1056800009090909090909090914021414021D1458
:105690000214020214021D1402141D0214021D023F
:1056A000021D1D021D021D1D021D02021D02141DF0
:1056B000021D02141D02021D141D02141D14021DE0
:1056C000141D02141D14021D14141D14021D1402B5
:1056D00014141D14021D1402141D1D02141D1402A5
:1056E000141D1D02141D02141D021D02021D0214B0
:1056F0001D021D14021D02141D021D14021D1402A0
:105700001D021D02141D1402141D02021D02021DA1
:10571000021D14021D02141D021D14021D021D1D76
:10572000021D140214021D14021D140214021D1D78
:10573000021D14021402021D141414021402021D8C
:105740001D020202140214141D021D021D1D14026A
:1057500014141D02141D1402141D1D02141D1D021B
:1057600014141D02141D1D0214021D02021D140238
:1057700014021D02021D020214021D02141D021D4C
:1057800014021402141D021D1464646464646464CD
:1057900064646464646464646464646464646464C9
:1057A00064646464646464646464646464646464B9
:1057B00064646464646464646464646464646464A9
:1057C0006464646464646464646464646464646499
:1057D0006464646464646464646464646464646489
:1057E0002D646464646464642D6464646464642D1E
:1057F0002D64646464642D2D2D646464642D2D2DEA
:105800002D646464642D2D2D2D642D2D2D2D2D2DB5
:105810002D2D2D2D2D2D2D2D2D2D2D2D2D2D2D2DB8
:105820002D2D2D2D2D2D2D2D2D2D2D2D2D2D2D2DA8
:105830002D2D2D2D2D2D2D2D2D2D2D2D2D2D2D2D98
:105840002D2D2D2D2D2D2D2D2D2D2D2D64646464AC
:10585000642D2D2D2D646464642D2D2D2D646464C0
:10586000642D2D2D2D646464642D2D2D2D646464B0
:10587000642D2D2D2D646464642D2D2D2D646464A0
:10588000642D2D2D2D6464646464646464646464B4
:1058900064646464646464646480646464646464AC
:1058A0006480806464646464648080646464646448
:1058B00064808080646464646480808080646464E4
:1058C000648080808080806464646464642D2D2D95
:1058D0002D646464642D2D2D2D806464642D2D2D24
:1058E0002D808064642D2D2D2D80806464642D2D89
:1058F0002D80808064642D2D2D8080808064642DB7
:105900002D80808080808064642D2D2D2D2D2D2D67
:105910002D2D2D2D2D2D2D2D2D2D2D2D2D2D2D2DB7
:105920002D2D2D2D2D2D2D2D2D2D2D2D2D2D2D2DA7
:105930002D2D2D2D2D2D2D2D2D2D2D2D2D2D2D2D97
:105940002D2D2D2D2D2D2D2D2D2D2D2D2D646464E2
:10595000802D2D2D2D646464802D2D2D6464646450
:10596000802D2D2D64646480802D2D2D64646480D1
:10597000802D2D6464648080802D2D6464808080FF
:10598000802D648080808080808080808080808086
:105990008080808080808080808080808080808007
:1059A00080808080808080808080808080808080F7
:1059B00080808080808080808080808080808080E7
:1059C00080808080808080808080808080808064F3
:1059D00064808080806464646480808064646464C3
:1059E0002E808064646464642E8080646464642DAA
:1059F0002E80646464642D2E2E646464642D2E2EC7
:105A00002E646464642D2E2E2E642E2E2E2E2D2DAB
:105A10002D2E2E2E2E2E2E2D2D2E2E2E2E2E2E2DAA
:105A20002D2E2E2E2E2E2D2D2D2E2E2E2E2E2D2D9C
:105A30002D2E2E2E2E2E2D2D2D2E2E2E2E2D2D2D8D
:105A40002D2E2E2E2E2E2D2D2D2D2D2D8080808035
:105A5000802D2D2D2D808080802D2D2D2D648080FA
:105A6000802D2D2D2D646480802D2D2D2D6464645A
:105A7000802D2D2D2D646464802D2D2D2D64646466
:105A8000642D2D2D2D64646464646464642D2E2E55
:105A90002E646464642D2E2E2E806464642D2E2E5C
:105AA0002E808064642D2E2E2E80806464642E2EC1
:105AB0002E80808064642D2D2E8080808064642DF3
:105AC0002D80808080808064642E2E2E2E2E2D2DA1
:105AD0002D2E2E2E2E2E2D2D2D2E2E2E2E2E2D2DEC
